:020000040000FA
:0400000080311E2805
:1000060008007E1480312000111C1C282100111CC0
:100016001C28200011100130F00070082300D107C1
:100026003D305106031D1C280130F0007008D20037
:10003600D1017E10090080312028003084008830EC
:10004600850023001200D4001200D5001200D6004D
:100056001200D7001200D8001200D9001200DA00F0
:1000660071308400273085007F30FE000030FF00AD
:10007600903101208031FC01A030840001308500E0
:100086003430FE000030FF009031012080312030F6
:100096008400023085005030FE000030FF009031B1
:1000A60001207E102000A831EE282100C501C601DE
:1000B6002508DA002408D9002308D8002208D7002A
:1000C6005A082000DD00210059082000DC0021002C
:1000D60058082000DB00210057082000DA00003015
:1000E600E1000030E0000030DF000030DE00AC311F
:1000F600EB2480310318982801302100C500003018
:10010600C6005A08F4005908F3005808F2005708C8
:10011600F100B631A026803174082100DA00730898
:10012600D9007208D8007108D7002100DD01DE0170
:1001360023003F082100CB0023003E082100CA000F
:1001460045084604031DAA282300421DC328210092
:1001560045084604031DB1282B30B2282D30AF00C8
:100166000030B0002F08A70027082400A0000130A7
:100176002100DD070030DE3DFF30CA07FF30CB3DF2
:1001860021005A08F4005908F3005808F2005708ED
:10019600F100AC317324803171037204031D2129EF
:1001A60021002608BF3EA700FF3003180030A80034
:1001B600003028021A30031927020318E4280130F8
:1001C600E5280030A900AA012908B1002A08B200D2
:1001D600310832040319F3283830F100B830F62814
:1001E6004830F100B830F2005D08203EA8312220E8
:1001F6008031FD302100CA07FF30CB3D21082000A9
:10020600A700210020082000A60020302100A7001A
:1002160027082000A80021004B082000AA00210082
:100226004A082000A900AB3102232000270821003C
:10023600A100200026082100A000080021005A087D
:10024600F4005908F3005808F2005708F100AC31E1
:100256007324803171087204031D7F29210026084A
:10026600BF3EA700FF3003180030A8000030280268
:100276001A30031927020318422901304329003096
:10028600A900AA012908B3002A08B40033083404D7
:10029600031951293C30F100B83054295030F1008F
:1002A600B830F2005D08203EA83122208031FD30B2
:1002B6002100CA07FF30CB3D21082000A7002100FE
:1002C60020082000A60020302100A70027082000D3
:1002D600A80021004B082000AA0021004A0820009F
:1002E600A900AB310223200027082100A10020002D
:1002F60026082100A00008003F302100E2008030DF
:10030600E1000030E0000030DF00DB01DC015A08CC
:10031600F4005908F3005808F2005708F1000030BD
:10032600F8000030F7000030F6000030F500AA3182
:1003360069228031031CD0295F2A41302000A900A0
:100346002030A8000030A7000030A6002100620877
:100356002000AD00210061082000AC0021006008EB
:100366002000AB0021005F082000AA009531D425AB
:100376008031200029082100E20020002808210001
:10038600E100200027082100E000200026082100C7
:10039600DF000130DB070030DC3D21005A08200079
:1003A600DD00210059082000DC002100580820004B
:1003B600DB00210057082000DA004130A900203078
:1003C600A8000030A7000030A60021006208200027
:1003D600AD00210061082000AC002100600820006B
:1003E600AB0021005F082000AA009531D42580319A
:1003F60020002908E1002808E0002708DF00260879
:10040600DE00AC31EB248031031C3A2AA0294130AE
:100416002000C3002030C2000030C1000030C00000
:10042600210062082000C700210061082000C600E4
:10043600210060082000C50021005F082000C400DC
:10044600903161208031200043082100E200200025
:1004560042082100E100200041082100E0002000C0
:1004660040082100DF00FF30DB07FF30DC3D2100C4
:100476005A082000DD00210059082000DC00210078
:1004860058082000DB00210057082000DA00210070
:1004960062082000E100210061082000E000210040
:1004A60060082000DF0021005F082000DE00AC317C
:1004B600EB248031031C0A2A21002608A700A80184
:1004C6002708F7002808F800A8318420803177082B
:1004D6002100A9002908CC004C08A7002708C9005C
:1004E60067304C06031D932A230040084104031D70
:1004F600802A0130C0000030C1004108803A210046
:10050600A70080302702031D8B2A013023004002FA
:100516000318962A06302100C7000030C8009E2A1C
:100526002300C11B8D2A230041082100C800230097
:1005360040082100C70067304C06031DC72A5C0827
:10054600803AA7007F302702031DAB2AFC305B02EE
:10055600031CC22A21004708FF3EA700FF30483D82
:10056600A8002808803AA9005C08803A2902031DE1
:10057600BE2A5B082702031CC22A6630C32A6530DE
:100586002100A7002708C9004808C0004708BF0087
:1005960067304C06031DD42A663049060319DC1F52
:1005A600D82A0130BF070030C03D66304906031D1A
:1005B600F02ADC1FE82A3F30E2008030E1000030FC
:1005C600E0000030DF00DB01DC0167304C06031978
:1005D600F02A5B08BF075C08C03DD501D6015A0862
:1005E600D0005908CF005808CE005708CD00620841
:1005F600AE006108AD006008AC005F08AB005608AD
:10060600803AA7004008803A2702031D0C2B3F08BA
:1006160055020318E62B210062082000C3002100C2
:1006260061082000C200210060082000C1002100EE
:100636005F082000C000210050082000C7002100EC
:100646004F082000C60021004E082000C5002100EA
:100656004D082000C40090316120803120004308FD
:10066600DD004208DC004108DB004008DA00A53165
:100676006B25803120005D082100D40020005C0835
:100686002100D30020005B082100D20020005A0878
:100696002100D10054082000DD002100530820006D
:1006A600DC00210052082000DB0021005108200058
:1006B600DA00AB31A423803120005B082100C4009E
:1006C60020005A082100C30054082000AD00210074
:1006D60053082000AC00210052082000AB00210086
:1006E60051082000AA00210062082000A90021006C
:1006F60061082000A800210060082000A700210052
:100706005F082000A6009531D425803120002908F5
:10071600C3002808C2002708C1002608C00021001F
:1007260050082000C70021004F082000C600210005
:100736004E082000C50021004D082000C400A83145
:1007460003208031200043082100D0002000420809
:100756002100CF00200041082100CE0020004008E3
:100766002100CD0041302000C3002030C2000030FF
:10077600C1000030C000210062082000C70021002F
:1007860061082000C600210060082000C500210085
:100796005F082000C40090316120803120004308AA
:1007A6002100E200200042082100E100200041086B
:1007B6002100E000200040082100DF000130D507BD
:1007C6000030D63D022B40302000A900A030A80002
:1007D6000030A7000030A600210062082000AD000E
:1007E600210061082000AC00210060082000AB0059
:1007F60021005F082000AA009531D4258031200011
:1008060029082100D400200028082100D300200058
:1008160027082100D200200026082100D100500818
:100826002000DD0021004F082000DC0021004E08DA
:100836002000DB0021004D082000DA0021005408CA
:100846002000E100210053082000E00021005208AA
:100856002000DF00210051082000DE00AC31EB242F
:1008660080310318392C00302100532C2100500808
:10087600F4004F08F3004E08F2004D08F10054084A
:10088600F8005308F7005208F6005108F500AA319F
:1008960069228031031C5A2C210043185A2C00303F
:1008A600D4000030D3000030D2000030D100210047
:1008B6005408F4005308F3005208F2005108F100FE
:1008C6005A08F8005908F7005808F6005708F500C6
:1008D6009131DB21803174082100D0007308CF00EC
:1008E6007208CE007108CD002E08E2002D08E10046
:1008F6002C08E0002B08DF00653049060319882C18
:100906005C08C2005B08C1008A2CC101C201BD019E
:10091600BE01BB01BC01D501D601C52D210062086F
:100926002000C300210061082000C20021006008E9
:100936002000C10021005F082000C00021005008EF
:100946002000C70021004F082000C60021004E08E5
:100956002000C50021004D082000C4009031612010
:10096600803120004308DD004208DC004108DB003E
:100976004008DA00A5316B25803120005D08210092
:10098600D40020005C082100D30020005B08210071
:10099600D20020005A082100D10054082000DD00B2
:1009A600210053082000DC00210052082000DB0053
:1009B600210051082000DA00AB31A4238031200049
:1009C6005B082100C40020005A082100C300230050
:1009D600421AFC2C210043084404031DFC2C6730FA
:1009E6004C060319C21FFC2C0130BB070030BC3D6E
:1009F600432D21003D083E040319C21F172D2E303A
:100A0600A7005D08203E8600023087002708810087
:100A16000130DD070030DE3DFF30CA07FF30CB3D39
:100A26000130BD000030BE003B083C040319312DE7
:100A36003030A7005D08203E860002308700270878
:100A460081000130DD070030DE3DFF30CA07FF3090
:100A5600CB3DFF30BB07FF30BC3D172D4308303E72
:100A6600A7005D08203E8600023087002708810027
:100A76000130DD070030DE3DFF30CA07FF30CB3DD9
:100A860054082000AD00210053082000AC002100CE
:100A960052082000AB00210051082000AA002100C6
:100AA60062082000A900210061082000A80021009A
:100AB60060082000A70021005F082000A6009531ED
:100AC600D425803120002908C3002808C200270841
:100AD600C1002608C000210050082000C7002100E0
:100AE6004F082000C60021004E082000C500210046
:100AF6004D082000C400A83103208031200043089F
:100B06002100D000200042082100CF00200041082B
:100B16002100CE00200040082100CD0041302000F9
:100B2600C3002030C2000030C1000030C0002100E8
:100B360062082000C700210061082000C6002100CD
:100B460060082000C50021005F082000C400903125
:100B560061208031200043082100E2002000420885
:100B66002100E100200041082100E00020004008AB
:100B76002100DF00FF30C107FF30C23D0130D5073D
:100B86000030D63D5608803AA7004008803A270232
:100B9600031DCF2D3F0855020318DD2D21005E08E9
:100BA600803AA70080302702031DDB2D4B305D0203
:100BB600031C912C21003D083E04031DF32D230048
:100BC600421EF32D2E302100A7005D08203E860030
:100BD60002308700270881000130DD070030DE3D46
:100BE60021005D08203E86000230870081016530C5
:100BF6004906031DB42E4F30D5000030D6005508E7
:100C0600203E8600023087008101C501C601DC1F37
:100C1600152E0130C5000030C600DB09DC09DB0AF1
:100C26000319DC0A0230C7000030C8005B085C0408
:100C36000319512EFF302100D507FF30D63D0A306B
:100C4600F1000030F2005C08F4005B08F300AA3102
:100C5600242280317108303E2100A7005508203E2D
:100C6600860002308700270881000A30F100003034
:100C7600F2005C08F4005B08F300AB3153238031CB
:100C860072082100DC007108DB00FF30C707FF3067
:100C9600C83DFF30CA07FF30CB3D192E4808803AC1
:100CA600A70080302702031D5A2E01304702031881
:100CB6001D2EFF302100D507FF30D63D45084604DE
:100CC600031D672E2B30682E2D30B5000030B60080
:100CD6003508A7005508203E860002308700270801
:100CE6008100FF30CA07FF30CB3DFF30D507FF300C
:100CF600D63D2608BF3EA700FF3003180030A800E7
:100D0600003028021A300319270203188C2E0130EE
:100D16008D2E0030A900AA012908B9002A08BA00B8
:100D260039083A04031D992E65309A2E4530B700CE
:100D36000030B8003708A7005508203E860002306C
:100D4600870027088100FF30CA07FF30CB3D5508D2
:100D5600203EF1000230F2005D08203EA83122203C
:100D66008031210021082000A70021002008200052
:100D7600A60020302100A70027082000A800210097
:100D86004B082000AA0021004A082000A900AB3128
:100D96000223200027082100A100200026082100A8
:100DA600A000080044302100A3007A30A2000030E1
:100DB600A1000030A000F8302300D0052100A801D2
:100DC600A901230035082000A900230034082000CB
:100DD600A800230033082000A700230032082000C3
:100DE600A6006908F4006808F3006708F2006608C0
:100DF600F1000130AF316A27863174082000AD005A
:100E06007308AC007208AB007108AA009531D425AE
:100E16008631200029082100A7002000280821008B
:100E2600A600200027082100A50020002608210092
:100E3600A40044302000C3007A30C2000030C10054
:100E46000030C000210023082000A900210022084C
:100E56002000A800210021082000A700210020086A
:100E66002000A600210027082000AD00210026084A
:100E76002000AC00210025082000AB00210024083A
:100E86002000AA009531D425863120002908C70004
:100E96002808C6002708C5002608C400903161202E
:100EA600863120004308DD004208DC004108DB00F3
:100EB6004008DA00210029088500280884008435C6
:100EC600850D10308407B830853D003F2000EC00CA
:100ED600013FED006C08F1006D08F200890D893BB9
:100EE6008909F300F4000130AF316A2786317408AE
:100EF6002000E1007308E0007208DF007108DE00E0
:100F0600AC31EB248631031C902F230050082100BE
:100F16002806F83928062300D00001302100A8074A
:100F26000030A93D00302902073003192802031CAE
:100F3600E42EE7302300D00507302100AA00003058
:100F4600AB0021002B0885002A0884008435850D16
:100F560030308407B830853D003F2000EC00013F6B
:100F6600ED006B08803AEE006D08803A6E02031DB4
:100F7600BE2F6C086A02031CD02F21002A0820000D
:100F8600EC00EC0DEC0DEC0D2300500820006C0677
:100F9600E7396C062300D0000800FF302100AA07BD
:100FA600FF30AB3D2B08803A2000EC0080306C020D
:100FB600031DE02F013021002A02031C0800A42F84
:100FC60020307104F30000307204F40073089F3E71
:100FD600F500FF30743DF600003076021A30031932
:100FE60075020318F82F0130F92F0030F700F801C9
:100FF6007708F1007808F200080028346E3475345A
:101006006C346C342934003421000D1123000D1189
:1010160021008D1523008D110E128E1221000E1641
:101026008E160C128C12101055303C008F00AA3010
:101036008F000F103D002408E0391138A4003C0051
:101046002108E0391438A1002008E0391538A0003D
:101056003D002508E0391038A5001A08E039143893
:101066009A003C002408E0390B38A40055308F0064
:10107600AA308F000F14080021006508860087013A
:10108600403FF100413FF2008230F300B830F400F7
:101096000230F5000030F600A0310C2088317108CE
:1010A6007204031DA7282100650886008701023007
:1010B600810741310318810A6608860001308700DE
:1010C600010884000130850002308107003F2200BC
:1010D600C600013FC700C801C901CA01CB01CC0146
:1010E600CD01210064082000B10021006308200022
:1010F600B000220046082000B20022004708200067
:10110600B300220048082000B4002200490820004D
:10111600B50022004A082000B60022004B08200035
:10112600B70022004C082000B80022004D0820001D
:10113600B90099316D21200031082100E40020001A
:1011460030082100E30008002100650886008701B9
:10115600403FF100413FF2005430F300B830F40054
:101166000330F5000030F600A0310C2088317108FC
:101176007204031D77292100650886008701033064
:10118600810741310318810A66088600013087000D
:10119600403F840001308500810A00082200A0003B
:1011A6002008C40023003C082200A0004408860052
:1011B6000130870020088100732921006508860018
:1011C60087010230810741310318810A66088600CB
:1011D60001308700403F840001308500810A000805
:1011E6002200A0002008C4004408860001308700C1
:1011F60023003C08C03F3D08C13F73292100650814
:10120600860087010130810741310318810A66088B
:10121600860001308700403F840001308500810A46
:1012260000082200A0002008C400440886000130FF
:10123600870023003C08C03F3D08C13F73292100B9
:101246006508860087010230810741310318810A4B
:101256006608860001308700403F84000130850023
:10126600810A00082200A0002008C40023003C08D0
:101276002200A00023003D082200A1000030A11B8F
:10128600FF30A200A3004408860001308700200832
:10129600C03F2108C13F2208C23F2308C33F73292C
:1012A6002100650886008701023081074131031855
:1012B600810A6608860001308700403F84000130BD
:1012C6008500810A00082200A0002008C400440806
:1012D60086000130870023003C08C03F3D08C13F1F
:1012E6002100E301E401080021006508860087016A
:1012F600403FF100413FF2005530F300B830F400B2
:101306000230F5000030F600A0310C20883171085B
:1013160072040319E0282100650886008701403F12
:101326002200A000413FA10020088400210885007A
:1013360012006E3A0319012921006508860087010B
:10134600403FF100413FF2007930F300B830F4003D
:101356000230F5000030F600A0310C20883171080B
:101366007204031922292100650886008701403F7F
:10137600F100413FF2007C30F300B830F400023057
:10138600F5000030F600A0310C2088317108720497
:10139600031953292100650886008701403F220072
:1013A600A000413FA100200884002108850012000A
:1013B600703A031D432A2100650886008701013023
:1013C600810741310318810A6608860001308700CB
:1013D600403F840001308500810A00082200A000F9
:1013E600A101A201A301A401A501A601A701270845
:1013F600CD002608CC002508CB002408CA00230807
:10140600C9002208C8002108C7002008C60021001C
:1014160064082000B100210063082000B00022000B
:1014260046082000B200220047082000B300220030
:1014360048082000B400220049082000B500220018
:101446004A082000B60022004B082000B700220000
:101456004C082000B80022004D082000B900783062
:101466002200A00020082000BA009E31A7262000F6
:1014760031082100E400200030082100E3000800C4
:101486002100650886008701403F2200A000413FF9
:10149600A10020088400210885001200733A031D6C
:1014A600842A2100650886008701013081074131C1
:1014B6000318810A6608860001308700403F8400D1
:1014C60001308500810A00082200A0002008AC0037
:1014D600210064082000A100210063082000A0006C
:1014E60022002C08A00020082000A200A231FF2222
:1014F600200021082100E400200020082100E3004C
:1015060008002100650886008701403FF100413F41
:10151600F2005C30F300B830F4000330F500003020
:10152600F600A0310C20883171087204031DEB2AE5
:1015360021006508860087010330810741310318C1
:10154600810A6608860001308700010884000130A0
:1015560085000230810700082200C600C701C801C5
:10156600C901CA01CB01CC01CD01210064082000CC
:10157600B100210063082000B000220046082000C8
:10158600B200220047082000B300220048082000CD
:10159600B400220049082000B50022004A082000B5
:1015A600B60022004B082000B70022004C0820009D
:1015B600B80022004D082000B900A7311F272000DF
:1015C60031082100E400200030082100E300080073
:1015D6002100650886008701403FF100413FF20087
:1015E6005D30F300B830F4000230F5000030F6004C
:1015F600A0310C20883171087204031D532B210081
:101606006508860087010230810741310318810A87
:1016160066088600013087000108840001308500D5
:1016260002308107003F2200C600013FC700C80103
:10163600C901CA01CB01CC01CD01210064082000FB
:10164600B100210063082000B000220046082000F7
:10165600B200220047082000B300220048082000FC
:10166600B400220049082000B50022004A082000E4
:10167600B60022004B082000B70022004C082000CC
:10168600B80022004D082000B900A7311F2720000E
:1016960031082100E400200030082100E3000800A2
:1016A6002100650886008701403F2200A000413FD7
:1016B600A10020088400210885001200753A031D48
:1016C600B52B21006508860087010130810741316D
:1016D6000318810A66088600013087000108840025
:1016E6000130850002308107003F2200C600013F1D
:1016F600C700C801C901CA01CB01CC01CD01210037
:1017060064082000B100210063082000B000220018
:1017160046082000B200220047082000B30022003D
:1017260048082000B400220049082000B500220025
:101736004A082000B60022004B082000B70022000D
:101746004C082000B80022004D082000B900A7313F
:101756001F27200031082100E40020003008210066
:10176600E30008002100650886008701403FF1007C
:10177600413FF2008530F300B830F4000230F50046
:101786000030F600A0310C20883171087204031D68
:10179600372C210065088600870102308107413118
:1017A6000318810A66088600013087000108840054
:1017B6000130850004308107003F2200A000013F70
:1017C600A100023FA200033FA3002008A4002108B5
:1017D600A5002208A6002308A700A801A901AA01BE
:1017E600AB012B08CD002A08CC002908CB0028081D
:1017F600CA002708C9002608C8002508C70024080B
:10180600C600210064082000B10021006308200002
:10181600B000220046082000B2002200470820003F
:10182600B300220048082000B40022004908200026
:10183600B50022004A082000B60022004B0820000E
:10184600B70022004C082000B80022004D082000F6
:10185600B900A7311F27200031082100E40020002D
:1018660030082100E3000800210065088600870192
:10187600403FF100413FF2008830F300B830F400F9
:101886000230F5000030F600A0310C2088317108D6
:101896007204031D9F2C2100650886008701023013
:1018A600810741310318810A6608860001308700E6
:1018B600010884000130850002308107003F2200C4
:1018C600C600013FC700C801C901CA01CB01CC014E
:1018D600CD01210064082000B1002100630820002A
:1018E600B000220046082000B2002200470820006F
:1018F600B300220048082000B40022004908200056
:10190600B50022004A082000B60022004B0820003D
:10191600B70022004C082000B80022004D08200025
:10192600B900A7311F27200031082100E40020005C
:1019360030082100E30008002100650886008701C1
:10194600403FF100413FF2006030F300B830F40050
:101956000330F5000030F600A0310C208831710804
:1019660072040319CD2C2100650886008701403FCB
:10197600F100413FF2004030F300B830F40003308C
:10198600F5000030F600A0310C2088317108720491
:10199600031D372D2100650886008701403F220080
:1019A600A000413FA100023020078400210803184F
:1019B600210A85000008A2002208C500210065084A
:1019C600860087010330810741310318810A6608C2
:1019D600860001308700010884000130850002304E
:1019E600810700082200C600C701C801C901CA0153
:1019F600CB01CC01CD01210064082000B1002100FB
:101A060063082000B000220046082000B200220031
:101A160047082000B300220048082000B400220036
:101A260049082000B50022004A082000B60022001E
:101A36004B082000B70022004C082000B800220006
:101A46004D082000B90022004508A000200820000B
:101A5600BA009E31A726200031082100E4002000AC
:101A660030082100E3000800210065088600870190
:101A7600403FF100413FF2006130F300B830F4001E
:101A86000230F5000030F600A0310C2088317108D4
:101A960072040319652D2100650886008701403F01
:101AA600F100413FF2004130F300B830F40002305B
:101AB600F5000030F600A0310C2088317108720460
:101AC600031DD02D2100650886008701403F2200B6
:101AD600A000413FA100013020078400210803181F
:101AE600210A85000008A2002208C5002100650819
:101AF600860087010230810741310318810A660892
:101B0600860001308700010884000130850002301C
:101B16008107003F2200C600013FC700C801C90176
:101B2600CA01CB01CC01CD01210064082000B1001F
:101B3600210063082000B000220046082000B20001
:101B4600220047082000B300220048082000B40005
:101B5600220049082000B50022004A082000B600ED
:101B660022004B082000B70022004C082000B800D5
:101B760022004D082000B90022004508A0002008D8
:101B86002000BA009E31A726200031082100E4007B
:101B9600200030082100E3000800210065088600C7
:101BA6008701403F2200A000413FA1002008840099
:101BB600210885001200783A0319F22D21006508E4
:101BC60086008701403F2200A000413FA100200877
:101BD6008400210885001200583A031D5A2E210060
:101BE600650886008701403F2200A000413FA10012
:101BF60020088400210885000008A2002208C500EC
:101C060021006508860087010130810741310318EC
:101C1600810A6608860001308700010884000130C9
:101C2600850002308107003F2200C600013FC70041
:101C3600C801C901CA01CB01CC01CD01210064084C
:101C46002000B100210063082000B00022004608F1
:101C56002000B200220047082000B30022004808F6
:101C66002000B400220049082000B50022004A08DE
:101C76002000B60022004B082000B70022004C08C6
:101C86002000B80022004D082000B90022004508B7
:101C9600A00020082000BA009E31A72620003108A7
:101CA6002100E400200030082100E30008002100A4
:101CB600650886008701403FF100413FF2008B3006
:101CC600F300B830F4000230F5000030F600A03121
:101CD6000C208831710872040319882E21006508CA
:101CE60086008701403FF100413FF2006430F30077
:101CF600B830F4000230F5000030F600A0310C20B8
:101D0600883171087204031D0D2F210065088600B5
:101D16008701403F2200A000413FA100013020077B
:101D2600840021080318210A85000008A200220861
:101D3600C500210065088600870102308107413110
:101D46000318810A660886000130870001088400AE
:101D56000130850004308107003F2200A000013FCA
:101D6600A100023FA200033FA3002008A40021080F
:101D7600A5002208A6002308A700A801A901AA0118
:101D8600AB012B08CD002A08CC002908CB00280877
:101D9600CA002708C9002608C8002508C700240865
:101DA600C600210064082000B1002100630820005D
:101DB600B000220046082000B2002200470820009A
:101DC600B300220048082000B40022004908200081
:101DD600B50022004A082000B60022004B08200069
:101DE600B70022004C082000B80022004D08200051
:101DF600B90022004508A00020082000BA009E3144
:101E0600A726200031082100E40020003008210028
:101E1600E30008002100650886008701403FF100C5
:101E2600413FF2008E30F300B830F4000230F50086
:101E36000030F600A0310C208831710872040319B5
:101E46003B2F2100650886008701403FF100413F96
:101E5600F2006730F300B830F4000230F5000030CD
:101E6600F600A0310C20883171087204031DA62FDC
:101E76002100650886008701403F2200A000413FFF
:101E8600A10001302007840021080318210A8500DB
:101E96000008A2002208C500210065088600870107
:101EA6000230810741310318810A66088600013035
:101EB6008700010884000130850002308107003F59
:101EC6002200C600013FC700C801C901CA01CB01F3
:101ED600CC01CD01210064082000B1002100630877
:101EE6002000B000220046082000B2002200470869
:101EF6002000B300220048082000B4002200490850
:101F06002000B50022004A082000B60022004B0837
:101F16002000B70022004C082000B80022004D081F
:101F26002000B90022004508A00020082000BA00C1
:101F36009E31A726200031082100E4002000300849
:101F46002100E30008002100650886008701403F64
:101F56002200A000413FA10020088400210885003E
:101F66001200253A031DD02F21006508860087013F
:101F76000130810741310318810A2530F100003014
:101F8600F2006408F4006308F30090310D2001307C
:101F96002100E3000030E400080021006508860007
:101FA60087010130810741310318810A7329210015
:101FB600650886008701403F2200A000413FA1003E
:101FC60020088400210885000008A200A301220839
:101FD600F1002308F20021006408F4006308F3000E
:101FE60090310D2088312100650886008701013077
:0A1FF600810741310318810ACA2F48
:102002006400800101310130FE020030FF3B7F0895
:102012007E04031900340228730874040319152876
:1020220073087404031D1928710880310320080005
:1020320073088600740887004431160001040319EE
:10204200402873088600740887004431403FF50039
:10205200413FF60073088600740887004231403F12
:10206200F700413FF8007808803AF9007608803A94
:102072007902031D3E2875087702031808007308C9
:102082008600740887004231730884007408850052
:10209200403F0007F5000131413F003DF600750861
:1020A200860076088700710881007308860074082C
:1020B200870042310130810741310318810A08004B
:1020C200200047088039C8004808D1004735C800B9
:1020D2004808D800C61B5814580803197E28580A05
:1020E200031D7B280030C7000030C6000030C50049
:1020F2000030C400C617C70186280030C700003070
:10210200C6000030C5000030C40043088039C80052
:102112004808D1064335C8004808D900C21B5914E3
:1021220059080319A228590A031D9F280030C30029
:102132000030C2000030C1000030C000C217C3012D
:10214200AA280030C3000030C2000030C1000030B5
:10215200C0004308420441044004031DC928003062
:10216200C7000030C6000030C5000030C400803017
:10217200C6047F30C7045108C8004808C70447088E
:10218200C3004608C2004508C1004408C000080058
:102192005808031DD5280030C3000030C2000030AB
:1021A200C1000030C00008005808C800C901490831
:1021B200CB0059084802CA00031CCB034A087F3EE1
:1021C200D20000304B3DD3004708D0004608CF0074
:1021D2004508CE004408CD000030C7000030C600DC
:1021E2000030C5000030C4000030D7000030D600F7
:1021F2000030D5000030D400D9011A30590203183A
:102202003A29590803191C290130CD35CE0DCF0DBD
:10221200D00D890B06290130C435C50DC60DC70D79
:10222200890B0D29D71B44140130D435D50DD60D99
:10223200D70D890B162943085002031D2A2942088B
:102242004F02031D2A2941084E02031D2A29400874
:102252004D02031C352957174008CD024108CE3BD9
:102262004208CF3B4308D03B0130C8004808D90799
:10227200FE2850084F044E044D04031D5414C61B7F
:1022820057290130C435C50DC60DC70D890B432929
:10229200D71B44140130D435D50DD60DD70D890B7B
:1022A2004C29FF30D207FF30D33D4029D901D71F37
:1022B2007029FF305405C800FF305505C900FF30B2
:1022C2005605CA007F305705CB004B084A04490423
:1022D2004804031944186E297029D901D90A5908EA
:1022E200031999290130C4070030C53D0030C63DAD
:1022F2000030C73D471C99294408C8004508C90059
:102302004608CA004708CB000130CC00CB37CA0CC4
:10231200C90CC80CCC0B87294B08C7004A08C60059
:102322004908C5004808C4000130D2070030D33D37
:102332005308803AC80080304802031DA229FF30AA
:102342005202031CB129FF302000D2000030D3001A
:102352000030C7000030C6000030C5000030C400A5
:1023620020005308803AC80080304802031DBB2970
:10237200013052020318C9292000D201D3010030D2
:10238200C7000030C6000030C5000030C400D101D3
:1023920020005208C8004808D800581CD229C61785
:1023A200D6297F30C8004808C6055836C8004808F4
:1023B200C700BC28740880392000A0002008A800AB
:1023C2007435A0002008AA00F31B2A142A08031956
:1023D200F8292A0A031DF5290030F4000030F30021
:1023E2000030F2000030F100F317F401002A00304F
:1023F200F4000030F3000030F2000030F100780801
:102402008039A0002008A90029082806031D2817E2
:102412007835A0002008A900F71B29142908031900
:10242200202A290A031D1D2A0030F8000030F70077
:102432000030F6000030F500F717F801282A0030C6
:10244200F8000030F7000030F6000030F5002A08EE
:10245200290203186E2A281F322A8030A000200881
:10246200A8062A08A0002008AB002908A00020081E
:10247200AA002B08A0002008A9007108A0002008CB
:10248200AB007508A0002008F1002B08A00020086E
:10249200F5007208A0002008AB007608A000200812
:1024A200F2002B08A0002008F6007308A000200804
:1024B200AB007708A0002008F3002B08A00020083A
:1024C200F7007408A0002008AB007808A0002008DC
:1024D200F4002B08A0002008F800AB012908A00096
:1024E200A1012108A3002A082002A200031CA303C1
:1024F2002308803AA40080302402031D822A1A3065
:102502002202031CB62A74087304720471040319AC
:102512008C2A01308D2A00302000A0002008AB0058
:102522000030F4000030F3000030F2000030F1001F
:102532002908A0002008AA00BB2A2B1CA62A2B3699
:102542000138A0002008AB00A82A0310AB0C7118B8
:10255200AB170130A000F437F30CF20CF10CA00B16
:10256200AC2A0130A0002008AA07200029082A026C
:10257200031C9E2A281BEC2A2A08031DC92A0030A4
:10258200F4000030F3000030F2000030F1000800E7
:102592007508F1077608F23D7708F33D7808F43DB7
:1025A200741C662B2B1CDB2A2B360138A00020085A
:1025B200AB00DD2A0310AB0C7118AB170130A00081
:1025C200F437F30CF20CF10CA00BE12A0130A0005D
:1025D2002008AA07662B7408803AA0007808803A7F
:1025E2002002031DFE2A77087302031DFE2A7608C5
:1025F2007202031DFE2A750871020318362BFF3082
:10260200A000FF30A100FF30A200FF30A30071083C
:102612007502A4007208763BA5007308773BA600FA
:102622007408783BA7002408A0072508A13D2608C6
:10263200A23D2708A33D2308F4002208F300210845
:10264200F2002008F1008030A0002008A806AB09A3
:10265200AB0A2B08031D3E2B0130F1070030F23D7F
:102662000030F33D0030F43D3E2B7508F102760850
:10267200F23B7708F33B7808F43B74087304720466
:102682007104031D642B2B08031D642B0030F4001E
:102692000030F3000030F2000030F1000800013099
:1026A200F135F20DF30DF40D890B512BAB1B7114A7
:1026B2002B1C5D2B03145E2B0310AB0D2A08031990
:1026C200642B0130AA02F31F502BA901AB1F712BFF
:1026D2002B087F39031971186F2B712BA901A90AD5
:1026E200290803199D2B0130F1070030F23D00301B
:1026F200F33D0030F43D741C9D2B7108A00072085C
:10270200A1007308A2007408A3000130A400A3373B
:10271200A20CA10CA00CA40B882B2308F400220805
:10272200F3002108F2002008F1002A0A03199D2B68
:102732000130A0002008AA072A0A031D2A08031D47
:10274200AD2B0030F4000030F3000030F200003016
:10275200F1002A080319A8012A1CB12BF317B52B83
:102762007F30A0002008F3052A36A0002008F400DC
:10277200A81F0800F41708002100650886008701D9
:10278200403F2200A000413FA10020088400210810
:1027920085001200253A031DD22D2100650886000E
:1027A20087010130810741310318810A2300BE01EC
:1027B200BF01C201C301FF30C000FF30C1002200CF
:1027C200AD01AE01002C23004214210065088600F1
:1027D20087010130810741310318810A002C23004F
:1027E200C214E62B23004215E62B2300C215E62B6A
:1027F20023004216E62B0130AD000030AE0022006D
:102802002D082E04031D2C2C21006508860087014B
:10281200403F2200A000413FA1002008840021087F
:1028220085000008A200A3012308003A03191A2C0C
:10283200FC2B2208203A0319F62B033A0319F92B31
:10284200083A0319F32B063A0319E42B1D3A03192C
:10285200F02BFC2B002C2300421C332CFD30C20534
:10286200FF30C3052100650886008701403F220032
:10287200A000413FA1002008840021088500120029
:102882002A3A031D652C2100650886008701013064
:10289200810741310318810A6608860001308700EA
:1028A200010884000130850002308107003F2300C7
:1028B200BE00013FBF00BF1FA72C4214BE09BF09C3
:1028C200BE0A0319BF0AA72C2100650886008701EA
:1028D200403FF700413FF800A0315E209331780875
:1028E2002300BF007708BE007F2C21006508860008
:1028F20087010130810741310318810A21006508EF
:1029020086008701403F2200A000413FA10020082D
:102912008400210885000008D03EA200FF30031881
:102922000030A300003023020A30031922020318E8
:102932009C2C01309D2C0030A400A5012408AF007E
:102942002508B0002F083004031D762C21006508ED
:1029520086008701403F2200A000413FA1002008DD
:1029620084002108850012002E3A031D2F2D23001A
:10297200C001C1012100650886008701013081077D
:1029820041310318810A650886008701403F220011
:10299200A000413FA1002008840021088500120008
:1029A2002A3A031DED2C21006508860087010130BB
:1029B200810741310318810A6608860001308700C9
:1029C200010884000130850002308107003F2300A6
:1029D200C000013FC1002F2D21006508860087013C
:1029E200403FF700413FF800A0315E209331780864
:1029F2002300C1007708C000072D2100650886006A
:102A020087010130810741310318810A21006508DD
:102A120086008701403F2200A000413FA10020081C
:102A22008400210885000008D03EA200FF30031870
:102A32000030A300003023020A30031922020318D7
:102A4200242D0130252D0030A400A5012408B10059
:102A52002508B20031083204031DFE2C210065084E
:102A620086008701403F2200A000413FA1002008CC
:102A72008400210885000008A200A3012208F700B3
:102A82002308F800A8318420933177082200A4009B
:102A92002408B500350803198F2D2100650886002A
:102AA2008701403F2200A000413FA10001302007E2
:102AB200840021080318210A85000008A200A3014E
:102AC2002208F7002308F800A83184209331770800
:102AD2002200A4002408B600360803198F2D210015
:102AE200650886008701403F2200A000413FA10007
:102AF20002302007840021080318210A85000008FB
:102B0200A200A3012208F7002308F800A8318420BC
:102B1200933177082200A4002408B7002100650839
:102B220086008701403F2200A000413FA10020080B
:102B32008400210885001200633A9831031D04289D
:102B420021006508860087010130810741310318A1
:102B5200810A66088600013087000108840001307E
:102B620085000230810700082200A0002008C5006D
:102B7200210064082000B100210063082000B00099
:102B820022004508A00020082000B200A9314421FB
:102B9200200031082100E400200030082100E30079
:102BA20008008F31DA2F200029088039AE002E0864
:102BB200B3002935AE002E08B900A81B3914390814
:102BC2000319F02D390A031DEE2D0030A900003043
:102BD200A8000030A7000030A600A817F82D00308A
:102BE200A9000030A8000030A7000030A6002D0880
:102BF2008039AE002E08B3062D35AE002E08B8007F
:102C0200AC1B381438080319132E380A031D112E71
:102C12000030AD000030AC000030AB000030AA0044
:102C2200AC171B2E0030AD000030AC000030AB0002
:102C32000030AA003808031D3908031D292E003070
:102C4200A9000030A8000030A7000030A60008004C
:102C52002608AE002E08F1002C08B731E127953185
:102C620072082000BF007108BE003E08AE00AF012E
:102C7200B001B1013108B7003008B6002F08B50025
:102C82002E08B4003F08AE00AF01B001B101310817
:102C9200BD003008BC002F08BB002E08BA00270870
:102CA200AE002E08F1002B08B731E12795317208EA
:102CB2002000BF007108BE003E08AE00AF01B001A7
:102CC200B1012E08B4072F08B53D3008B63D3108D2
:102CD200B73D3F08AE00AF01B001B1012E08BA07FF
:102CE2002F08BB3D3008BC3D3108BD3D2808AE0071
:102CF2002E08F1002A08B731E12795317208200029
:102D0200BF007108BE003E08AE00AF01B001B101C4
:102D12002E08B4072F08B53D3008B63D3108B73D3F
:102D22003F08AE00AF01B001B1012E08BA072F086B
:102D3200BB3D3008BC3D3108BD3D0830B435B50D52
:102D4200B60DB70D890B9F2E2708AE002E08F10095
:102D52002A08B731E127953172082000BF007108B7
:102D6200BE003E08B4073F08B53D0030B63DB73D52
:102D72002608AE002E08F1002B08B731E127953165
:102D820072082000BF007108BE003E08B4073F0869
:102D9200B53D0030B63DB73D0830B435B50DB60D82
:102DA200B70D890BCE2E2608AE002E08F1002A0898
:102DB200B731E127953172082000BF007108BE00CB
:102DC2003E08B4073F08B53D0030B63DB73D270881
:102DD200AE002E08F1002C08B731E12795317208B8
:102DE2002000BF007108BE003E08BA073F08BB3D85
:102DF2000030BC3DBD3D2808AE002E08F1002B0876
:102E0200B731E127953172082000BF007108BE007A
:102E12003E08BA073F08BB3D0030BC3DBD3D280817
:102E2200AE002E08F1002C08B731E1279531720867
:102E32002000BF007108BE003E08AE003F08AF0090
:102E4200B001B1010830AE35AF0DB00DB10D890B37
:102E5200242F2E08BA072F08BB3D3008BC3D31088D
:102E6200BD3D3408AE003508AF003608B000370863
:102E7200B1001830B136B00CAF0CAE0C890B3B2F41
:102E82002E08BA072F08BB3D3008BC3D3108BD3DB6
:102E92000830B435B50DB60DB70D890B4A2F390878
:102EA2003807AE00AF01AF0D2E08823EBE00FF30E4
:102EB2002F3DBF00BC1B722F0130BA35BB0DBC0DBC
:102EC200BD0D890B5E2FB71B3A140130B435B50D19
:102ED200B60DB70D890B672FFF30BE07FF30BF3D20
:102EE2005B2FB801B71F8B2FFF303405AE00FF30C8
:102EF2003505AF00FF303605B0007F303705B10031
:102F0200310830042F042E0403193A18892F8B2F0D
:102F1200B801B80A38080319B42F0130BA070030D3
:102F2200BB3D0030BC3D0030BD3D3D1CB42F3A08D6
:102F3200AE003B08AF003C08B0003D08B1000130D4
:102F4200B200B137B00CAF0CAE0CB20BA22F3108ED
:102F5200BD003008BC002F08BB002E08BA000130AB
:102F6200BE070030BF3D3F08803AAE0080302E02DF
:102F7200031DBD2FFF303E02031CC92F7F302000EE
:102F8200BD008030BC000030BB000030BA00F32F1F
:102F920020003F08803AAE0080302E02031DD32F5E
:102FA20001303E020318E02F00302000BD00003047
:102FB200BC000030BB000030BA00B301F32F200088
:102FC2003E08AE002E08B900FF30BA05FF30BB053F
:102FD2007F30BC050030BD053918BC173936AE004C
:102FE2002E08BD003308AE002E08BD043D08A9001E
:0E2FF2003C08A8003B08A7003A08A60008000B
:10300200B631852608002100650886008701403F09
:10301200F100413FF2004430F300B830F4000330D5
:10302200F5000030F600A0310C20983171087204CE
:10303200031932282100650886008701403FF1000C
:10304200413FF2004C30F300B830F4000330F50099
:103052000030F600A0310C20983171087204031D73
:1030620085282100650886008701033081074131E8
:103072000318810A6608860001308700010884006F
:10308200013085000230810700082200BC0080392F
:10309200031DFF30BD00BE00BF00C000C100C20062
:1030A200C300210064082000B10021006308200051
:1030B200B00022003C082000B20022003D0820009F
:1030C200B30022003E082000B40022003F08200086
:1030D200B500220040082000B6002200410820006E
:1030E200B700220042082000B80022004308200056
:1030F200B9009D315425200031082100E400200050
:1031020030082100E3000800AE31E22E21006508FC
:1031120086008701403F2200A000413FA100200815
:1031220084002108850012006F3A031DE92821005E
:103132006508860087010130810741310318810A41
:10314200660886000130870001088400013085008E
:1031520002308107003F2200C600013FC700C801BC
:10316200C901CA01CB01CC01CD01210064082000B4
:10317200B100210063082000B000220046082000B0
:10318200B200220047082000B300220048082000B5
:10319200B400220049082000B50022004A0820009D
:1031A200B60022004B082000B70022004C08200085
:1031B200B80022004D082000B90099316D2120008D
:1031C20031082100E400200030082100E30008005B
:1031D2002100650886008701403FF100413FF2006F
:1031E2007F30F300B830F4000230F5000030F60012
:1031F200A0310C20983171087204031D6B29210043
:103202006508860087010230810741310318810A6F
:1032120066088600013087000108840001308500BD
:1032220004308107003F2200A000013FA100023FBD
:10323200A200033FA3002008A4002108A500220841
:10324200A6002308A700A801A901AA01AB012B0827
:10325200CD002A08CC002908CB002808CA0027087C
:10326200C9002608C8002508C7002408C600210096
:1032720064082000B100210063082000B000220091
:1032820046082000B200220047082000B3002200B6
:1032920048082000B400220049082000B50022009E
:1032A2004A082000B60022004B082000B700220086
:1032B2004C082000B80022004D082000B9009931C6
:1032C2006D21200031082100E40020003008210097
:1032D200E300080088313F282300C11B7429FD3018
:1032E200C205FF30C3054108803A2000BA00803091
:1032F2003A02031D7F290130230040020318872967
:1033020001302000C2000030C3008F292300410891
:103312002000C300230040082000C20023003F0811
:103322002000C70023003E082000C6003208C80063
:103332003308C9003408CA003508CB003608CC006F
:103342003708CD003808CE003908CF004F30D00002
:103352000030D1002400EF012000C401C501242A5D
:103362002000480849044A044B044C044D044E040E
:103372004F04031DD6294308803ABA0080303A022E
:10338200031DC529013042020318D629200047082F
:10339200803ABA0080303A02031DD1290130460238
:1033A200031C2F2A2300C21C2F2AFF302000D00723
:1033B200FF30D13D07304805C40000304905C50043
:1033C2004408303EBA005008203E86000230870092
:1033D2003A088100FF30C207FF30C33DFF30C60705
:1033E200FF30C73D4830860000308700403FBA00BA
:1033F200413FBB00423FBC00433FBD00443FBE00D3
:10340200453FBF00463FC000473FC1000330200098
:10341200C136C00CBF0CBE0CBD0CBC0CBB0CBA0C34
:10342200890B082A20004108CF004008CE003F083F
:10343200CD003E08CC003D08CB003C08CA003B084A
:10344200C9003A08C8005108803ABA0080303A02EE
:10345200031D2D2A013050020318B1292300421EF8
:10346200482A2000440845040319482AFF30D0079F
:10347200FF30D13D3030BA005008203E8600023085
:1034820087003A088100FF30C607FF30C73D2000A1
:103492003108A7003008A6005008203EBA003A08BA
:1034A200A8004708AA004608A900AB310223200061
:1034B2002708B1002608B0000800F301203086007A
:1034C20000308700473FF100F11F882A2000A00941
:1034D200A109A209A309A409A509A609A709A00A85
:1034E200031D862AA10A031D862AA20A031D862A13
:1034F200A30A031D862AA40A031D862AA50A031D00
:10350200862AA60A031D862AA70AF301F30A28308F
:10351200860000308700473FF100F11FB32A2000E8
:10352200A809A909AA09AB09AC09AD09AE09AF09F5
:10353200A80A031DAF2AA90A031DAF2AAA0A031D5E
:10354200AF2AAB0A031DAF2AAC0A031DAF2AAD0A8C
:10355200031DAF2AAE0A031DAF2AAF0A0130F100E4
:103562007108F30674308600003087000830F100DD
:1035720000301E00F10BBA2A200020082104220488
:103582002304240425042604270403191E2BF20114
:10359200F20AA71BD92AA035A10DA20DA30DA40DD5
:1035A200A50DA60DA70D0130F1007108F207CA2A78
:1035B200F435F50DF60DF70DF80DF90DFA0DFB0DBD
:1035C20027082F02031DFF2A26082E02031DFF2AA9
:1035D20025082D02031DFF2A24082C02031DFF2AA1
:1035E20023082B02031DFF2A22082A02031DFF2A99
:1035F20021082902031DFF2A20082802031C122B7E
:103602002008A8022108A93B2208AA3B2308AB3BB9
:103612002408AC3B2508AD3B2608AE3B2708AF3B50
:103622007414A736A60CA50CA40CA30CA20CA10C16
:10363200A00C0130F202031DD92A730803193F2B93
:10364200F409F509F609F709F809F909FA09FB0974
:10365200F40A031D3F2BF50A031D3F2BF60A031D37
:103662003F2BF70A031D3F2BF80A031D3F2BF90AD4
:10367200031D3F2BFA0A031D3F2BFB0A740820008F
:10368200A0007508A1007608A2007708A3007808B8
:10369200A4007908A5007A08A6007B08A700080004
:1036A200362C2300520803190800D201A8316220E7
:1036B2009B31A2314B229B31200020082200ED00D9
:1036C2006D08EF003D30F200B130F300B7317227E0
:1036D2009B3122006F0803190800200018102100F6
:1036E20011100030F100F200A83141209B3123007B
:1036F200D2011A302200ED00F830890B7E2BED0B3F
:103702007E2B00003730F200B030F300B731722761
:103712009B3171302200DF002730E0007F30E10072
:103722000030E200BE30E300B030E40023004D0878
:103732002200E60023004C082200E50023004F0887
:103742002200E80023004E082200E700B7315A2782
:103752009B317130F2002730F300B73172279B3171
:103762000230F200B030F300B73172272300D301E8
:10377200D30A0800A93116219B311A302200ED002C
:10378200F830890BC22BED0BC22B00006230F20025
:10379200B030F300B73172279B3171302200DF0065
:1037A2002730E0007F30E1000030E2001330E30018
:1037B200B130E400B631A9269B3174082200E8003A
:1037C2007308E7007208E6007108E500B7315A276E
:1037D2009B317130F2002730F300B73172279B31F1
:1037E20071302200DF002730E0007F30E10000303E
:1037F200E2009230E300B030E400AA31B2229B3101
:10380200200066082200E800200065082200E70088
:10381200200064082200E600200063082200E50080
:10382200B7315A279B317130F2002730F300B7319C
:1038320072279B31E930F200B030F300B7317227C2
:103842009B316530F200B030F300B73172279B3103
:103852000130F1000030F200A83141200230220094
:10386200ED006D082300D300080023005308220056
:10387200ED00EE016E08003A0319402C4B2C6D0846
:10388200003A0319522B013A0319BB2B033A0319CD
:103892004B2C4B2C08002100650886008701403F15
:1038A2002200A000413FA1002008840021088500D9
:1038B2001200643A03196E2C210065088600870104
:1038C200403F2200A000413FA100200884002108BF
:1038D20085001200693A031DC62C21006508860086
:1038E20087010130810741310318810A6608860089
:1038F2000130870001088400013085000230810711
:10390200003F2200A000013FA1002008BC002108C6
:10391200BD00890D893B8909BE00BF00C000C100FE
:10392200C200C300210064082000B1002100630826
:103932002000B00022003C082000B20022003D0816
:103942002000B30022003E082000B40022003F08FD
:103952002000B500220040082000B60022004108E5
:103962002000B700220042082000B80022004308CD
:103972002000B9009D315425200031082100E400C7
:10398200200030082100E3000800210065088600BD
:103992008701403FF100413FF2006A30F300B83046
:1039A200F4000230F5000030F600A0310C209C310A
:1039B200710872040319F42C21006508860087013E
:1039C200403FF100413FF2007330F300B830F400A1
:1039D2000230F5000030F600A0310C209C31710855
:1039E2007204031D522D21006508860087010230F2
:1039F200810741310318810A660886000130870079
:103A0200010884000130850004308107003F220054
:103A1200A000013FA100023FA200033FA300200833
:103A2200BC002108BD002208BE002308BF000030F0
:103A3200BF1BFF30C000C100C200C30021006408E8
:103A42002000B100210063082000B00022003C08E1
:103A52002000B20022003D082000B30022003E08F0
:103A62002000B40022003F082000B50022004008D8
:103A72002000B600220041082000B70022004208C0
:103A82002000B800220043082000B9009D315425CF
:103A9200200031082100E400200030082100E3006A
:103AA2000800A431952C20003208C5003308C60056
:103AB2003408C7003508C8003608C9003708CA00EC
:103AC2003808CB003908CC0045308600003087002A
:103AD200473FBA00BA1F6F2D0130702D0030200011
:103AE200BB00BC013B08C3003C08C40043084404BB
:103AF2000319992DC509C609C709C809C909CA09FF
:103B0200CB09CC09C50A031D992DC60A031D992D9F
:103B1200C70A031D992DC80A031D992DC90A031D41
:103B2200992DCA0A031D992DCB0A031D992DCC0A82
:103B32002300C11BA02DFD30C205FF30C305410883
:103B4200803A2000BA0080303A02031DAB2D0130CA
:103B5200230040020318B32D01302000BF000030C3
:103B6200C000BB2D230041082000C00023004008F4
:103B72002000BF0023003F082000C20023003E08AF
:103B82002000C10043084404031DCA2D2300421D26
:103B9200CF2DFF302000C107FF30C23D4F30200043
:103BA200CD000030CE002400EF01652E2000450834
:103BB20046044704480449044A044B044C04031DC8
:103BC200FC2D4008803ABA0080303A02031DEB2DEA
:103BD20001303F020318FC2D20004208803ABA004F
:103BE20080303A02031DF72D01304102031C712E71
:103BF2002300C21C712EFF302000CD07FF30CE3DC6
:103C02000A30A000A101A201A301A401A501A601FD
:103C1200A7014508A8004608A9004708AA004808C5
:103C2200AB004908AC004A08AD004B08AE004C0896
:103C3200AF00A63143269D3120002108F50020085F
:103C4200F400B73115279D317408303E2000BA00C8
:103C52004D08203E8600023087003A088100FF307E
:103C6200BF07FF30C03DFF30C107FF30C23D0A3001
:103C7200A000A101A201A301A401A501A601A7011F
:103C82004508A8004608A9004708AA004808AB0052
:103C92004908AC004A08AD004B08AE004C08AF0022
:103CA2009A315E229D3120002008C5002108C600FD
:103CB2002208C7002308C8002408C9002508CA0032
:103CC2002608CB002708CC0020004E08803ABA0014
:103CD20080303A02031D6F2E01304D020318D72D9A
:103CE200200043084404031D792E2300421D912E17
:103CF200FF302000CD07FF30CE3D43084404031DB2
:103D0200842E2B30852E2D30BD000030BE003D08A4
:103D1200BA004D08203E8600023087003A08810032
:103D220020003108A7003008A6004D08203EBA0046
:103D32003A08A8004208AA004108A900AB310223B0
:103D420020002708B1002608B00008002300C11B8C
:103D5200AE2EFD30C205FF30C3054108803A200077
:103D6200BB0080303B02031DB92E0130230040020C
:103D72000318C12E01302000C7000030C800C92E30
:103D8200230041082000C800230040082000C7008B
:103D920023003F082000CA0023003E082000C9007B
:103DA2002300421ED92EFE302000C907FF30CA3D33
:103DB20020003208CB003308CC003408CD0035088F
:103DC200CE003608CF003708D0003808D1003908B5
:103DD200D2004F30D3000030D4002400EF019B2FDB
:103DE200FF302000D307FF30D43D0F304B05D50004
:103DF20000304C05D6005608803ABB0080303B02AA
:103E0200031D052F0A305502031C0B2F20005508F5
:103E1200573E0E2F20005508303ED5000030563D4B
:103E2200D6003A08BF3EBB00FF3003180030BC008A
:103E320000303C021A3003193B020318222F0130D2
:103E4200232F0030BD00BE013D08C3003E08C40060
:103E5200430844040319592F20305504BB00003095
:103E62005604BC003B089F3EBD00FF303C3DBE00F7
:103E720000303E021A3003193D020318422F01306E
:103E8200432F0030BF00C0013F08C5004008C600F4
:103E9200450846040319592F5608F8005508F7003B
:103EA200A831A6209E3178082000D6007708D500D8
:103EB2005508BB005308203E8600023087003B08AD
:103EC2008100FF30C707FF30C83DFF30C907FF3010
:103ED200CA3D4B30860000308700403FBB00413F67
:103EE200BC00423FBD00433FBE00443FBF00453FD0
:103EF200C000463FC100473FC20004302000C23626
:103F0200C10CC00CBF0CBE0CBD0CBC0CBB0C890B95
:103F12007F2F20004208D2004108D1004008D00083
:103F22003F08CF003E08CE003D08CD003C08CC0043
:103F32003B08CB0020005408803ABB0080303B0293
:103F4200031DA52F02305302031CCC2F20004B0867
:103F52004C044D044E044F04500451045204031DFA
:103F6200F12E4808803ABB0080303B02031DBB2F74
:103F7200013047020318F12E20004A08803ABB00A4
:103F820080303B02031DC72F01304902031CCC2F96
:103F92002300C218F12E2300421EEA2FFF30200018
:103FA200D307FF30D43D3A08BB005308203E8600B9
:103FB200023087003B088100FF30D307FF30D43D39
:103FC2003030BB005308203E8600023087003B0899
:103FD200810020003108A7003008A6005308203EC7
:103FE200BB003B08A8004A08AA004908A900AB3157
:0E3FF200022320002708B1002608B0000800B6
:10400200CF30200098059601970118142100111451
:104012000B178B1708007208F9007108F800740872
:10402200FB007308FA000130F5020030F63B750A16
:10403200031D4628760A031D4628F101F2010800F5
:104042007A0884007B088500120003194D28750840
:10405200760403194D287A0884007B08850000083D
:10406200F700780884007908850000087706031DA8
:104072004D280130F8070030F93D0130FA070030D1
:10408200FB3D0130F5020030F63B780884007908E8
:1040920085001200031D2128780884007908850014
:1040A2000008F7007A0884007B0885000008770280
:1040B200F100F201031CF20308002000AB01AC0185
:1040C200A401A501AA01AA0A77088400780885003C
:1040D2001200203A03197F287708840078088500A7
:1040E2000008F73EA000FF3003180030A1000030A6
:1040F20021020530031920020318AA012A08A00090
:10410200A1012008A6002108A700260827040319F8
:1041120094280130F7070030F83D63280130A400ED
:104122000030A500C72877088400780885000008B9
:10413200A000A1012108003A0319A028CB282008D9
:104142002B3A0319C728063A03198F28CB28770878
:104152008400780885000008A0002C08F2002B08D3
:10416200F1000A30F3000030F400B7318C27A0319F
:1041720072082000A20020087102A100031CA20301
:104182002108303EAB000030223DAC000130F70781
:104192000030F83D77088400780885000008D03E9A
:1041A200A000FF3003180030A100003021020A30C5
:1041B200031920020318DF280130E0280030A20092
:1041C200A3012208A8002308A90028082904031D26
:1041D200A82824082504031DFA282B09A0002C096D
:1041E200A100A00A0319A10A2008F7002108F8007B
:1041F20008002C08F8002B08F70008003530F10001
:104202000130F2007030F300B830F4000230F500F3
:104212000030F600A0310C20A03171087204031D99
:10422200A1292100650886008701403F2200A000E5
:10423200413FA10001302007840021080318210A10
:1042420085000008A2002208C5002100650886003A
:104252008701403F2200A000413FA10020088400C6
:10426200210885000008BF3EA200FF30031800307D
:10427200A300003023021A30031922020318432933
:10428200013044290030A400A5012408B300250808
:10429200B400330834040319622921006608860039
:1042A2000130870001088400013085000430810755
:1042B200003F2200B800013FB900023FBA00033FAD
:1042C20075292100660886000130870001088400F4
:1042D2000130850004308107003F2200B800013F11
:1042E200B900023FBA00033FBB0021006508860007
:1042F20087010230810741310318810A6408A10055
:104302006308A00022003B082100A50022003A0811
:104312002100A400220039082100A300220038084D
:104322002100A20022004508A00020082100A600CA
:104332008031582021002108E4002008E300080011
:10434200A331C42B20002608AA002708AB002808A6
:10435200AC002908AD000630AA35AB0DAC0DAD0D91
:10436200890BAD292D08F4002C08F3002B08F2006C
:104372002A08F1002608AE002708AF002808B0007E
:104382002908B1000630AE35AF0DB00DB10D890B65
:10439200C4290030B2002430B300F430B40000303D
:1043A200B5002E08B2022F08B33B3008B43B3108E7
:1043B200B53B3508F8003408F7003308F600320838
:1043C200F500AE316026A1317208FB007108FA00D7
:1043D20001307B02003003197A02031C382A2000C4
:1043E2002608AA002708AB002808AC002908AD005F
:1043F2000430AA35AB0DAC0DAD0D890BFA292D0891
:10440200F4002C08F3002B08F2002A08F100260819
:10441200AE002708AF002808B0002908B100043018
:10442200AE35AF0DB00DB10D890B112A0030B200BF
:104432002430B300F430B4000030B5002E08B202CC
:104442002F08B33B3008B43B3108B53B3508F800C0
:104452003408F7003308F6003208F500AE31602662
:10446200A1317208FB007108FA0023001E15013009
:104472007B02003003197A02031808007A0823002D
:104482009B001E129D1721008E170E1723001D166A
:104492009E1608002000AB01AC01AD01AE01200068
:1044A2002D35A03E8600013087000030C03FC13F5D
:1044B2000130AD070030AE3D2E08803AA2008030B8
:1044C2002202031D662A04302D02031C502A1830D2
:1044D200F5000030F6000B30F7000030F80019301C
:1044E200F9000030FA00B731C327A2311830F500C5
:1044F2000030F6000B30F7000030F800A931AA2195
:10450200A231193075067604031DF92A0130200004
:10451200AB000030AC001830F5000030F60004307B
:10452200F7000030F8001830F9000030FA00B73117
:10453200C327A2311830F5000030F6000530F7002D
:104542000030F8004030F9000030FA00B731C327DC
:10455200A2311830F5000030F6005130F70000307B
:10456200F800A931AA21A23176082300CD007508EE
:10457200CC001830F5000030F6005930F70000305A
:10458200F800A931AA21A23175082000A2007608FC
:10459200A3000530A400230DA30CA20CA40BCC2A6B
:1045A20007302205A50000302305A6001830F500CB
:1045B2000030F6005030F7000030F800A931AA218F
:1045C2000C3075052000A70000307605A800A7353D
:1045D200A80D25082704A90026082804AA002908EE
:1045E2006D3E2300CE00013020002A3D2300CF0083
:1045F20020002C08A1002B08A0000800D43086005F
:104602000130870023308400003085000730FA0033
:1046120016001A00FA0B092B20002208AE00013006
:10462200AF002E082F04031D1A2B2330AE000030DA
:10463200AF002F08F2002E08F100B631FE26A2319B
:1046420072082000B3007108B20023004108200064
:10465200B100230040082000B000B11B412B3108FB
:10466200803AFA003308803A7A02031D3A2B320864
:1046720030020318412B20003108B3003008B20089
:1046820020003308B1003208B00023003F082000A8
:10469200AD0023003E082000AC002300421C632B27
:1046A200702B2030F1000030F20020002108F400CD
:1046B2002008F30090310D20A23101302000B20712
:1046C2000030B33D20003308803AFA002D08803ACA
:1046D2007A02031D6E2B2C083202031C522B20007F
:1046E200AA01AB012B08803AFA003108803A7A021B
:1046F200031D7D2B30082A0203189C2B20002E0854
:1047020086002F0887000108FA00FB017A08F100F1
:104712007B08F2002108F4002008F30090310D20FC
:10472200A23101302000AE070030AF3D0130AA07B0
:104732000030AB3D732B23004218B12BBE2B20302F
:10474200F1000030F20020002108F4002008F300FC
:1047520090310D20A23101302000B2070030B33D6C
:1047620020003308803AFA002D08803A7A02031DAD
:10477200BC2B2C083202031CA02B20003308A10002
:104782003208A00008002100650886008701403F2A
:10479200F100413FF2005830F300B830F40003302A
:1047A200F5000030F600A0310C20A331710872042C
:1047B200031D2B2C21006508860087010330810729
:1047C20041310318810A660886000130870001081A
:1047D2008400013085000230810700082200C600F3
:1047E200C701C801C901CA01CB01CC01CD01210019
:1047F20064082000B100210063082000B0002200FC
:1048020046082000B200220047082000B300220020
:1048120048082000B400220049082000B500220008
:104822004A082000B60022004B082000B7002200F0
:104832004C082000B80022004D082000B900993130
:104842006D21200031082100E40020003008210001
:10485200E30008002100650886008701403FF1005F
:10486200413FF2005930F300B830F4000230F50055
:104872000030F600A0310C20A33171087204031D30
:10488200932C21006508860087010230810741319F
:104892000318810A66088600013087000108840037
:1048A2000130850002308107003F2200C600013F2F
:1048B200C700C801C901CA01CB01CC01CD01210049
:1048C20064082000B100210063082000B00022002B
:1048D20046082000B200220047082000B300220050
:1048E20048082000B400220049082000B500220038
:1048F2004A082000B60022004B082000B700220020
:104902004C082000B80022004D082000B90099315F
:104912006D21200031082100E40020003008210030
:10492200E300080098318728210065088600870186
:10493200403FF100413FF2006D30F300B830F40027
:104942000230F5000030F600A0310C20A4317108CD
:1049520072040319C32C2100650886008701403FB9
:10496200F100413FF2007630F300B830F40002303B
:10497200F5000030F600A0310C20A4317108720459
:10498200031D142D2100650886008701023081076E
:1049920041310318810A6608860001308700010848
:1049A20084000130850002308107003F2200BC00F4
:1049B200013FBD00BE01BF01C001C101C201C3016F
:1049C200210064082000B100210063082000B0002B
:1049D20022003C082000B20022003D082000B30063
:1049E20022003E082000B40022003F082000B5004B
:1049F200220040082000B600220041082000B70033
:104A0200220042082000B800220043082000B9001A
:104A12009D315425200031082100E4002000300897
:104A22002100E3000800663022003506031D692DCF
:104A32002100650886008701403F2200A000413F17
:104A4200A10020088400210885000008A200220895
:104A5200C5002100650886008701013081074131C8
:104A62000318810A66088600013087000108840065
:104A72000130850004308107003F2200B800013F69
:104A8200B900023FBA00033FBB0021006408A10045
:104A92006308A00022003B082100A50022003A087A
:104AA2002100A400220039082100A30022003808B6
:104AB2002100A20022004508A00020082100A60033
:104AC2008031582021002108E4002008E30008007A
:104AD200A031FF2823002D082000ED0023002C0820
:104AE2002000EC0023002B082000EB0023002A0802
:104AF2002000EA005D08ED005C08EC005B08EB00BA
:104B02005A08EA006A08DE006B08DF006C08E00061
:104B12006D08E1001730E136E00CDF0CDE0C890B8A
:104B22008C2DFF305E05E20000305F05E300620875
:104B3200813EE800FF30633DE9006908803ADE000B
:104B420080305E02031DA72D17306802031808008B
:104B52002000E91B042EFF30DE00FF30DF007F3033
:104B6200E0000030E100680ABA2DE137E00CDF0C0A
:104B7200DE0C890BB62D6108E7006008E6005F08CD
:104B8200E5005E08E4006A086405DE006B0865055E
:104B9200DF006C086605E0006D086705E10061084A
:104BA20060045F045E04031908006A08DE006B08F3
:104BB200DF006C08E0006D08E1001F30E136E00C18
:104BC200DF0CDE0C890BDF2D610860045F045E04DC
:104BD2000319F32D6408EA076508EB3D6608EC3D0E
:104BE2006708ED3D6409DE006509DF006609E00043
:104BF2006709E1005E08EA055F08EB056008EC055D
:104C02006108ED053A2E6A08DE006B08DF006C08C9
:104C1200E0006D08E1001F30E136E00CDF0CDE0C35
:104C2200890B0D2E610860045F045E04031D1D2EB6
:104C32000030ED000030352E6A08DE006B08DF0020
:104C42006C08E0006D08E1000130DE35DF0DE00D9B
:104C5200E10D890B262E610860045F045E040319CE
:104C62003A2EBF30ED008030EC000030EB00003017
:104C7200EA006D08DD006C08DC006B08DB006A08E6
:104C8200DA000800F3012830860000308700473F31
:104C9200F100F11F6D2E2000A809A909AA09AB098C
:104CA200AC09AD09AE09AF09A80A031D6B2EA90A0A
:104CB200031D6B2EAA0A031D6B2EAB0A031D6B2E5E
:104CC200AC0A031D6B2EAD0A031D6B2EAE0A031D2B
:104CD2006B2EAF0AF301F30A203086000030870002
:104CE200473FF100F11F942E2000A009A109A2095B
:104CF200A309A409A509A609A709A00A031D942EC0
:104D0200A10A031D942EA20A031D942EA30A031DB9
:104D1200942EA40A031D942EA50A031D942EA60AFE
:104D2200031D942EA70A2000200821042204230434
:104D320024042504260427040319EC2EF201F20AA6
:104D4200A71BB02EA035A10DA20DA30DA40DA50D7C
:104D5200A60DA70D0130F1007108F207A12E270858
:104D62002F02031DCE2E26082E02031DCE2E25084D
:104D72002D02031DCE2E24082C02031DCE2E230845
:104D82002B02031DCE2E22082A02031DCE2E21083D
:104D92002902031DCE2E20082802031CE02E200823
:104DA200A8022108A93B2208AA3B2308AB3B2408FE
:104DB200AC3B2508AD3B2608AE3B2708AF3BA736E8
:104DC200A60CA50CA40CA30CA20CA10CA00C0130E7
:104DD200F202031DB02E730803190D2FA809A909A9
:104DE200AA09AB09AC09AD09AE09AF09A80A031DAE
:104DF2000D2FA90A031D0D2FAA0A031D0D2FAB0AA1
:104E0200031D0D2FAC0A031D0D2FAD0A031D0D2F1F
:104E1200AE0A031D0D2FAF0A20002808A0002908A2
:104E2200A1002A08A2002B08A3002C08A4002D0828
:104E3200A5002E08A6002F08A70008002300C11B0A
:104E4200262FFD30C205FF30C3054108803A2000FD
:104E5200BA0080303A02031D312F01302300400294
:104E62000318392F01302000BB000030BC00412F55
:104E7200230041082000BC00230040082000BB00A2
:104E820023003F082000BE0023003E082000BD0092
:104E92003208BF003308C0003408C1003508C20020
:104EA2003608C3003708C4003808C5003908C600F0
:104EB2004F30C7000030C8002400EF01E52F3F0843
:104EC2004004410442044304440445044604031DCF
:104ED200842F3C08803ABA0080303A02031D732FB7
:104EE20001303B020318842F20003E08803ABA00AA
:104EF20080303A02031D7F2F01303D02031CEA2F4E
:104F02002300C21CEA2FFF302000C707FF30C83D34
:104F12000A30A000A101A201A301A401A501A601DA
:104F2200A7013F08A8004008A9004108AA004208BA
:104F3200AB004308AC004408AD004508AE0046088B
:104F4200AF00AC310A24A73120002008303EBA005D
:104F52004708203E8600023087003A088100FF3071
:104F6200BB07FF30BC3DFF30BD07FF30BE3D0A30FE
:104F7200A000A101A201A301A401A501A601A7010C
:104F82003F08A8004008A9004108AA004208AB0057
:104F92004308AC004408AD004508AE004608AF0027
:104FA200AD316725A73120002008BF002108C000CD
:104FB2002208C1002308C2002408C3002508C40037
:104FC2002608C5002708C600200047084804031D1C
:104FD200602F20003108A7003008A6004708203EB5
:104FE200BA003A08A8003E08AA003D08A900AB3161
:0E4FF200022320002708B1002608B0000800A6
:1050060080302000C3064708F4004608F300450830
:10501600F2004408F1004308F8004208F70041088E
:10502600F6004008F5009131DB2174082000C3002A
:105036007308C2007208C1007108C0000800F800B9
:105046007208F6007108F5007808F3007308F70097
:105056007708860002308700F70A7608F40075089C
:10506600F300F50A0319F60A73088400740885002C
:105076000008C03F8908031908002B285128220080
:105086000C128C161014080022000C168C12101428
:10509600080022000C168C16101008007208003A40
:1050A6000319562861287108003A03194228013A63
:1050B60003194728033A03194C28612808007C087D
:1050C600031974287C08031D6A2801306B280030F8
:1050D600F3007308FC000030F100F200A831412013
:1050E60008007C08031D792801307A280030F30077
:1050F6007308FC000130F1000030F200A8314120B5
:1051060008007708BF3E2000A000FF30783DA100D0
:10511600003021021A3003192002031894280130A6
:1051260095280030A200A3012208F9002308FA00FE
:1051360079087A040319080020307704F700003054
:105146007804F800080077089F3E2000A000FF3092
:10515600783DA100003021021A30031920020318FD
:10516600B6280130B7280030A200A3012208F900B2
:105176002308FA0079087A04031908005F307705D6
:10518600F70000307805F80008002000A500A3010C
:10519600A40123082507A000200886000230870006
:1051A6000108A1002108A20022080319080022080C
:1051B600A000A1012008F1002108F2007B08F400FC
:1051C6007A08F30090310D20A83101302000A307A2
:1051D6000030A43DCC2898310120A8318831072021
:1051E600A831B631C726A83100302000A90000300A
:1051F600A8002530A7008030A600A131A321A83140
:10520600A0310120A831B6316826A8319B3151233F
:10521600A83134302300DB00F130890B1029DB0B79
:10522600102900320929EC302000A000FF30A1002F
:105236002D30A2000030A3000030A400A5002D30C0
:10524600A6000030A700A931E021A9313C30F400C6
:10525600A330F300D730F2000A30F100B631BD2694
:10526600A93100302000E9000030E8001930E700DD
:10527600FA30E600C830EA000030EB008631D52669
:10528600080023003E083F04031D51293F08200063
:10529600B50023003E082000B4005A293E08FF3E10
:1052A6002000B400FF3023003F3D2000B500320847
:1052B600B30033082400A000A10120003108A70094
:1052C6003008A6002030B3003308A8003508AA002D
:1052D6003408A900AB31022320002708B1002608B4
:1052E600B000080021006A08ED006908EC00230000
:1052F600BC01BD0121006C0884006D088500120008
:105306000319A1296808E4006708E300EC302000CF
:10531600EE006E082100E5006B082000EF006F0824
:105326002100E6009331BD23A93121006308230043
:10533600BC07210064082300BD3D7D2923003D08EC
:105346002100E80023003C082100E7000800B631F0
:105356007526A9317608F2007508F1000030F300D1
:10536600F400B631B326A9317808F2007708F100C7
:10537600B6318E26A931B6317D26A931B6317526CC
:10538600A9317608F2007508F1000130F30000300B
:10539600F400B631B326A931B631D726A931720841
:1053A600FA007108F900B6319726A931B6317D2683
:1053B6007A08F6007908F500080020002108F200B6
:1053C6002008F1000A30F3000030F400B7318C27D2
:1053D600A93172082300C9007108C80020002308FB
:1053E600F2002208F1000A30F3000030F400B73171
:1053F6008C27A93172082300C5007108C40020005B
:105406002508F2002408F1000A30F3000030F40009
:10541600B7318C27A93172082300CB007108CA0066
:1054260020002708F2002608F1000A30F3000030B9
:10543600F400B7318C2772082300C7007108C60034
:105446000800F701F41F2E2AF309F409F30A0319D9
:10545600F40AF701F70AF21F352AF109F209F10AEF
:105466000319F20A7108720403195C2AF601F60A96
:10547600F21B472A0130F135F20D890B3E2A013025
:10548600F5007508F6073B2A72087402031D4D2ABB
:1054960071087302031C532A7108F3027208F43B65
:1054A6000130F236F10C890B542A0130F602031D45
:1054B600472A77080319642AF309F409F30A03193A
:1054C600F40A7408F2007308F10008000030710550
:1054D6002000A00000307205A10080307305A200F4
:1054E6007F307405A3002308220421042004031D31
:1054F600842A0030F4000030F3000030F20000305F
:10550600F10000307505A00000307605A10080305E
:105516007705A2007F307805A30023082204210422
:105526002004031D9E2A0030F8000030F7000030EA
:10553600F6000030F50078087406031DAC2A7708DB
:105546007306031DAC2A76087206031DAC2A75087D
:1055560071060319B02A031008000314080023007B
:10556600500807392000E700E801E735E80D10305C
:1055760067078400B830683D8500003FE900013FB9
:10558600EA006908F1006A08F200890D893B890979
:10559600F300F4000130AF316A27AA317408200005
:1055A600C7007308C6007208C5007108C40023004E
:1055B60035082000C300230034082000C200230061
:1055C60033082000C100230032082000C0009031BB
:1055D6006120AA3120004308DD004208DC004108B2
:1055E600DB004008DA00AB31A42320005D08E600AA
:1055F6005C08E5005B08E4005A08E30008002300A5
:10560600421C0E2B20002708FB002608FA0028085B
:10561600A831C820AB312000AA1B162B2A08AF00E0
:105626002908AE00182BAE01AF01AC01AD012D0863
:10563600803AAB002F08803A2B02031D242B2E083C
:105646002C020318382B2030F1000030F200200025
:105656002708F4002608F30090310D20AB31013005
:105666002000AC070030AD3D1A2B23004218442B16
:1056760020002708FB002608FA002808A831C820C1
:10568600AB3120002808F1000230F200B631FE26C8
:1056960020002E087107A6002F08723DA7000800FB
:1056A600F701F21F5D2BF109F209F10A0319F20A5B
:1056B600F701F70AF41F682BF309F409F30A031933
:1056C600F40A0130F5007508F706F801F9017108CA
:1056D60072040319972BF601F60AF21B7C2B013094
:1056E600F135F20D890B732B0130F5007508F607BD
:1056F600702B0130F835F90D890B7D2B7208740279
:10570600031D872B71087302031C8E2B7108F3028D
:105716007208F43B78140130F236F10C890B8F2BAA
:105726000130F602031D7C2B770803199F2BF8091D
:10573600F909F80A0319F90A7908F2007808F1005C
:105746000800031020005C0D5D0DDE005E08FB0006
:105756007B08031DB72B0030DD000030DC00003075
:10576600DB000030DA0008005A08DE005B08DF00C4
:105776005C08E0005D08E1001F30E136E00CDF0C5C
:10578600DE0C890BC02B5E08E2006208FA00DC170B
:10579600FF30DA05FF30DB05FF30DC050030DD05C4
:1057A6009630FB02FB1FEA2B7B08803A973E031CD0
:1057B600AE2B0130DD36DC0CDB0CDA0C890BDD2B75
:1057C6000130DE005E08FB070319FB2BDC2B2030C3
:1057D6007B020318AE2B7B080319FB2B0130DA354D
:1057E600DB0DDC0DDD0D890BF22B0130FB02EE2B00
:1057F6007A0803190800DA09DB09DC09DD09DA0A87
:105806000319DB0A0319DC0A0319DD0A0800200064
:105816002008210422042304240425042604270442
:105826000319622CF201F20AA71B262CA035A10D42
:10583600A20DA30DA40DA50DA60DA70D0130F10017
:105846007108F207172C27082F02031D442C26087F
:105856002E02031D442C25082D02031D442C24086A
:105866002C02031D442C23082B02031D442C220862
:105876002A02031D442C21082902031D442C20085A
:105886002802031C562C2008A8022108A93B22083E
:10589600AA3B2308AB3B2408AC3B2508AD3B2608B6
:1058A600AE3B2708AF3BA736A60CA50CA40CA30C51
:1058B600A20CA10CA00C0130F202031D262C280814
:1058C600A0002908A1002A08A2002B08A3002C0882
:1058D600A4002D08A5002E08A6002F08A700080082
:1058E600230031082000A500230030082000A40072
:1058F60023002F082000A30023002E082000A2006A
:105906007408A5007308A4007208A3007108A20019
:105916002208F5002308F6002408F7002508F800F9
:105926001730F836F70CF60CF50C890B942CFF3073
:105936007505A00000307605A10020082104031D8E
:10594600C32C2208F5002308F6002408F7002508D2
:10595600F8000130F535F60DF70DF80D890BAD2C75
:105966007808770476047504031DBE2C0230F10016
:105976000030F20008000330F1000030F2000800A9
:10598600200A2104031DE62C2208F5002308F60050
:105996002408F7002508F8000930F535F60DF70D4F
:1059A600F80D890BD02C7808770476047504031D4E
:1059B600DE2C0130DF2C0030F900FA017908F10005
:1059C6007A08F20008000430F1000030F200080006
:1059D600003020005A05E20000305B05E30080300D
:1059E6005C05E4007F305D05E5006508640463043A
:1059F6006204031D062D0030DD000030DC0000309F
:105A0600DB000030DA0000305E05E20000305F05A2
:105A1600E30080306005E4007F306105E50065083D
:105A2600640463046204031D202D0030E10000308D
:105A3600E0000030DF000030DE00DD1F3A2D0030D0
:105A4600E2000030E3000030E4008030E5005A0850
:105A5600E2025B08E33B5C08E43B5D08E53B650866
:105A6600DD006408DC006308DB006208DA00E11F81
:105A7600542D0030E2000030E3000030E4008030B6
:105A8600E5005E08E2025F08E33B6008E43B61086C
:105A9600E53B6508E1006408E0006308DF00620892
:105AA600DE008030DD068030E10661085D02031D00
:105AB600080060085C02031D08005F085B02031D06
:105AC60008005E085A02080072308600003087001F
:105AD6000830F10000301E00F10B6E2D200020086A
