:020000040000FA
:0400000080311D2806
:100008007E1480312000111C1B282100111C1B2884
:10001800200011100130F0007008C1073D30410682
:10002800031D1B280130F0007008C200C1017E10BA
:10003800090080311F28FC0137308400003085001A
:100048000D3083311D237E1020008131F5292000D9
:100058002608AA002708AB002808AC002908AD002C
:100068000630AA35AB0DAC0DAD0D890B35282D0822
:10007800F4002C08F3002B08F2002A08F1002608E7
:10008800AE002708AF002808B0002908B1000630E4
:10009800AE35AF0DB00DB10D890B4C280030B20054
:1000A8002430B300F430B4000030B5002E08B2029A
:1000B8002F08B33B3008B43B3108B53B3508F8008E
:1000C8003408F7003308F6003208F5008031D320F1
:1000D80080317208FB007108FA0001307B020030A1
:1000E80003197A02031CC02820002608AA00270842
:1000F800AB002808AC002908AD000430AA35AB0DC8
:10010800AC0DAD0D890B82282D08F4002C08F300E6
:100118002B08F2002A08F1002608AE002708AF00D5
:100128002808B0002908B1000430AE35AF0DB00D75
:10013800B10D890B99280030B2002430B300F43097
:10014800B4000030B5002E08B2022F08B33B3008C7
:10015800B43B3108B53B3508F8003408F7003308DC
:10016800F6003208F5008031D32080317208FB0098
:100178007108FA0023001E1501307B0200300319B4
:100188007A02031808007A0823009B001E129D17A4
:1001980021008E170E1723001D169E16080020003A
:1001A800A101F41FE428F109F209F309F409F10A9D
:1001B8000319F20A0319F30A0319F40AA101A10A9F
:1001C800F81FF528F509F609F709F809F50A0319DA
:1001D800F60A0319F70A0319F80A0130F900790831
:1001E800A1060030A5000030A4000030A3000030B4
:1001F800A200740873047204710403193E29A00153
:10020800A00AF41B13290130F135F20DF30DF40D9A
:10021800890B08290130F9007908A0070529013060
:10022800A235A30DA40DA50D890B14297408780215
:10023800031D282973087702031D282972087602EE
:10024800031D282971087502031C33297108F5025A
:100258007208F63B7308F73B7408F83B2214013028
:10026800F436F30CF20CF10C890B34290130A0029E
:10027800031D1329210803194C29A209A309A4095C
:10028800A509A20A0319A30A0319A40A0319A50AAE
:100298002508F4002408F3002308F2002208F100DE
:1002A800080080292000420803190800C201823191
:1002B8001D2281318131C92181312000A300230809
:1002C800A400240803190800181021001110003098
:1002D800F100F20082313F2281312000C2011A3040
:1002E8002000A300F830890B7729A30B7729000099
:1002F800080083312D2308000030003A03198529AE
:1003080090290030003A03195629013A03197D292A
:10031800033A031990299029080021000D112300A0
:100328000D1121008D1523008D110E128E12210042
:100338000E168E160C128C12101055303C008F00C1
:10034800AA308F000F103D002408E0391138A400AE
:100358003C002108E0391438A1002008E03915389C
:10036800A0003D002508E0391038A5001A08E0393A
:1003780014389A003C002408E0390B38A4005530A2
:100388008F00AA308F000F1408002000A001A101DF
:10039800A20120002135373E860087010030C03F8A
:1003A800C13F0130A1070030A23D2208803AFB007E
:1003B80080307B02031DE22904302102031CCD2971
:1003C8001830F5000030F6000B30F7000030F80068
:1003D8001930F9000030FA0082318022200020080C
:1003E8000800833128238131813191218131823183
:1003F800BE22813100302000A9000030A80025303D
:10040800A7008030A60080312B2081318231CE2296
:100418008131833123238131813155218131343038
:100428002000B600F130890B172AB60B172A0032C4
:10043800102A7C0803192F2A7C08031D252A01305D
:10044800262A0030F3007308FC000030F100F200A7
:1004580082313F2208007C08031D342A0130352AE6
:100468000030F3007308FC000130F1000030F200A6
:1004780082313F2208004F2A22000C128C161014D9
:10048800080022000C168C121014080022000C160A
:100498008C16101008007208003A0319542A5F2AB3
:1004A8007108003A0319402A013A0319452A033A08
:1004B80003194A2A5F2A080011340034163400341C
:1004C8001C34003421340034273400342C340034F4
:1004D80032340034383400343D340034433400348A
:1004E800483400344E340034533400345934003422
:1004F8005E34003464340034833115238231760845
:10050800F2007508F1000030F300F4008231D922BE
:1005180082317808F2007708F1008231E3228231D3
:100528007A08F2007908F1008231E32282318331BE
:100538000D230800083400341434003428340034FF
:1005480050340034A0340034403401348034023450
:10055800003405342C340034433400345934003426
:100568006F340034853400349B340034B2340034A2
:10057800C834003424001508F03908389500951659
:10058800273092003430F100F230890BC92AF10B80
:10059800C92A0800CF302000980596019701181441
:1005A800210011140B178B170800200091117135C9
:1005B800730724009100200091190800DF2A200009
:1005C8009111710824009100200091190800E82A6F
:1005D80021001910991099151916991619179913B8
:1005E8000800013400340234003404340034083480
:1005F8000034013400340434003408340034103436
:1006080000344634003464340034C8340034903440
:1006180001342000911124001615200091190800BA
:10062800112B2000911124001614200091190800A4
:10063800192B640080010131890B1E2B0034220024
:100648000C168C16101408008231EC2208000234B3
:040658000034080062
:020000040001F9
:04000E00A4D9FFDE94
:00000001FF
