:020000040000FA
:08000000803102288731FD2F39
:100CD000080086316C26080021001910991099151A
:100CE0001916991619179913080024001508F039D8
:100CF000083895009516273092003430F000F23015
:100D0000890B802EF00B802E0800863169268631F3
:100D100086319E2686318631752686310030200048
:100D2000A9000030A8004B30A7000030A600873192
:100D3000552786318631682686319D2E21000D117A
:100D400023000D1121008D1523008D110E128E121E
:100D500021000E168E1655303C008F00AA308F00F1
:100D60000F103D002408E0391138A4003C00210890
:100D7000E0391438A1002008E0391538A0003D0002
:100D80002508E0391038A5001A08E03914389A000F
:100D90003C002408E0390B38A40055308F00AA30FD
:100DA0008F000F1408002000A101F31FE42EF009AA
:100DB000F109F209F309F00A0319F10A0319F20A19
:100DC0000319F30AA101A10AF71FF52EF409F50989
:100DD000F609F709F40A0319F50A0319F60A0319C3
:100DE000F70A0130F8007808A1060030A5000030AD
:100DF000A4000030A3000030A20073087204710444
:100E0000700403193E2FA001A00AF31B132F013019
:100E1000F035F10DF20DF30D890B082F0130F800BC
:100E20007808A007052F0130A235A30DA40DA50D4C
:100E3000890B142F73087702031D282F720876027E
:100E4000031D282F71087502031D282F70087402D6
:100E5000031C332F7008F4027108F53B7208F63B4F
:100E60007308F73B22140130F336F20CF10CF00C4E
:100E7000890B342F0130A002031D132F2108031901
:100E80004C2FA209A309A409A509A20A0319A30AC0
:100E90000319A40A0319A50A2508F3002408F2007F
:100EA0002308F1002208F000080020002608AA000C
:100EB0002708AB002808AC002908AD000630AA3589
:100EC000AB0DAC0DAD0D890B5F2F2D08F3002C0879
:100ED000F2002B08F1002A08F0002608AE002708CF
:100EE000AF002808B0002908B1000630AE35AF0DBC
:100EF000B00DB10D890B762F0030B2002430B30055
:100F0000F430B4000030B5002E08B2022F08B33B15
:100F10003008B43B3108B53B3508F7003408F6001B
:100F20003308F5003208F4008631D3268731710882
:100F3000FA007008F90001307A02003003197902D2
:100F4000031CEA2F20002608AA002708AB00280867
:100F5000AC002908AD000430AA35AB0DAC0DAD0DC9
:100F6000890BAC2F2D08F3002C08F2002B08F100A0
:100F70002A08F0002608AE002708AF002808B000B5
:100F80002908B1000430AE35AF0DB00DB10D890B9D
:100F9000C32F0030B2002430B300F430B40000306E
:100FA000B5002E08B2022F08B33B3008B43B31081D
:100FB000B53B3508F7003408F6003308F500320871
:100FC000F4008631D32687317108FA007008F900E1
:100FD00023001E1501307A0200300319790203182C
:100FE0000800790823009B001E129D1721008E1710
:100FF0000E1723001D169E16080020008631852E30
:041000000234003482
:020000040001F9
:04000E00A4D9FFDE94
:00000001FF
