:020000040000FA
:0400000080313B28E8
:100008007E1480312000111C39282100111C392848
:10001800200011100130F2007208FA073D307A060C
:10002800031D39280130F2007208C900FA01790865
:1000380003192A287908031D2328013024280030B1
:10004800F2007208F9000030F00036287908031D24
:100058002F28013030280030F2007208F9000130F2
:10006800F0000030F100823156227E100900803104
:100078003D28F901FA012000BF01C001C101C201F8
:10008800C301C401C501C601C701C801C901CA012C
:100098007E10200082310D2A20002E08B2002F0881
:1000A800B3003008B4003108B5000630B235B30DDE
:1000B800B40DB50D890B5A283508A3003408A200E1
:1000C8003308A1003208A0002E08B6002F08B70098
:1000D8003008B8003108B9000630B635B70DB80D8C
:1000E800B90D890B71280030BA002430BB00F430F8
:1000F800BC000030BD003608BA023708BB3B3808E0
:10010800BC3B3908BD3B3D08A7003C08A6003B089E
:10011800A5003A08A4008031F92080312000210888
:10012800F5002008F400013075020030031974024C
:10013800031CE6282E08B2002F08B3003008B400CC
:100148003108B5000430B235B30DB40DB50D890BC7
:10015800A7283508A3003408A2003308A1003208F4
:10016800A0002E08B6002F08B7003008B8003108E4
:10017800B9000430B635B70DB80DB90D890BBE28D6
:100188000030BA002430BB00F430BC000030BD00A1
:100198003608BA023708BB3B3808BC3B3908BD3BB8
:1001A8003D08A7003C08A6003B08A5003A08A400A3
:1001B8008031F920803120002108F5002008F40062
:1001C80023001E150130750200300319740203184C
:1001D8000800740823009B001E129D1721008E172B
:1001E8000E1723001D169E1608002000A901A31F44
:1001F8000A29A009A109A209A309A00A0319A10AA9
:100208000319A20A0319A30AA901A90AA71F1B29EE
:10021800A409A509A609A709A40A0319A50A031987
:10022800A60A0319A70A0130F3007308A9060030CB
:10023800AD000030AC000030AB000030AA0023084D
:1002480022042104200403196429A801A80AA31B75
:1002580039290130A035A10DA20DA30D890B2E2936
:100268000130F3007308A8072B290130AA35AB0D1C
:10027800AC0DAD0D890B3A2923082702031D4E2921
:1002880022082602031D4E2921082502031D4E2996
:1002980020082402031C59292008A4022108A53B90
:1002A8002208A63B2308A73B2A140130A336A20C38
:1002B800A10CA00C890B5A290130A802031D392969
:1002C800290803197229AA09AB09AC09AD09AA0AB8
:1002D8000319AB0A0319AC0A0319AD0A2D08A300C8
:1002E8002C08A2002B08A1002A08A0000800210061
:1002F8000D1123000D1121008D1523008D110E12F3
:100308008E1221000E168E160C128C1210105530FB
:100318003C008F00AA308F000F103D002408E03900
:100328001138A4003C002108E0391438A100200845
:10033800E0391538A0003D002508E0391038A5003F
:100348001A08E03914389A003C002408E0390B38C0
:10035800A40055308F00AA308F000F140800CF2951
:100368002000490803190800C9018131E0218131C1
:10037800F80078082000A9002908031908001A3095
:10038800F800F830890BC629F80BC6290032080096
:100398008331202308000030003A0319D429DF29CB
:1003A8000030003A0319B429013A0319CC29033A59
:1003B8000319DF29DF2908002000A601A701A801E9
:1003C800200027353F3E860087010030C03FC13FEF
:1003D8000130A7070030A83D2808803AF700803090
:1003E8007702031DF92904302702031CE429183079
:1003F8002000A0000030A1000B30A2000030A300B4
:100408001930A4000030A5008231352220002608CA
:10041800080083311B23823181317B218231823173
:10042800B722823100302000B1000030B000253002
:10043800AF008030AE008031502082318231C72237
:1004480082318331162382318131B32182313430B4
:100458002000BE00F130890B2F2ABE0B2F2A003254
:10046800282A83310E23823120002108F400200835
:10047800F3000030F500F6008231D22282312000EC
:100488002308F4002208F3008231DC2282312000A4
:100498002508F4002408F3008231DC2282318331FC
:1004A80006230800662A22000C128C161014080075
:1004B80022000C168C121014080022000C168C1640
:1004C800101008007108003A03196B2A762A700880
:1004D800003A0319572A013A03195C2A033A031907
:1004E800612A762A080011340034163400341C348A
:1004F800003421340034273400342C3400343234AE
:100508000034383400343D34003443340034483443
:1005180000344E34003453340034593400345E34DB
:10052800003464340034083400341434003428347B
:10053800003450340034A034003440340134803462
:100548000234003405342C34003443340034593434
:1005580000346F340034853400349B340034B234B2
:100568000034C834003424001508F03908389500E0
:100578009516273092003430F300F230890BC22AE6
:10058800F30BC22A0800CF30200098059601970186
:100598001814210011140B178B1708002000911153
:1005A8007335750724009100200091190800D82A96
:1005B800200091117308240091002000911908006F
:1005C800E12A210019109910991519169916191769
:1005D8009913080001340034023400340434003420
:1005E800083400340134003404340034083400344E
:1005F800103400344634003464340034C8340034D1
:10060800903401342000911124001615200091190E
:1006180008000A2B200091112400161420009119BB
:100628000800122B22000C168C16101408008231B8
:0A063800E522080002340034080037
:020000040001F9
:04000E00A4D9FFDE94
:00000001FF
