:020000040000FA
:040000008031202803
:1000060008007E1480312000111C1E282100111CBE
:100016001E28200011100130F00070082300D507BB
:100026003D305506031D1E280130F00070082100E2
:10003600EF002300D5017E10090080312228DF3031
:100046008400B330850023001200DA001200DB00C2
:100056001200DC001200DD001200DE001200DF00DC
:100066001200E0001200E1001200E200713084008C
:10007600273085007F30FE000030FF00B4311124A8
:100086008031FC012100EF016530840001308500DC
:100096000A30FE000030FF00B43111248031A03058
:1000A6008400013085003A30FE000030FF00B43194
:1000B6001124803120308400023085002030FE007B
:1000C6000030FF00B43111247E102000B631602EBE
:1000D60023002D082200D90023002C082200D80076
:1000E60023002B082200D70023002A082200D6006E
:1000F60021002B082200D90021002A082200D8005E
:10010600210029082200D700210028082200D60055
:100116005908E1005808E0005708DF005608DE00DD
:10012600BC01BD016108031D9C2880306002031CD0
:10013600B8285E082100AC0022005F082100AD004F
:10014600220060082100AE00220061082100AF00F5
:100156001F30AF36AE0CAD0CAC0C890BAC282F089B
:100166002E042D042C040319C12922005E08210047
:10017600AC0022005F082100AD00220060082100CB
:10018600AE00220061082100AF000130AC35AD0D94
:10019600AE0DAF0D890BC9282F082E042D042C0493
:1001A600031D1B292B082000A90021002A08200076
:1001B600A800210029082000A70021002808200007
:1001C600A60021002B082000AD0021002A082000EF
:1001D600AC00210029082000AB00210028082000DF
:1001E600AA0090312320803120002908C300280866
:1001F600C2002708C1002608C000BF30C7008030F3
:10020600C6000030C5000030C4009C31E224200046
:1002160043082100AB00200042082100AA0020006C
:1002260041082100A900200040082100A80008007C
:1002360022005E082100AC0022005F082100AD000C
:10024600220060082100AE00220061082100AF00F4
:100256001F30AF36AE0CAD0CAC0C890B2C292F0819
:100266002E042D042C040319782900302000C30025
:100276000030C2000030C1000030C00021002B0851
:10028600A3002A08A2002908A1002808A0002B081C
:10029600A7002A08A6002908A5002808A400B63148
:1002A60092268031210023082000C7002100220861
:1002B6002000C600210021082000C50021002008DA
:1002C6002000C4009C31E224200043082100AB003A
:1002D600200042082100AA00200041082100A900B0
:1002E600200040082100A8000800E7302200BC07D3
:1002F600FF30BD3D4C302000A9000030A800003082
:10030600A7000030A60021002B082000AD00210028
:100316002A082000AC00210029082000AB0021009B
:1003260028082000AA0090312320803120002908C7
:100336002100AB00200028082100AA002000270881
:100346002100A900200026082100A8002B08220071
:10035600D90021002A082200D800210029082200FD
:10036600D700210028082200D6005908E1005808C5
:10037600E0005708DF005608DE00DB298030220047
:1003860060027F30613B03180800803060063F3012
:10039600031961065E045F04031DDB29003021009A
:1003A600AB000030AA000030A9000030A800080009
:1003B6000D30DE07FB30DF3D4A30E03D0030E13DE9
:1003C6005E082100AC0022005F082100AD0022007B
:1003D60060082100AE00220061082100AF0017303E
:1003E600AF36AE0CAD0CAC0C890BF3292C08813E54
:1003F600B000FF302D3DB10030082200BC072100BF
:1004060031082200BD3DF3302100AC000430AD00C0
:100416003530AE003F30AF00FF3022005E052100D0
:10042600B000FF3022005F052100B1007F302200BE
:1004360060052100B2000030220061052100B300F2
:100446003008AC073108AD3D3208AE3D3308AF3D4C
:100456002F082200E10021002E082200E0002100E2
:100466002D082200DF0021002C082200DE00610892
:10047600D9006008D8005F08D7005E08D600590882
:100486002100AB00220058082100AA0022005708CC
:100496002100A900220056082100A800BF30200034
:1004A600DD008030DC000030DB000030DA002100A7
:1004B6002B082000E10021002A082000E00021008E
:1004C60029082000DF00210028082000DE008531F1
:1004D600F525803120005D082200DD0020005C0843
:1004E6002200DC0020005B082200DB0020005A0806
:1004F6002200DA0040302000DD000030DC00003051
:10050600DB000030DA0022005D082000E100220056
:100516005C082000E00022005B082000DF002200CB
:100526005A082000DE008531F525803120005D085F
:10053600C3005C08C2005B08C1005A08C000220064
:100546005D082000C70022005C082000C6002200CB
:100556005B082000C50022005A082000C4009C3118
:10056600E2248031200043082200C900200042080E
:100576002200C800200041082200C70020004008D1
:100586002200C60049082000A900220048082000D1
:10059600A800220047082000A700220046082000E5
:1005A600A600220049082000AD00220048082000CD
:1005B600AC00220047082000AB00220046082000BD
:1005C600AA00903123208031200029082200CD0086
:1005D600200028082200CC00200027082200CB009B
:1005E600200026082200CA004D082000A90022008B
:1005F6004C082000A80022004B082000A70022007B
:100606004A082000A60022004D082000AD00220066
:100616004C082000AC0022004B082000AB00220052
:100626004A082000AA0090312320803120002908A2
:100636002200D100200028082200D0002000270830
:100646002200CF00200026082200CE003E302000E7
:10065600DD00CC30DC00CE30DB001330DA003E307B
:10066600A9007830A8009E30A7002630A6002200F8
:1006760051082000AD00220050082000AC002200E6
:100686004F082000AB0022004E082000AA0090313F
:100696002320803120002908E1002808E0002708EF
:1006A600DF002608DE008531F525803120005D0853
:1006B6002200D50020005C082200D40020005B0840
:1006C6002200D30020005A082200D2005108200040
:1006D600A900220050082000A80022004F08200090
:1006E600A70022004E082000A60022005508200080
:1006F600AD00220054082000AC0022005308200060
:10070600AB00220052082000AA009031232080313D
:10071600200029082200A700200028082200A600A1
:10072600200027082200A500200026082200A40099
:100736003F302000DD002A30DC00AA30DB00AA3082
:10074600DA003E30A9009130A800E930A700EE306B
:10075600A600220051082000AD002200500820000B
:10076600AC0022004F082000AB0022004E082000FB
:10077600AA0090312320803120002908E1002808B2
:10078600E0002708DF002608DE008531F5258031E8
:1007960020005D082200D50020005C082200D4005D
:1007A60020005B082200D30020005A082200D20055
:1007B6004D082000A90022004C082000A8002200B5
:1007C6004B082000A70022004A082000A6002200AD
:1007D60055082000AD00220054082000AC0022007D
:1007E60053082000AB00220052082000AA009031D6
:1007F60023208031200029082200AB002000280891
:100806002200AA00200027082200A90020002608AE
:100816002200A80027082000DD002200260820006C
:10082600DC00220025082000DB002200240820002E
:10083600DA0022002B082000E10022002A0820000E
:10084600E000220029082000DF00220028082000FE
:10085600DE008531F525803120005D082200A300E9
:1008660020005C082200A20020005B082200A100F4
:1008760020005A082200A0003F302000A9000030C6
:10088600A8000030A7000030A60022005D08200066
:10089600AD0022005C082000AC0022005B082000AE
:1008A600AB0022005A082000AA0090312320803194
:1008B600200029082200D500200028082200D400A4
:1008C600200027082200D300200026082200D2009C
:1008D6005D082000A90022005C082000A800220074
:1008E6005B082000A70022005A082000A60022006C
:1008F60055082000AD00220054082000AC0022005C
:1009060053082000AB00220052082000AA009031B4
:1009160023208031200029082200C1002000280859
:100926002200C000200027082200BF002000260861
:100936002200BE003C08F1003D08F200890D893B0B
:100946008909F300F4000130AB31E32380317408E8
:100956002200C5007308C4007208C3007108C200F3
:1009660049082000A900220048082000A80022000B
:1009760047082000A700220046082000A600220003
:1009860023082000DD00220022082000DC002200CF
:1009960021082000DB00220020082000DA002200C7
:1009A60041082000E100220040082000E00022006B
:1009B6003F082000DF0022003E082000DE008531CF
:1009C600F525803120005D08AD005C08AC005B08B1
:1009D600AB005A08AA009031232080312000290854
:1009E6002200AF00200028082200AE0020002708C1
:1009F6002200AD00200026082200AC00373020007F
:100A0600A9001730A800F730A700D130A6002200B1
:100A160045082000AD00220044082000AC0022005A
:100A260043082000AB00220042082000AA009031B3
:100A36002320803120002908DD002808DC00270853
:100A4600DB002608DA0022002F082000E100220041
:100A56002E082000E00022002D082000DF002200E2
:100A66002C082000DE008531F525803120005D0848
:100A76002200B30020005C082200B20020005B08C0
:100A86002200B10020005A082200B00041082100CF
:100A9600A300220040082100A20022003F082100F6
:100AA600A10022003E082100A000220033082100F8
:100AB600A700220032082100A600220031082100EA
:100AC600A500220030082100A400B631922680310C
:100AD600210023082200B700210022082200B600C8
:100AE600210021082200B500210020082200B400C0
:100AF6005D082000DD0022005C082000DC002200EA
:100B06005B082000DB0022005A082000DA002200E1
:100B160037082000E100220036082000E00022000D
:100B260035082000DF00220034082000DE00853171
:100B3600F525803120005D082200BB0020005C08FE
:100B46002200BA0020005B082200B90020005A08E3
:100B56002200B8003F302000A9003130A8007130D3
:100B6600A7008030A600220045082000AD00220024
:100B760044082000AC00220043082000AB002200FD
:100B860042082000AA009031232080312000290845
:100B9600DD002808DC002708DB002608DA00220032
:100BA6003B082000E10022003A082000E000220075
:100BB60039082000DF00220038082000DE008531D9
:100BC600F52520005D082100AB0020005C0821000F
:100BD600AA0020005B082100A90020005A08210075
:100BE600A800080020005D088039E2006208EA00DB
:100BF6005D35E2006208EC00DC1B6C146C0803191E
:100C0600122E6C0A031D0F2E0030DD000030DC00B2
:100C16000030DB000030DA00DC17DD011A2E003070
:100C2600DD000030DC000030DB000030DA00610857
:100C36008039E2006208EB006B086A06031D6A173A
:100C46006135E2006208EB00E01B6B146B080319C8
:100C56003A2E6B0A031D372E0030E1000030E0000B
:100C66000030DF000030DE00E017E101422E0030E8
:100C7600E1000030E0000030DF000030DE006C08EC
:100C86006B020318882E6A1F4C2E8030E200620821
:100C9600EA066C08E2006208ED006B08E2006208F2
:100CA600EC006D08E2006208EB005A08E2006208F8
:100CB600ED005E08E2006208DA006D08E2006208F4
:100CC600DE005B08E2006208ED005F08E2006208F1
:100CD600DB006D08E2006208DF005C08E2006208E3
:100CE600ED006008E2006208DC006D08E2006208C0
:100CF600E0005D08E2006208ED006108E2006208BB
:100D0600DD006D08E2006208E100ED016B08E2001B
:100D1600E3016308E5006C086202E400031CE503D6
:100D26006508803AE60080306602031D9C2E1A3064
:100D36006402031CD02E20005D085C045B045A0488
:100D46000319A72E0130A82E0030E2006208ED003C
:100D56000030DD000030DC000030DB000030DA005F
:100D66006B08E2006208EC00D52E6D1CC02E6D36B5
:100D76000138E2006208ED00C22E0310ED0C5A188D
:100D8600ED170130E200DD37DC0CDB0CDA0CE20B90
:100D9600C62E0130E2006208EC0720006B086C02E8
:100DA600031CB82E6A1B062F6C08031DE32E0030A9
:100DB600DD000030DC000030DB000030DA00080027
:100DC6005E08DA075F08DB3D6008DC3D6108DD3D53
:100DD6005D1C802F6D1CF52E6D360138E200620811
:100DE600ED00F72E0310ED0C5A18ED170130E20056
:100DF600DD37DC0CDB0CDA0CE20BFB2E0130E200FB
:100E06006208EC07802F5D08803AE2006108803AAC
:100E16006202031D182F60085C02031D182F5F086D
:100E26005B02031D182F5E085A020318502FFF306D
:100E3600E200FF30E300FF30E400FF30E5005A082F
:100E46005E02E6005B085F3BE7005C08603BE8008B
:100E56005D08613BE9006608E2076708E33D68084C
:100E6600E43D6908E53D6508DD006408DC006308CB
:100E7600DB006208DA008030E2006208EA06ED096B
:100E8600ED0A6D08031D582F0130DA070030DB3DEF
:100E96000030DC3D0030DD3D582F5E08DA025F0889
:100EA600DB3B6008DC3B6108DD3B5D085C045B0402
:100EB6005A04031D7E2F6D08031D7E2F0030DD00B2
:100EC6000030DC000030DB000030DA0008000130C2
:100ED600DA35DB0DDC0DDD0D890B6B2FED1B5A149E
:100EE6006D1C772F0314782F0310ED0D6C08031972
:100EF6007E2F0130EC02DC1F6A2FEB01ED1F8B2FDA
:100F06006D087F3903195A18892F8B2FEB01EB0ACD
:100F16006B080319B72F0130DA070030DB3D0030CC
:100F2600DC3D0030DD3D5D1CB72F5A08E2005B0852
:100F3600E3005C08E4005D08E5000130E600E53703
:100F4600E40CE30CE20CE60BA22F6508DD00640856
:100F5600DC006308DB006208DA006C0A0319B72FAD
:100F66000130E2006208EC076C0A031D6C08031DE1
:100F7600C72F0030DD000030DC000030DB00003021
:100F8600DA006C080319EA016C1CCB2FDC17CF2F93
:100F96007F30E2006208DC056C36E2006208DD00A4
:100FA600EA1F0800DD1708002000A500A301A40120
:100FB60023082507A00020088600023087000108C4
:100FC600A1002108A2002208031908002208A00097
:100FD600A1012008F1002108F2007B08F4007A083C
:100FE600F300A8317320873101302000A3070030B9
:100FF600A43DDB2FB331C4230800F1002000111EED
:101006000128710823009A00080021000D11230011
:101016000D1121008D1523008D110E128E12210047
:101026000E168E160C128C1210108C1122008C11BA
:1010360055303C008F00AA308F000F103D00240869
:10104600E0391138A4003C002108E0391438A10029
:101056002008E0391538A0003D002508E039103891
:10106600A5001A08E03914389A003C002408E03933
:101076000B38A40055308F00AA308F000F140800DB
:101086002000590886008701403FDB00413FDC0015
:101096005B0884005C0885001200643A0319622824
:1010A600590886008701403FDB00413FDC005B08B2
:1010B60084005C0885001200693A031DB3285908AC
:1010C600860087010130810741310318810A5A08D9
:1010D6008600870101088400850102308107003FF0
:1010E600DB00013FDC005B082100A80020005C0853
:1010F6002100A900890D893B8909AA00AB00AC0033
:10110600AD00AE00AF0020005808B1005708B0008F
:10111600210028082000B200210029082000B30081
:1011260021002A082000B40021002B082000B50069
:1011360021002C082000B60021002D082000B70051
:1011460021002E082000B80021002F082000B90039
:101156009A31362220003108D8003008D70008001E
:10116600590886008701403FF100413FF2003830C0
:10117600F300BA30F4000230F5000030F600A83172
:1011860021208831710872040319E02820005908CB
:1011960086008701403FF100413FF2003B30F300FB
:1011A600BA30F4000230F5000030F600A8312120F4
:1011B600883171087204031D292920005908860008
:1011C60087010230810741310318810A5A088600D7
:1011D600870101088400850102308107003F210054
:1011E600A800013FA900AA01AB01AC01AD01AE0107
:1011F600AF0120005808B1005708B00021002808A8
:101206002000B200210029082000B30021002A088E
:101216002000B40021002B082000B50021002C0876
:101226002000B60021002D082000B70021002E085E
:101236002000B80021002F082000B9009A3136227C
:1012460020003108D8003008D700080020005908CF
:1012560086008701403FF100413FF2002930F3004C
:10126600BA30F4000330F5000030F600A831212032
:10127600883171087204031D8829200059088600E8
:1012860087010330810741310318810A5A08860015
:1012960087010108840085010230810700082100CA
:1012A600B300B401B501B601B701B801B901BA017D
:1012B60020005808B1005708B0002100330820006C
:1012C600B200210034082000B300210035082000B8
:1012D600B400210036082000B500210037082000A0
:1012E600B600210038082000B70021003908200088
:1012F600B80021003A082000B900A331E8232000F5
:101306003108D8003008D7000800200059088600A8
:101316008701403FF100413FF2002A30F300BA3026
:10132600F4000230F5000030F600A83121208831A3
:1013360071087204031DE8292000590886008701F8
:101346000230810741310318810A5A088600870155
:1013560001088400850102308107003F2100B300A7
:10136600013FB400B501B601B701B801B901BA0130
:1013760020005808B1005708B000210033082000AB
:10138600B200210034082000B300210035082000F7
:10139600B400210036082000B500210037082000DF
:1013A600B600210038082000B700210039082000C7
:1013B600B80021003A082000B900A331E823200034
:1013C6003108D8003008D7000800200059088600E8
:1013D6008701403FDB00413FDC005B0884005C087E
:1013E600850012006F3A031D402A590886008701BE
:1013F6000130810741310318810A5A0886008701A6
:1014060001088400850102308107003F2100B300F6
:10141600013FB400B501B601B701B801B901BA017F
:1014260020005808B1005708B000210033082000FA
:10143600B200210034082000B30021003508200046
:10144600B400210036082000B5002100370820002E
:10145600B600210038082000B70021003908200016
:10146600B80021003A082000B900A331E823200083
:101476003108D8003008D7000800590886008701CF
:10148600403FF100413FF2004130F300BA30F40032
:101496000230F5000030F600A831212088317108AD
:1014A6007204031D9F2A2000590886008701023016
:1014B600810741310318810A5A088600870101080D
:1014C6008400850102308107003F2100B300013FFF
:1014D600B400B501B601B701B801B901BA012000DF
:1014E6005808B1005708B000210033082000B200A8
:1014F600210034082000B300210035082000B40084
:10150600210036082000B500210037082000B6006B
:10151600210038082000B700210039082000B80053
:1015260021003A082000B900A331E8232000310841
:10153600D8003008D7000800200059088600870127
:10154600403FF100413FF2002530F300BA30F4008D
:101556000330F5000030F600A831212088317108EB
:101566007204031D362B20005908860087010330BC
:10157600810741310318810A5A088600870101084C
:101586008400850102308107003F2100B000013F41
:10159600B100300886003108870023004408810026
:1015A600322B20005908860087010230810741311D
:1015B6000318810A5A0886008701010884008501FC
:1015C60002308107003F2100B000013FB100300822
:1015D60086003108870023004408C03F4508C13F04
:1015E600322B5908860087010130810741310318E3
:1015F600810A5A08860087010108840085010230A5
:101606008107003F2100B000013FB100300886008D
:101616003108870023004408C03F4508C13F322BEC
:1016260020005908860087010230810741310318DE
:10163600810A5A0886008701010884008501023064
:101646008107003F2100B000013FB100300886004D
:101656003108870023004408C03F4508C13F2000E9
:10166600D701D80108002000590886008701403FAD
:10167600F100413FF2002630F300BA30F4000230A8
:10168600F5000030F600A831212088317108720477
:101696000319D42A2000590886008701403FDB0041
:1016A600413FDC005B0884005C08850012006E3A4E
:1016B6000319F42A590886008701403FF100413F8B
:1016C600F2003E30F300BA30F4000230F50000308C
:1016D600F600A83121208831710872040319132BF2
:1016E6002000590886008701403FDB00413FDC00AF
:1016F6005B0884005C0885001200703A031DCF2B3E
:101706005908860087010130810741310318810A93
:101716005A08860087010108840085010230810786
:10172600003F2100B300013FB400B501B601B70187
:10173600B801B901BA0120005808B1005708B00035
:10174600210033082000B200210034082000B30035
:10175600210035082000B400210036082000B5001D
:10176600210037082000B600210038082000B70005
:10177600210039082000B80021003A082000B900ED
:101786007830DB005B08BA009B31892320003108E2
:10179600D8003008D7000800590886008701403F66
:1017A600DB00413FDC005B0884005C08850012001A
:1017B600733A031D082C59088600870101308107FA
:1017C60041310318810A5A088600870101088400FE
:1017D600850102308107003F2100A000013FA100E2
:1017E60020005808A1005708A00021002108200069
:1017F600A300210020082000A200AF313B272000D3
:101806002108D8002008D70008005908860087015B
:10181600403FF100413FF2002D30F300BA30F400B2
:101826000330F5000030F600A83121208831710818
:101836007204031D662C20005908860087010330B8
:10184600810741310318810A5A0886008701010879
:10185600840085010230810700082100B300B4012D
:10186600B501B601B701B801B901BA01200058089F
:10187600B1005708B000210033082000B200210053
:1018860034082000B300210035082000B4002100F0
:1018960036082000B500210037082000B6002100D8
:1018A60038082000B700210039082000B8002100C0
:1018B6003A082000B900A331072320003108D800D8
:1018C6003008D70008002000590886008701403FED
:1018D600F100413FF2002E30F300BA30F40002303E
:1018E600F5000030F600A831212088317108720415
:1018F600031DC62C20005908860087010230810787
:1019060041310318810A5A088600870101088400BC
:10191600850102308107003F2100B300013FB4007A
:10192600B501B601B701B801B901BA0120005808DE
:10193600B1005708B000210033082000B200210092
:1019460034082000B300210035082000B40021002F
:1019560036082000B500210037082000B600210017
:1019660038082000B700210039082000B8002100FF
:101976003A082000B900A331072320003108D80017
:101986003008D70008002000590886008701403F2C
:10199600DB00413FDC005B0884005C088500120028
:1019A600753A031D1E2D59088600870101308107EF
:1019B60041310318810A5A0886008701010884000C
:1019C600850102308107003F2100B300013FB400CA
:1019D600B501B601B701B801B901BA01200058082E
:1019E600B1005708B000210033082000B2002100E2
:1019F60034082000B300210035082000B40021007F
:101A060036082000B500210037082000B600210066
:101A160038082000B700210039082000B80021004E
:101A26003A082000B900A331072320003108D80066
:101A36003008D7000800590886008701403FF100AA
:101A4600413FF2004430F300BA30F4000230F500B2
:101A56000030F600A8312120883171087204031D78
:101A66007D2D20005908860087010230810741310B
:101A76000318810A5A088600870101088400850137
:101A860002308107003F2100B300013FB400B501D9
:101A9600B601B701B801B901BA0120005808B10072
:101AA6005708B000210033082000B2002100340896
:101AB6002000B300210035082000B40021003608BC
:101AC6002000B500210037082000B60021003808A4
:101AD6002000B700210039082000B80021003A088C
:101AE6002000B900A331072320003108D8003008B0
:101AF600D70008002000590886008701403FF10002
:101B0600413FF2003130F300BA30F4000330F50003
:101B16000030F600A83121208831710872040319BB
:101B2600AB2D2000590886008701403FF100413F58
:101B3600F2001930F300BA30F4000330F50000303B
:101B4600F600A8312120883171087204031D0D2E7C
:101B56002000590886008701403FDB00413FDC003A
:101B660002305B0784005C0803185C0A85000008E5
:101B7600DD005D082100B2002000590886008701BB
:101B86000330810741310318810A5A08860087010C
:101B96000108840085010230810700082100B30096
:101BA600B401B501B601B701B801B901BA01200007
:101BB6005808B1005708B000210033082000B200D1
:101BC600210034082000B300210035082000B400AD
:101BD600210036082000B500210037082000B60095
:101BE600210038082000B700210039082000B8007D
:101BF60021003A082000B900210032082000DB004D
:101C06005B08BA009B31892320003108D8003008D0
:101C1600D70008002000590886008701403FF100E0
:101C2600413FF2003230F300BA30F4000230F500E2
:101C36000030F600A831212088317108720403199A
:101C46003B2E2000590886008701403FF100413FA6
:101C5600F2001A30F300BA30F4000230F50000301A
:101C6600F600A8312120883171087204031D9E2ECA
:101C76002000590886008701403FDB00413FDC0019
:101C860001305B0784005C0803185C0A85000008C5
:101C9600DD005D082100B20020005908860087019A
:101CA6000230810741310318810A5A0886008701EC
:101CB60001088400850102308107003F2100B3003E
:101CC600013FB400B501B601B701B801B901BA01C7
:101CD60020005808B1005708B00021003308200042
:101CE600B200210034082000B3002100350820008E
:101CF600B400210036082000B50021003708200076
:101D0600B600210038082000B7002100390820005D
:101D1600B80021003A082000B9002100320820004E
:101D2600DB005B08BA009B31892320003108D8000C
:101D36003008D70008002000590886008701403F78
:101D4600DB00413FDC005B0884005C088500120074
:101D5600783A0319BD2E590886008701403FDB00FB
:101D6600413FDC005B0884005C0885001200583A9D
:101D7600031D1C2F590886008701403FDB00413FA9
:101D8600DC005B0884005C0885000008DD005D0857
:101D96002100B20020005908860087010130810722
:101DA60041310318810A5A08860087010108840018
:101DB600850102308107003F2100B300013FB400D6
:101DC600B501B601B701B801B901BA01200058083A
:101DD600B1005708B000210033082000B2002100EE
:101DE60034082000B300210035082000B40021008B
:101DF60036082000B500210037082000B600210073
:101E060038082000B700210039082000B80021005A
:101E16003A082000B900210032082000DB005B08E8
:101E2600BA009B31892320003108D8003008D7003A
:101E36000800590886008701403FF100413FF20043
:101E46004730F300BA30F4000230F5000030F600F7
:101E5600A83121208831710872040319492F200006
:101E6600590886008701403FF100413FF2003530B6
:101E7600F300BA30F4000230F5000030F600A83165
:101E86002120883171087204031DAC2F20005908E7
:101E960086008701403FDB00413FDC0001305B07E5
:101EA60084005C0803185C0A85000008DD005D08F4
:101EB6002100B20020005908860087010230810700
:101EC60041310318810A5A088600870101088400F7
:101ED600850102308107003F2100B300013FB400B5
:101EE600B501B601B701B801B901BA012000580819
:101EF600B1005708B000210033082000B2002100CD
:101F060034082000B300210035082000B400210069
:101F160036082000B500210037082000B600210051
:101F260038082000B700210039082000B800210039
:101F36003A082000B900210032082000DB005B08C7
:101F4600BA009B31892320003108D8003008D70019
:101F560008002000590886008701403FDB00413F0A
:101F6600DC005B0884005C0885001200253A031D2E
:101F7600D42F5908860087010130810741310318A3
:101F8600810A2530F1000030F2005808F4005708A5
:101F9600F300A831732001302000D7000030D800AC
:101FA600080059088600870101308107413103186E
:101FB600810A322B590886008701403FDB00413FEA
:101FC600DC005B0884005C0885000008DD00DE019B
:101FD6005D08F1005E08F2005808F4005708F300A7
:101FE600A831732088312000590886008701013006
:0A1FF600810741310318810ACE2F44
:1020020077089F3E2000A000FF30783DA1000030FD
:1020120021021A3003192002031811280130122854
:102022000030A200A3012208F9002308FA0079086F
:102032007A04031908005F307705F700003078054D
:10204200F8000800200029088039AE002E08B300ED
:102052002935AE002E08B900A81B39143908031916
:102062003F28390A031D3D280030A9000030A8008E
:102072000030A7000030A600A81747280030A900AA
:102082000030A8000030A7000030A6002D088039DB
:10209200AE002E08B3062D35AE002E08B400AC1BE0
:1020A2003414340803196228340A031D60280030EE
:1020B200AD000030AC000030AB000030AA00AC171D
:1020C2006A280030AD000030AC000030AB000030B8
:1020D200AA003408031D3908031D78280030A9001E
:1020E2000030A8000030A7000030A6000800260833
:1020F200AE002E08F1002C08B5318B259031720804
:102102002000BF007108BE003E08AE00AF01B00162
:10211200B1013108B8003008B7002F08B6002E0808
:10212200B5003F08AE00AF01B001B1013108BD00FA
:102132003008BC002F08BB002E08BA002708AE00EA
:102142002E08F1002B08B5318B2590317208200042
:10215200BF007108BE003E08AE00AF01B001B10180
:102162002E08B5072F08B63D3008B73D3108B83DF7
:102172003F08AE00AF01B001B1012E08BA072F0827
:10218200BB3D3008BC3D3108BD3D2808AE002E08DD
:10219200F1002A08B5318B25903172082000BF006A
:1021A2007108BE003E08AE00AF01B001B1012E08B9
:1021B200B5072F08B63D3008B73D3108B83D3F0896
:1021C200AE00AF01B001B1012E08BA072F08BB3D26
:1021D2003008BC3D3108BD3D0830B535B60DB70DF0
:1021E200B80D890BEE282708AE002E08F1002A0848
:1021F200B5318B25903172082000BF007108BE00F6
:102202003E08B5073F08B63D0030B73DB83D260849
:10221200AE002E08F1002B08B5318B2590317208E3
:102222002000BF007108BE003E08B5073F08B63D5A
:102232000030B73DB83D0830B535B60DB70DB80D15
:10224200890B1D292608AE002E08F1002A08B53197
:102252008B25903172082000BF007108BE003E0835
:10226200B5073F08B63D0030B73DB83D2708AE0080
:102272002E08F1002C08B5318B2590317208200010
:10228200BF007108BE003E08BA073F08BB3D0030E0
:10229200BC3DBD3D2808AE002E08F1002B08B5312B
:1022A2008B25903172082000BF007108BE003E08E5
:1022B200BA073F08BB3D0030BC3DBD3D2808AE001B
:1022C2002E08F1002C08B5318B25903172082000C0
:1022D200BF007108BE003E08AE003F08AF00B0016B
:1022E200B1010830AE35AF0DB00DB10D890B7329B8
:1022F2002E08BA072F08BB3D3008BC3D3108BD3D52
:102302003508AE003608AF003708B0003808B10013
:102312001830B136B00CAF0CAE0C890B8A292E08DE
:10232200BA072F08BB3D3008BC3D3108BD3D08301F
:10233200B535B60DB70DB80D890B99293908340793
:10234200AE00AF01AF0D2E08823EBE00FF302F3D22
:10235200BF00BC1BC1290130BA35BB0DBC0DBD0D80
:10236200890BAD29B81B3A140130B535B60DB70D3E
:10237200B80D890BB629FF30BE07FF30BF3DAA2931
:10238200B401B81FDA29FF303505AE00FF3036053B
:10239200AF00FF303705B0007F303805B10031089B
:1023A20030042F042E0403193A18D829DA29B4016B
:1023B200B40A34080319032A0130BA070030BB3DBE
:1023C2000030BC3D0030BD3D3D1C032A3A08AE0042
:1023D2003B08AF003C08B0003D08B1000130B2003C
:1023E200B137B00CAF0CAE0CB20BF1293108BD0005
:1023F2003008BC002F08BB002E08BA000130BE070F
:102402000030BF3D3F08803AAE0080302E02031DEF
:102412000C2AFF303E02031C182A7F302000BD0028
:102422008030BC000030BB000030BA00422A2000DD
:102432003F08803AAE0080302E02031D222A01306E
:102442003E0203182F2A00302000BD000030BC00DD
:102452000030BB000030BA00B301422A20003E081F
:10246200AE002E08B900FF30BA05FF30BB057F3041
:10247200BC050030BD053918BC173936AE002E0830
:10248200BD003308AE002E08BD043D08A9003C087B
:10249200A8003B08A7003A08A60008001830F5007B
:1024A2000030F6002A30F7000030F800B631C726B7
:1024B200923175082100B1007608B2003108B200ED
:1024C200B1011830F5000030F6002B30F700003073
:1024D200F800B631C7269231750821003104B800E0
:1024E20076083204B900BA01B91BBA033A08BB0034
:1024F20022006D08F1006E08F200890D893B8909FE
:10250200F300F4000130AB31E32392317408200070
:10251200AD007308AC007208AB007108AA0040302D
:10252200A9008030A8000030A7000030A60090313A
:1025320023209231200029082100B700200028081A
:102542002100B600200027082100B500200026083F
:102552002100B40037082000AD0021003608200019
:10256200AC00210035082000AB0021003408200017
:10257200AA0021003B08F4003A08F3003908F200EF
:102582003808F1000130AB31E323923174082000A6
:10259200A9007308A8007208A7007108A60090316C
:1025A2002320923120002908C7002808C6002708E6
:1025B200C5002608C4004430C3007A30C20000308F
:1025C200C1000030C0009C31E22492312000430857
:1025D200E1004208E0004108DF004008DE0022007E
:1025E2006C082100B20022006B082100B100B13555
:1025F200B20DB135B20D3108F1003208F200890D89
:10260200893B8909F300F4000130AB31E3239231B5
:1026120074082000DD007308DC007208DB0071081A
:10262200DA008531F525923120005D082100AB00EA
:1026320020005C082100AA0020005B082100A900FC
:1026420020005A082100A800A9311D219231210041
:102652002B082300C10021002A082300C00021000A
:1026620029082300BF00210028082300BE001830DB
:10267200F5000030F6000C30F7000030F800B631FB
:10268200C72692313F3075052100B1000030760532
:10269200B2003108B200B1011830F5000030F60086
:1026A2000D30F7000030F800B631C72692317508B8
:1026B20021003104B80076083204B900BA01B91B0E
:1026C200BA033A08BB0000302000A7000030A60081
:1026D2000330A500E830A40022006D08F1006E0866
:1026E200F200890D893B8909F300F40021003B08BF
:1026F200F8003A08F7003908F6003808F500B63154
:102702002E26923174082000AB007308AA007208CA
:10271200A9007108A800AB316123923122006B0835
:10272200200024072300A00022006C082000253D81
:102732002300A1001830F5000030F6000E30F7003B
:102742000030F800B631C72692313F3075052100BE
:10275200B10000307605B2003108B200B101183084
:10276200F5000030F6000F30F7000030F800B63107
:10277200C7269231750821003104B8007608320468
:10278200B900BA01B91BBA033A08BB0000302000F5
:10279200A7000030A6000330A500E830A400220004
:1027A2006D08F1006E08F200890D893B8909F3007A
:1027B200F40021003B08F8003A08F7003908F60057
:1027C2003808F500B6312E26923174082000AB008D
:1027D2007308AA007208A9007108A800AB3161232E
:1027E200923122006B08200024072300A20022005D
:1027F2006C082000253D2300A3001830F5000030AE
:10280200F6001030F7000030F800B631C7269231DA
:102812003F3075052100B10000307605B200310865
:10282200B200B1011830F5000030F6001130F700A7
:102832000030F800B631C726923175082100310404
:10284200B80076083204B900BA01B91BBA033A08D3
:10285200BB0000302000A7000030A6000330A50016
:10286200E830A40022006D08F1006E08F200890D24
:10287200893B8909F300F40021003B08F8003A087B
:10288200F7003908F6003808F500B6312E269231E5
:1028920074082000AB007308AA007208A90071082E
:1028A200A800AB316123923122006B08200024077B
:1028B2002300A40022006C082000253D2300A5006F
:1028C2001830F5000030F6001230F7000030F80042
:1028D200B631C72692313F3075052100B100003074
:1028E2007605B2003108B200B1011830F5000030AF
:1028F200F6001330F7000030F800B631C7269231E7
:10290200750821003104B80076083204B900BA0112
:10291200B91BBA033A08BB0000302000A700003000
:10292200A6000330A500E830A40022006D08F100E3
:102932006E08F200890D893B8909F300F400210039
:102942003B08F8003A08F7003908F6003808F500A5
:10295200B6312E26923174082000AB007308AA000B
:102962007208A9007108A800AB31612392312200DC
:102972006B08200024072300A60022006C08200018
:10298200253D2300A7001830F5000030F600143072
:10299200F7000030F800B631C72692313F30750596
:1029A2002100B10000307605B2003108B200B10159
:1029B2001830F5000030F6001530F7000030F8004E
:1029C200B631C7269231750821003104B800760865
:1029D2003204B900BA01B91BBA033A08BB0000308D
:1029E2002000A7000030A6000330A500E830A400B4
:1029F20022006D08F1006E08F200890D893B8909F9
:102A0200F300F40021003B08F8003A08F700390807
:102A1200F6003808F500B6312E26923174082000EF
:102A2200AB007308AA007208A9007108A800AB31B4
:102A3200612322006B08200024072300A800220043
:102A42006C082000253D2300A90008000030210069
:102A5200EE000030ED000030EC000030EB001830EA
:102A6200F5000030F6002C30F7000030F800B631E7
:102A7200C72695313F3075052100B4000030760538
:102A8200B5003408B500B4011830F5000030F60086
:102A92002D30F7000030F800B631C72695317508A1
:102AA20021003404E70076083504E8006708F100E5
:102AB2006808F200890D893B8909F300F4000130AE
:102AC200AB31E323953174082000AD007308AC00EC
:102AD2007208AB007108AA003E30A900C330A800FA
:102AE2009530A7008130A600903123209531200037
:102AF20029082100AB00200028082100AA0020009C
:102B020027082100A900200026082100A800A931D9
:102B12001D21953121002908EA002808E9006908E9
:102B2200F1006A08F200890D893B8909F300F4007B
:102B32000130AB31E323953174082000AD007308F6
:102B4200AC007208AB007108AA004630A9001C3024
:102B5200A8004030A7000030A60090312320953114
:102B620020002908C7002808C6002708C500260833
:102B7200C40045302100A7004E30A6004030A50019
:102B82000030A4006908F1006A08F200890D893B4F
:102B92008909F300F4000130AB31E3239531740865
:102BA2002100A3007308A2007208A1007108A0000E
:102BB200B63192269531210023082000C30021005E
:102BC20022082000C200210021082000C1002100AB
:102BD20020082000C0009C31E224953120004308E7
:102BE2002100AB00200042082100AA002000410879
:102BF2002100A900200040082100A800A9311D21C0
:102C0200953121002B08EE002A08ED002908EC007E
:102C12002808EB006E08F4006D08F3006C08F2005F
:102C22006B08F1000030AB31E323953174082100C9
:102C3200BA007308B9007208B8007108B7006E08CC
:102C4200F4006D08F3006C08F2006B08F10000302C
:102C5200AB31E323953174082100BE007308BD0037
:102C62007208BC007108BB006E08F4006D08F30026
:102C72006C08F2006B08F1000030AB31E3239531B0
:102C820074082100C2007308C1007208C0007108F4
:102C9200BF003E08AB003D08AA003C08A9003B0863
:102CA200A80080316B20953121002B08C6002A082C
:102CB200C5002908C4002808C3004208AB00410827
:102CC200AA004008A9003F08A80080316B20953176
:102CD20021002B08CA002A08C9002908C8002808B0
:102CE200C7003A08AB003908AA003808A90037081B
:102CF200A80080316B20953121002B08CE002A08D4
:102D0200CD002908CC002808CB0046082000A900E5
:102D1200210045082000A800210044082000A70047
:102D2200210043082000A60021004A082000AD002F
:102D3200210049082000AC00210048082000AB0017
:102D4200210047082000AA0090312320953120005D
:102D520029082100D200200028082100D1002000EB
:102D620027082100D000200026082100CF004E08AD
:102D72002000A90021004D082000A80021004C08D5
:102D82002000A70021004B082000A60021005208C5
:102D92002000AD00210051082000AC0021005008A5
:102DA2002000AB0021004F082000AA009031232010
:102DB2009531200029082100D60020002808210092
:102DC200D500200027082100D40020002608210079
:102DD200D3006E08F4006D08F3006C08F2006B0873
:102DE200F1000030AB31E323953174082100DA00A1
:102DF2007308D9007208D8007108D7005A08AB00CE
:102E02005908AA005808A9005708A80080316B2069
:102E1200953121002B08DE002A08DD002908DC009C
:102E22002808DB00BC302000DD008E30DC00C5301D
:102E3200DB007230DA003B30A9004D30A800983038
:102E4200A7002530A60021005E082000AD00210069
:102E52005D082000AC0021005C082000AB002100CE
:102E62005B082000AA009031232095312000290818
:102E7200E1002808E0002708DF002608DE0085318F
:102E8200F525953120005D082100E20020005C0854
:102E92002100E10020005B082100E00020005A0828
:102EA2002100DF00B7302000A9002E30A8002F300B
:102EB200A7004530A600210056082000AD002100E1
:102EC20055082000AC00210054082000AB0021006E
:102ED20053082000AA0090312320953120002908B0
:102EE200DD002808DC002708DB002608DA002100C4
:102EF20062082000E100210061082000E0002100BA
:102F020060082000DF0021005F082000DE0085311C
:102F1200F525953120005D08C3005C08C2005B08FE
:102F2200C1005A08C0003F30C7008030C6000030E0
:102F3200C5000030C4009C31E224953120004308D2
:102F42002100E600200042082100E500200041089F
:102F52002100E400200040082100E3006608200070
:102F6200E100210065082000E00021006408200043
:102F7200DF00210063082000DE00C330DD0088305E
:102F8200DC009330DB003330DA008531F5259531F2
:102F920020005D08AD005C08AC005B08AB005A087D
:102FA200AA004230A900C830A8000030A7000030B3
:102FB200A600903123209531200029082100AB0082
:102FC200200028082100AA00200027082100A900CB
:102FD200200026082100A800A9311D2121002B086C
:102FE2002300B90021002A082300B8002100290883
:0E2FF2002300B700210028082300B6000800C5
:10300400F3012030860000308700473FF100F11FB4
:103014002C282000A009A109A209A309A409A50933
:10302400A609A709A00A031D2A28A10A031D2A2804
:10303400A20A031D2A28A30A031D2A28A40A031D81
:103044002A28A50A031D2A28A60A031D2A28A70A36
:10305400F301F30A2830860000308700473FF1006F
:10306400F11F57282000A809A909AA09AB09AC092E
:10307400AD09AE09AF09A80A031D5328A90A031D07
:103084005328AA0A031D5328AB0A031D5328AC0A6C
:10309400031D5328AD0A031D5328AE0A031D5328EC
:1030A400AF0A0130F1007108F30674308600003075
:1030B40087000830F10000301E00F10B5E2820006C
:1030C40020082104220423042404250426042704BC
:1030D4000319C228F201F20AA71B7D28A035A10D0D
:1030E400A20DA30DA40DA50DA60DA70D0130F10091
:1030F4007108F2076E28F435F50DF60DF70DF80D8D
:10310400F90DFA0DFB0D27082F02031DA32826082D
:103114002E02031DA32825082D02031DA32824081D
:103124002C02031DA32823082B02031DA328220815
:103134002A02031DA32821082902031DA32820080D
:103144002802031CB6282008A8022108A93B22084B
:10315400AA3B2308AB3B2408AC3B2508AD3B26081F
:10316400AE3B2708AF3B7414A736A60CA50CA40CE1
:10317400A30CA20CA10CA00C0130F202031D7D28AB
:1031840073080319E328F409F509F609F709F8099E
:10319400F909FA09FB09F40A031DE328F50A031DDA
:1031A400E328F60A031DE328F70A031DE328F80AB7
:1031B400031DE328F90A031DE328FA0A031DE32883
:1031C400FB0A74082000A0007508A1007608A2007C
:1031D4007708A3007808A4007908A5007A08A60057
:1031E4007B08A700080071302100CC002730CD00F7
:1031F4007F30CE000030CF000230D000B830D10094
:10320400230041082100D500230040082100D400F8
:1032140023003F082100D30023003E082100D200F0
:10322400230021082100D700230020082100D60014
:10323400230023082100D900230022082100D800FC
:10324400230025082100DB00230024082100DA00E4
:10325400230027082100DD00230026082100DC00CC
:10326400230029082100DF00230028082100DE00B4
:1032740023003D082100E30023003C082100E20074
:1032840023003B082100E10023003A082100E0006C
:10329400230039082100E700230038082100E60054
:1032A400230037082100E500230036082100E4004C
:1032B4001830F5000030F6000530F7000030F80053
:1032C400B631C726983176082100E9007508E80070
:1032D400B431FE2498317130F2002730F300B43158
:1032E400C924983171302100CC002730CD007F30C3
:1032F400CE000030CF00CD30D000B830D10018302F
:10330400F5000030F6000530F7000030F800B63163
:10331400C726983176082100D3007508D200B4314D
:10332400FE2498317130F2002730F300B431C924FF
:10333400983171302100CC002730CD007F30CE0091
:103344000030CF003730D000B930D1001830F5004C
:103354000030F6000030F700F800B631C726983187
:1033640076082100D3007508D200B431FE249831C8
:103374007130F2002730F300B431C9249831713030
:103384002100CC002730CD007F30CE000030CF00AC
:10339400F830D000B830D1001830F5000030F60015
:1033A4000630F7000030F800B631C72698317608A9
:1033B4002100D3007508D200B431FE249831713055
:1033C400F2002730F300B431C92498317130210060
:1033D400CC002730CD007F30CE000030CF00CB3082
:1033E400D000B930D10023003D082100D5002300CE
:1033F4003C082100D40023003B082100D300230013
:103404003A082100D200B431FE2498317130F20020
:103414002730F300B431C924983171302100CC0035
:103424002730CD007F30CE000030CF00DA30D0001E
:10343400B930D100230039082100D5002300380811
:103444002100D400230037082100D30023003608CC
:103454002100D200B431FE2498317130F2002730BB
:10346400F300B431C924080020003208C500330831
:10347400C6003408C7003508C8003608C900370834
:10348400CA003808CB003908CC004530860000302B
:103494008700473FBA00BA1F512A0130522A003030
:1034A4002000BB00BC013B08C3003C08C400430827
:1034B400440403197B2AC509C609C709C809C909EF
:1034C400CA09CB09CC09C50A031D7B2AC60A031DF8
:1034D4007B2AC70A031D7B2AC80A031D7B2AC90A43
:1034E400031D7B2ACA0A031D7B2ACB0A031D7B2AE0
:1034F400CC0A2200E81B822AFD30E905FF30EA05E8
:103504006808803A2000BA0080303A02031D8D2AF0
:103514000130220067020318952A01302000BF0001
:103524000030C0009D2A220068082000C00022004C
:1035340067082000BF00220066082000C2002200A5
:1035440065082000C10043084404031DAC2A22007E
:10355400691DB12AFF302000C107FF30C23D1F3072
:103564002000CD000030CE002400BF01472B2000F6
:10357400450846044704480449044A044B044C04DF
:10358400031DDE2A4008803ABA0080303A02031D47
:10359400CD2A01303F020318DE2A20004208803A77
:1035A400BA0080303A02031DD92A01304102031CBB
:1035B400532B2200E91C532BFF302000CD07FF3092
:1035C400CE3D0A30A000A101A201A301A401A501DE
:1035D400A601A7014508A8004608A9004708AA00B3
:1035E4004808AB004908AC004A08AD004B08AE00DF
:1035F4004C08AF00A2312B229A3120002108F5009B
:103604002008F400B4316B249A317408303E200051
:10361400BA004D08203E8600023087003A08810037
:10362400FF30BF07FF30C03DFF30C107FF30C23D50
:103634000A30A000A101A201A301A401A501A601D1
:10364400A7014508A8004608A9004708AA00480899
:10365400AB004908AC004A08AD004B08AE004C086A
:10366400AF00983102209A3120002008C5002108BB
:10367400C6002208C7002308C8002408C90025087A
:10368400CA002608CB002708CC0020004E08803A48
:10369400BA0080303A02031D512B01304D02031849
:1036A400B92A200043084404031D5B2B2200691D32
:1036B400732BFF302000CD07FF30CE3D4308440478
:1036C400031D662B2B30672B2D30BD000030BE0050
:1036D4003D08BA004D08203E8600023087003A08B3
:1036E400810020003108A7003008A6004D08203EC4
:1036F400BA003A08A8004208AA004108A900B73154
:10370400AF2720002708B1002608B00008002200D7
:10371400E81B902BFD30E905FF30EA056808803A84
:103724002000BB0080303B02031D9B2B0130220094
:1037340067020318A32B01302000C7000030C80023
:10374400AB2B220068082000C80022006708200074
:10375400C700220066082000CA0022006508200075
:10376400C9002200691EBB2BFE302000C907FF30B0
:10377400CA3D20003208CB003308CC003408CD0009
:103784003508CE003608CF003708D0003808D100FD
:103794003908D2001F30D3000030D4002400BF0108
:1037A4007D2CFF302000D307FF30D43D0F304B0574
:1037B400D50000304C05D6005608803ABB00803056
:1037C4003B02031DE72B0A305502031CED2B20009E
:1037D4005508573EF02B20005508303ED5000030E8
:1037E400563DD6003A08BF3EBB00FF3003180030F8
:1037F400BC0000303C021A3003193B020318042CAD
:103804000130052C0030BD00BE013D08C3003E0858
:10381400C4004308440403193B2C20305504BB0066
:1038240000305604BC003B089F3EBD00FF303C3DC9
:10383400BE0000303E021A3003193D020318242C46
:103844000130252C0030BF00C0013F08C5004008EE
:10385400C6004508460403193B2C5608F8005508D1
:10386400F700903101209B3178082000D6007708BA
:10387400D5005508BB005308203E8600023087005F
:103884003B088100FF30C707FF30C83DFF30C90740
:10389400FF30CA3D4B30860000308700403FBB00FC
:1038A400413FBC00423FBD00433FBE00443FBF0018
:1038B400453FC000463FC100473FC20004302000DE
:1038C400C236C10CC00CBF0CBE0CBD0CBC0CBB0C76
:1038D400890B612C20004208D2004108D100400825
:1038E400D0003F08CF003E08CE003D08CD003C0884
:1038F400CC003B08CB0020005408803ABB00803049
:103904003B02031D872C02305302031CAE2C200003
:103914004B084C044D044E044F045004510452040B
:10392400031DD32B4808803ABB0080303B02031DA3
:103934009D2C013047020318D32B20004A08803AFB
:10394400BB0080303B02031DA92C01304902031C3B
:10395400AE2C2200E918D32B2200691ECC2CFF3098
:103964002000D307FF30D43D3A08BB005308203E63
:103974008600023087003B088100FF30D307FF3008
:10398400D43D3030BB005308203E8600023087000F
:103994003B08810020003108A7003008A600530826
:1039A400203EBB003B08A8004A08AA004908A90019
:1039B400B731AF2720002708B1002608B00008005F
:1039C400200047088039C8004808D1004735C8009E
:1039D4004808D800C61B581458080319FF2C580A65
:1039E400031DFC2C0030C7000030C6000030C500A9
:1039F4000030C400C617C701072D0030C7000030CF
:103A0400C6000030C5000030C40043088039C80037
:103A14004808D1064335C8004808D900C21B5914C8
:103A240059080319232D590A031D202D0030C30002
:103A34000030C2000030C1000030C000C217C30112
:103A44002B2D0030C3000030C2000030C100003014
:103A5400C0004308420441044004031D4A2D0030C1
:103A6400C7000030C6000030C5000030C4008030FC
:103A7400C6047F30C7045108C8004808C704470873
:103A8400C3004608C2004508C1004408C00008003D
:103A94005808031D562D0030C3000030C20000300A
:103AA400C1000030C00008005808C800C901490816
:103AB400CB0059084802CA00031CCB034A087F3EC6
:103AC400D20000304B3DD3004708D0004608CF0059
:103AD4004508CE004408CD000030C7000030C600C1
:103AE4000030C5000030C4000030D7000030D600DC
:103AF4000030D5000030D400D9011A30590203181F
:103B0400BB2D590803199D2D0130CD35CE0DCF0D98
:103B1400D00D890B872D0130C435C50DC60DC70DD9
:103B2400890B8E2DD71B44140130D435D50DD60DF9
:103B3400D70D890B972D43085002031DAB2D420866
:103B44004F02031DAB2D41084E02031DAB2D40084F
:103B54004D02031CB62D57174008CD024108CE3B39
:103B64004208CF3B4308D03B0130C8004808D9077E
:103B74007F2D50084F044E044D04031D5414C61BDE
:103B8400D82D0130C435C50DC60DC70D890BC42D04
:103B9400D71B44140130D435D50DD60DD70D890B60
:103BA400CD2DFF30D207FF30D33DC12DD901D71F12
:103BB400F12DFF305405C800FF305505C900FF3012
:103BC4005605CA007F305705CB004B084A04490408
:103BD400480403194418EF2DF12DD901D90A5908C5
:103BE40003191A2E0130C4070030C53D0030C63D0C
:103BF4000030C73D471C1A2E4408C8004508C900B8
:103C04004608CA004708CB000130CC00CB37CA0CA9
:103C1400C90CC80CCC0B082E4B08C7004A08C600B8
:103C24004908C5004808C4000130D2070030D33D1C
:103C34005308803AC80080304802031D232EFF3009
:103C44005202031C322EFF302000D2000030D30079
:103C54000030C7000030C6000030C5000030C4008A
:103C640020005308803AC80080304802031D3C2ECF
:103C74000130520203184A2E2000D201D301003031
:103C8400C7000030C6000030C5000030C400D101B8
:103C940020005208C8004808D800581C532EC617E4
:103CA400572E7F30C8004808C6055836C800480853
:103CB400C7003D2D2000590886008701403FDB00E6
:103CC400413FDC005B0884005C0885001200253A53
:103CD400031DFE2F590886008701013081074131F9
:103CE4000318810A2200E501E601E901EA01FF3037
:103CF400E700FF30E8002100A201A3019E2E22006C
:103D04006914200059088600870101308107413178
:103D14000318810A9E2E2200E914832E22006915BD
:103D2400832E2200E915832E22006916832E01308A
:103D34002100A2000030A300210022082304031D57
:103D4400C92E2000590886008701403FDB00413F0F
:103D5400DC005B0884005C0885000008DD00DE01EF
:103D64005E08003A0319B72E992E5D08203A03190C
:103D7400932E033A0319962E083A0319902E063A05
:103D84000319812E1D3A03198D2E992E9E2E220081
:103D9400691CD02EFD30E905FF30EA0520005908E2
:103DA40086008701403FDB00413FDC005B08840064
:103DB4005C08850012002A3A031DFE2E590886006D
:103DC40087010130810741310318810A5A088600AE
:103DD400870101088400850102308107003F220029
:103DE400E500013FE600E61F412F6914E509E609F5
:103DF400E50A0319E60A412F590886008701403F66
:103E0400F700413FF800AC3179249E317808220054
:103E1400E6007708E500172F20005908860087017F
:103E24000130810741310318810A200059088600B6
:103E34008701403FDB00413FDC005B0884005C08F5
:103E440085000008D03EDD00FF3003180030DE009E
:103E540000305E020A3003195D020318332F01306B
:103E6400342F0030DF00E0015F082100A4002000AF
:103E740060082100A50024082504031D0E2F20003E
:103E8400590886008701403FDB00413FDC005B08A6
:103E940084005C08850012002E3A031DC52F220001
:103EA400E701E801200059088600870101308107F5
:103EB40041310318810A590886008701403FDB001D
:103EC400413FDC005B0884005C08850012002A3A4C
:103ED400031D822F59088600870101308107413173
:103EE4000318810A5A0886008701010884008501A5
:103EF40002308107003F2200E700013FE800C52FA0
:103F0400590886008701403FF700413FF800AC3173
:103F140079249E3178082200E8007708E7009B2F77
:103F240020005908860087010130810741310318B8
:103F3400810A2000590886008701403FDB00413F89
:103F4400DC005B0884005C0885000008D03EDD00CE
:103F5400FF3003180030DE0000305E020A3003191F
:103F64005D020318B72F0130B82F0030DF00E001E5
:103F74005F082100A600200060082100A700260891
:103F84002704031D922F2000590886008701403F13
:103F9400DB00413FDC005B0884005C088500120004
:103FA400633AA431031DD92C5908860087010130D6
:103FB400810741310318810A5A08860087010108E4
:103FC40084008501023081070008DB005B082100C2
:103FD400B20020005808B1005708B0002100320890
:103FE4002000DB005B08B200B531CC25200031088D
:0C3FF400D8003008D70008008F31DD2F06
:10400400612821006F0803190800EF01B531AA25C2
:10401400A031AD31C325A031200020082200E200E8
:104024006208E40064080319080020001810210045
:1040340011100030F100F200A83100202100EF013E
:104044002300D901D90A0800A831C720A0310130C2
:10405400F1000030F200A831002002302200E2001A
:1040640062082300D9000800B431B024A0316400F0
:104074009831F520A03166302200E3007630E2006A
:10408400C130890B4328E20B4328E30B4328080083
:1040940071302100CC002730CD007F30CE000030BD
:1040A400CF004930D000B830D100B431FE24A03163
:1040B4007130F2002730F300B431C9240800230022
:1040C40059082200E200E3016308003A03196B284F
:1040D40079286208003A03190328013A03192628AB
:1040E400033A03193628013A03194A2879280800A3
:1040F400200033082300C900200032082300C80030
:104104001830F5000030F6000830F7000030F800F1
:10411400B631C726A03175082000B6003608230042
:10412400D20022006D082000A40022006E082000A6
:10413400A500890D893B8909A600A70022006B0808
:104144002000B60022006C082000B7000030B71B26
:10415400FF30B800B9003208BA003308BB000030A1
:10416400BB1BFF30BC00BD003608BA023708BB3B9E
:104174003808BC3B3908BD3B3D08F4003C08F3005B
:104184003B08F2003A08F1000030F8000030F70074
:104194000330F600E830F500B6312E26A03174085D
:1041A4002000AB007308AA007208A9007108A800D7
:1041B400AB316123A03120002408BE002508BF00D4
:1041C4002608C0002708C1000430C200C137C00C53
:1041D400BF0CBE0CC20BE8283E08C3004308C40051
:1041E4001830F5000030F6000930F7000030F80010
:1041F4004408B600B7013608F9003708FA00B531AB
:104204006D25A0312000C501C6014608850045087A
:1042140084008435850DE9308407B930853D003F3D
:10422400B600013FB7003508803AB8003708803A35
:104234003802031D1F2936083402031C2F292000CD
:104244004508B600B60EB60DB60D23005208200080
:1042540036063F3936062300D20001302000C50758
:104264000030C63D00304602033003194502031CEA
:1042740007291830F5000030F6000830F700003048
:10428400F800230052082000B600B7013608F900F0
:104294003708FA00B5316D250800200033082300E3
:1042A400C700200032082300C6001830F500003093
:1042B400F6000830F7000030F800B631C726A13107
:1042C40075082000B60036082300D20022006D08CD
:1042D4002000A40022006E082000A500890D893B5F
:1042E4008909A600A70022006B082000B60022005E
:1042F4006C082000B7000030B71BFF30B800B900CD
:104304003208BA003308BB000030BB1BFF30BC00CE
:10431400BD003608BA023708BB3B3808BC3B390835
:10432400BD3B3D08F4003C08F3003B08F2003A08AA
:10433400F1000030F8000030F7000330F600E830F8
:10434400F500B6312E26A13174082000AB007308A5
:10435400AA007208A9007108A800AB316123A13139
:1043640020002408BE002508BF002608C000270836
:10437400C1000430C200C137C00CBF0CBE0CC20B5C
:10438400BD293E08C3004308C4000130B600360806
:10439400C4071830F5000030F6000A30F70000308A
:1043A400F8004408B600B7013608F9003708FA00E7
:1043B400B5316D25A1313F302300D2052000C50160
:1043C400C60146088500450884008435850DF13012
:1043D4008407B930853D003FB600013FB70035087A
:1043E400803AB8003708803A3802031DFB293608A2
:1043F4003402031C0B2A20004508B600B60EB60D85
:10440400B60D23005208200036063F393606230035
:10441400D20001302000C5070030C63D00304602FE
:10442400033003194502031CE3291830F50000305A
:10443400F6000830F7000030F8002300520820008E
:10444400B600B7013608F9003708FA00B5316D2512
:104454000800F3012830860000308700473FF10050
:10446400F11F552A2000A809A909AA09AB09AC091A
:10447400AD09AE09AF09A80A031D532AA90A031DF1
:10448400532AAA0A031D532AAB0A031D532AAC0A52
:10449400031D532AAD0A031D532AAE0A031D532AD2
:1044A400AF0AF301F30A2030860000308700473F4B
:1044B400F100F11F7C2A2000A009A109A209A30987
:1044C400A409A509A609A709A00A031D7C2AA10A13
:1044D400031D7C2AA20A031D7C2AA30A031D7C2A2D
:1044E400A40A031D7C2AA50A031D7C2AA60A031D0F
:1044F4007C2AA70A2000200821042204230424047F
:104504002504260427040319D42AF201F20AA71B5E
:10451400982AA035A10DA20DA30DA40DA50DA60DDD
:10452400A70D0130F1007108F207892A27082F022C
:10453400031DB62A26082E02031DB62A25082D02BD
:10454400031DB62A24082C02031DB62A23082B02B5
:10455400031DB62A22082A02031DB62A21082902AD
:10456400031DB62A20082802031CC82A2008A80212
:104574002108A93B2208AA3B2308AB3B2408AC3BF7
:104584002508AD3B2608AE3B2708AF3BA736A60C53
:10459400A50CA40CA30CA20CA10CA00C0130F202DB
:1045A400031D982A73080319F52AA809A909AA0959
:1045B400AB09AC09AD09AE09AF09A80A031DF52A78
:1045C400A90A031DF52AAA0A031DF52AAB0A031D2D
:1045D400F52AAC0A031DF52AAD0A031DF52AAE0A15
:1045E400031DF52AAF0A20002808A0002908A1000D
:1045F4002A08A2002B08A3002C08A4002D08A5005B
:104604002E08A6002F08A70008002200E81B0E2B86
:10461400FD30E905FF30EA056808803A2000BA0059
:1046240080303A02031D192B01302200670203185F
:10463400212B01302000BB000030BC00292B2200BC
:1046440068082000BC00220067082000BB0022008C
:1046540066082000BE00220065082000BD00320864
:10466400BF003308C0003408C1003508C200360852
:10467400C3003708C4003808C5003908C6001F3015
:10468400C7000030C8002400BF01CD2B3F08400400
:10469400410442044304440445044604031D6C2BB2
:1046A4003C08803ABA0080303A02031D5B2B01308B
:1046B4003B0203186C2B20003E08803ABA0080307D
:1046C4003A02031D672B01303D02031CD22B22004A
:1046D400E91CD22BFF302000C707FF30C83D0A3049
:1046E400A000A101A201A301A401A501A601A701A3
:1046F4003F08A8004008A9004108AA004208AB00EE
:104704004308AC004408AD004508AE004608AF00BD
:10471400A9318321A33120002008303EBA00470884
:10472400203E8600023087003A088100FF30BB0734
:10473400FF30BC3DFF30BD07FF30BE3D0A30A00056
:10474400A101A201A301A401A501A601A7013F089B
:10475400A8004008A9004108AA004208AB00430889
:10476400AC004408AD004508AE004608AF00AA31CD
:104774006822A33120002008BF002108C0002208BD
:10478400C1002308C2002408C3002508C400260869
:10479400C5002708C600200047084804031D482B0D
:1047A40020003108A7003008A6004708203EBA00C0
:1047B4003A08A8003E08AA003D08A900B731AF276F
:1047C40020002708B1002608B00008002200E81BDA
:1047D400EF2BFD30E905FF30EA056808803A200038
:1047E400BA0080303A02031DFA2B0130220067021E
:1047F4000318022C01302000C2000030C3000A2C30
:10480400220068082000C300220067082000C200BC
:10481400220066082000C700220065082000C600A8
:104824003208C8003308C9003408CA003508CB0070
:104834003608CC003708CD003808CE003908CF0040
:104844001F30D0000030D1002400BF012000C4017B
:10485400C5019F2C2000480849044A044B044C0419
:104864004D044E044F04031D512C4308803ABA00F2
:1048740080303A02031D402C013042020318512CAF
:1048840020004708803ABA0080303A02031D4C2CBD
:1048940001304602031CAA2C2200E91CAA2CFF307A
:1048A4002000D007FF30D13D07304805C400003058
:1048B4004905C5004408303EBA005008203E860031
:1048C400023087003A088100FF30C207FF30C33D41
:1048D400FF30C607FF30C73D4830860000308700F0
:1048E400403FBA00413FBB00423FBC00433FBD00D4
:1048F400443FBE00453FBF00463FC000473FC100A4
:1049040003302000C136C00CBF0CBE0CBD0CBC0C67
:10491400BB0CBA0C890B832C20004108CF00400843
:10492400CE003F08CD003E08CC003D08CB003C083B
:10493400CA003B08C9003A08C8005108803ABA00C6
:1049440080303A02031DA82C0130500203182C2C8D
:104954002200691EC32C2000440845040319C32CFB
:10496400FF30D007FF30D13D3030BA005008203E30
:104974008600023087003A088100FF30C607FF3006
:10498400C73D20003108A7003008A6005008203E8B
:10499400BA003A08A8004708AA004608A900B73197
:1049A400AF2720002708B1002608B00008005908E6
:1049B40086008701403FF100413FF2001D30F300C3
:1049C400BA30F4000330F5000030F600A83121209D
:1049D400A431710872040319062D200059088600B9
:1049E4008701403FF100413FF2002130F300BA302B
:1049F400F4000330F5000030F600A8312120A43182
:104A040071087204031D512D200059088600870186
:104A14000330810741310318810A5A08860087014F
:104A24000108840085010230810700082100A800E4
:104A34008039031DFF30A900AA00AB00AC00AD0013
:104A4400AE00AF0020005808B1005708B0002100A4
:104A540028082000B200210029082000B30021000A
:104A64002A082000B40021002B082000B5002100F2
:104A74002C082000B60021002D082000B7002100DA
:104A84002E082000B80021002F082000B9009A3118
:104A9400362220003108D8003008D7000800200052
:104AA400590886008701403FF100413FF2001E3063
:104AB400F300BA30F4000230F5000030F600A831FB
:104AC4002120A4317108720403197F2D2000590894
:104AD40086008701403FF100413FF2002230F3009D
:104AE400BA30F4000230F5000030F600A83121207D
:104AF400A43171087204031DD12D200059088600C9
:104B040087010230810741310318810A5A0886005F
:104B1400870101088400850102308107003FDB0022
:104B2400013FDC005B082100A80020005C08210094
:104B3400A900890D893B8909AA00AB00AC00AD002E
:104B4400AE00AF0020005808B1005708B0002100A3
:104B540028082000B200210029082000B300210009
:104B64002A082000B40021002B082000B5002100F1
:104B74002C082000B60021002D082000B7002100D9
:104B84002E082000B80021002F082000B9009A3117
:104B9400362220003108D8003008D70008008831B8
:104BA400432844302100A3007A30A2000030A10041
:104BB4000030A000F0302300D3052100A801A90192
:104BC400230031082000A900230030082000A80099
:104BD40023002F082000A70023002E082000A60091
:104BE4006908F4006808F3006708F2006608F10039
:104BF4000130AB31E323A53174082000AD00730804
:104C0400AC007208AB007108AA0090312320A531D2
:104C1400200029082100A700200028082100A60060
:104C2400200027082100A500200026082100A40058
:104C340044302000C3007A30C2000030C10000308C
:104C4400C000210023082000A90021002208200020
:104C5400A800210021082000A7002100200820002E
:104C6400A600210027082000AD002100260820000E
:104C7400AC00210025082000AB00210024082000FE
:104C8400AA0090312320A53120002908C700280854
:104C9400C6002708C5002608C4009C31E224A531BB
:104CA40020004308DD004208DC004108DB00400826
:104CB400DA00210029088500280884008435850D40
:104CC40097308407B830853D003F2000EC00013F59
:104CD400ED006C08F1006D08F200890D893B89092B
:104CE400F300F4000130AB31E323A5317408200054
:104CF400E1007308E0007208DF007108DE00A931EA
:104D0400EC21A531031C8E2E230053082100280614
:104D1400F03928062300D30001302100A807003011
:104D2400A93D003029020F3003192802031CE22D8B
:104D34008F302300D3052100AA01AB012B08850085
:104D44002A0884008435850DAB308407B930853D4D
:104D5400003F2000EC00013FED006B08803AEE00BC
:104D64006D08803A6E02031DB92E6C086A02031C9A
:104D7400C82E21002A082000EC00EC0E2300530862
:104D840020006C068F396C062300D300013021000B
:104D9400AA070030AB3D00302B02073003192A026A
:104DA400031CA02E1830F5000030F6000730F70081
:104DB4000030F800230053082000EC00ED016C08DB
:104DC400F9006D08FA00B5316D2508004430210062
:104DD400A3007A30A2000030A1000030A000F83017
:104DE4002300D4052100A801A901230031082000D3
:104DF400A900230030082000A80023002F08200069
:104E0400A70023002E082000A6006908F400680803
:104E1400F3006708F2006608F1000130AB31E323C8
:104E2400A63174082000AD007308AC007208AB0012
:104E34007108AA0090312320A631200029082100FE
:104E4400A700200028082100A60020002708210030
:104E5400A500200026082100A40044302000C3003F
:104E64007A30C2000030C1000030C00021002308A5
:104E74002000A900210022082000A8002100210808
:104E84002000A700210020082000A60021002708F8
:104E94002000AD00210026082000AC0021002508D8
:104EA4002000AB00210024082000AA009031232018
:104EB400A63120002908C7002808C6002708C50015
:104EC4002608C4009C31E224A63120004308DD00FA
:104ED4004208DC004108DB004008DA002100290810
:104EE4008500280884008435850DBB308407B930DB
:104EF400853D003F2000EC00013FED006C08F1000F
:104F04006D08F200890D893B8909F300F400013032
:104F1400AB31E323A63174082000E1007308E000FC
:104F24007208DF007108DE00A931EC21A631031CF0
:104F3400A32F2300540821002806F839280623004B
:104F4400D40001302100A8070030A93D0030290217
:104F5400073003192802031CF72EE7302300D40579
:104F64002100AA01AB012B0885002A08840084359E
:104F7400850DF9308407B930853D003F2000EC00F1
:104F8400013FED006B08803AEE006D08803A6E0236
:104F9400031DCE2F6C086A02031CDF2F21002A0890
:104FA4002000EC00EC0DEC0DEC0D23005408200067
:104FB4006C06E7396C062300D40001302100AA07EF
:104FC4000030AB3D00302B02073003192A02031CCA
:104FD400B52F2300D4171830F5000030F600063042
:104FE400F7000030F80054082000EC00ED016C08D4
:104FF400F9006D08FA00B5316D250800102822006B
:105004000C128C161014080022000C168C121014AA
:10501400080022000C168C16101008007208003AC2
:105024000319152820287108003A03190128013AA8
:1050340003190628033A03190B28202808007208CC
:10504400F9007108F8007408FB007308FA000130D5
:10505400F5020030F63B750A031D5B28760A031D32
:105064005B28F101F20108007A0884007B088500BE
:1050740012000319622875087604031962287A0855
:1050840084007B0885000008F7007808840079080C
:10509400850000087706031D62280130F8070030F8
:1050A400F93D0130FA070030FB3D0130F5020030D4
:1050B400F63B78088400790885001200031D362821
:1050C40078088400790885000008F7007A088400CD
:1050D4007B08850000087702F100F201031CF2034B
:1050E40008007308740403197B2873087404031DEF
:1050F4007F28710880310320080073088600740833
:1051040087004431160001040319A6287308860099
:10511400740887004431403FF500413FF6007308AE
:105124008600740887004231403FF700413FF80091
:105134007808803AF9007608803A7902031DA42899
:10514400750877020318080073088600740887003E
:1051540042317308840074088500403F0007F5005D
:105164000131413F003DF60075088600760887004E
:105174007108810073088600740887004231013089
:10518400810741310318810A0800EC302000A00097
:10519400FF30A1002D30A2000030A3000030A40095
:1051A400A5002D30A6000030A700B7316B27A83129
:1051B4003C30F400A330F300D730F2000A30F100A1
:1051C400B331FC23A83100302000E9000030E800AE
:1051D4000130E700F430E600C830EA000030EB00AC
:1051E400A631E826A83100302000E9000030E800AC
:1051F4000030E7000A30E6004030EA000130EB00FE
:10520400A531D325A83154302000B2000B30B300AF
:105214000230B4000030B500A1314F21A831043070
:105224002000B2001030B3000230B4000030B500EA
:10523400A0317A200800031021002A0D2B0DAC00A8
:105244002C08FB007B08031D30290030AB00003024
:10525400AA000030A9000030A80008002808AC000B
:105264002908AD002A08AE002B08AF001F30AF3666
:10527400AE0CAD0CAC0C890B39292C08B0003008ED
:10528400FA00AA17FF30A805FF30A905FF30AA05C8
:105294000030AB059630FB02FB1F63297B08803A84
:1052A400973E031C27290130AB36AA0CA90CA80C85
:1052B400890B56290130AC002C08FB07031974290B
:1052C400552920307B02031827297B0803197429E8
:1052D4000130A835A90DAA0DAB0D890B6B2901303E
:1052E400FB0267297A0803190800A809A909AA0971
:1052F400AB09A80A0319A90A0319AA0A0319AB0AD4
:105304000800200020082104220423042404250486
:10531400260427040319DB29F201F20AA71B9F299B
:10532400A035A10DA20DA30DA40DA50DA60DA70DCD
:105334000130F1007108F207902927082F02031D9C
:10534400BD2926082E02031DBD2925082D02031D93
:10535400BD2924082C02031DBD2923082B02031D8B
:10536400BD2922082A02031DBD2921082902031D83
:10537400BD2920082802031CCF292008A8022108DF
:10538400A93B2208AA3B2308AB3B2408AC3B2508D5
:10539400AD3B2608AE3B2708AF3BA736A60CA50CB1
:1053A400A40CA30CA20CA10CA00C0130F202031D4E
:1053B4009F292808A0002908A1002A08A2002B0878
:1053C400A3002C08A4002D08A5002E08A6002F0871
:1053D400A7000800003020005A05E20000305B05F9
:1053E400E30080305C05E4007F305D05E50065087E
:1053F400640463046204031D072A0030DD000030E6
:10540400DC000030DB000030DA0000305E05E20032
:1054140000305F05E30080306005E4007F30610503
:10542400E5006508640463046204031D212A003056
:10543400E1000030E0000030DF000030DE00DD1F5E
:105444003B2A0030E2000030E3000030E40080300A
:10545400E5005A08E2025B08E33B5C08E43B5D08B4
:10546400E53B6508DD006408DC006308DB006208D6
:10547400DA00E11F552A0030E2000030E30000307A
:10548400E4008030E5005E08E2025F08E33B600868
:10549400E43B6108E53B6508E1006408E00063085B
:1054A400DF006208DE008030DD068030E10661083E
:1054B4005D02031D080060085C02031D08005F080C
:1054C4005B02031D08005E085A0208007230860061
:1054D400003087000830F10000301E00F10B6F2A05
:1054E4002000200821042204230424042504260483
:1054F40027040319D32AFA01FA0AA71B8E2AA03516
:10550400A10DA20DA30DA40DA50DA60DA70D01308F
:10551400F1007108FA077F2AF235F30DF40DF50D49
:10552400F60DF70DF80DF90D27082F02031DB42A07
:1055340026082E02031DB42A25082D02031DB42AB1
:1055440024082C02031DB42A23082B02031DB42AA9
:1055540022082A02031DB42A21082902031DB42AA1
:1055640020082802031CC72A2008A8022108A93BF6
:105574002208AA3B2308AB3B2408AC3B2508AD3BDF
:105584002608AE3B2708AF3B7214A736A60CA50C21
:10559400A40CA30CA20CA10CA00C0130FA02031D54
:1055A4008E2A7208A0007308A1007408A20075086E
:1055B400A3007608A4007708A5007808A600790857
:1055C400A7000800803021003E02003003193D028C
:1055D400031CF72A4B302300C2000030C300FF3005
:1055E4002100BB00FF30BC0008003C08C7003B089A
:1055F400C60000303E02023003193D02031C0B2B8F
:105604003D08FF3ECA00FF303E3DCB00C801C90142
:10561400132B0130CA000030CB000130C800003029
:10562400C900C6302000E1000030E200210040083B
:105634002000E40021003F082000E300210041088D
:105644002000EA006A08E500B531FD25AA312000F2
:1056540062082100C500200061082100C4003D0843
:105664003E04031DC51B5C2B3D08FF3E2000EA00E1
:10567400FF3021003E3D2000EB006B082100450275
:10568400031D482B20006A0821004402031C512BEF
:105694003D08FF3EC200FF303E3DC300552B450888
:1056A400C3004408C20042083B07860043083C3D4F
:1056B400870081014508BC004408BB0008002000A5
:1056C400AD01A71F722BA409A509A609A709A40A5D
:1056D4000319A50A0319A60A0319A70AAD01AD0AFD
:1056E400AB1F832BA809A909AA09AB09A80A0319A6
:1056F400A90A0319AA0A0319AB0A0130F9007908A7
:10570400AD060030B1000030B0000030AF00003012
:10571400AE0027082604250424040319CC2BAC016D
:10572400AC0AA71BA12B0130A435A50DA60DA70D0E
:10573400890B962B0130F9007908AC07932B0130C3
:10574400AE35AF0DB00DB10D890BA22B27082B027E
:10575400031DB62B26082A02031DB62B2508290291
:10576400031DB62B24082802031CC12B2408A802FD
:105774002508A93B2608AA3B2708AB3B2E14013079
:10578400A736A60CA50CA40C890BC22B0130AC02C5
:10579400031DA12B2D080319DA2BAE09AF09B0099B
:1057A400B109AE0A0319AF0A0319B00A0319B10A01
:1057B4003108A7003008A6002F08A5002E08A40071
:1057C40008002000A0002008031DF41FF92B710914
:1057D400A2007209A3007309A4007409A500A20A17
:1057E4000319A30A0319A40A0319A50A012C7408AE
:1057F400A5007308A4007208A3007108A20074082D
:10580400730472047104031D102C0030F400003082
:10581400F3000030F2000030F10008009630F5008B
:105824007508A100FE3025050319372C0130F50059
:105834007508A1070130A536A40CA30CA20C890B92
:105844001D2C142C0130F5007508A1070130A207A6
:105854000030A33D0030A43D0030A53D0130A53605
:10586400A40CA30CA20C890B312CFF3025050319C1
:10587400492C242C02302102031C4B2C0130A102A0
:105884000130A235A30DA40DA50D890B432CA41F33
:105894003C2C2118552CFF30A205FF30A3057F3086
:1058A400A405FF30A5050310A10C2108F500F6019D
:1058B400F701F8011830F535F60DF70DF80D890BE1
:1058C4005D2C7508A2047608A3047708A40478085C
:1058D400A5042008031DF41F702CA5172508F40047
:1058E4002408F3002308F2002208F1000800200035
:1058F400AB01AC01A401A501AA01AA0A770884009E
:10590400780885001200203A03199A2C770884003D
:10591400780885000008F73EA000FF300318003027
:10592400A100003021020530031920020318AA0146
:105934002A08A000A1012008A6002108A700260823
:1059440027040319AF2C0130F7070030F83D7E2CF3
:105954000130A4000030A500E22C77088400780808
:1059640085000008A000A1012108003A0319BB2CFE
:10597400E62C20082B3A0319E22C063A0319AA2C28
:10598400E62C77088400780885000008A0002C081D
:10599400F2002B08F1000A30F3000030F400B431B7
:1059A400E324AC3172082000A20020087102A10097
:1059B400031CA2032108303EAB000030223DAC00A2
:1059C4000130F7070030F83D770884007808850037
:1059D4000008D03EA000FF3003180030A1000030C2
:1059E40021020A30031920020318FA2C0130FB2C7F
:1059F4000030A200A3012208A8002308A900280857
:105A04002904031DC32C24082504031D152D2B096B
:105A1400A0002C09A100A00A0319A10A2008F7007C
:105A24002108F80008002C08F8002B08F7000800EB
:105A340020003208B6003308B7003408B80035082F
:105A4400B9000630B635B70DB80DB90D890B242D44
:105A54003908A7003808A6003708A5003608A400AE
:105A64003208BA003308BB003408BC003508BD0056
:105A74000630BA35BB0DBC0DBD0D890B3B2D003076
:105A8400BE002430BF00F430C0000030C1003A082A
:105A9400BE023B08BF3B3C08C03B3D08C13B41083C
:105AA400AB004008AA003F08A9003E08A800AB319B
:105AB4006123AD3120002508FB002408FA000130E1
:105AC4007B02003003197A02031CB02D3208B600A1
:105AD4003308B7003408B8003508B9000430B635C7
