:020000040000FA
:0400000080311E2805
:1000060008007E1480312000111C1C282100111CC0
:100016001C28200011100130F00070082300D707BB
:100026003D305706031D1C280130F0007008D8002B
:10003600D7017E10090080312028003084008830E6
:10004600850023001200DD001200DE001200DF0032
:100056001200E0001200E1001200E2001200E300CC
:1000660071308400273085007F30FE000030FF00AD
:10007600B13132218031FC01A0308400013085008D
:100086003D30FE000030FF00B1313221803120309A
:100096008400023085005030FE000030FF00B13190
:1000A60032217E102000983101282100C501C601A9
:1000B6002508DA002408D9002308D8002208D7002A
:1000C6005A082000DD00210059082000DC0021002C
:1000D60058082000DB00210057082000DA00003015
:1000E600E1000030E0000030DF000030DE00A83123
:1000F600302080310318982801302100C5000030D7
:10010600C6005A08F4005908F3005808F2005708C8
:10011600F100B1310A21803174082100DA00730838
:10012600D9007208D8007108D7002100DD01DE0170
:1001360023003F082100CB0023003E082100CA000F
:1001460045084604031DAA282300421DC328210092
:1001560045084604031DB1282B30B2282D30AF00C8
:100166000030B0002F08A70027082400A0000130A7
:100176002100DD070030DE3DFF30CA07FF30CB3DF2
:1001860021005A08F4005908F3005808F2005708ED
:10019600F100B7318827803171037204031D2129CC
:1001A60021002608BF3EA700FF3003180030A80034
:1001B600003028021A30031927020318E4280130F8
:1001C600E5280030A900AA012908B1002A08B200D2
:1001D600310832040319F3281030F100BB30F62839
:1001E6002030F100BB30F2005D08203EB23187229C
:1001F6008031FD302100CA07FF30CB3D21082000A9
:10020600A700210020082000A60020302100A7001A
:1002160027082000A80021004B082000AA00210082
:100226004A082000A900B5316D25200027082100C5
:10023600A100200026082100A000080021005A087D
:10024600F4005908F3005808F2005708F100B731D6
:100256008827803171087204031D7F292100260832
:10026600BF3EA700FF3003180030A8000030280268
:100276001A30031927020318422901304329003096
:10028600A900AA012908B3002A08B40033083404D7
:10029600031951291430F100BB3054292830F100DC
:1002A600BB30F2005D08203EB23187228031FD303E
:1002B6002100CA07FF30CB3D21082000A7002100FE
:1002C60020082000A60020302100A70027082000D3
:1002D600A80021004B082000AA0021004A0820009F
:1002E600A900B5316D25200027082100A1002000B6
:1002F60026082100A00008003F302100E2008030DF
:10030600E1000030E0000030DF00DB01DC015A08CC
:10031600F4005908F3005808F2005708F1000030BD
:10032600F8000030F7000030F6000030F500B43178
:1003360084248031031CD0295F2A41302000A90083
:100346002030A8000030A7000030A6002100620877
:100356002000AD00210061082000AC0021006008EB
:100366002000AB0021005F082000AA009531D425AB
:100376008031200029082100E20020002808210001
:10038600E100200027082100E000200026082100C7
:10039600DF000130DB070030DC3D21005A08200079
:1003A600DD00210059082000DC002100580820004B
:1003B600DB00210057082000DA004130A900203078
:1003C600A8000030A7000030A60021006208200027
:1003D600AD00210061082000AC002100600820006B
:1003E600AB0021005F082000AA009531D42580319A
:1003F60020002908E1002808E0002708DF00260879
:10040600DE00A83130208031031C3A2AA029413071
:100416002000C3002030C2000030C1000030C00000
:10042600210062082000C700210061082000C600E4
:10043600210060082000C50021005F082000C400DC
:10044600903152208031200043082100E200200034
:1004560042082100E100200041082100E0002000C0
:1004660040082100DF00FF30DB07FF30DC3D2100C4
:100476005A082000DD00210059082000DC00210078
:1004860058082000DB00210057082000DA00210070
:1004960062082000E100210061082000E000210040
:1004A60060082000DF0021005F082000DE00A83180
:1004B60030208031031C0A2A21002608A700A80143
:1004C6002708F7002808F800B231E92280317708BA
:1004D6002100A9002908CC004C08A7002708C9005C
:1004E60067304C06031D932A230040084104031D70
:1004F600802A0130C0000030C1004108803A210046
:10050600A70080302702031D8B2A013023004002FA
:100516000318962A06302100C7000030C8009E2A1C
:100526002300C11B8D2A230041082100C800230097
:1005360040082100C70067304C06031DC72A5C0827
:10054600803AA7007F302702031DAB2AFC305B02EE
:10055600031CC22A21004708FF3EA700FF30483D82
:10056600A8002808803AA9005C08803A2902031DE1
:10057600BE2A5B082702031CC22A6630C32A6530DE
:100586002100A7002708C9004808C0004708BF0087
:1005960067304C06031DD42A663049060319DC1F52
:1005A600D82A0130BF070030C03D66304906031D1A
:1005B600F02ADC1FE82A3F30E2008030E1000030FC
:1005C600E0000030DF00DB01DC0167304C06031978
:1005D600F02A5B08BF075C08C03DD501D6015A0862
:1005E600D0005908CF005808CE005708CD00620841
:1005F600AE006108AD006008AC005F08AB005608AD
:10060600803AA7004008803A2702031D0C2B3F08BA
:1006160055020318E62B210062082000C3002100C2
:1006260061082000C200210060082000C1002100EE
:100636005F082000C000210050082000C7002100EC
:100646004F082000C60021004E082000C5002100EA
:100656004D082000C400903152208031200043080C
:10066600DD004208DC004108DB004008DA00A13169
:10067600C621803120005D082100D40020005C08DE
:100686002100D30020005B082100D20020005A0878
:100696002100D10054082000DD002100530820006D
:1006A600DC00210052082000DB0021005108200058
:1006B600DA00B631B926803120005B082100C4007B
:1006C60020005A082100C30054082000AD00210074
:1006D60053082000AC00210052082000AB00210086
:1006E60051082000AA00210062082000A90021006C
:1006F60061082000A800210060082000A700210052
:100706005F082000A6009531D425803120002908F5
:10071600C3002808C2002708C1002608C00021001F
:1007260050082000C70021004F082000C600210005
:100736004E082000C50021004D082000C400B2313B
:1007460068228031200043082100D00020004208A2
:100756002100CF00200041082100CE0020004008E3
:100766002100CD0041302000C3002030C2000030FF
:10077600C1000030C000210062082000C70021002F
:1007860061082000C600210060082000C500210085
:100796005F082000C40090315220803120004308B9
:1007A6002100E200200042082100E100200041086B
:1007B6002100E000200040082100DF000130D507BD
:1007C6000030D63D022B40302000A900A030A80002
:1007D6000030A7000030A600210062082000AD000E
:1007E600210061082000AC00210060082000AB0059
:1007F60021005F082000AA009531D4258031200011
:1008060029082100D400200028082100D300200058
:1008160027082100D200200026082100D100500818
:100826002000DD0021004F082000DC0021004E08DA
:100836002000DB0021004D082000DA0021005408CA
:100846002000E100210053082000E00021005208AA
:100856002000DF00210051082000DE00A8313020F2
:1008660080310318392C00302100532C2100500808
:10087600F4004F08F3004E08F2004D08F10054084A
:10088600F8005308F7005208F6005108F500B43195
:1008960084248031031C5A2C210043185A2C003022
:1008A600D4000030D3000030D2000030D100210047
:1008B6005408F4005308F3005208F2005108F100FE
:1008C6005A08F8005908F7005808F6005708F500C6
:1008D6009E311E26803174082100D0007308CF0097
:1008E6007208CE007108CD002E08E2002D08E10046
:1008F6002C08E0002B08DF00653049060319882C18
:100906005C08C2005B08C1008A2CC101C201BD019E
:10091600BE01BB01BC01D501D601C52D210062086F
:100926002000C300210061082000C20021006008E9
:100936002000C10021005F082000C00021005008EF
:100946002000C70021004F082000C60021004E08E5
:100956002000C50021004D082000C400903152201F
:10096600803120004308DD004208DC004108DB003E
:100976004008DA00A131C621803120005D0821003F
:10098600D40020005C082100D30020005B08210071
:10099600D20020005A082100D10054082000DD00B2
:1009A600210053082000DC00210052082000DB0053
:1009B600210051082000DA00B631B9268031200026
:1009C6005B082100C40020005A082100C300230050
:1009D600421AFC2C210043084404031DFC2C6730FA
:1009E6004C060319C21FFC2C0130BB070030BC3D6E
:1009F600432D21003D083E040319C21F172D2E303A
:100A0600A7005D08203E8600023087002708810087
:100A16000130DD070030DE3DFF30CA07FF30CB3D39
:100A26000130BD000030BE003B083C040319312DE7
:100A36003030A7005D08203E860002308700270878
:100A460081000130DD070030DE3DFF30CA07FF3090
:100A5600CB3DFF30BB07FF30BC3D172D4308303E72
:100A6600A7005D08203E8600023087002708810027
:100A76000130DD070030DE3DFF30CA07FF30CB3DD9
:100A860054082000AD00210053082000AC002100CE
:100A960052082000AB00210051082000AA002100C6
:100AA60062082000A900210061082000A80021009A
:100AB60060082000A70021005F082000A6009531ED
:100AC600D425803120002908C3002808C200270841
:100AD600C1002608C000210050082000C7002100E0
:100AE6004F082000C60021004E082000C500210046
:100AF6004D082000C400B23168228031200043082E
:100B06002100D000200042082100CF00200041082B
:100B16002100CE00200040082100CD0041302000F9
:100B2600C3002030C2000030C1000030C0002100E8
:100B360062082000C700210061082000C6002100CD
:100B460060082000C50021005F082000C400903125
:100B560052208031200043082100E2002000420894
:100B66002100E100200041082100E00020004008AB
:100B76002100DF00FF30C107FF30C23D0130D5073D
:100B86000030D63D5608803AA7004008803A270232
:100B9600031DCF2D3F0855020318DD2D21005E08E9
:100BA600803AA70080302702031DDB2D4B305D0203
:100BB600031C912C21003D083E04031DF32D230048
:100BC600421EF32D2E302100A7005D08203E860030
:100BD60002308700270881000130DD070030DE3D46
:100BE60021005D08203E86000230870081016530C5
:100BF6004906031DB42E4F30D5000030D6005508E7
:100C0600203E8600023087008101C501C601DC1F37
:100C1600152E0130C5000030C600DB09DC09DB0AF1
:100C26000319DC0A0230C7000030C8005B085C0408
:100C36000319512EFF302100D507FF30D63D0A306B
:100C4600F1000030F2005C08F4005B08F300B431F8
:100C56003F2480317108303E2100A7005508203E10
:100C6600860002308700270881000A30F100003034
:100C7600F2005C08F4005B08F300B531BE25803154
:100C860072082100DC007108DB00FF30C707FF3067
:100C9600C83DFF30CA07FF30CB3D192E4808803AC1
:100CA600A70080302702031D5A2E01304702031881
:100CB6001D2EFF302100D507FF30D63D45084604DE
:100CC600031D672E2B30682E2D30B5000030B60080
:100CD6003508A7005508203E860002308700270801
:100CE6008100FF30CA07FF30CB3DFF30D507FF300C
:100CF600D63D2608BF3EA700FF3003180030A800E7
:100D0600003028021A300319270203188C2E0130EE
:100D16008D2E0030A900AA012908B9002A08BA00B8
:100D260039083A04031D992E65309A2E4530B700CE
:100D36000030B8003708A7005508203E860002306C
:100D4600870027088100FF30CA07FF30CB3D5508D2
:100D5600203EF1000230F2005D08203EB2318722CB
:100D66008031210021082000A70021002008200052
:100D7600A60020302100A70027082000A800210097
:100D86004B082000AA0021004A082000A900B5311E
:100D96006D25200027082100A1002000260821003B
:100DA600A000080044302100A3007A30A2000030E1
:100DB600A1000030A000F8302300D6052100A801CC
:100DC600A901230035082000A900230034082000CB
:100DD600A800230033082000A700230032082000C3
:100DE600A6006908F4006808F3006708F2006608C0
:100DF600F1000130AB313223863174082000AD009A
:100E06007308AC007208AB007108AA009531D425AE
:100E16008631200029082100A7002000280821008B
:100E2600A600200027082100A50020002608210092
:100E3600A40044302000C3007A30C2000030C10054
:100E46000030C000210023082000A900210022084C
:100E56002000A800210021082000A700210020086A
:100E66002000A600210027082000AD00210026084A
:100E76002000AC00210025082000AB00210024083A
:100E86002000AA009531D425863120002908C70004
:100E96002808C6002708C5002608C400903152203D
:100EA600863120004308DD004208DC004108DB00F3
:100EB6004008DA00210029088500280884008435C6
:100EC600850DE8308407BA30853D003F2000EC00F0
:100ED600013FED006C08F1006D08F200890D893BB9
:100EE6008909F300F4000130AB31322386317408EE
:100EF6002000E1007308E0007208DF007108DE00E0
:100F0600A83130208631031C902F2300560821007B
:100F16002806F83928062300D60001302100A80744
:100F26000030A93D00302902073003192802031CAE
:100F3600E42EE7302300D6052100AA01AB012B08D9
:100F460085002A0884008435850D08308407BB3067
:100F5600853D003F2000EC00013FED006B08803A24
:100F6600EE006D08803A6E02031DBB2F6C086A0204
:100F7600031CCC2F21002A082000EC00EC0DEC0D00
:100F8600EC0D2300560820006C06E7396C0623009A
:100F9600D60001302100AA070030AB3D00302B02FD
:100FA600073003192A02031CA22F1830F50000305F
:100FB600F6000630F7000030F8002300560820003F
:100FC600EC00ED016C08F9006D08FA00B2312B2235
:100FD600080020009111240096152000911DF02F85
:100FE60024001108F300F4017308F1007408F200FC
:100FF6000800B031EF200800080028346E3475343C
:101006006C346C342934003421000D1123000D1189
:1010160021008D1523008D110E128E1221000E1641
:101026008E160C128C12101055303C008F00AA3010
:101036008F000F103D002408E0391138A4003C0051
:101046002108E0391438A1002008E0391538A0003D
:101056003D002508E0391038A5001A08E039143893
:101066009A003C002408E0390B38A40055308F0064
:10107600AA308F000F14080021006508860087013A
:10108600403FF100413FF2005A30F300BB30F4001C
:101096000230F5000030F6009031002088317108EA
:1010A6007204031DA7282100650886008701023007
:1010B600810741310318810A6608860001308700DE
:1010C600010884000130850002308107003F2200BC
:1010D600C600013FC700C801C901CA01CB01CC0146
:1010E600CD01210064082000B10021006308200022
:1010F600B000220046082000B20022004708200067
:10110600B300220048082000B4002200490820004D
:10111600B50022004A082000B60022004B08200035
:10112600B70022004C082000B80022004D0820001D
:10113600B900A6311C26200031082100E400200059
:1011460030082100E30008002100650886008701B9
:10115600403FF100413FF2002C30F300BB30F40079
:101166000330F5000030F600903100208831710818
:101176007204031D77292100650886008701033064
:10118600810741310318810A66088600013087000D
:10119600403F840001308500810A00082200A0003B
:1011A6002008C40023003C082200A0004408860052
:1011B6000130870020088100732921006508860018
:1011C60087010230810741310318810A66088600CB
:1011D60001308700403F840001308500810A000805
:1011E6002200A0002008C4004408860001308700C1
:1011F60023003C08C03F3D08C13F73292100650814
:10120600860087010130810741310318810A66088B
:10121600860001308700403F840001308500810A46
:1012260000082200A0002008C400440886000130FF
:10123600870023003C08C03F3D08C13F73292100B9
:101246006508860087010230810741310318810A4B
:101256006608860001308700403F84000130850023
:10126600810A00082200A0002008C40023003C08D0
:101276002200A00023003D082200A1000030A11B8F
:10128600FF30A200A3004408860001308700200832
:10129600C03F2108C13F2208C23F2308C33F73292C
:1012A6002100650886008701023081074131031855
:1012B600810A6608860001308700403F84000130BD
:1012C6008500810A00082200A0002008C400440806
:1012D60086000130870023003C08C03F3D08C13F1F
:1012E6002100E301E401080021006508860087016A
:1012F600403FF100413FF2002D30F300BB30F400D7
:101306000230F5000030F600903100208831710877
:1013160072040319E0282100650886008701403F12
:101326002200A000413FA10020088400210885007A
:1013360012006E3A0319012921006508860087010B
:10134600403FF100413FF2005130F300BB30F40062
:101356000230F5000030F600903100208831710827
:101366007204031922292100650886008701403F7F
:10137600F100413FF2005430F300BB30F40002307C
:10138600F5000030F60090310020883171087204B3
:10139600031953292100650886008701403F220072
:1013A600A000413FA100200884002108850012000A
:1013B600703A031D432A2100650886008701013023
:1013C600810741310318810A6608860001308700CB
:1013D600403F840001308500810A00082200A000F9
:1013E600A101A201A301A401A501A601A701270845
:1013F600CD002608CC002508CB002408CA00230807
:10140600C9002208C8002108C7002008C60021001C
:1014160064082000B100210063082000B00022000B
:1014260046082000B200220047082000B300220030
:1014360048082000B400220049082000B500220018
:101446004A082000B60022004B082000B700220000
:101456004C082000B80022004D082000B900783062
:101466002200A00020082000BA009C31C5242000DC
:1014760031082100E400200030082100E3000800C4
:101486002100650886008701403F2200A000413FF9
:10149600A10020088400210885001200733A031D6C
:1014A600842A2100650886008701013081074131C1
:1014B6000318810A6608860001308700403F8400D1
:1014C60001308500810A00082200A0002008AC0037
:1014D600210064082000A100210063082000A0006C
:1014E60022002C08A00020082000A200AE316A26A7
:1014F600200021082100E400200020082100E3004C
:1015060008002100650886008701403FF100413F41
:10151600F2003430F300BB30F4000330F500003045
:10152600F60090310020883171087204031DEB2A01
:1015360021006508860087010330810741310318C1
:10154600810A6608860001308700010884000130A0
:1015560085000230810700082200C600C701C801C5
:10156600C901CA01CB01CC01CD01210064082000CC
:10157600B100210063082000B000220046082000C8
:10158600B200220047082000B300220048082000CD
:10159600B400220049082000B50022004A082000B5
:1015A600B60022004B082000B70022004C0820009D
:1015B600B80022004D082000B900A43155242000AF
:1015C60031082100E400200030082100E300080073
:1015D6002100650886008701403FF100413FF20087
:1015E6003530F300BB30F4000230F5000030F60071
:1015F60090310020883171087204031D532B21009D
:101606006508860087010230810741310318810A87
:1016160066088600013087000108840001308500D5
:1016260002308107003F2200C600013FC700C80103
:10163600C901CA01CB01CC01CD01210064082000FB
:10164600B100210063082000B000220046082000F7
:10165600B200220047082000B300220048082000FC
:10166600B400220049082000B50022004A082000E4
:10167600B60022004B082000B70022004C082000CC
:10168600B80022004D082000B900A43155242000DE
:1016960031082100E400200030082100E3000800A2
:1016A6002100650886008701403F2200A000413FD7
:1016B600A10020088400210885001200753A031D48
:1016C600B52B21006508860087010130810741316D
:1016D6000318810A66088600013087000108840025
:1016E6000130850002308107003F2200C600013F1D
:1016F600C700C801C901CA01CB01CC01CD01210037
:1017060064082000B100210063082000B000220018
:1017160046082000B200220047082000B30022003D
:1017260048082000B400220049082000B500220025
:101736004A082000B60022004B082000B70022000D
:101746004C082000B80022004D082000B900A43142
:101756005524200031082100E40020003008210033
:10176600E30008002100650886008701403FF1007C
:10177600413FF2005D30F300BB30F4000230F5006B
:101786000030F60090310020883171087204031D84
:10179600372C210065088600870102308107413118
:1017A6000318810A66088600013087000108840054
:1017B6000130850004308107003F2200A000013F70
:1017C600A100023FA200033FA3002008A4002108B5
:1017D600A5002208A6002308A700A801A901AA01BE
:1017E600AB012B08CD002A08CC002908CB0028081D
:1017F600CA002708C9002608C8002508C70024080B
:10180600C600210064082000B10021006308200002
:10181600B000220046082000B2002200470820003F
:10182600B300220048082000B40022004908200026
:10183600B50022004A082000B60022004B0820000E
:10184600B70022004C082000B80022004D082000F6
:10185600B900A4315524200031082100E4002000FD
:1018660030082100E3000800210065088600870192
:10187600403FF100413FF2006030F300BB30F4001E
:101886000230F5000030F6009031002088317108F2
:101896007204031D9F2C2100650886008701023013
:1018A600810741310318810A6608860001308700E6
:1018B600010884000130850002308107003F2200C4
:1018C600C600013FC700C801C901CA01CB01CC014E
:1018D600CD01210064082000B1002100630820002A
:1018E600B000220046082000B2002200470820006F
:1018F600B300220048082000B40022004908200056
:10190600B50022004A082000B60022004B0820003D
:10191600B70022004C082000B80022004D08200025
:10192600B900A4315524200031082100E40020002C
:1019360030082100E30008002100650886008701C1
:10194600403FF100413FF2003830F300BB30F40075
:101956000330F5000030F600903100208831710820
:1019660072040319CD2C2100650886008701403FCB
:10197600F100413FF2001830F300BB30F4000330B1
:10198600F5000030F60090310020883171087204AD
:10199600031D372D2100650886008701403F220080
:1019A600A000413FA100023020078400210803184F
:1019B600210A85000008A2002208C500210065084A
:1019C600860087010330810741310318810A6608C2
:1019D600860001308700010884000130850002304E
:1019E600810700082200C600C701C801C901CA0153
:1019F600CB01CC01CD01210064082000B1002100FB
:101A060063082000B000220046082000B200220031
:101A160047082000B300220048082000B400220036
:101A260049082000B50022004A082000B60022001E
:101A36004B082000B70022004C082000B800220006
:101A46004D082000B90022004508A000200820000B
:101A5600BA009C31C524200031082100E400200092
:101A660030082100E3000800210065088600870190
:101A7600403FF100413FF2003930F300BB30F40043
:101A86000230F5000030F6009031002088317108F0
:101A960072040319652D2100650886008701403F01
:101AA600F100413FF2001930F300BB30F400023080
:101AB600F5000030F600903100208831710872047C
:101AC600031DD02D2100650886008701403F2200B6
:101AD600A000413FA100013020078400210803181F
:101AE600210A85000008A2002208C5002100650819
:101AF600860087010230810741310318810A660892
:101B0600860001308700010884000130850002301C
:101B16008107003F2200C600013FC700C801C90176
:101B2600CA01CB01CC01CD01210064082000B1001F
:101B3600210063082000B000220046082000B20001
:101B4600220047082000B300220048082000B40005
:101B5600220049082000B50022004A082000B600ED
:101B660022004B082000B70022004C082000B800D5
:101B760022004D082000B90022004508A0002008D8
:101B86002000BA009C31C524200031082100E40061
:101B9600200030082100E3000800210065088600C7
:101BA6008701403F2200A000413FA1002008840099
:101BB600210885001200783A0319F22D21006508E4
:101BC60086008701403F2200A000413FA100200877
:101BD6008400210885001200583A031D5A2E210060
:101BE600650886008701403F2200A000413FA10012
:101BF60020088400210885000008A2002208C500EC
:101C060021006508860087010130810741310318EC
:101C1600810A6608860001308700010884000130C9
:101C2600850002308107003F2200C600013FC70041
:101C3600C801C901CA01CB01CC01CD01210064084C
:101C46002000B100210063082000B00022004608F1
:101C56002000B200220047082000B30022004808F6
:101C66002000B400220049082000B50022004A08DE
:101C76002000B60022004B082000B70022004C08C6
:101C86002000B80022004D082000B90022004508B7
:101C9600A00020082000BA009C31C524200031088D
:101CA6002100E400200030082100E30008002100A4
:101CB600650886008701403FF100413FF20063302E
:101CC600F300BB30F4000230F5000030F60090312E
:101CD60000208831710872040319882E21006508D6
:101CE60086008701403FF100413FF2003C30F3009F
:101CF600BB30F4000230F5000030F60090310020D1
:101D0600883171087204031D0D2F210065088600B5
:101D16008701403F2200A000413FA100013020077B
:101D2600840021080318210A85000008A200220861
:101D3600C500210065088600870102308107413110
:101D46000318810A660886000130870001088400AE
:101D56000130850004308107003F2200A000013FCA
:101D6600A100023FA200033FA3002008A40021080F
:101D7600A5002208A6002308A700A801A901AA0118
:101D8600AB012B08CD002A08CC002908CB00280877
:101D9600CA002708C9002608C8002508C700240865
:101DA600C600210064082000B1002100630820005D
:101DB600B000220046082000B2002200470820009A
:101DC600B300220048082000B40022004908200081
:101DD600B50022004A082000B60022004B08200069
:101DE600B70022004C082000B80022004D08200051
:101DF600B90022004508A00020082000BA009C3146
:101E0600C524200031082100E4002000300821000C
:101E1600E30008002100650886008701403FF100C5
:101E2600413FF2006630F300BB30F4000230F500AB
:101E36000030F600903100208831710872040319D1
:101E46003B2F2100650886008701403FF100413F96
:101E5600F2003F30F300BB30F4000230F5000030F2
:101E6600F60090310020883171087204031DA62FF8
:101E76002100650886008701403F2200A000413FFF
:101E8600A10001302007840021080318210A8500DB
:101E96000008A2002208C500210065088600870107
:101EA6000230810741310318810A66088600013035
:101EB6008700010884000130850002308107003F59
:101EC6002200C600013FC700C801C901CA01CB01F3
:101ED600CC01CD01210064082000B1002100630877
:101EE6002000B000220046082000B2002200470869
:101EF6002000B300220048082000B4002200490850
:101F06002000B50022004A082000B60022004B0837
:101F16002000B70022004C082000B80022004D081F
:101F26002000B90022004508A00020082000BA00C1
:101F36009C31C524200031082100E400200030082F
:101F46002100E30008002100650886008701403F64
:101F56002200A000413FA10020088400210885003E
:101F66001200253A031DD02F21006508860087013F
:101F76000130810741310318810A2530F100003014
:101F8600F2006408F4006308F300B6310F2601304E
:101F96002100E3000030E400080021006508860007
:101FA60087010130810741310318810A7329210015
:101FB600650886008701403F2200A000413FA1003E
:101FC60020088400210885000008A200A301220839
:101FD600F1002308F20021006408F4006308F3000E
:101FE600B6310F2688312100650886008701013049
:101FF600810741310318810ACA2F7208F900710856
:10200600F8007408FB007308FA000130F50200308E
:10201600F63B750A031D3A28760A031D3A28F10194
:10202600F20108007A0884007B0885001200031973
:10203600412875087604031941287A0884007B082C
:1020460085000008F70078088400790885000008F4
:102056007706031D41280130F8070030F93D0130AD
:10206600FA070030FB3D0130F5020030F63B7808F8
:102076008400790885001200031D1528780884005D
:10208600790885000008F7007A0884007B08850037
:1020960000087702F100F201031CF2030800200099
:1020A60047088039C8004808D1004735C8004808A5
:1020B600D800C61B5814580803196F28580A031D60
:1020C6006C280030C7000030C6000030C500003064
:1020D600C400C617C70177280030C7000030C60005
:1020E6000030C5000030C40043088039C8004808E5
:1020F600D1064335C8004808D900C21B59145908EF
:1021060003199328590A031D90280030C300003094
:10211600C2000030C1000030C000C217C3019B28B6
:102126000030C3000030C2000030C1000030C000E3
:102136004308420441044004031DBA280030C70086
:102146000030C6000030C5000030C4008030C60430
:102156007F30C7045108C8004808C7044708C300B1
:102166004608C2004508C1004408C00008005808D7
:10217600031DC6280030C3000030C2000030C10075
:102186000030C00008005808C800C9014908CB0043
:1021960059084802CA00031CCB034A087F3ED200F6
:1021A60000304B3DD3004708D0004608CF00450815
:1021B600CE004408CD000030C7000030C600003015
:1021C600C5000030C4000030D7000030D600003013
:1021D600D5000030D400D9011A30590203182B2932
:1021E600590803190D290130CD35CE0DCF0DD00D6F
:1021F600890BF7280130C435C50DC60DC70D890BEF
:10220600FE28D71B44140130D435D50DD60DD70D75
:10221600890B072943085002031D1B2942084F0258
:10222600031D1B2941084E02031D1B2940084D02B0
:10223600031C262957174008CD024108CE3B420809
:10224600CF3B4308D03B0130C8004808D907EF28E8
:1022560050084F044E044D04031D5414C61B482950
:102266000130C435C50DC60DC70D890B3429D71BE2
:1022760044140130D435D50DD60DD70D890B3D2923
:10228600FF30D207FF30D33D3129D901D71F61294D
:10229600FF305405C800FF305505C900FF3056050C
:1022A600CA007F305705CB004B084A04490448044E
:1022B600031944185F296129D901D90A5908031954
:1022C6008A290130C4070030C53D0030C63D0030C4
:1022D600C73D471C8A294408C8004508C900460866
:1022E600CA004708CB000130CC00CB37CA0CC90C5A
:1022F600C80CCC0B78294B08C7004A08C600490809
:10230600C5004808C4000130D2070030D33D530849
:10231600803AC80080304802031D9329FF305202DC
:10232600031CA229FF302000D2000030D300003069
:10233600C7000030C6000030C5000030C4002000D1
:102346005308803AC80080304802031DAC2901308A
:1023560052020318BA292000D201D3010030C70067
:102366000030C6000030C5000030C400D101200096
:102376005208C8004808D800581CC329C617C729E0
:102386007F30C8004808C6055836C8004808C70048
:10239600AD281A302200ED00F830890BD029ED0B5C
:1023A600D02900009E30F200B930F300B131D921B6
:1023B60091312230F200BA30F300B131D921913196
:1023C60071302200DF002730E0007F30E10000306E
:1023D600E2006430E300BA30E4001830F500003063
:1023E600F6000030F700F800B331C52391317608C6
:1023F6002200E6007508E500B131C1219131713046
:10240600F2002730F300B131D92191317130220029
:10241600DF002730E0007F30E1000030E2001030BE
:10242600E300BA30E4001830F5000030F600013061
:10243600F7000030F800B331C52391317608220049
:10244600E6007508E500B131C12191317130F20025
:102456002730F300B131D921913171302200DF00EC
:102466002730E0007F30E1000030E200E430E30096
:10247600B930E4001830F5000030F6000430F700FB
:102486000030F800B331C523913176082200E6000A
:102496007508E500B131C12191317130F200273064
:1024A600F300B131D921913171302200DF0027309C
:1024B600E0007F30E1000030E200FA30E300B9309E
:1024C600E4001830F5000030F6000530F700003063
:1024D600F800B331C523913176082200E60075086D
:1024E600E500B131C12191317130F2002730F3009E
:1024F600B131D921913171302200DF002730E0005F
:102506007F30E1000030E2002530E300BA30E4001D
:102516001830F5000030F6000630F7000030F800FD
:10252600B331C523913176082200E6007508E5002F
:10253600B131C12191317130F2002730F300B13150
:10254600D921913171302200DF002730E0007F3041
:10255600E1000030E2003A30E300BA30E40018301F
:10256600F5000030F6000730F7000030F800B33110
:10257600C523913176082200E6007508E500B131E1
:10258600C12191317130F2002730F300B131D921E8
:10259600913171302200DF002730E0007F30E1000A
:1025A6000030E2004F30E300BA30E4001830F500A6
:1025B6000030F6000830F7000030F800B331C523CC
:1025C600913176082200E6007508E500B131C12197
:1025D60091317130F2002730F300B131D9219131B8
:1025E60071302200DF002730E0007F30E10000304C
:1025F600E2007930E300BA30E4001830F50000302C
:10260600F6000930F7000030F800B331C5239131E8
:1026160076082200E6007508E500B131C121913146
:102626007130F2002730F300B131D9219131713088
:102636002200DF002730E0007F30E1000030E200BA
:102646008D30E300BA30E4001830F5000030F600B3
:102656000A30F7000030F800B331C523913176080F
:102666002200E6007508E500B131C12191317130D3
:10267600F2002730F300B131D921913171302200B7
:10268600DF002730E0007F30E1000030E200A130BB
:10269600E300BA30E4001830F5000030F6000B30E5
:1026A600F7000030F800B331C523913176082200D7
:1026B600E6007508E500B131C12191317130F200B3
:1026C6002730F300B131D921913171302200DF007A
:1026D6002730E0007F30E1000030E200B430E30054
:1026E600BA30E4001830F5000030F6003230F7005A
:1026F6000030F800B331C523913176082200E60098
:102706007508E500B131C12191317130F2002730F1
:10271600F300B131D921913171302200DF00273029
:10272600E0007F30E1000030E200C630E300BA305E
:10273600E4001830F5000030F6003330F7000030C2
:10274600F800B331C523913176082200E6007508FA
:10275600E500B131C12191317130F2002730F3002B
:10276600B131D92191312230F200BA30F300B131C2
:10277600D92108002100650886008701403F220014
:10278600A000413FA1002008840021088500120016
:10279600253A031DD22D21006508860087010130E8
:1027A600810741310318810A2300BE01BF01C2011E
:1027B600C301FF30C000FF30C1002200AD01AE01F1
:1027C600002C230042142100650886008701013091
:1027D600810741310318810A002C2300C214E62B1D
:1027E60023004215E62B2300C215E62B23004216D2
:1027F600E62B0130AD000030AE0022002D082E047D
:10280600031D2C2C2100650886008701403F22000D
:10281600A000413FA100200884002108850000088F
:10282600A200A3012308003A03191A2CFC2B220844
:10283600203A0319F62B033A0319F92B083A031920
:10284600F32B063A0319E42B1D3A0319F02BFC2B44
:10285600002C2300421C332CFD30C205FF30C3057B
:102866002100650886008701403F2200A000413F05
:10287600A100200884002108850012002A3A031DC1
:10288600652C2100650886008701013081074131EA
:102896000318810A66088600013087000108840053
:1028A6000130850002308107003F2300BE00013F52
:1028B600BF00BF1FA72C4214BE09BF09BE0A0319D9
:1028C600BF0AA72C2100650886008701403FF70054
:1028D600413FF800AB31C823933178082300BF008D
:1028E6007708BE007F2C210065088600870101302D
:1028F600810741310318810A210065088600870196
:10290600403F2200A000413FA1002008840021088A
:1029160085000008D03EA200FF3003180030A30057
:10292600003023020A300319220203189C2C0130BE
:102936009D2C0030A400A5012408AF002508B00096
:102946002F083004031D762C2100650886008701B8
:10295600403F2200A000413FA1002008840021083A
:10296600850012002E3A031D2F2D2300C001C10140
:10297600210065088600870101308107413103186F
:10298600810A650886008701403F2200A000413F7A
:10299600A100200884002108850012002A3A031DA0
:1029A600ED2C210065088600870101308107413141
:1029B6000318810A66088600013087000108840032
:1029C6000130850002308107003F2300C000013F2F
:1029D600C1002F2D2100650886008701403FF700C2
:1029E600413FF800AB31C823933178082300C1007A
:1029F6007708C000072D2100650886008701013091
:102A0600810741310318810A210065088600870184
:102A1600403F2200A000413FA10020088400210879
:102A260085000008D03EA200FF3003180030A30046
:102A3600003023020A30031922020318242D013024
:102A4600252D0030A400A5012408B1002508B200F8
:102A560031083204031DFE2C21006508860087011B
:102A6600403F2200A000413FA10020088400210829
:102A760085000008A200A3012208F7002308F80039
:102A8600B231E922933177082200A4002408B50068
:102A9600350803198F2D2100650886008701403F00
:102AA6002200A000413FA100013020078400210838
:102AB6000318210A85000008A200A3012208F700D6
:102AC6002308F800B231E922933177082200A400E6
:102AD6002408B600360803198F2D210065088600E4
:102AE6008701403F2200A000413FA100023020079D
:102AF600840021080318210A85000008A200A3010A
:102B06002208F7002308F800B231E922933177084A
:102B16002200A4002408B70021006508860087016A
:102B2600403F2200A000413FA10020088400210868
:102B360085001200633AAA31031D272A2100650881
:102B4600860087010130810741310318810A660832
:102B560086000130870001088400013085000230BC
:102B6600810700082200A0002008C5002100640893
:102B76002000B100210063082000B00022004508B3
:102B8600A00020082000B200B3312D232000310818
:102B96002100E400200030082100E30008008F3106
:102BA600DA2F200029088039AE002E08B300293517
:102BB600AE002E08B900A81B391439080319F02DE8
:102BC600390A031DEE2D0030A9000030A8000030A0
:102BD600A7000030A600A817F82D0030A900003085
:102BE600A8000030A7000030A6002D088039AE00EE
:102BF6002E08B3062D35AE002E08B800AC1B3814CF
:102C060038080319132E380A031D112E0030AD00A3
:102C16000030AC000030AB000030AA00AC171B2E11
:102C26000030AD000030AC000030AB000030AA0030
:102C36003808031D3908031D292E0030A90000306D
:102C4600A8000030A7000030A60008002608AE0045
:102C56002E08F1002C08B231492295317208200065
:102C6600BF007108BE003E08AE00AF01B001B10161
:102C76003108B7003008B6002F08B5002E08B4009A
:102C86003F08AE00AF01B001B1013108BD00300808
:102C9600BC002F08BB002E08BA002708AE002E087D
:102CA600F1002B08B2314922953172082000BF008D
:102CB6007108BE003E08AE00AF01B001B1012E089A
:102CC600B4072F08B53D3008B63D3108B73D3F087B
:102CD600AE00AF01B001B1012E08BA072F08BB3D07
:102CE6003008BC3D3108BD3D2808AE002E08F10075
:102CF6002A08B2314922953172082000BF007108B6
:102D0600BE003E08AE00AF01B001B1012E08B40707
:102D16002F08B53D3008B63D3108B73D3F08AE0037
:102D2600AF01B001B1012E08BA072F08BB3D30082C
:102D3600BC3D3108BD3D0830B435B50DB60DB70DF7
:102D4600890B9F2E2708AE002E08F1002A08B23103
:102D56004922953172082000BF007108BE003E0866
:102D6600B4073F08B53D0030B63DB73D2608AE0076
:102D76002E08F1002B08B231492295317208200045
:102D8600BF007108BE003E08B4073F08B53D0030DD
:102D9600B63DB73D0830B435B50DB60DB70D890B48
:102DA600CE2E2608AE002E08F1002A08B23149229E
:102DB600953172082000BF007108BE003E08B407B6
:102DC6003F08B53D0030B63DB73D2708AE002E089A
:102DD600F1002C08B2314922953172082000BF005B
:102DE6007108BE003E08BA073F08BB3D0030BC3D37
:102DF600BD3D2808AE002E08F1002B08B23149224D
:102E0600953172082000BF007108BE003E08BA075F
:102E16003F08BB3D0030BC3DBD3D2808AE002E0836
:102E2600F1002C08B2314922953172082000BF000A
:102E36007108BE003E08AE003F08AF00B001B10108
:102E46000830AE35AF0DB00DB10D890B242F2E080D
:102E5600BA072F08BB3D3008BC3D3108BD3D3408DC
:102E6600AE003508AF003608B0003708B10018309C
:102E7600B136B00CAF0CAE0C890B3B2F2E08BA073F
:102E86002F08BB3D3008BC3D3108BD3D0830B43588
:102E9600B50DB60DB70D890B4A2F39083807AE00A8
:102EA600AF01AF0D2E08823EBE00FF302F3DBF00A2
:102EB600BC1B722F0130BA35BB0DBC0DBD0D890B85
:102EC6005E2FB71B3A140130B435B50DB60DB70DEC
:102ED600890B672FFF30BE07FF30BF3D5B2FB80160
:102EE600B71F8B2FFF303405AE00FF303505AF001E
:102EF600FF303605B0007F303705B10031083004A9
:102F06002F042E0403193A18892F8B2FB801B80AFB
:102F160038080319B42F0130BA070030BB3D003022
:102F2600BC3D0030BD3D3D1CB42F3A08AE003B0809
:102F3600AF003C08B0003D08B1000130B200B13727
:102F4600B00CAF0CAE0CB20BA22F3108BD0030088E
:102F5600BC002F08BB002E08BA000130BE070030A7
:102F6600BF3D3F08803AAE0080302E02031DBD2FC4
:102F7600FF303E02031CC92F7F302000BD00803089
:102F8600BC000030BB000030BA00F32F20003F0821
:102F9600803AAE0080302E02031DD32F01303E0250
:102FA6000318E02F00302000BD000030BC000030C8
:102FB600BB000030BA00B301F32F20003E08AE007C
:102FC6002E08B900FF30BA05FF30BB057F30BC05BF
:102FD6000030BD053918BC173936AE002E08BD00C5
:102FE6003308AE002E08BD043D08A9003C08A80021
:0A2FF6003B08A7003A08A6000800F7
:103002008731FC279831883107209831B1313E2130
:10301200983100302000B5000030B4002530B300F4
:103022008030B200AD310D259831B1312721983170
:10303200B031D22098319A3146229831343023006F
:10304200E500F130890B2328E50B232800321C28E8
:103052002100650886008701403F2200A000413F11
:10306200A10020088400210885001200643A031997
:103072004B282100650886008701403F2200A000FE
:10308200413FA10020088400210885001200693A0E
:10309200031DA328210065088600870101308107EE
:1030A20041310318810A6608860001308700010851
:1030B20084000130850002308107003F2200A00019
:1030C200013FA1002008BC002108BD00890D893BF9
:1030D2008909BE00BF00C000C100C200C3002100B8
:1030E20064082000B100210063082000B000220023
:1030F2003C082000B20022003D082000B30022005C
:103102003E082000B40022003F082000B500220043
:1031120040082000B600220041082000B70022002B
:1031220042082000B800220043082000B9009B3169
:103132007223200031082100E40020003008210021
:10314200E30008002100650886008701403FF10086
:10315200413FF2004230F300BB30F4000230F50090
:103162000030F60090310020983171087204031982
:10317200D1282100650886008701403FF100413FC8
:10318200F2004B30F300BB30F4000230F5000030A7
:10319200F60090310020983171087204031D2F2926
:1031A200210065088600870102308107413103183A
:1031B200810A660886000130870001088400013018
:1031C200850004308107003F2200A000013FA100DA
:1031D200023FA200033FA3002008BC002108BD005B
:1031E2002208BE002308BF000030BF1BFF30C00012
:1031F200C100C200C300210064082000B100210008
:1032020063082000B00022003C082000B200220027
:103212003D082000B30022003E082000B400220036
:103222003F082000B500220040082000B60022001E
:1032320041082000B700220042082000B800220006
:1032420043082000B9009B3172232000310821007D
:10325200E400200030082100E3000800A031F0283B
:1032620044302100A3007A30A2000030A1000030D7
:10327200A000F0302300D5052100A801A9012300F8
:1032820035082000A900230034082000A8002300EC
:1032920033082000A700230032082000A600690896
:1032A200F4006808F3006708F2006608F1000130D4
:1032B200AB313223993174082000AD007308AC00A1
:1032C2007208AB007108AA009531D425993120000B
:1032D20029082100A700200028082100A6002000BC
:1032E20027082100A500200026082100A400443060
:1032F2002000C3007A30C2000030C1000030C0009C
:10330200210023082000A900210022082000A80093
:10331200210021082000A700210020082000A6008B
:10332200210027082000AD00210026082000AC0063
:10333200210025082000AB00210024082000AA005B
:103342009531D425993120002908C7002808C600E4
:103352002708C5002608C400903152209931200068
:103362004308DD004208DC004108DB004008DA00C7
:10337200210029088500280884008435850DC43081
:103382008407B930853D003F2000EC00013FED008D
:103392006C08F1006D08F200890D893B8909F30080
:1033A200F4000130AB313223993174082000E1007E
:1033B2007308E0007208DF007108DE00A8313020D7
:1033C2009931031CEC292300550821002806F03905
:1033D20028062300D50001302100A8070030A93DAE
:1033E200003029020F3003192802031C40298F30B4
:1033F2002300D5052100AA01AB012B0885002A086C
:1034020084008435850DD8308407BA30853D003F6D
:103412002000EC00013FED006B08803AEE006D08E1
:10342200803A6E02031D172A6C086A02031C262AC0
:1034320021002A082000EC00EC0E23005508200091
:103442006C068F396C062300D50001302100AA07D3
:103452000030AB3D00302B02073003192A02031C57
:10346200FE291830F5000030F6000730F700003072
:10347200F800230055082000EC00ED016C08F9006B
:103482006D08FA00B2312B2208005C2B2300580889
:1034920003190800D801B231C7229A31AD31B625DD
:1034A2009A31200020082200EE006E082300E4007A
:1034B2007630F200B930F300B131D9219A312300CC
:1034C20064080319080020001810210011100030B0
:1034D200F100F200B231A6229A312300D8011A304B
:1034E2002200EE00F830890B742AEE0B742A0000D9
:1034F2007030F200B830F300B131D9219A31713015
:103502002200DF002730E0007F30E1000030E200DF
:10351200F730E300B830E400230051082200E6004F
:10352200230050082200E500230053082200E8008F
:10353200230052082200E700B131C1219A317130D3
:10354200F2002730F300B131D9219A313B30F20039
:10355200B830F300B131D9212300D901D90A0800CA
:10356200B63163269A311A302200EE00F830890B08
:10357200B82AEE0BB82A00002230F200BA30F3006B
:10358200B131D9219A3171302200DF002730E000B9
:103592007F30E1000030E2004C30E300B930E4005B
:1035A200B13113219A3174082200E8007308E70050
:1035B2007208E6007108E500B131C1219A3171301B
:1035C200F2002730F300B131D9219A317130220053
:1035D200DF002730E0007F30E1000030E200CB3036
:1035E200E300B830E400B5311D259A3120006608A9
:1035F2002200E800200065082200E700200064089D
:103602002200E600200063082200E500B131C1215A
:103612009A317130F2002730F300B131D9219A3159
:1036220071302200DF002730E0007F30E1000030FF
:10363200E2000230E300B830E400B431CD249A3124
:10364200200066082200E800200065082200E7004A
:10365200200064082200E600200063082200E50042
:10366200B131C1219A317130F2002730F300B1310A
:10367200D9219A319131CC219A312230F200B930DC
:10368200F300B131D9219A319E30F200B830F30003
:10369200B131D9219A310130F1000030F200B2315A
:1036A200A62202302200EE006E082300D900080094
:1036B200803103200800230059082200EE00EF01A8
:1036C2006F08003A0319662B712B6E08003A031932
:1036D200472A013A0319B12A033A0319592B712BCC
:1036E200080020003208C5003308C6003408C700AD
:1036F2003508C8003608C9003708CA003808CB00A8
:103702003908CC004530860000308700473FBA00B8
:10371200BA1F8D2B01308E2B00302000BB00BC0164
:103722003B08C3003C08C400430844040319B72BF8
:10373200C509C609C709C809C909CA09CB09CC09FB
:10374200C50A031DB72BC60A031DB72BC70A031DE3
:10375200B72BC80A031DB72BC90A031DB72BCA0A08
:10376200031DB72BCB0A031DB72BCC0A2300C11BA9
:10377200BE2BFD30C205FF30C3054108803A200050
:10378200BA0080303A02031DC92B013023004002E7
:103792000318D12B01302000BF000030C000D92B0C
:1037A200230041082000C000230040082000BF0081
:1037B20023003F082000C20023003E082000C10071
:1037C20043084404031DE82B2300421DED2BFF3068
:1037D2002000C107FF30C23D4F302000CD00003035
:1037E200CE002400EF01832C200045084604470444
:1037F200480449044A044B044C04031D1A2C400893
:10380200803ABA0080303A02031D092C01303F028F
:1038120003181A2C20004208803ABA0080303A027B
:10382200031D152C01304102031C8F2C2300C21CE6
:103832008F2CFF302000CD07FF30CE3D0A30A00094
:10384200A101A201A301A401A501A601A7014508A6
:10385200A8004608A9004708AA004808AB00490882
:10386200AC004A08AD004B08AE004C08AF00A331D3
:1038720079239B3120002108F5002008F400B131A2
:103882007C219B317408303E2000BA004D08203E56
:103892008600023087003A088100FF30BF07FF3000
:1038A200C03DFF30C107FF30C23D0A30A000A10178
:1038B200A201A301A401A501A601A7014508A80030
:1038C2004608A9004708AA004808AB004908AC000E
:1038D2004A08AD004B08AE004C08AF00A7310D27D7
:1038E2009B3120002008C5002108C6002208C7001D
:1038F2002308C8002408C9002508CA002608CB00EE
:103902002708CC0020004E08803ABA0080303A02E4
:10391200031D8D2C01304D020318F52B20004308A6
:103922004404031D972C2300421DAF2CFF302000BE
:10393200CD07FF30CE3D43084404031DA22C2B309B
:10394200A32C2D30BD000030BE003D08BA004D084A
:10395200203E8600023087003A08810020003108AC
:10396200A7003008A6004D08203EBA003A08A80079
:103972004208AA004108A900B5316D252000270898
:10398200B1002608B00008002300C11BCC2CFD307A
:10399200C205FF30C3054108803A2000BB008030D9
:1039A2003B02031DD72C0130230040020318DF2CF9
:1039B20001302000C7000030C800E72C2300410876
:1039C2002000C800230040082000C70023003F0851
:1039D2002000CA0023003E082000C9002300421E26
:1039E200F72CFE302000C907FF30CA3D2000320804
:1039F200CB003308CC003408CD003508CE003608A1
:103A0200CF003708D0003808D1003908D2004F3033
:103A1200D3000030D4002400EF01B92DFF30200084
:103A2200D307FF30D43D0F304B05D50000304C0595
:103A3200D6005608803ABB0080303B02031D232D7E
:103A42000A305502031C292D20005508573E2C2D03
:103A520020005508303ED5000030563DD6003A08C9
:103A6200BF3EBB00FF3003180030BC0000303C02F8
:103A72001A3003193B020318402D0130412D00304A
:103A8200BD00BE013D08C3003E08C4004308440413
:103A92000319772D20305504BB0000305604BC00BA
:103AA2003B089F3EBD00FF303C3DBE0000303E0261
:103AB2001A3003193D020318602D0130612D0030C8
:103AC200BF00C0013F08C5004008C60045084604C3
:103AD2000319772D5608F8005508F700B3310B2368
:103AE2009C3178082000D6007708D5005508BB0025
:103AF2005308203E8600023087003B088100FF30D9
:103B0200C707FF30C83DFF30C907FF30CA3D4B3001
:103B1200860000308700403FBB00413FBC00423F6F
:103B2200BD00433FBE00443FBF00453FC000463F8B
:103B3200C100473FC20004302000C236C10CC00C95
:103B4200BF0CBE0CBD0CBC0CBB0C890B9D2D200008
:103B52004208D2004108D1004008D0003F08CF00FF
:103B62003E08CE003D08CD003C08CC003B08CB000F
:103B720020005408803ABB0080303B02031DC32D55
:103B820002305302031CEA2D20004B084C044D0462
:103B92004E044F04500451045204031D0F2D4808D3
:103BA200803ABB0080303B02031DD92D0130470211
:103BB20003180F2D20004A08803ABB0080303B02D8
:103BC200031DE52D01304902031CEA2D2300C21812
:103BD2000F2D2300421E082EFF302000D307FF3096
:103BE200D43D3A08BB005308203E860002308700CD
:103BF2003B088100FF30D307FF30D43D3030BB009B
:103C02005308203E8600023087003B0881002000D6
:103C12003108A7003008A6005308203EBB003B082D
:103C2200A8004A08AA004908A900B5316D2520005C
:103C32002708B1002608B000080074088039200067
:103C4200A0002008A8007435A0002008AA00F31BD9
:103C52002A142A0803193B2E2A0A031D382E003083
:103C6200F4000030F3000030F2000030F100F317EE
:103C7200F401432E0030F4000030F3000030F20073
:103C82000030F10078088039A0002008A900290836
:103C92002806031D28177835A0002008A900F71B65
:103CA200291429080319632E290A031D602E0030E6
:103CB200F8000030F7000030F6000030F500F7178A
:103CC200F8016B2E0030F8000030F7000030F600EB
:103CD2000030F5002A0829020318B12E281F752E7C
:103CE2008030A0002008A8062A08A0002008AB0007
:103CF2002908A0002008AA002B08A0002008A9007B
:103D02007108A0002008AB007508A0002008F1008F
:103D12002B08A0002008F5007208A0002008AB00C4
:103D22007608A0002008F2002B08A0002008F60068
:103D32007308A0002008AB007708A0002008F30059
:103D42002B08A0002008F7007408A0002008AB0090
:103D52007808A0002008F4002B08A0002008F80032
:103D6200AB012908A000A1012108A3002A08200212
:103D7200A200031CA3032308803AA400803024027B
:103D8200031DC52E1A302202031CF92E7408730477
:103D9200720471040319CF2E0130D02E003020009E
:103DA200A0002008AB000030F4000030F300003027
:103DB200F2000030F1002908A0002008AA00FE2E1F
:103DC2002B1CE92E2B360138A0002008AB00EB2E6D
:103DD2000310AB0C7118AB170130A000F437F30CD1
:103DE200F20CF10CA00BEF2E0130A0002008AA0764
:103DF200200029082A02031CE12E281B2F2F2A0843
:103E0200031D0C2F0030F4000030F3000030F200EC
:103E12000030F10008007508F1077608F23D7708D6
:103E2200F33D7808F43D741CA92F2B1C1E2F2B3652
:103E32000138A0002008AB00202F0310AB0C711832
:103E4200AB170130A000F437F30CF20CF10CA00B0D
:103E5200242F0130A0002008AA07A92F7408803A55
:103E6200A0007808803A2002031D412F77087302D0
:103E7200031D412F76087202031D412F750871023E
:103E82000318792FFF30A000FF30A100FF30A200FD
:103E9200FF30A30071087502A4007208763BA500EA
:103EA2007308773BA6007408783BA7002408A00794
:103EB2002508A13D2608A23D2708A33D2308F400BA
:103EC2002208F3002108F2002008F1008030A0004F
:103ED2002008A806AB09AB0A2B08031D812F01306D
:103EE200F1070030F23D0030F33D0030F43D812F08
:103EF2007508F1027608F23B7708F33B7808F43B49
:103F02007408730472047104031DA72F2B08031D88
:103F1200A72F0030F4000030F3000030F200003030
:103F2200F10008000130F135F20DF30DF40D890BAB
:103F3200942FAB1B71142B1CA02F0314A12F031061
:103F4200AB0D2A080319A72F0130AA02F31F932FE2
:103F5200A901AB1FB42F2B087F3903197118B22F97
:103F6200B42FA901A90A29080319E02F0130F1078A
:103F72000030F23D0030F33D0030F43D741CE02F80
:103F82007108A0007208A1007308A2007408A300BF
:103F92000130A400A337A20CA10CA00CA40BCB2FC0
:103FA2002308F4002208F3002108F2002008F1009F
:103FB2002A0A0319E02F0130A0002008AA072A0AC2
:103FC200031D2A08031DF02F0030F4000030F30017
:103FD2000030F2000030F1002A080319A8012A1C5F
:103FE200F42FF317F82F7F30A0002008F3052A36AC
:103FF200A0002008F400A81F0800F4170800F5012B
:10400200F50A203071067204031914287108F73E6C
:10401200F300FF30723DF4000030740205300319E2
:1040220073020318F5017508F300F4017308F10037
:104032007408F2000800200033082300C7002000A3
:1040420032082300C6001830F5000030F6000830B0
:10405200F7000030F800B331C523A0317508200005
:10406200B60036082300D40052082000A400230022
:1040720053082000A500890D893B8909A600A700E5
:10408200230050082000B600230051082000B7008A
:104092000030B71BFF30B800B9003208BA0033084D
:1040A200BB000030BB1BFF30BC00BD003608BA02AB
:1040B2003708BB3B3808BC3B3908BD3B3D08F40020
:1040C2003C08F3003B08F2003A08F1000030F80027
:1040D2000030F7000330F600E830F500B3315E231C
:1040E200A03174082000AB007308AA007208A9006E
:1040F2007108A800A931A521A03120002408BE0022
:104102002508BF002608C0002708C1000430C200ED
:10411200C137C00CBF0CBE0CC20B89283E08C300BD
:104122004308C4001830F5000030F6000930F700EB
:104132000030F8004408B600B7013608F900370825
:10414200FA00B2312B22A0312000C501C601460877
:104152008500450884008435850DF8308407BA301F
:10416200853D003FB600013FB7003508803AB800F0
:104172003708803A3802031DC02836083402031C6F
:10418200D02820004508B600B60EB60DB60D2300A5
:104192005408200036063F3936062300D400013089
:1041A2002000C5070030C63D003046020330031927
:1041B2004502031CA8281830F5000030F60008302C
:1041C200F7000030F800230054082000B600B701C1
:1041D2003608F9003708FA00B2312B220800210014
:1041E200650886008701403FF100413FF2004530FB
:1041F200F300BB30F4000230F5000030F6009031DD
:104202000020A0317108720403191E2921006508DB
:1042120086008701403FF100413FF2004E30F3003B
:10422200BB30F4000230F5000030F600903100207F
:10423200A03171087204031D6F29210065088600F0
:1042420087010230810741310318810A660886001E
:1042520001308700010884000130850002308107A7
:10426200003F2200BC00013FBD00BE01BF01C001F2
:10427200C101C201C301210064082000B100210074
:1042820063082000B00022003C082000B200220097
:104292003D082000B30022003E082000B4002200A6
:1042A2003F082000B500220040082000B60022008E
:1042B20041082000B700220042082000B800220076
:1042C20043082000B9009B317223200031082100ED
:1042D200E400200030082100E300080066302200DC
:1042E2003506031DC4292100650886008701403F69
:1042F2002200A000413FA10020088400210885007F
:104302000008A2002208C500210065088600870176
:104312000130810741310318810A660886000130A5
:104322008700010884000130850004308107003FC6
:104332002200B800013FB900023FBA00033FBB00B0
:1043420021006408A1006308A00022003B082100AC
:10435200A50022003A082100A40022003908210009
:10436200A300220038082100A20022004508A00074
:1043720020082100A6008031582021002108E400F5
:104382002008E3000800AC31692C23002D0820002E
:10439200ED0023002C082000EC0023002B08200055
:1043A200EB0023002A082000EA005D08ED005C080B
:1043B200EC005B08EB005A08EA006A08DE006B08B2
:1043C200DF006C08E0006D08E1001730E136E00C18
:1043D200DF0CDE0C890BE729FF305E05E2000030BE
:1043E2005F05E3006208813EE800FF30633DE900BB
:1043F2006908803ADE0080305E02031D022A17300F
:104402006802031808002000E91B5F2AFF30DE0063
:10441200FF30DF007F30E0000030E100680A152A3B
:10442200E137E00CDF0CDE0C890B112A6108E70092
:104432006008E6005F08E5005E08E4006A086405BB
:10444200DE006B086505DF006C086605E0006D089C
:104452006705E100610860045F045E040319080057
:104462006A08DE006B08DF006C08E0006D08E100FE
:104472001F30E136E00CDF0CDE0C890B3A2A6108B2
:1044820060045F045E0403194E2A6408EA076508A3
:10449200EB3D6608EC3D6708ED3D6409DE00650909
:1044A200DF006609E0006709E1005E08EA055F08CF
:1044B200EB056008EC056108ED05952A6A08DE0047
:1044C2006B08DF006C08E0006D08E1001F30E13688
:1044D200E00CDF0CDE0C890B682A610860045F04C3
:1044E2005E04031D782A0030ED000030902A6A082D
:1044F200DE006B08DF006C08E0006D08E1000130AF
:10450200DE35DF0DE00DE10D890B812A61086004C3
:104512005F045E040319952ABF30ED008030EC0081
:104522000030EB000030EA006D08DD006C08DC00B2
:104532006B08DB006A08DA00080020003308230059
:10454200C500200032082300C4001830F5000030F6
:10455200F6000830F7000030F800B331C523A2316D
:1045620075082000B60036082300D4005208200047
:10457200A400230053082000A500890D893B890966
:10458200A600A700230050082000B600230051080F
:104592002000B7000030B71BFF30B800B900320866
:1045A200BA003308BB000030BB1BFF30BC00BD00AB
:1045B2003608BA023708BB3B3808BC3B3908BD3B5A
:1045C2003D08F4003C08F3003B08F2003A08F10011
:1045D2000030F8000030F7000330F600E830F50054
:1045E200B3315E23A23174082000AB007308AA0025
:1045F2007208A9007108A800A931A521A2312000E2
:104602002408BE002508BF002608C0002708C100F4
:104612000430C200C137C00CBF0CBE0CC20B0B2B46
:104622003E08C3004308C4000130B6003608C40780
:104632001830F5000030F6000A30F7000030F800BC
:104642004408B600B7013608F9003708FA00B2315B
:104652002B22A2313F302300D4052000C501C60120
:1046620046088500450884008435850D003084079E
:10467200BB30853D003FB600013FB7003508803AA8
:10468200B8003708803A3802031D492B3608340235
:10469200031C592B20004508B600B60EB60DB60D08
:1046A20023005408200036063F3936062300D40082
:1046B20001302000C5070030C63D003046020330FD
:1046C20003194502031C312B1830F5000030F600A7
:1046D2000830F7000030F800230054082000B6002C
:1046E200B7013608F9003708FA00B2312B22080068
:1046F200F3012830860000308700473FF100F11FA8
:10470200A32B2000A809A909AA09AB09AC09AD0984
:10471200AE09AF09A80A031DA12BA90A031DA12BEB
:10472200AA0A031DA12BAB0A031DA12BAC0A031D70
:10473200A12BAD0A031DA12BAE0A031DA12BAF0AAB
:10474200F301F30A2030860000308700473FF10072
:10475200F11FCA2B2000A009A109A209A309A409DB
:10476200A509A609A709A00A031DCA2BA10A031DB0
:10477200CA2BA20A031DCA2BA30A031DCA2BA40A11
:10478200031DCA2BA50A031DCA2BA60A031DCA2B89
:10479200A70A20002008210422042304240425045B
:1047A200260427040319222CF201F20AA71BE62B86
:1047B200A035A10DA20DA30DA40DA50DA60DA70D4B
:1047C2000130F1007108F207D72B27082F02031DD1
:1047D200042C26082E02031D042C25082D02031D7D
:1047E200042C24082C02031D042C23082B02031D75
:1047F200042C22082A02031D042C21082902031D6D
:10480200042C20082802031C162C2008A8022108C8
:10481200A93B2208AA3B2308AB3B2408AC3B250852
:10482200AD3B2608AE3B2708AF3BA736A60CA50C2E
:10483200A40CA30CA20CA10CA00C0130F202031DCB
:10484200E62B73080319432CA809A909AA09AB0985
:10485200AC09AD09AE09AF09A80A031D432CA90A88
:10486200031D432CAA0A031D432CAB0A031D432C30
:10487200AC0A031D432CAD0A031D432CAE0A031DD3
:10488200432CAF0A20002808A0002908A1002A080A
:10489200A2002B08A3002C08A4002D08A5002E08B6
:1048A200A6002F08A70008002300C11B5C2CFD30C6
:1048B200C205FF30C3054108803A2000BA008030AB
:1048C2003A02031D672C01302300400203186F2CAB
:1048D20001302000BB000030BC00772C23004108CF
:1048E2002000BC00230040082000BB0023003F083A
:1048F2002000BE0023003E082000BD003208BF0099
:104902003308C0003408C1003508C2003608C300AD
:104912003708C4003808C5003908C6004F30C70040
:104922000030C8002400EF011B2D3F084004410461
:1049320042044304440445044604031DBA2C3C08C3
:10494200803ABA0080303A02031DA92C01303B02A2
:104952000318BA2C20003E08803ABA0080303A028E
:10496200031DB52C01303D02031C202D2300C21C67
:10497200202DFF302000C707FF30C83D0A30A000BD
:10498200A101A201A301A401A501A601A7013F085B
:10499200A8004008A9004108AA004208AB00430849
:1049A200AC004408AD004508AE004608AF00B73180
:1049B2001F27A43120002008303EBA004708203EBD
:1049C2008600023087003A088100FF30BB07FF30C3
:1049D200BC3DFF30BD07FF30BE3D0A30A000A10143
:1049E200A201A301A401A501A601A7013F08A800F5
:1049F2004008A9004108AA004208AB004308AC00E5
:104A02004408AD004508AE004608AF00A831AC200E
:104A1200A43120002008BF002108C0002208C100E4
:104A22002308C2002408C3002508C4002608C500C4
:104A32002708C600200047084804031D962C2000C2
:104A42003108A7003008A6004708203EBA003A08FD
:104A5200A8003E08AA003D08A900B5316D25200036
:104A62002708B1002608B00008002100650886006A
:104A72008701403F2200A000413FA100200884009E
:104A82002108850012006F3A031D982D2100650848
:104A9200860087010130810741310318810A6608C7
:104AA2008600013087000108840001308500023051
:104AB2008107003F2200C600013FC700C801C901AB
:104AC200CA01CB01CC01CD01210064082000B10054
:104AD200210063082000B000220046082000B20036
:104AE200220047082000B300220048082000B4003A
:104AF200220049082000B50022004A082000B60022
:104B020022004B082000B70022004C082000B80009
:104B120022004D082000B900A6311C2620003108D1
:104B22002100E400200030082100E30008002100F9
:104B3200650886008701403FF100413FF20057308F
:104B4200F300BB30F4000230F5000030F600903183
:104B52000020A53171087204031D1A2E2100650878
:104B6200860087010230810741310318810A6608F5
:104B7200860001308700010884000130850004307E
:104B82008107003F2200A000013FA100023FA200D6
:104B9200033FA3002008A4002108A5002208A600C4
:104BA2002308A700A801A901AA01AB012B08CD0087
:104BB2002A08CC002908CB002808CA002708C90007
:104BC2002608C8002508C7002408C600210064087A
:104BD2002000B100210063082000B0002200460836
:104BE2002000B200220047082000B300220048083B
:104BF2002000B400220049082000B50022004A0823
:104C02002000B60022004B082000B70022004C080A
:104C12002000B80022004D082000B900A6311C2651
:104C2200200031082100E400200030082100E300C8
:104C3200080088313F282300C11B232EFD30C20506
:104C4200FF30C3054108803A2000BA0080303A02A2
:104C5200031D2E2E0130230040020318362E013090
:104C62002000C2000030C3003E2E23004108200075
:104C7200C300230040082000C20023003F08200098
:104C8200C70023003E082000C6003208C8003308CF
:104C9200C9003408CA003508CB003608CC003708F2
:104CA200CD003808CE003908CF004F30D000003098
:104CB200D1002400EF012000C401C501D32E200041
:104CC200480849044A044B044C044D044E044F0462
:104CD200031D852E4308803ABA0080303A02031D34
:104CE200742E013042020318852E20004708803AB4
:104CF200BA0080303A02031D802E01304602031CA6
:104D0200DE2E2300C21CDE2EFF302000D007FF3033
:104D1200D13D07304805C40000304905C5004408AC
:104D2200303EBA005008203E8600023087003A0822
:104D32008100FF30C207FF30C33DFF30C607FF309E
:104D4200C73D4830860000308700403FBA00413FEF
:104D5200BB00423FBC00433FBD00443FBE00453F55
:104D6200BF00463FC000473FC10003302000C136AC
:104D7200C00CBF0CBE0CBD0CBC0CBB0CBA0C890B1E
:104D8200B72E20004108CF004008CE003F08CD00DA
:104D92003E08CC003D08CB003C08CA003B08C900D5
:104DA2003A08C8005108803ABA0080303A02031D1E
:104DB200DC2E013050020318602E2300421EF72E13
:104DC2002000440845040319F72EFF30D007FF30B6
:104DD200D13D3030BA005008203E860002308700B4
:104DE2003A088100FF30C607FF30C73D2000310876
:104DF200A7003008A6005008203EBA003A08A800D2
:104E02004708AA004608A900B5316D2520002708E9
:104E1200B1002608B0000800F301203086000030FF
:104E22008700473FF100F11F372F2000A009A10999
:104E3200A209A309A409A509A609A709A00A031D95
:104E4200352FA10A031D352FA20A031D352FA30AF0
:104E5200031D352FA40A031D352FA50A031D352F67
:104E6200A60A031D352FA70AF301F30A283086008C
:104E720000308700473FF100F11F622F2000A80990
:104E8200A909AA09AB09AC09AD09AE09AF09A80A7B
:104E9200031D5E2FA90A031D5E2FAA0A031D5E2FA2
:104EA200AB0A031D5E2FAC0A031D5E2FAD0A031D64
:104EB2005E2FAE0A031D5E2FAF0A0130F1007108AA
:104EC200F30674308600003087000830F1000030AD
:104ED2001E00F10B692F2000200821042204230464
:104EE20024042504260427040319CD2FF201F20A13
:104EF200A71B882FA035A10DA20DA30DA40DA50DF2
:104F0200A60DA70D0130F1007108F207792FF435D3
:104F1200F50DF60DF70DF80DF90DFA0DFB0D27083D
:104F22002F02031DAE2F26082E02031DAE2F2508C9
:104F32002D02031DAE2F24082C02031DAE2F2308C1
:104F42002B02031DAE2F22082A02031DAE2F2108B9
:104F52002902031DAE2F20082802031CC12F20089E
:104F6200A8022108A93B2208AA3B2308AB3B24083C
:104F7200AC3B2508AD3B2608AE3B2708AF3B74147B
:104F8200A736A60CA50CA40CA30CA20CA10CA00C79
:104F92000130F202031D882F73080319EE2FF40962
:104FA200F509F609F709F809F909FA09FB09F40AFA
:104FB200031DEE2FF50A031DEE2FF60A031DEE2F39
:104FC200F70A031DEE2FF80A031DEE2FF90A031D3F
:104FD200EE2FFA0A031DEE2FFB0A74082000A00030
:104FE2007508A1007608A2007708A3007808A4003B
:104FF2007908A5007A08A6007B08A70008007408B3
:105002002300B5007308B4007208B3007108B2003F
:1050120008002000A500A301A40123082507A00081
:1050220020088600023087000108A1002108A200A2
:105032002208031908002208A000A1012008F1009B
:105042002108F2007B08F4007A08F300B6310F263B
:10505200A83101302000A3070030A43D0E28003003
:1050620020005A05E20000305B05E30080305C0559
:10507200E4007F305D05E5006508640463046204B2
:10508200031D4B280030DD000030DC000030DB0067
:105092000030DA0000305E05E20000305F05E30018
:1050A20080306005E4007F306105E5006508640436
:1050B20063046204031D65280030E1000030E00053
:1050C2000030DF000030DE00DD1F7F280030E2000C
:1050D2000030E3000030E4008030E5005A08E202CC
:1050E2005B08E33B5C08E43B5D08E53B6508DD00EB
:1050F2006408DC006308DB006208DA00E11F99281B
:105102000030E2000030E3000030E4008030E500CF
:105112005E08E2025F08E33B6008E43B6108E53BAE
:105122006508E1006408E0006308DF006208DE0051
:105132008030DD068030E10661085D02031D080053
:1051420060085C02031D08005F085B02031D080083
:105152005E085A020800723086000030870008306C
:10516200F10000301E00F10BB328200020082104BA
:1051720022042304240425042604270403191729DE
:10518200FA01FA0AA71BD228A035A10DA20DA30D80
:10519200A40DA50DA60DA70D0130F1007108FA07A7
:1051A200C328F235F30DF40DF50DF60DF70DF80DDC
:1051B200F90D27082F02031DF82826082E02031DC9
:1051C200F82825082D02031DF82824082C02031DA7
:1051D200F82823082B02031DF82822082A02031D9F
:1051E200F82821082902031DF82820082802031C98
:1051F2000B292008A8022108A93B2208AA3B230860
:10520200AB3B2408AC3B2508AD3B2608AE3B270848
:10521200AF3B7214A736A60CA50CA40CA30CA20CCF
:10522200A10CA00C0130FA02031DD2287208A000C2
:105232007308A1007408A2007508A3007608A400F0
:105242007708A5007808A6007908A7000800803032
:1052520022005102003003195002031C3B294B303B
:105262002300BA000030BB00FF302200CE00FF3026
:10527200CF0008004F08DA004E08D9000030510272
:10528200023003195002031C4F295008FF3EDD0073
:10529200FF30513DDE00DB01DC0157290130DD002A
:1052A2000030DE000130DB000030DC00593021002C
:1052B200E7000130E800220053082100EA00220042
:1052C20052082100E900220054082100EE006E0875
:1052D200EB00B3319023A931210068082200D800E5
:1052E200210067082200D70050085104031DD81B73
:1052F200A0295008FF3E2100EE00FF302200513D60
:105302002100EF006F0822005802031D8C292100A2
:105312006E0822005702031C95295008FF3ED50053
:10532200FF30513DD60099295808D6005708D500BC
:1053320055084E07860056084F3D870081015808E0
:10534200CF005708CE0008002000AD01A71FB629E4
:10535200A409A509A609A709A40A0319A50A0319FC
:10536200A60A0319A70AAD01AD0AAB1FC729A809EE
:10537200A909AA09AB09A80A0319A90A0319AA0AC1
:105382000319AB0A0130F9007908AD060030B1000B
:105392000030B0000030AF000030AE002708260415
:1053A200250424040319102AAC01AC0AA71BE52921
:1053B2000130A435A50DA60DA70D890BDA29013000
:1053C200F9007908AC07D7290130AE35AF0DB00D21
:1053D200B10D890BE62927082B02031DFA2926089D
:1053E2002A02031DFA2925082902031DFA29240885
:1053F2002802031C052A2408A8022508A93B26081E
:10540200AA3B2708AB3B2E140130A736A60CA50CED
:10541200A40C890B062A0130AC02031DE5292D08D4
:1054220003191E2AAE09AF09B009B109AE0A031960
:10543200AF0A0319B00A0319B10A3108A7003008EC
:10544200A6002F08A5002E08A40008002100650868
:1054520086008701403FF100413FF2001C30F3001B
:10546200BB30F4000330F5000030F600903100202C
:10547200AA31710872040319552A210065088600B1
:105482008701403FF100413FF2002430F300BB307E
:10549200F4000330F5000030F60090310020AA310C
:1054A20071087204031DA82A21006508860087017D
:1054B2000330810741310318810A660886000130F2
:1054C200870001088400013085000230810700084E
:1054D2002200BC008039031DFF30BD00BE00BF00AA
:1054E200C000C100C200C300210064082000B10056
:1054F200210063082000B00022003C082000B20016
:1055020022003D082000B30022003E082000B40023
:1055120022003F082000B500220040082000B6000B
:10552200220041082000B700220042082000B800F3
:10553200220043082000B9009B3172232000310869
:105542002100E400200030082100E3000800AA3115
:10555200AA2A2100650886008701403FF100413FE9
:10556200F2001D30F300BB30F4000230F5000030D1
:10557200F60090310020AA31710872040319D82A6A
:105582002100650886008701403FF100413FF2009B
:105592002530F300BB30F4000230F5000030F60095
:1055A20090310020AA3171087204031D302B2100B2
:1055B2006508860087010230810741310318810A9C
:1055C20066088600013087000108840001308500EA
:1055D20002308107003F2200A000013FA100200805
:1055E200BC002108BD00890D893B8909BE00BF00AE
:1055F200C000C100C200C300210064082000B10045
:10560200210063082000B00022003C082000B20004
:1056120022003D082000B30022003E082000B40012
:1056220022003F082000B500220040082000B600FA
:10563200220041082000B700220042082000B800E2
:10564200220043082000B9009B3172232000310858
:105652002100E400200030082100E3000800983116
:1056620029282000A0002008031DF41F482B7109DF
:10567200A2007209A3007309A4007409A500A20A7A
:105682000319A30A0319A40A0319A50A502B7408C3
:10569200A5007308A4007208A3007108A200740890
:1056A200730472047104031D5F2B0030F400003098
:1056B200F3000030F2000030F10008009630F500EF
:1056C2007508A100FE3025050319862B0130F5006F
:1056D2007508A1070130A536A40CA30CA20C890BF6
:1056E2006C2B632B0130F5007508A1070130A2076E
:1056F2000030A33D0030A43D0030A53D0130A53669
:10570200A40CA30CA20C890B802BFF3025050319D6
:10571200982B732B02302102031C9A2B0130A10219
:105722000130A235A30DA40DA50D890B922BA41F48
:105732008B2B2118A42BFF30A205FF30A3057F304D
:10574200A405FF30A5050310A10C2108F500F60100
:10575200F701F8011830F535F60DF70DF80D890B44
:10576200AC2B7508A2047608A3047708A404780871
:10577200A5042008031DF41FBF2BA5172508F4005C
:105782002408F3002308F2002208F1000800200098
:10579200AB01AC01A401A501AA01AA0A7708840001
:1057A200780885001200203A0319E92B7708840053
:1057B200780885000008F73EA000FF30031800308B
:1057C200A100003021020530031920020318AA01AA
:1057D2002A08A000A1012008A6002108A700260887
:1057E20027040319FE2B0130F7070030F83DCD2BBB
:1057F2000130A4000030A500312C7708840078081D
:1058020085000008A000A1012108003A03190A2C12
:10581200352C20082B3A0319312C063A0319F92B9F
:10582200352C77088400780885000008A0002C0831
:10583200F2002B08F1000A30F3000030F400B1311D
:10584200F321AB3172082000A20020087102A100EE
:10585200031CA2032108303EAB000030223DAC0005
:105862000130F7070030F83D77088400780885009A
:105872000008D03EA000FF3003180030A100003025
:1058820021020A30031920020318492C01304A2C44
:105892000030A200A3012208A8002308A9002808BA
:1058A2002904031D122C24082504031D642C2B0932
:1058B200A0002C09A100A00A0319A10A2008F700E0
:1058C2002108F80008002C08F8002B08F70008004F
:1058D2003530F1000130F2004830F300BB30F40003
:1058E2000230F5000030F60090310020AC31710832
:1058F2007204031D0B2D2100650886008701403FBD
:105902002200A000413FA1000130200784002108AD
:105912000318210A85000008A2002208C500210000
:10592200650886008701403F2200A000413FA10098
:1059320020088400210885000008BF3EA200FF3035
:1059420003180030A300003023021A300319220288
:105952000318AD2C0130AE2C0030A400A5012408A0
:10596200B3002508B400330834040319CC2C2100F9
:105972006608860001308700010884000130850036
:1059820004308107003F2200B800013FB900023F06
:10599200BA00033FDF2C2100660886000130870031
:1059A200010884000130850004308107003F220095
:1059B200B800013FB900023FBA00033FBB0021001B
:1059C2006508860087010230810741310318810A88
:1059D2006408A1006308A00022003B082100A50082
:1059E20022003A082100A400220039082100A30065
:1059F200220038082100A20022004508A000200849
:105A02002100A6008031582021002108E40020084E
:105A1200E3000800AF312F2F20003208B600330810
:105A2200B7003408B8003508B9000630B635B70DEE
:105A3200B80DB90D890B172D3908A7003808A60033
:105A42003708A5003608A4003208BA003308BB00A4
:105A52003408BC003508BD000630BA35BB0DBC0D9C
:105A6200BD0D890B2E2D0030BE002430BF00F43056
:105A7200C0000030C1003A08BE023B08BF3B3C08F0
:105A8200C03B3D08C13B4108AB004008AA003F08AB
:105A9200A9003E08A800A931A521AD3120002508A2
:105AA200FB002408FA0001307B02003003197A025D
:105AB200031CA32D3208B6003308B7003408B8001F
:105AC2003508B9000430B635B70DB80DB90D890BDC
:105AD200642D3908A7003808A6003708A500360843
