:020000040000FA
:0400000080311E2805
:1000060008007E1480312000111C1C282100111CC0
:100016001C28200011100130F00070082300CF07C3
:100026003D304F06031D1C280130F0007008D0003B
:10003600CF017E1009008031202835308400BE3083
:10004600850024001200B2001200B3001200B400B2
:100056001200B5001200B6001200B7001200B80078
:1000660071308400273085007F30FE000030FF00AD
:10007600883100208031FC01A030840001308500E9
:100086003730FE000030FF008831002080312030FC
:100096008400023085001230FE000030FF008831F7
:1000A60000208031A0308400023085005030FE00F0
:1000B6000030FF00883100207E102000B131192960
:1000C6002100CE01CF012E08E3002D08E2002C0806
:1000D600E1002B08E00063082000DD002100620833
:1000E6002000DC00210061082000DB002100600800
:1000F6002000DA000030E1000030E0000030DF00D0
:100106000030DE00B631862680310318A328013080
:100116002100CE000030CF006308F4006208F3002F
:100126006108F2006008F100BE317826803174085B
:100136002100E3007308E2007208E1007108E000A4
:100146002100E601E701230035082100D400230041
:1001560034082100D3004E084F04031DB5282300A0
:10016600381DCE2821004E084F04031DBC282B3015
:10017600BD282D30B8000030B9003808B00030086E
:100186002500A00001302100E6070030E73DFF30E2
:10019600D307FF30D43D21006308F4006208F30062
:1001A6006108F2006008F100B6310E268031710355
:1001B6007204031D2C2921002F08BF3EB000FF301A
:1001C60003180030B100003031021A300319300232
:1001D6000318EF280130F0280030B200B3013208CE
:1001E600BA003308BB003A083B040319FE28363030
:1001F600F100BB3001294630F100BB30F200660841
:10020600A03EBF31C0278031FD302100D307FF302B
:10021600D43D2A082000A700210029082000A600B6
:10022600A0302100B00030082000A80021005408AA
:100236002000AA00210053082000A900B33143235F
:10024600200027082100AA00200026082100A90076
:10025600080021006308F4006208F3006108F20058
:100266006008F100B6310E26803171087204031D54
:100276008A2921002F08BF3EB000FF300318003046
:10028600B100003031021A300319300203184D292B
:1002960001304E290030B200B3013208BC003308E9
:1002A600BD003C083D0403195C293A30F100BB301F
:1002B6005F294E30F100BB30F2006608A03EBF3128
:1002C600C0278031FD302100D307FF30D43D2A08F6
:1002D6002000A700210029082000A600A030210048
:1002E600B00030082000A800210054082000AA0011
:1002F600210053082000A900B3314323200027081A
:100306002100AA00200026082100A90008003F308D
:100316002100EB008030EA000030E9000030E80000
:10032600E401E5016308F4006208F3006108F200E5
:100336006008F1000030F8000030F7000030F600E9
:100346000030F500B231FA228031031CDB296A2A1B
:1003560041302000A9002030A8000030A70000305E
:10036600A60021006B082000AD0021006A082000CD
:10037600AC00210069082000AB00210068082000BD
:10038600AA009331A8238031200029082100EB0020
:10039600200028082100EA00200027082100E900A3
:1003A600200026082100E8000130E4070030E53D82
:1003B600210063082000DD00210062082000DC0027
:1003C600210061082000DB00210060082000DA001F
:1003D6004130A9002030A8000030A7000030A60058
:1003E60021006B082000AD0021006A082000AC0047
:1003F600210069082000AB00210068082000AA003F
:100406009331A823803120002908E1002808E00064
:100416002708DF002608DE00B63186268031031C59
:10042600452AAB2941302000C3002030C2000030ED
:10043600C1000030C00021006B082000C700210069
:100446006A082000C600210069082000C5002100B6
:1004560068082000C4009C31A42480312000430891
:100466002100EB00200042082100EA00200041089C
:100476002100E900200040082100E800FF30E407E1
:10048600FF30E53D210063082000DD002100620801
:100496002000DC00210061082000DB00210060084C
:1004A6002000DA0021006B082000E10021006A0824
:1004B6002000E000210069082000DF002100680814
:1004C6002000DE00B63186268031031C152A210065
:1004D6002F08B000B1013008F7003108F800B0313C
:1004E6002820803177082100B2003208D50055084F
:1004F600B0003008D20067305506031D9E2A23003F
:1005060036083704031D8B2A0130B6000030B700C9
:100516003708803A2100B00080303002031D962A49
:100526000130230036020318A12A06302100D0002C
:100536000030D100A92A2300B71B982A23003708C8
:100546002100D100230036082100D000673055066F
:10055600031DD22A6508803AB0007F303002031DA1
:10056600B62AFC306402031CCD2A21005008FF3E47
:10057600B000FF30513DB1003108803AB200650845
:10058600803A3202031DC92A64083002031CCD2AB0
:100596006630CE2A65302100B0003008D2005108FE
:1005A600C9005008C80067305506031DDF2A6630AB
:1005B60052060319E51FE32A0130C8070030C93D7A
:1005C60066305206031DFB2AE51FF32A3F30EB0077
:1005D6008030EA000030E9000030E800E401E5017F
:1005E600673055060319FB2A6408C8076508C93D24
:1005F600DE01DF016308D9006208D8006108D70070
:100606006008D6006B08B7006A08B6006908B5002E
:100616006808B4005F08803AB0004908803A3002A2
:10062600031D172B48085E020318DF2B21006B08F9
:100636002000C30021006A082000C20021006908CA
:100646002000C100210068082000C00021005908D0
:100656002000C700210058082000C60021005708C6
:100666002000C500210056082000C4009C31A424A7
:10067600803120004308DD004208DC004108DB0031
:100686004008DA00AE314D26803120005D08210099
:10069600DD0020005C082100DC0020005B08210052
:1006A600DB0020005A082100DA005D08A3005C0880
:1006B600A2005B08A1005A08A000B5313B25803195
:1006C60021002108CD002008CC005D082000AD00E7
:1006D60021005C082000AC0021005B082000AB0074
:1006E60021005A082000AA0021006B082000A9005A
:1006F60021006A082000A800210069082000A70040
:10070600210068082000A6009331A823803120002C
:1007160029082100A300200028082100A2002000AB
:1007260027082100A100200026082100A000590862
:10073600A7005808A6005708A5005608A400B1311E
:100746004B21803121002308D9002208D800210836
:10075600D7002008D60041302000C3002030C20058
:100766000030C1000030C00021006B082000C70027
:1007760021006A082000C600210069082000C50083
:10078600210068082000C4009C31A4248031200088
:1007960043082100EB00200042082100EA00200067
:1007A60041082100E900200040082100E80001304E
:1007B600DE070030DF3D0D2B40302000A900A030C1
:1007C600A8000030A7000030A60021006B0820001A
:1007D600AD0021006A082000AC0021006908200055
:1007E600AB00210068082000AA009331A8238031BD
:1007F600200029082100DD00200028082100DC0057
:10080600200027082100DB00200026082100DA004E
:1008160059082000DD00210058082000DC002100D6
:1008260057082000DB00210056082000DA002100CE
:100836005D082000E10021005C082000E0002100A6
:100846005B082000DF0021005A082000DE00B631D8
:10085600862680310318322C003021004C2C2100D2
:100866005908F4005808F3005708F2005608F1003A
:100876005D08F8005C08F7005B08F6005A08F5000A
:10088600B231FA228031031C532C21004C18532C10
:100896000030DD000030DC000030DB000030DA0024
:1008A60021005D082000DD0021005C082000DC003E
:1008B60021005B082000DB0021005A082000DA0036
:1008C600210063082000E100210062082000E0000A
:1008D600210061082000DF00210060082000DE0002
:1008E6009E311E26803120005D082100D90020009F
:1008F6005C082100D80020005B082100D7002000FA
:100906005A082100D6003708EB003608EA003508F9
:10091600E9003408E800653052060319972C65088B
:10092600CB006408CA00992CCA01CB01C601C701D5
:10093600C401C501DE01DF01C22D21006B082000C4
:10094600C30021006A082000C200210069082000B7
:10095600C100210068082000C000210059082000BD
:10096600C700210058082000C600210057082000B3
:10097600C500210056082000C4009C31A424803103
:1009860020004308DD004208DC004108DB00400887
:10099600DA00AE314D26803120005D082100DD00F1
:1009A60020005C082100DC0020005B082100DB0041
:1009B60020005A082100DA005D08A3005C08A200A6
:1009C6005B08A1005A08A000B5313B258031210003
:1009D6002108CD002008CC002300381A012D210063
:1009E6004C084D04031D012D673055060319CB1F16
:1009F600012D0130C4070030C53D482D21004608B1
:100A060047040319CB1F1C2D2E30B0006608A03EEC
:100A1600860002308700300881000130E60700308A
:100A2600E73DFF30D307FF30D43D0130C60000302C
:100A3600C700440845040319362D3030B000660857
:100A4600A03E860002308700300881000130E607AC
:100A56000030E73DFF30D307FF30D43DFF30C407F9
:100A6600FF30C53D1C2D4C08303EB0006608A03E48
:100A7600860002308700300881000130E60700302A
:100A8600E73DFF30D307FF30D43D5D082000AD00C1
:100A960021005C082000AC0021005B082000AB00B0
:100AA60021005A082000AA0021006B082000A90096
:100AB60021006A082000A800210069082000A7007C
:100AC600210068082000A6009331A8238031200069
:100AD60029082100A300200028082100A2002000E8
:100AE60027082100A100200026082100A00059089F
:100AF600A7005808A6005708A5005608A400B1315B
:100B06004B21803121002308D9002208D800210872
:100B1600D7002008D60041302000C3002030C20094
:100B26000030C1000030C00021006B082000C70063
:100B360021006A082000C600210069082000C500BF
:100B4600210068082000C4009C31A42480312000C4
:100B560043082100EB00200042082100EA002000A3
:100B660041082100E900200040082100E800FF308C
:100B7600CA07FF30CB3D0130DE070030DF3D5F089E
:100B8600803AB0004908803A3002031DCC2D48084F
:100B96005E020318DA2D21006708803AB000803023
:100BA6003002031DD82D4B306602031CA02C2100F9
:100BB60046084704031DF02D2300381EF02D2E3065
:100BC6002100B0006608A03E86000230870030088B
:100BD60081000130E6070030E73D21006608A03EAF
:100BE600860002308700810165305206031DB12E52
:100BF6004F30DE000030DF005E08A03E8600023087
:100C060087008101CE01CF01E51F122E0130CE00F3
:100C16000030CF00E409E509E40A0319E50A0230C9
:100C2600D0000030D1006408650403194E2EFF3051
:100C36002100DE07FF30DF3D0A30F1000030F20010
:100C46006508F4006408F300B2316E228031710841
:100C5600303E2100B0005E08A03E860002308700CC
:100C6600300881000A30F1000030F2006508F40017
:100C76006408F300B3319423803172082100E50043
:100C86007108E400FF30D007FF30D13DFF30D307B5
:100C9600FF30D43D162E5108803AB0008030300225
:100CA600031D572E0130500203181A2EFF30210063
:100CB600DE07FF30DF3D4E084F04031D642E2B3048
:100CC600652E2D30BE000030BF003E08B0005E0825
:100CD600A03E86000230870030088100FF30D3072F
:100CE600FF30D43DFF30DE07FF30DF3D2F08BF3E2B
:100CF600B000FF3003180030B100003031021A3066
:100D0600031930020318892E01308A2E0030B200F2
:100D1600B3013208C2003308C30042084304031D6E
:100D2600962E6530972E4530C0000030C100400831
:100D3600B0005E08A03E86000230870030088100C1
:100D4600FF30D307FF30D43D5E08A03EF1000230ED
:100D5600F2006608A03EBF31C027803121002A0874
:100D66002000A700210029082000A600A0302100AD
:100D7600B00030082000A800210054082000AA0076
:100D8600210053082000A900B3314323200027087F
:100D96002100AA00200026082100A90008004430EE
:100DA6002100A3007A30A2000030A1000030A0008C
:100DB600F8302300CE052100A801A90123002B0845
:100DC6002000A90023002A082000A80023002908E3
:100DD6002000A700230028082000A6006908F400C8
:100DE6006808F3006708F2006608F1000130A931CF
:100DF600FF21863174082000AD007308AC0072082C
:100E0600AB007108AA009331A82386312000290877
:100E16002100A700200028082100A600200027089E
:100E26002100A500200026082100A400443020004F
:100E3600C3007A30C2000030C1000030C00021007B
:100E460023082000A900210022082000A800210074
:100E560021082000A700210020082000A60021006C
:100E660027082000AD00210026082000AC00210044
:100E760025082000AB00210024082000AA00933199
:100E8600A823863120002908C7002808C60027089D
:100E9600C5002608C4009C31A424863120004308DE
:100EA600DD004208DC004108DB004008DA002100D2
:100EB60029088500280884008435850D0E308407AE
:100EC600BB30853D003F2000EC00013FED006C0883
:100ED600F1006D08F200890D893B8909F300F400E1
:100EE6000130A931FF21863174082000E100730822
:100EF600E0007208DF007108DE00B6318626863112
:100F0600031C8D2F23004E0821002806F8392806D9
:100F16002300CE0001302100A8070030A93D003093
:100F26002902073003192802031CE12EE7302300AB
:100F3600CE052100AA01AB012B0885002A088400F2
:100F46008435850D2E308407BB30853D003F20005B
:100F5600EC00013FED006B08803AEE006D08803A28
:100F66006E02031DB82F6C086A02031CC92F2100EC
:100F76002A082000EC00EC0DEC0DEC0D23004E08C9
:100F860020006C06E7396C062300CE0001302100F4
:100F9600AA070030AB3D00302B02073003192A02A6
:100FA600031C9F2F1830F5000030F6000630F700BE
:100FB6000030F80023004E082000EC00ED016C081C
:100FC600F9006D08FA0090310020080071089F3E74
:100FD600F300FF30723DF400003074021A3003193A
:100FE60073020318F82F0130F92F0030F500F601CF
:100FF6007508F1007608F2000800640080010131EE
:101006000130FE020030FF3B7F087E0403190034E6
:10101600012821006E08860001308700403FF1005C
:10102600413FF2008030F300BB30F4000230F5009F
:101036000030F600B331E523883171087204031DD0
:10104600762821006E08860001308700023081076D
:1010560041310318810A6F088600013087000108B4
:1010660084000130850002308107003F2200C6005F
:10107600013FC700C801C901CA01CB01CC01CD019E
:1010860021006D082000B10021006C082000B0008E
:10109600220046082000B200220047082000B300C4
:1010A600220048082000B400220049082000B500AC
:1010B60022004A082000B60022004B082000B70094
:1010C60022004C082000B80022004D082000B9007C
:1010D600A231FB22200031082100ED00200030085B
:1010E6002100EC00080021006E0886000130870010
:1010F600403FF100413FF2005230F300BB30F400B4
:101106000330F5000030F600B331E523883171086D
:101116007204031D4C2921006E08860001308700E9
:101126000330810741310318810A6F0886000130B8
:101136008700403F840001308500810A00082200B4
:10114600A0002008C400230032082200A0004408A2
:1011560086000130870020088100482921006E089A
:101166008600013087000230810741310318810A69
:101176006F08860001308700403F840001308500FB
:10118600810A00082200A0002008C4004408860046
:101196000130870023003208C03F3308C13F482989
:1011A60021006E0886000130870001308107413139
:1011B6000318810A6F08860001308700403F8400CB
:1011C60001308500810A00082200A0002008C40022
:1011D600440886000130870023003208C03F3308E8
:1011E600C13F482921006E08860001308700023081
:1011F600810741310318810A6F0886000130870094
:10120600403F840001308500810A00082200A000CA
:101216002008C400230032082200A000230033085F
:101226002200A1000030A11BFF30A200A300440849
:101236008600013087002008C03F2108C13F2208F0
:10124600C23F2308C33F482921006E0886000130AB
:1012560087000230810741310318810A6F08860032
:1012660001308700403F840001308500810A000874
:101276002200A0002008C400440886000130870030
:1012860023003208C03F3308C13F2100EC01ED01C5
:10129600080021006E08860001308700403FF100FB
:1012A600413FF2005330F300BB30F4000230F5004A
:1012B6000030F600B331E523883171087204031952
:1012C600B12821006E08860001308700403F2200C9
:1012D600A000413FA10020088400210885001200DB
:1012E6006E3A0319D32821006E0886000130870064
:1012F600403FF100413FF2007730F300BB30F4008D
:101306000230F5000030F600B331E523883171086C
:1013160072040319F52821006E0886000130870043
:10132600403FF100413FF2007A30F300BB30F40059
:101336000230F5000030F600B331E523883171083C
:1013460072040319272921006E08860001308700E0
:10135600403F2200A000413FA10020088400210850
:1013660085001200703A031D1E2A21006E088600B1
:10137600013087000130810741310318810A6F0867
:10138600860001308700403F840001308500810AD5
:1013960000082200A000A101A201A301A401A50149
:1013A600A601A7012708CD002608CC002508CB00FA
:1013B6002408CA002308C9002208C8002108C7005B
:1013C6002008C60021006D082000B10021006C082D
:1013D6002000B000220046082000B2002200470884
:1013E6002000B300220048082000B400220049086B
:1013F6002000B50022004A082000B60022004B0853
:101406002000B70022004C082000B80022004D083A
:101416002000B90078302200A00020082000BA0081
:101426009B314B23200031082100ED0020003008BD
:101436002100EC00080021006E08860001308700BC
:10144600403F2200A000413FA1002008840021085F
:1014560085001200733A031D612A21006E0886007A
:10146600013087000130810741310318810A6F0876
:10147600860001308700403F840001308500810AE4
:1014860000082200A0002008AC0021006D08200002
:10149600A10021006C082000A00022002C08A0005A
:1014A60020082000A200AB31DF2320002108210004
:1014B600ED00200020082100EC00080021006E0845
:1014C600860001308700403FF100413FF2005A306C
:1014D600F300BB30F4000330F5000030F600B33102
:1014E600E523883171087204031DCA2A21006E089B
:1014F6008600013087000330810741310318810AD5
:101506006F088600013087000108840001308500DD
:101516000230810700082200C600C701C801C901C0
:10152600CA01CB01CC01CD0121006D082000B1001C
:1015360021006C082000B000220046082000B200FE
:10154600220047082000B300220048082000B4000B
:10155600220049082000B50022004A082000B600F3
:1015660022004B082000B70022004C082000B800DB
:1015760022004D082000B900A13130212000310899
:101586002100ED00200030082100EC0008002100B9
:101596006E08860001308700403FF100413FF200AF
:1015A6005B30F300BB30F4000230F5000030F6008B
:1015B600B331E523883171087204031D342B2100F1
:1015C6006E0886000130870002308107413103181A
:1015D600810A6F0886000130870001088400013007
:1015E600850002308107003F2200C600013FC70088
:1015F600C801C901CA01CB01CC01CD0121006D088A
:101606002000B10021006C082000B000220046082E
:101616002000B200220047082000B300220048083C
:101626002000B400220049082000B50022004A0824
:101636002000B60022004B082000B70022004C080C
:101646002000B80022004D082000B900A131302149
:10165600200031082100ED00200030082100EC00B8
:10166600080021006E08860001308700403F2200F6
:10167600A000413FA1002008840021088500120037
:10168600753A031D982B21006E08860001308700ED
:101696000130810741310318810A6F088600013045
:1016A6008700010884000130850002308107003F71
:1016B6002200C600013FC700C801C901CA01CB010B
:1016C600CC01CD0121006D082000B10021006C087D
:1016D6002000B000220046082000B2002200470881
:1016E6002000B300220048082000B4002200490868
:1016F6002000B50022004A082000B60022004B0850
:101706002000B70022004C082000B80022004D0837
:101716002000B900A1313021200031082100ED0060
:10172600200030082100EC00080021006E08860029
:1017360001308700403FF100413FF2008330F30063
:10174600BB30F4000230F5000030F600B331E5237B
:10175600883171087204031D1C2C21006E08860056
:10176600013087000230810741310318810A6F0872
:1017760086000130870001088400013085000430AE
:101786008107003F2200A000013FA100023FA20006
:10179600033FA3002008A4002108A5002208A600F4
:1017A6002308A700A801A901AA01AB012B08CD00B7
:1017B6002A08CC002908CB002808CA002708C90037
:1017C6002608C8002508C7002408C60021006D08A1
:1017D6002000B10021006C082000B000220046085D
:1017E6002000B200220047082000B300220048086B
:1017F6002000B400220049082000B50022004A0853
:101806002000B60022004B082000B70022004C083A
:101816002000B80022004D082000B900A131302177
:10182600200031082100ED00200030082100EC00E6
:10183600080021006E08860001308700403FF10055
:10184600413FF2008630F300BB30F4000230F50071
:101856000030F600B331E523883171087204031DA8
:10186600862C21006E088600013087000230810731
:1018760041310318810A6F0886000130870001088C
:1018860084000130850002308107003F2200C60037
:10189600013FC700C801C901CA01CB01CC01CD0176
:1018A60021006D082000B10021006C082000B00066
:1018B600220046082000B200220047082000B3009C
:1018C600220048082000B400220049082000B50084
:1018D60022004A082000B60022004B082000B7006C
:1018E60022004C082000B80022004D082000B90054
:1018F600A1313021200031082100ED002000300800
:101906002100EC00080021006E08860001308700E7
:10191600403FF100413FF2005E30F300BB30F4007F
:101926000330F5000030F600B331E5238831710845
:1019360072040319B62C21006E0886000130870058
:10194600403FF100413FF2003E30F300BB30F4006F
:101956000330F5000030F600B331E5238831710815
:101966007204031D222D21006E08860001308700B7
:10197600403F2200A000413FA10002302007840022
:1019860021080318210A85000008A2002208C500C4
:1019960021006E088600013087000330810741313F
:1019A6000318810A6F088600013087000108840049
:1019B600013085000230810700082200C600C701F9
:1019C600C801C901CA01CB01CC01CD0121006D08B6
:1019D6002000B10021006C082000B000220046085B
:1019E6002000B200220047082000B3002200480869
:1019F6002000B400220049082000B50022004A0851
:101A06002000B60022004B082000B70022004C0838
:101A16002000B80022004D082000B9002200450829
:101A2600A00020082000BA009B314B23200031087B
:101A36002100ED00200030082100EC000800210004
:101A46006E08860001308700403FF100413FF200FA
:101A56005F30F300BB30F4000230F5000030F600D2
:101A6600B331E5238831710872040319522D210020
:101A76006E08860001308700403FF100413FF200CA
:101A86003F30F300BB30F4000230F5000030F600C2
:101A9600B331E523883171087204031DBF2D21007F
:101AA6006E08860001308700403F2200A000413FBB
:101AB600A10001302007840021080318210A8500AF
:101AC6000008A2002208C50021006E088600013029
:101AD60087000230810741310318810A6F088600AA
:101AE600013087000108840001308500023081073B
:101AF600003F2200C600013FC700C801C901CA0154
:101B0600CB01CC01CD0121006D082000B1002100E0
:101B16006C082000B000220046082000B200220017
:101B260047082000B300220048082000B400220025
:101B360049082000B50022004A082000B60022000D
:101B46004B082000B70022004C082000B8002200F5
:101B56004D082000B90022004508A00020082000FA
:101B6600BA009B314B23200031082100ED002000F4
:101B760030082100EC00080021006E0886000130C4
:101B86008700403F2200A000413FA10020088400BA
:101B9600210885001200783A0319E32D21006E080A
:101BA600860001308700403F2200A000413FA1008F
:101BB60020088400210885001200583A031D4D2E86
:101BC60021006E08860001308700403F2200A000F9
:101BD600413FA10020088400210885000008A200DA
:101BE6002208C50021006E088600013087000130FA
:101BF600810741310318810A6F088600013087008A
:101C0600010884000130850002308107003F220070
:101C1600C600013FC700C801C901CA01CB01CC01FA
:101C2600CD0121006D082000B10021006C082000C4
:101C3600B000220046082000B2002200470820001B
:101C4600B300220048082000B40022004908200002
:101C5600B50022004A082000B60022004B082000EA
:101C6600B70022004C082000B80022004D082000D2
:101C7600B90022004508A00020082000BA009B31C8
:101C86004B23200031082100ED0020003008210000
:101C9600EC00080021006E08860001308700403FF6
:101CA600F100413FF2008930F300BB30F40002300E
:101CB600F5000030F600B331E5238831710872046F
:101CC60003197D2E21006E08860001308700403FF3
:101CD600F100413FF2006230F300BB30F400023005
:101CE600F5000030F600B331E5238831710872043F
:101CF600031D042F21006E08860001308700403F37
:101D06002200A000413FA1000130200784002108E5
:101D16000318210A85000008A2002208C500210038
:101D26006E088600013087000230810741310318B2
:101D3600810A6F088600013087000108840001309F
:101D4600850004308107003F2200A000013FA1006A
:101D5600023FA200033FA3002008A4002108A5001B
:101D66002208A6002308A700A801A901AA01AB0121
:101D76002B08CD002A08CC002908CB002808CA0069
:101D86002708C9002608C8002508C7002408C60079
:101D960021006D082000B10021006C082000B00071
:101DA600220046082000B200220047082000B300A7
:101DB600220048082000B400220049082000B5008F
:101DC60022004A082000B60022004B082000B70077
:101DD60022004C082000B80022004D082000B9005F
:101DE60022004508A00020082000BA009B314B23A2
:101DF600200031082100ED00200030082100EC0011
:101E0600080021006E08860001308700403FF1007F
:101E1600413FF2008C30F300BB30F4000230F50095
:101E26000030F600B331E5238831710872040319D6
:101E3600342F21006E08860001308700403FF100F4
:101E4600413FF2006530F300BB30F4000230F5008C
:101E56000030F600B331E523883171087204031DA2
:101E6600A12F21006E08860001308700403F220026
:101E7600A000413FA100013020078400210803187B
:101E8600210A85000008A2002208C50021006E086C
:101E96008600013087000230810741310318810A2C
:101EA6006F08860001308700010884000130850034
:101EB60002308107003F2200C600013FC700C8016B
:101EC600C901CA01CB01CC01CD0121006D0820005A
:101ED600B10021006C082000B00022004608200056
:101EE600B200220047082000B30022004808200064
:101EF600B400220049082000B50022004A0820004C
:101F0600B60022004B082000B70022004C08200033
:101F1600B80022004D082000B90022004508A000A4
:101F260020082000BA009B314B23200031082100F5
:101F3600ED00200030082100EC00080021006E08AA
:101F4600860001308700403F2200A000413FA100EB
:101F560020088400210885001200253A031DCD2F94
:101F660021006E088600013087000130810741316B
:101F76000318810A2530F1000030F2006D08F400E4
:101F86006C08F300A031002001302100EC00003085
:101F9600ED00080021006E08860001308700013040
:101FA600810741310318810A482921006E088600FD
:101FB60001308700403F2200A000413FA1002008D9
:101FC6008400210885000008A200A3012208F10070
:101FD6002308F20021006D08F4006C08F300A0311C
:101FE6000020883121006E0886000130870001300C
:101FF600810741310318810AC72FBE313C26903133
:102006007608F2007508F1000030F300F400BE31E6
:10201600812690317808F2007708F100BE316626F5
:1020260090317A08F2007908F100BE3166269031C7
:10203600BE31442608001830F5000030F6002A307C
:10204600F7000030F800B131802190317508210089
:10205600A9007608AA002908AA00A9011830F500E7
:102066000030F6002B30F7000030F800B131802147
:102076009031750821002904B00076082A04B100C1
:10208600B201B11BB2033208B30023005508F100B8
:102096005608F200890D893B8909F300F4000130E6
:1020A600A931FF21903174082000AD007308AC00FF
:1020B6007208AB007108AA004030A9008030A80061
:1020C6000030A7000030A6009331A82390312000ED
:1020D60029082100AF00200028082100AE002000BA
:1020E60027082100AD00200026082100AC002F089B
:1020F6002000AD0021002E082000AC0021002D0894
:102106002000AB0021002C082000AA002100330883
:10211600F4003208F3003108F2003008F100013013
:10212600A931FF21903174082000A9007308A80086
:102136007208A7007108A6009331A82390312000E9
:102146002908C7002808C6002708C5002608C400B5
:102156004430C3007A30C2000030C1000030C000F5
:102166009C31A424903120004308E1004208E0009D
:102176004108DF004008DE0023004B082100AA00CA
:1021860023004A082100A900A935AA0DA935AA0DE0
:102196002908F1002A08F200890D893B8909F30014
:1021A600F4000130A931FF21903174082000DD00D0
:1021B6007308DC007208DB007108DA009E311E2607
:1021C600903120005D082100A30020005C0821005A
:1021D600A20020005B082100A10020005A0821006F
:1021E600A000B5313B259031210023082300AF0024
:1021F600210022082300AE00210021082300AD00A3
:10220600210020082300AC00BE313C269031183056
:10221600F1000030F2000030F300F400BE318126F8
:1022260090310C30F1000030F200BE31662690315C
:10223600BE3144269031BE313C2690311830F10033
:102246000030F2000130F3000030F400BE31812688
:1022560090312100B401B5013508803AA900230068
:102266004108803A21002902031D3D292300400828
:10227600210034020318B429BE31AF2690313F3015
:1022860071052100A90000307205AA002908AA00DC
:10229600A901BE31AF269031710821002904B00092
:1022A60072082A04B100B201B3013508803AA900C8
:1022B60023004108803A21002902031D66292300D4
:1022C60040082100340203186C29BE316F26903174
:1022D6006F29BE315D26903100302000A700003006
:1022E600A6000330A500E830A40023005508F1003D
:1022F6005608F200890D893B8909F300F400210094
:102306003308F8003208F7003108F6003008F50007
:10231600B031E720903174082000AB007308AA00A2
:102326007208A9007108A800B7317E2790312300F2
:102336004A08200024072100A90023004B0820009A
:10234600253D2100AA003435203E86000230870054
:102356002908C03F2A08C13F0130B4070030B53D07
:102366002F29BE31442608001A302200EC00F8302E
:10237600890BBB29EC0BBB290000C430F200B93035
:10238600F300BF3133279131C130F200B930F30089
:10239600BF313327913171302300D7002730D80061
:1023A6007F30D9000030DA008A30DB00BA30DC003A
:1023B6001830F5000030F6000030F700F800B131B3
:1023C6008021913176082300DE007508DD00B031EA
:1023D6006C2091317130F2002730F300BF31332782
:1023E600913171302300D7002730D8007F30D900D3
:1023F6000030DA003630DB00BA30DC001830F50089
:102406000030F6000130F7000030F800B1318021CD
:10241600913176082300DE007508DD00B0316C20AE
:1024260091317130F2002730F300BF3133279131FB
:1024360071302300D7002730D8007F30D900003014
:10244600DA000A30DB00BA30DC001830F500003064
:10245600F6000430F7000030F800B13180219131E8
:1024660076082300DE007508DD00B0316C2091315E
:102476007130F2002730F300BF31332791317130CC
:102486002300D7002730D8007F30D9000030DA008B
:102496002030DB00BA30DC001830F5000030F600E2
:1024A6000530F7000030F800B1318021913176080F
:1024B6002300DE007508DD00B0316C2091317130EB
:1024C600F2002730F300BF313327913171302300FA
:1024D600D7002730D8007F30D9000030DA004B30E3
:1024E600DB00BA30DC001830F5000030F6000630AC
:1024F600F7000030F800B1318021913176082300D1
:10250600DE007508DD00B0316C2091317130F200CB
:102516002730F300BF313327913171302300D700C4
:102526002730D8007F30D9000030DA006030DB0079
:10253600BA30DC001830F5000030F6000730F7003E
:102546000030F800B1318021913176082300DE0099
:102556007508DD00B0316C2091317130F200273002
:10256600F300BF313327913171302300D700273074
:10257600D8007F30D9000030DA007530DB00BA3081
:10258600DC001830F5000030F6000830F7000030A7
:10259600F800B1318021913176082300DE007508FC
:1025A600DD00B0316C2091317130F2002730F3003C
:1025B600BF313327913171302300D7002730D8003F
:1025C6007F30D9000030DA009F30DB00BA30DC0003
:1025D6001830F5000030F6000930F7000030F8003A
:1025E600B1318021913176082300DE007508DD00C7
:1025F600B0316C2091317130F2002730F300BF31D9
:102606003327913171302300D7002730D8007F302F
:10261600D9000030DA00B330DB00BA30DC00183005
:10262600F5000030F6000A30F7000030F800B1314E
:102636008021913176082300DE007508DD00B03177
:102646006C2091317130F2002730F300BF3133270F
:10265600913171302300D7002730D8007F30D90060
:102666000030DA00C730DB00BA30DC001830F50085
:102676000030F6000B30F7000030F800B131802151
:10268600913176082300DE007508DD00B0316C203C
:1026960091317130F2002730F300BF313327913189
:1026A60071302300D7002730D8007F30D9000030A2
:1026B600DA00DA30DB00BA30DC001830F500003022
:1026C600F6003230F7000030F800B1318021913148
:1026D60076082300DE007508DD00B0316C209131EC
:1026E6007130F2002730F300BF313327913171305A
:1026F6002300D7002730D8007F30D9000030DA0019
:10270600EC30DB00BA30DC001830F5000030F600A3
:102716003330F7000030F800B1318021913176086E
:102726002300DE007508DD00B0316C209131713078
:10273600F2002730F300BF3133279131C130F20068
:10274600B930F300BF31332708002000290880394B
:10275600AE002E08B3002935AE002E08B900A81B1E
:10276600391439080319C42B390A031DC22B00304A
:10277600A9000030A8000030A7000030A600A81766
:10278600CC2B0030A9000030A8000030A700003094
:10279600A6002D088039AE002E08B3062D35AE00F2
:1027A6002E08B800AC1B381438080319E72B380A72
:1027B600031DE52B0030AD000030AC000030AB004F
:1027C6000030AA00AC17EF2B0030AD000030AC0093
:1027D6000030AB000030AA003808031D3908031D7D
:1027E600FD2B0030A9000030A8000030A700003003
:1027F600A60008002608AE002E08F1002C08BF31FE
:10280600A127933172082000BF007108BE003E0860
:10281600AE00AF01B001B1013108B7003008B60013
:102826002F08B5002E08B4003F08AE00AF01B00176
:10283600B1013108BD003008BC002F08BB002E08CE
:10284600BA002708AE002E08F1002B08BF31A127D9
:10285600933172082000BF007108BE003E08AE002A
:10286600AF01B001B1012E08B4072F08B53D3008FD
:10287600B63D3108B73D3F08AE00AF01B001B1012A
:102886002E08BA072F08BB3D3008BC3D3108BD3DB8
:102896002808AE002E08F1002A08BF31A12793317F
:1028A60072082000BF007108BE003E08AE00AF01EE
:1028B600B001B1012E08B4072F08B53D3008B63D6A
:1028C6003108B73D3F08AE00AF01B001B1012E0897
:1028D600BA072F08BB3D3008BC3D3108BD3D083066
:1028E600B435B50DB60DB70D890B732C2708AE00A0
:1028F6002E08F1002A08BF31A12793317208200063
:10290600BF007108BE003E08B4073F08B53D003061
:10291600B63DB73D2608AE002E08F1002B08BF31A4
:10292600A127933172082000BF007108BE003E083F
:10293600B4073F08B53D0030B63DB73D0830B43565
:10294600B50DB60DB70D890BA22C2608AE002E08C4
:10295600F1002A08BF31A127933172082000BF0079
:102966007108BE003E08B4073F08B53D0030B63DCD
:10297600B73D2708AE002E08F1002C08BF31A1276D
:10298600933172082000BF007108BE003E08BA07E6
:102996003F08BB3D0030BC3DBD3D2808AE002E08BB
:1029A600F1002B08BF31A127933172082000BF0028
:1029B6007108BE003E08BA073F08BB3D0030BC3D6B
:1029C600BD3D2808AE002E08F1002C08BF31A12716
:1029D600933172082000BF007108BE003E08AE00A9
:1029E6003F08AF00B001B1010830AE35AF0DB00DF4
:1029F600B10D890BF82C2E08BA072F08BB3D3008FD
:102A0600BC3D3108BD3D3408AE003508AF00360880
:102A1600B0003708B1001830B136B00CAF0CAE0CB0
:102A2600890B0F2D2E08BA072F08BB3D3008BC3D79
:102A36003108BD3D0830B435B50DB60DB70D890B5F
:102A46001E2D39083807AE00AF01AF0D2E08823EA5
:102A5600BE00FF302F3DBF00BC1B462D0130BA35EE
:102A6600BB0DBC0DBD0D890B322DB71B3A140130C1
:102A7600B435B50DB60DB70D890B3B2DFF30BE072E
:102A8600FF30BF3D2F2DB801B71F5F2DFF30340536
:102A9600AE00FF303505AF00FF303605B0007F30A1
:102AA6003705B100310830042F042E0403193A18F3
:102AB6005D2D5F2DB801B80A38080319882D01303D
:102AC600BA070030BB3D0030BC3D0030BD3D3D1C6B
:102AD600882D3A08AE003B08AF003C08B0003D0820
:102AE600B1000130B200B137B00CAF0CAE0CB20B76
:102AF600762D3108BD003008BC002F08BB002E081B
:102B0600BA000130BE070030BF3D3F08803AAE0034
:102B160080302E02031D912DFF303E02031C9D2D99
:102B26007F302000BD008030BC000030BB0000308C
:102B3600BA00C72D20003F08803AAE0080302E0232
:102B4600031DA72D01303E020318B42D00302000CE
:102B5600BD000030BC000030BB000030BA00B3013D
:102B6600C72D20003E08AE002E08B900FF30BA057A
:102B7600FF30BB057F30BC050030BD053918BC17DA
:102B86003936AE002E08BD003308AE002E08BD044F
:102B96003D08A9003C08A8003B08A7003A08A60083
:102BA600080021006E08860001308700403F2200A1
:102BB600A000413FA10020088400210885001200E2
:102BC600253A031DFE2F21006E088600013087007E
:102BD6000130810741310318810A2300B401B50190
:102BE600B801B901FF30B600FF30B7002200AD01D1
:102BF600AE011A2E2300381421006E08860001301B
:102C060087000130810741310318810A1A2E2300FB
:102C1600B814FF2D23003815FF2D2300B815FF2DFE
:102C260023003816FF2D0130AD000030AE00220023
:102C36002D082E04031D472E21006E088600013044
:102C46008700403F2200A000413FA10020088400E9
:102C5600210885000008A200A3012308003A0319F1
:102C6600352E162E2208203A0319102E033A031980
:102C7600132E083A03190D2E063A0319FD2D1D3A97
:102C860003190A2E162E1A2E2300381C4E2EFD303E
:102C9600B805FF30B90521006E08860001308700AF
:102CA600403F2200A000413FA100200884002108E7
:102CB600850012002A3A031D822E21006E08860026
:102CC600013087000130810741310318810A6F08FE
:102CD600860001308700010884000130850002303B
:102CE6008107003F2300B400013FB500B51FC72E82
:102CF6003814B409B509B40A0319B50AC72E210058
:102D06006E08860001308700403FF700413FF8001B
:102D1600AA319522953178082300B5007708B400CA
:102D26009E2E21006E088600013087000130810743
:102D360041310318810A21006E08860001308700A0
:102D4600403F2200A000413FA10020088400210846
:102D560085000008D03EA200FF3003180030A30013
:102D6600003023020A30031922020318BC2E013058
:102D7600BD2E0030A400A5012408AF002508B00030
:102D86002F083004031D942E21006E0886000130A2
:102D96008700403F2200A000413FA1002008840098
:102DA6002108850012002E3A031D562F2300B60176
:102DB600B70121006E0886000130870001308107C7
:102DC60041310318810A6E08860001308700403FB2
:102DD6002200A000413FA1002008840021088500B0
:102DE60012002A3A031D112F21006E0886000130B9
:102DF60087000130810741310318810A6F08860078
:102E06000130870001088400013085000230810707
:102E1600003F2300B600013FB700562F21006E0881
:102E2600860001308700403FF700413FF800AA3195
:102E36009522953178082300B7007708B6002D2F24
:102E460021006E088600013087000130810741317C
:102E56000318810A21006E08860001308700403F72
:102E66002200A000413FA10020088400210885001F
:102E76000008D03EA200FF3003180030A300003047
:102E860023020A300319220203184B2F01304C2F5C
:102E96000030A400A5012408B1002508B2003108BD
:102EA6003204031D232F21006E088600013087009F
:102EB600403F2200A000413FA100200884002108D5
:102EC60085000008A200A3012208F7002308F800E5
:102ED600B0312820953177082200A4002408B500D7
:102EE60035080319B92F21006E08860001308700C6
:102EF600403F2200A000413FA1000130200784008E
:102F060021080318210A85000008A200A30122084F
:102F1600F7002308F800B031282095317708220001
:102F2600A4002408B60036080319B92F21006E083C
:102F3600860001308700403F2200A000413FA100EB
:102F460002302007840021080318210A85000008A2
:102F5600A200A3012208F7002308F800B0312820B8
:102F6600953177082200A4002408B70021006E08D6
:102F7600860001308700403F2200A000413FA100AB
:102F860020088400210885001200633AA831031D39
:102F9600EE2821006E088600013087000130810787
:102FA60041310318810A6F08860001308700010845
:102FB6008400013085000230810700082200A0004D
:102FC6002008C50021006D082000B10021006C0812
:102FD6002000B00022004508A00020082000B20012
:102FE600B031B620200031082100ED002000300865
:102FF6002100EC0008008F31D82FCF302000980533
:10300600960197011814210011140B178B1708004D
:103016002000AB01AC01AD01AE0120002D35203EF4
:103026008600023087000030C03FC13F0130AD0747
:103036000030AE3D2E08803AA20080302202031DE9
:10304600262804302D02031C10281830F500003005
:10305600F6000B30F7000030F8001930F9000030A8
:10306600FA009031002098311830F5000030F60053
:103076000B30F7000030F800B1318021983119305B
:1030860075067604031DB92801302000AB00003018
:10309600AC001830F5000030F6000430F7000030C0
:1030A600F8001830F9000030FA009031002098310D
:1030B6001830F5000030F6000530F7000030F80053
:1030C6004030F9000030FA00903100209831183075
:1030D600F5000030F6005130F7000030F800B1314D
:1030E6008021983176082300CB007508CA00183075
:1030F600F5000030F6005930F7000030F800B13125
:103106008021983175082000A2007608A3000530BA
:10311600A400230DA30CA20CA40B8C2807302205B7
:10312600A50000302305A6001830F5000030F60093
:103136005030F7000030F800B13180210C307505B1
:103146002000A70000307605A800A735A80D2508A1
:103156002704A90026082804AA0029086D3E230092
:10316600D500013020002A3D2300D60020002C087F
:10317600A1002B08A0000800E2292300500803192B
:103186000800D001B0310620983198310B209831D3
:10319600200020082200ED006D08EF007630F200D6
:1031A600B930F300BF313327983122006F08031975
:1031B600080020001810210011100030F100F20064
:1031C600BF31DF2798312300D0011A302200ED00ED
:1031D600F830890BEC28ED0BEC2800007030F2007B
:1031E600B830F300BF313327983171302300D70050
:1031F6002730D8007F30D9000030DA00F730DB0006
:10320600B830DC004B08DE004A08DD005608E00056
:103216005508DF00B0316C2098317130F20027304C
:10322600F300BF31332798313B30F200B830F3005A
:10323600BF3133272300D101D10A0800B431372426
:10324600983105302300C0000030C1001A3022003A
:10325600ED00F830890B2D29ED0B2D290000C1302A
:10326600F200B930F300BF313327983171302300B3
:10327600D7002730D8007F30D9000030DA004C3034
:10328600DB00B930DC00BE318B2698317408230090
:10329600E0007308DF007208DE007108DD00B0315F
:1032A6006C2098317130F2002730F300BF3133279C
:1032B600983171302300D7002730D8007F30D900ED
:1032C6000030DA00CB30DB00B830DC00B431E42467
:1032D600983121002C082300E00021002B08230050
:1032E600DF0021002A082300DE0021002908230030
:1032F600DD00B0316C2098317130F2002730F300D8
:10330600BF313327983171302300D7002730D800DA
:103316007F30D9000030DA000230DB00B830DC0044
:10332600B4318D24983121002C082300E0002100BF
:103336002B082300DF0021002A082300DE002100DD
:1033460029082300DD00B0316C2098317130F2007D
:103356002730F300BF31332798319131B7219831A7
:103366002230F200B930F300BF31332798319E3056
:10337600F200B830F300BF31332798310130F10045
:103386000030F200BF31DF2702302200ED006D0869
:103396002300D1000800BE312A2698316400B231DC
:1033A600B322983166302200EE007630ED00C1304F
:1033B600890BDB29ED0BDB29EE0BDB29080023004B
:1033C60051082200ED00EE016E08003A0319EC29BF
:1033D600F7296D08003A0319C028013A0319212973
:1033E600033A0319CE29F729080020003208C50040
:1033F6003308C6003408C7003508C8003608C900B7
:103406003708CA003808CB003908CC00453086009A
:1034160000308700473FBA00BA1F132A0130142A2A
:1034260000302000BB00BC013B08C3003C08C400C0
:103436004308440403193D2AC509C609C709C80932
:10344600C909CA09CB09CC09C50A031D3D2AC60A02
:10345600031D3D2AC70A031D3D2AC80A031D3D2A2E
:10346600C90A031D3D2ACA0A031D3D2ACB0A031DAC
:103476003D2ACC0A2300B71B442AFD30B805FF308D
:10348600B9053708803A2000BA0080303A02031D99
:103496004F2A0130230036020318572A0130200034
:1034A600BF000030C0005F2A230037082000C0009C
:1034B600230036082000BF00230035082000C20084
:1034C600230034082000C10043084404031D6E2A6B
:1034D6002300381D732AFF302000C107FF30C23D8C
:1034E6004F302000CD000030CE002500EF01092B23
:1034F6002000450846044704480449044A044B048E
:103506004C04031DA02A4008803ABA0080303A02D3
:10351600031D8F2A01303F020318A02A200042080B
:10352600803ABA0080303A02031D9B2A01304102DC
:10353600031C152B2300B81C152BFF302000CD07CC
:10354600FF30CE3D0A30A000A101A201A301A401D3
:10355600A501A601A7014508A8004608A900470835
:10356600AA004808AB004908AC004A08AD004B0861
:10357600AE004C08AF00A03154209931200021083C
:10358600F5002008F400BE31ED2699317408303E6E
:103596002000BA004D08A03E8600023087003A0897
:1035A6008100FF30BF07FF30C03DFF30C107FF304D
:1035B600C23D0A30A000A101A201A301A401A501F8
:1035C600A601A7014508A8004608A9004708AA00C1
:1035D6004808AB004908AC004A08AD004B08AE00ED
:1035E6004C08AF00A331EC23993120002008C50018
:1035F6002108C6002208C7002308C8002408C900FD
:103606002508CA002608CB002708CC0020004E0853
:10361600803ABA0080303A02031D132B01304D0266
:1036260003187B2A200043084404031D1D2B230096
:10363600381D352BFF302000CD07FF30CE3D430827
:103646004404031D282B2B30292B2D30BD000030C0
:10365600BE003D08BA004D08A03E86000230870035
:103666003A08810020003108A7003008A6004D085E
:10367600A03EBA003A08A8004208AA004108A900DC
:10368600B331432320002708B1002608B000080004
:103696002300B71B522BFD30B805FF30B90537089C
:1036A600803A2000BB0080303B02031D5D2B0130B9
:1036B600230036020318652B01302000C7000030B6
:1036C600C8006D2B230037082000C80023003608E9
:1036D6002000C700230035082000CA002300340854
:1036E6002000C9002300381E7D2BFE302000C907AC
:1036F600FF30CA3D20003208CB003308CC00340826
:10370600CD003508CE003608CF003708D00038087F
:10371600D1003908D2004F30D3000030D400250044
:10372600EF013F2CFF302000D307FF30D43D0F3090
:103736004B05D50000304C05D6005608803ABB0034
:1037460080303B02031DA92B0A305502031CAF2B08
:1037560020005508573EB22B20005508303ED500B4
:103766000030563DD6003A08BF3EBB00FF30031876
:103776000030BC0000303C021A3003193B0203182B
:10378600C62B0130C72B0030BD00BE013D08C3006B
:103796003E08C400430844040319FD2B2030550499
:1037A600BB0000305604BC003B089F3EBD00FF3006
:1037B6003C3DBE0000303E021A3003193D0203189C
:1037C600E62B0130E72B0030BF00C0013F08C500E3
:1037D6004008C600450846040319FD2B5608F800A4
:1037E6005508F700B0314A209B3178082000D600F2
:1037F6007708D5005508BB005308A03E8600023066
:1038060087003B088100FF30C707FF30C83DFF3007
:10381600C907FF30CA3D4B30860000308700403F65
:10382600BB00413FBC00423FBD00433FBE00443F9A
:10383600BF00453FC000463FC100473FC2000430BD
:103846002000C236C10CC00CBF0CBE0CBD0CBC0C9B
:10385600BB0C890B232C20004208D2004108D10062
:103866004008D0003F08CF003E08CE003D08CD00FE
:103876003C08CC003B08CB0020005408803ABB0033
:1038860080303B02031D492C02305302031C702C6E
:1038960020004B084C044D044E044F0450045104C0
:1038A6005204031D952B4808803ABB0080303B022A
:1038B600031D5F2C013047020318952B20004A0890
:1038C600803ABB0080303B02031D6B2C013049025D
:1038D600031C702C2300B818952B2300381E8E2C41
:1038E600FF302000D307FF30D43D3A08BB00530811
:1038F600A03E8600023087003B088100FF30D307D8
:10390600FF30D43D3030BB005308A03E8600023065
:1039160087003B08810020003108A7003008A60078
:103926005308A03EBB003B08A8004A08AA00490865
:10393600A900B331432320002708B1002608B000B0
:103946000800200047088039C8004808D1004735DC
:10395600C8004808D800C61B581458080319C12CBB
:10396600580A031DBE2C0030C7000030C6000030C8
:10397600C5000030C400C617C701C92C0030C700F7
:103986000030C6000030C5000030C400430880394E
:10399600C8004808D1064335C8004808D900C21BEC
:1039A600591459080319E52C590A031DE22C003055
:1039B600C3000030C2000030C1000030C000C21792
:1039C600C301ED2C0030C3000030C2000030C1003E
:1039D6000030C0004308420441044004031D0C2D7E
:1039E6000030C7000030C6000030C5000030C400FB
:1039F6008030C6047F30C7045108C8004808C70491
:103A06004708C3004608C2004508C1004408C00074
:103A160008005808031D182D0030C3000030C200EE
:103A26000030C1000030C00008005808C800C901B5
:103A36004908CB0059084802CA00031CCB034A08B0
:103A46007F3ED20000304B3DD3004708D0004608E9
:103A5600CF004508CE004408CD000030C700003036
:103A6600C6000030C5000030C4000030D70000306A
:103A7600D6000030D5000030D400D9011A305902E2
:103A860003187D2D590803195F2D0130CD35CE0D54
:103A9600CF0DD00D890B492D0130C435C50DC60D8E
:103AA600C70D890B502DD71B44140130D435D50DC5
:103AB600D60DD70D890B592D43085002031D6D2DC8
:103AC60042084F02031D6D2D41084E02031D6D2D48
:103AD60040084D02031C782D57174008CD024108B7
:103AE600CE3B4208CF3B4308D03B0130C8004808D4
:103AF600D907412D50084F044E044D04031D54149C
:103B0600C61B9A2D0130C435C50DC60DC70D890BD0
:103B1600862DD71B44140130D435D50DD60DD70DBF
:103B2600890B8F2DFF30D207FF30D33D832DD9016E
:103B3600D71FB32DFF305405C800FF305505C90007
:103B4600FF305605CA007F305705CB004B084A04A4
:103B56004904480403194418B12DB32DD901D90AD3
:103B660059080319DC2D0130C4070030C53D00306B
:103B7600C63D0030C73D471CDC2D4408C80045083B
:103B8600C9004608CA004708CB000130CC00CB3735
:103B9600CA0CC90CC80CCC0BCA2D4B08C7004A0866
:103BA600C6004908C5004808C4000130D2070030E5
:103BB600D33D5308803AC80080304802031DE52DE6
:103BC600FF305202031CF42DFF302000D2000030DB
:103BD600D3000030C7000030C6000030C5000030FA
:103BE600C40020005308803AC80080304802031DF4
:103BF600FE2D0130520203180C2E2000D201D301F3
:103C06000030C7000030C6000030C5000030C400D8
:103C1600D10120005208C8004808D800581C152EAB
:103C2600C617192E7F30C8004808C6055836C80082
:103C36004808C700FF2C20005D088039E2006208B2
:103C4600EA005D35E2006208EC00DC1B6C146C08CF
:103C560003193B2E6C0A031D382E0030DD000030A0
:103C6600DC000030DB000030DA00DC17DD01432E1B
:103C76000030DD000030DC000030DB000030DA0010
:103C860061088039E2006208EB006B086A06031DD2
:103C96006A176135E2006208EB00E01B6B146B08E3
:103CA6000319632E6B0A031D602E0030E1000030FD
:103CB600E0000030DF000030DE00E017E1016B2E8F
:103CC6000030E1000030E0000030DF000030DE00B0
:103CD6006C086B020318B12E6A1F752E8030E20045
:103CE6006208EA066C08E2006208ED006B08E20072
:103CF6006208EC006D08E2006208EB005A08E20078
:103D06006208ED005E08E2006208DA006D08E20073
:103D16006208DE005B08E2006208ED005F08E20070
:103D26006208DB006D08E2006208DF005C08E20062
:103D36006208ED006008E2006208DC006D08E2003F
:103D46006208E0005D08E2006208ED006108E2003A
:103D56006208DD006D08E2006208E100ED016B0813
:103D6600E200E3016308E5006C086202E400031C5C
:103D7600E5036508803AE60080306602031DC52E1D
:103D86001A306402031CF92E20005D085C045B04F3
:103D96005A040319D02E0130D12E0030E2006208F9
:103DA600ED000030DD000030DC000030DB000030CC
:103DB600DA006B08E2006208EC00FE2E6D1CE92EAC
:103DC6006D360138E2006208ED00EB2E0310ED0CB3
:103DD6005A18ED170130E200DD37DC0CDB0CDA0C8B
:103DE600E20BEF2E0130E2006208EC0720006B08C0
:103DF6006C02031CE12E6A1B2F2F6C08031D0C2F6F
:103E06000030DD000030DC000030DB000030DA007E
:103E160008005E08DA075F08DB3D6008DC3D6108E4
:103E2600DD3D5D1CA92F6D1C1E2F6D360138E2008D
:103E36006208ED00202F0310ED0C5A18ED17013023
:103E4600E200DD37DC0CDB0CDA0CE20B242F013050
:103E5600E2006208EC07A92F5D08803AE2006108DB
:103E6600803A6202031D412F60085C02031D412F48
:103E76005F085B02031D412F5E085A020318792F63
:103E8600FF30E200FF30E300FF30E400FF30E500E2
:103E96005A085E02E6005B085F3BE7005C08603B91
:103EA600E8005D08613BE9006608E2076708E33D54
:103EB6006808E43D6908E53D6508DD006408DC0046
:103EC6006308DB006208DA008030E2006208EA0676
:103ED600ED09ED0A6D08031D812F0130DA07003068
:103EE600DB3D0030DC3D0030DD3D812F5E08DA022F
:103EF6005F08DB3B6008DC3B6108DD3B5D085C047A
:103F06005B045A04031DA72F6D08031DA72F00305D
:103F1600DD000030DC000030DB000030DA00080095
:103F26000130DA35DB0DDC0DDD0D890B942FED1B31
:103F36005A146D1CA02F0314A12F0310ED0D6C084D
:103F46000319A72F0130EC02DC1F932FEB01ED1FA5
:103F5600B42F6D087F3903195A18B22FB42FEB010D
:103F6600EB0A6B080319E02F0130DA070030DB3D5E
:103F76000030DC3D0030DD3D5D1CE02F5A08E200DC
:103F86005B08E3005C08E4005D08E5000130E6003C
:103F9600E537E40CE30CE20CE60BCB2F6508DD00FD
:103FA6006408DC006308DB006208DA006C0A0319A7
:103FB600E02F0130E2006208EC076C0A031D6C0872
:103FC600031DF02F0030DD000030DC000030DB0088
:103FD6000030DA006C080319EA016C1CF42FDC17B8
:103FE600F82F7F30E2006208DC056C36E2006208DA
:103FF600DD00EA1F0800DD170800730874040319C2
:10400600082873087404031D0C28710880310320E6
:1040160008007308860074088700443116000104FE
:104026000319332873088600740887004431403F1B
:10403600F500413FF6007308860074088700423198
:10404600403FF700413FF8007808803AF9007608CB
:10405600803A7902031D3128750877020318080093
:104066007308860074088700423173088400740858
:104076008500403F0007F5000131413F003DF60055
:104086007508860076088700710881007308860027
:104096007408870042310130810741310318810AD3
:1040A6000800F3012830860000308700473FF10002
:1040B600F11F7E282000A809A909AA09AB09AC09A5
:1040C600AD09AE09AF09A80A031D7C28A90A031D7C
:1040D6007C28AA0A031D7C28AB0A031D7C28AC0A8F
:1040E600031D7C28AD0A031D7C28AE0A031D7C280F
:1040F600AF0AF301F30A2030860000308700473FFD
:10410600F100F11FA5282000A009A109A209A30911
:10411600A409A509A609A709A00A031DA528A10A9D
:10412600031DA528A20A031DA528A30A031DA52869
:10413600A40A031DA528A50A031DA528A60A031D72
:10414600A528A70A20002008210422042304240409
:104156002504260427040319FD28F201F20AA71BE9
:10416600C128A035A10DA20DA30DA40DA50DA60D68
:10417600A70D0130F1007108F207B22827082F02B7
:10418600031DDF2826082E02031DDF2825082D0221
:10419600031DDF2824082C02031DDF2823082B0219
:1041A600031DDF2822082A02031DDF282108290211
:1041B600031DDF2820082802031CF1282008A80276
:1041C6002108A93B2208AA3B2308AB3B2408AC3BA9
:1041D6002508AD3B2608AE3B2708AF3BA736A60C05
:1041E600A50CA40CA30CA20CA10CA00C0130F2028D
:1041F600031DC128730803191E29A809A909AA09BC
:10420600AB09AC09AD09AE09AF09A80A031D1E2901
:10421600A90A031D1E29AA0A031D1E29AB0A031D8E
:104226001E29AC0A031D1E29AD0A031D1E29AE0A4E
:10423600031D1E29AF0A20002808A0002908A10096
:104246002A08A2002B08A3002C08A4002D08A5000C
:104256002E08A6002F08A70008002300B71B372941
:10426600FD30B805FF30B9053708803A2000BA009E
:1042760080303A02031D422901302300360203181A
:104286004A2901302000BB000030BC00522923001F
:1042960037082000BC00230036082000BB0023009E
:1042A60035082000BE00230034082000BD00320877
:1042B600BF003308C0003408C1003508C200360804
:1042C600C3003708C4003808C5003908C6004F3097
:1042D600C7000030C8002500EF01F6293F0840045A
:1042E600410442044304440445044604031D95293D
:1042F6003C08803ABA0080303A02031D8429013016
:104306003B020318952920003E08803ABA00803007
:104316003A02031D902901303D02031CFB292300AC
:10432600B81CFB29FF302000C707FF30C83D0A3004
:10433600A000A101A201A301A401A501A601A70154
:104346003F08A8004008A9004108AA004208AB009F
:104356004308AC004408AD004508AE004608AF006F
:10436600A8310120A13120002008303EBA004708BC
:10437600A03E8600023087003A088100FF30BB0766
:10438600FF30BC3DFF30BD07FF30BE3D0A30A00008
:10439600A101A201A301A401A501A601A7013F084D
:1043A600A8004008A9004108AA004208AB0043083B
:1043B600AC004408AD004508AE004608AF00B73172
:1043C6000227A13120002008BF002108C0002208D2
:1043D600C1002308C2002408C3002508C40026081B
:1043E600C5002708C600200047084804031D712998
:1043F60020003108A7003008A6004708A03EBA00F2
:104406003A08A8003E08AA003D08A900B331432394
:1044160020002708B1002608B000080021006E0819
:10442600860001308700403F2200A000413FA100E6
:10443600200884002108850012006F3A031D752AA2
:1044460021006E0886000130870001308107413166
:104456000318810A6F08860001308700010884006E
:104466000130850002308107003F2200C600013F6F
:10447600C700C801C901CA01CB01CC01CD01210089
:104486006D082000B10021006C082000B000220059
:1044960046082000B200220047082000B300220090
:1044A60048082000B400220049082000B500220078
:1044B6004A082000B60022004B082000B700220060
:1044C6004C082000B80022004D082000B900A23197
:1044D600FB22200031082100ED00200030082100D9
:1044E600EC00080021006E08860001308700403F7E
:1044F600F100413FF2007D30F300BB30F4000230A2
:10450600F5000030F600B331E523A23171087204DC
:10451600031DF92A21006E0886000130870002304B
:10452600810741310318810A6F0886000130870030
:10453600010884000130850004308107003F220015
:10454600A000013FA100023FA200033FA3002008F4
:10455600A4002108A5002208A6002308A700A80198
:10456600A901AA01AB012B08CD002A08CC00290815
:10457600CB002808CA002708C9002608C800250855
:10458600C7002408C60021006D082000B1002100E4
:104596006C082000B000220046082000B20022006D
:1045A60047082000B300220048082000B40022007B
:1045B60049082000B50022004A082000B600220063
:1045C6004B082000B70022004C082000B80022004B
:1045D6004D082000B900A231FB222000310821003D
:1045E600ED00200030082100EC00080088310C287E
:1045F6002300B71B022BFD30B805FF30B90537087D
:10460600803A2000BA0080303A02031D0D2B01309B
:10461600230036020318152B01302000C20000309B
:10462600C3001D2B230037082000C30023003608D3
:104636002000C200230035082000C70023003408EC
:104646002000C6003208C8003308C9003408CA0072
:104656003508CB003608CC003708CD003808CE0028
:104666003908CF004F30D0000030D1002500EF01CF
:104676002000C401C501B22B2000480849044A04A1
:104686004B044C044D044E044F04031D642B430895
:10469600803ABA0080303A02031D532B01304202A1
:1046A6000318642B20004708803ABA0080303A028B
:1046B600031D5F2B01304602031CBD2B2300B81CD3
:1046C600BD2BFF302000D007FF30D13D0730480515
:1046D600C40000304905C5004408303EBA00500801
:1046E600A03E8600023087003A088100FF30C207EC
:1046F600FF30C33DFF30C607FF30C73D4830860058
:1047060000308700403FBA00413FBB00423FBC003B
:10471600433FBD00443FBE00453FBF00463FC0008B
:10472600473FC10003302000C136C00CBF0CBE0C91
:10473600BD0CBC0CBB0CBA0C890B962B2000410897
:10474600CF004008CE003F08CD003E08CC003D0813
:10475600CB003C08CA003B08C9003A08C80051080B
:10476600803ABA0080303A02031DBB2B013050025A
:1047760003183F2B2300381ED62B2000440845047F
:104786000319D62BFF30D007FF30D13D3030BA00A9
:104796005008A03E8600023087003A088100FF30AC
:1047A600C607FF30C73D20003108A7003008A60025
:1047B6005008A03EBA003A08A8004708AA004608D2
:1047C600A900B331432320002708B1002608B00012
:1047D6000800F3012030860000308700473FF100D3
:1047E600F11F162C2000A009A109A209A309A409FA
:1047F600A509A609A709A00A031D142CA10A031DD1
:10480600142CA20A031D142CA30A031D142CA40A9B
:10481600031D142CA50A031D142CA60A031D142C13
:10482600A70AF301F30A2830860000308700473FC5
:10483600F100F11F412C2000A809A909AA09AB091A
:10484600AC09AD09AE09AF09A80A031D3D2CA90A9A
:10485600031D3D2CAA0A031D3D2CAB0A031D3D2C4E
:10486600AC0A031D3D2CAD0A031D3D2CAE0A031DEB
:104876003D2CAF0A0130F1007108F3067430860052
:10488600003087000830F10000301E00F10B482C84
:1048960020002008210422042304240425042604DD
:1048A60027040319AC2CF201F20AA71B672CA035CA
:1048B600A10DA20DA30DA40DA50DA60DA70D0130EA
:1048C600F1007108F207582CF435F50DF60DF70DC9
:1048D600F80DF90DFA0DFB0D27082F02031D8D2C7F
:1048E60026082E02031D8D2C25082D02031D8D2C56
:1048F60024082C02031D8D2C23082B02031D8D2C4E
:1049060022082A02031D8D2C21082902031D8D2C45
:1049160020082802031CA02C2008A8022108A93B75
:104926002208AA3B2308AB3B2408AC3B2508AD3B39
:104936002608AE3B2708AF3B7414A736A60CA50C79
:10494600A40CA30CA20CA10CA00C0130F202031DB6
:10495600672C73080319CD2CF409F509F609F70934
:10496600F809F909FA09FB09F40A031DCD2CF50A21
:10497600031DCD2CF60A031DCD2CF70A031DCD2CE5
:10498600F80A031DCD2CF90A031DCD2CFA0A031DC6
:10499600CD2CFB0A74082000A0007508A10076083B
:1049A600A2007708A3007808A4007908A5007A0871
:1049B600A6007B08A7000800663022003506031D06
:1049C600362D21006E08860001308700403F220008
:1049D600A000413FA10020088400210885000008AE
:1049E600A2002208C50021006E088600013087005B
:1049F6000130810741310318810A6F0886000130B2
:104A06008700010884000130850004308107003FDB
:104A16002200B800013FB900023FBA00033FBB00C5
:104A260021006D08AA006C08A90022003B0821009D
:104A3600AE0022003A082100AD002200390821000C
:104A4600AC00220038082100AB0022004508A00077
:104A560020082100AF008031632021002A08ED00E4
:104A66002908EC0008003530F1000130F2006E3004
:104A7600F300BB30F4000230F5000030F600B3312D
:104A8600E523A43171087204031DDB2D21006E0895
:104A9600860001308700403F2200A000413FA10070
:104AA60001302007840021080318210A8500000828
:104AB600A2002208C50021006E088600013087008A
:104AC600403F2200A000413FA100200884002108A9
:104AD60085000008BF3EA200FF3003180030A30087
:104AE600003023021A300319220203187C2D0130EC
:104AF6007D2D0030A400A5012408B3002508B400CC
:104B06003308340403199B2D21006F0886000130F9
:104B16008700010884000130850004308107003FCA
:104B26002200B800013FB900023FBA00033FAE2D94
:104B360021006F08860001308700010884000130DB
:104B4600850004308107003F2200B800013FB9000C
:104B5600023FBA00033FBB0021006E088600013009
:104B660087000230810741310318810A6D08AA00C7
:104B76006C08A90022003B082100AE0022003A087A
:104B86002100AD00220039082100AC0022003808BF
:104B96002100AB0022004508A00020082100AF003C
:104BA6008031632021002A08ED002908EC00080066
:104BB600AD31782D21006E08860001308700403F18
:104BC6002200A000413FA1002008840021088500A2
:104BD6001200643A0319012E21006E088600013086
:104BE6008700403F2200A000413FA100200884002A
:104BF600210885001200693A031D5A2E21006E080D
:104C06008600013087000130810741310318810A8F
:104C16006F08860001308700010884000130850096
:104C260002308107003F2200A000013FA1002008BA
:104C3600BC002108BD00890D893B8909BE00BF0063
:104C4600C000C100C200C30021006D082000B100F1
:104C560021006C082000B00022003C082000B200B1
:104C660022003D082000B30022003E082000B400C8
:104C760022003F082000B500220040082000B600B0
:104C8600220041082000B700220042082000B80098
:104C9600220043082000B9009931F821200031088C
:104CA6002100ED00200030082100EC000800210062
:104CB6006E08860001308700403FF100413FF20058
:104CC6006830F300BB30F4000230F5000030F60027
:104CD600B331E523A5317108720403198A2E210028
:104CE6006E08860001308700403FF100413FF20028
:104CF6007130F300BB30F4000230F5000030F600EE
:104D0600B331E523A53171087204031DE92E210094
:104D16006E08860001308700023081074131031892
:104D2600810A6F088600013087000108840001307F
:104D3600850004308107003F2200A000013FA1004A
:104D4600023FA200033FA3002008BC002108BD00CB
:104D56002208BE002308BF000030BF1BFF30C00082
:104D6600C100C200C30021006D082000B10021006F
:104D76006C082000B00022003C082000B20022008F
:104D86003D082000B30022003E082000B4002200A7
:104D96003F082000B500220040082000B60022008F
:104DA60041082000B700220042082000B800220077
:104DB60043082000B9009931F8212000310821006C
:104DC600ED00200030082100EC000800A8316A2818
:104DD60044302100A3007A30A2000030A100003048
:104DE600A000F0302300CD052100A801A901230071
:104DF6002B082000A90023002A082000A800230071
:104E060029082000A700230028082000A60069081A
:104E1600F4006808F3006708F2006608F100013044
:104E2600A931FF21A63174082000AD007308AC003B
:104E36007208AB007108AA009331A823A63120009E
:104E460029082100A700200028082100A60020002C
:104E560027082100A500200026082100A4004430D0
:104E66002000C3007A30C2000030C1000030C0000C
:104E7600210023082000A900210022082000A80004
:104E8600210021082000A700210020082000A600FC
:104E9600210027082000AD00210026082000AC00D4
:104EA600210025082000AB00210024082000AA00CC
:104EB6009331A823A63120002908C7002808C60078
:104EC6002708C5002608C4009C31A424A63120006A
:104ED6004308DD004208DC004108DB004008DA0038
:104EE600210029088500280884008435850DEA30CC
:104EF6008407B930853D003F2000EC00013FED00FE
:104F06006C08F1006D08F200890D893B8909F300F0
:104F1600F4000130A931FF21A63174082000E10018
:104F26007308E0007208DF007108DE00B6318626DD
:104F3600A631031CA62F23004D0821002806F039B0
:104F460028062300CD0001302100A8070030A93D26
:104F5600003029020F3003192802031CFA2E8F3065
:104F66002300CD052100AA01AB012B0885002A08E4
:104F760084008435850DFE308407BA30853D003FB8
:104F86002000EC00013FED006B08803AEE006D0852
:104F9600803A6E02031DD12F6C086A02031CE02FB3
:104FA60021002A082000EC00EC0E23004D0820000A
:104FB6006C068F396C062300CD0001302100AA074C
:104FC6000030AB3D00302B02073003192A02031CC8
:104FD600B82F1830F5000030F6000730F700003023
:104FE600F80023004D082000EC00ED016C08F900E4
:0A4FF6006D08FA0090310020080059
:105002002000200821042204230424042504260469
:10501200270403195928F201F20AA71B1D28A035FB
:10502200A10DA20DA30DA40DA50DA60DA70D013076
:10503200F1007108F2070E2827082F02031D3B28F2
:1050420026082E02031D3B2825082D02031D3B289E
:1050520024082C02031D3B2823082B02031D3B2896
:1050620022082A02031D3B2821082902031D3B288E
:1050720020082802031C4D282008A8022108A93B69
:105082002208AA3B2308AB3B2408AC3B2508AD3BD6
:105092002608AE3B2708AF3BA736A60CA50CA40CEE
:1050A200A30CA20CA10CA00C0130F202031D1D28BE
:1050B2002808A0002908A1002A08A2002B08A300A2
:1050C2002C08A4002D08A5002E08A6002F08A70072
:1050D200080021006E08860001308700403FF10081
:1050E200413FF2006B30F300BB30F4000230F500B8
:1050F2000030F600B331E523A831710872040319B8
:105102009A2821006E08860001308700403FF10096
:10511200413FF2007430F300BB30F4000230F5007E
:105122000030F600B331E523A83171087204031D83
:10513200EC2821006E0886000130870002308107CA
:1051420041310318810A6F08860001308700010887
:1051520084000130850002308107003F2200BC003C
:10516200013FBD00BE01BF01C001C101C201C301B7
:1051720021006D082000B10021006C082000B00061
:1051820022003C082000B20022003D082000B300AB
:1051920022003E082000B40022003F082000B50093
:1051A200220040082000B600220041082000B7007B
:1051B200220042082000B800220043082000B90063
:1051C2009931F821200031082100ED00200030083B
:1051D2002100EC000800A431DF2C21006E088600BB
:1051E20001308700403FF100413FF2004230F300BE
:1051F200BB30F4000330F5000030F600B331E52394
:10520200A8317108720403191E2921006E08860054
:1052120001308700403FF100413FF2004A30F30085
:10522200BB30F4000330F5000030F600B331E52363
:10523200A83171087204031D722921006E088600CC
:10524200013087000330810741310318810A6F085A
:105252008600013087000108840001308500023099
:10526200810700082200BC008039031DFF30BD0009
:10527200BE00BF00C000C100C200C30021006D0813
:105282002000B10021006C082000B00022003C0880
:105292002000B20022003D082000B30022003E0898
:1052A2002000B40022003F082000B5002200400880
:1052B2002000B600220041082000B7002200420868
:1052C2002000B800220043082000B9009931F821DB
:1052D200200031082100ED00200030082100EC0000
:1052E2000800A931742921006E0886000130870068
:1052F200403FF100413FF2004330F300BB30F40085
:105302000230F5000030F600B331E523A93171080F
:1053120072040319A42921006E0886000130870057
:10532200403FF100413FF2004B30F300BB30F4004C
:105332000230F5000030F600B331E523A9317108DF
:105342007204031DFD2921006E08860001308700CA
:105352000230810741310318810A6F08860001304B
:105362008700010884000130850002308107003F78
:105372002200A000013FA1002008BC002108BD00BE
:10538200890D893B8909BE00BF00C000C100C2006F
:10539200C30021006D082000B10021006C0820002C
:1053A200B00022003C082000B20022003D0820008C
:1053B200B30022003E082000B40022003F08200073
:1053C200B500220040082000B6002200410820005B
:1053D200B700220042082000B80022004308200043
:1053E200B9009931F821200031082100ED00200098
:1053F20030082100EC000800A531DD2D2000A000BE
:105402002008031DF41F152A7109A2007209A300C6
:105412007309A4007409A500A20A0319A30A0319B7
:10542200A40A0319A50A1D2A7408A5007308A4007A
:105432007208A3007108A200740873047204710454
:10544200031D2C2A0030F4000030F3000030F2007B
:105452000030F10008009630F5007508A100FE301A
:1054620025050319532A0130F5007508A1070130FB
:10547200A536A40CA30CA20C890B392A302A0130C0
:10548200F5007508A1070130A2070030A33D0030E6
:10549200A43D0030A53D0130A536A40CA30CA20CFE
:1054A200890B4D2AFF3025050319652A402A02304F
:1054B2002102031C672A0130A1020130A235A30D8B
:1054C200A40DA50D890B5F2AA41F582A2118712A41
:1054D200FF30A205FF30A3057F30A405FF30A505EC
:1054E2000310A10C2108F500F601F701F8011830AC
:1054F200F535F60DF70DF80D890B792A7508A2041A
:105502007608A3047708A4047808A5042008031DDC
:10551200F41F8C2AA5172508F4002408F300230899
:10552200F2002208F10008002000AB01AC01A40146
:10553200A501AA01AA0A770884007808850012004A
:10554200203A0319B62A77088400780885000008F3
:10555200F73EA000FF3003180030A1000030210206
:105562000530031920020318AA012A08A000A1018C
:105572002008A6002108A700260827040319CB2A21
:105582000130F7070030F83D9A2A0130A4000030BC
:10559200A500FE2A77088400780885000008A0008C
:1055A200A1012108003A0319D72A022B20082B3A1D
:1055B2000319FE2A063A0319C62A022B7708840029
:1055C200780885000008A0002C08F2002B08F100E2
:1055D2000A30F3000030F400BF314D27AA317208BF
:1055E2002000A20020087102A100031CA2032108CE
:1055F200303EAB000030223DAC000130F7070030F6
:10560200F83D77088400780885000008D03EA000A5
:10561200FF3003180030A100003021020A300319C4
:1056220020020318162B0130172B0030A200A30111
:105632002208A8002308A90028082904031DDF2A3C
:1056420024082504031D312B2B09A0002C09A100DD
:10565200A00A0319A10A2008F7002108F80008008F
:105662002C08F8002B08F700080020003208B600CA
:105672003308B7003408B8003508B9000630B6352B
:10568200B70DB80DB90D890B402B3908A7003808A2
:10569200A6003708A5003608A4003208BA0033086D
:1056A200BB003408BC003508BD000630BA35BB0D5E
:1056B200BC0DBD0D890B572B0030BE002430BF003E
:1056C200F430C0000030C1003A08BE023B08BF3BC4
:1056D2003C08C03B3D08C13B4108AB004008AA0062
:1056E2003F08A9003E08A800B7317E27AB31200051
:1056F2002508FB002408FA0001307B020030031960
:105702007A02031CCC2B3208B6003308B7003408E7
:10571200B8003508B9000430B635B70DB80DB90D6B
:10572200890B8D2B3908A7003808A6003708A50079
:105732003608A4003208BA003308BB003408BC00A3
:105742003508BD000430BA35BB0DBC0DBD0D890B4B
:10575200A42B0030BE002430BF00F430C000003063
:10576200C1003A08BE023B08BF3B3C08C03B3D08B3
:10577200C13B4108AB004008AA003F08A9003E080F
:10578200A800B7317E27AB3120002508FB00240892
:10579200FA0023001E1501307B02003003197A0241
:1057A200031808007A0823009B001E129D1721008F
:1057B2008E170E1723001D169E1608003230860023
:1057C2000230870023308400003085000730FA0061
:1057D20016001A00FA0BE92B20002208AE00013055
:1057E200AF002E082F04031DFA2B2330AE00003029
:1057F200AF002F08F2002E08F100BE31D626AB31E1
:1058020072082000B3007108B2002300370820009C
:10581200B100230036082000B000B11B212C310852
:10582200803AFA003308803A7A02031D1A2C3208B1
:1058320030020318212C20003108B3003008B200D6
:1058420020003308B1003208B000230035082000E0
:10585200AD00230034082000AC002300381C432C88
:10586200502C2030F1000030F20020002108F4001A
:105872002008F300A0310020AB3101302000B20734
:105882000030B33D20003308803AFA002D08803AF8
:105892007A02031D4E2C2C083202031C322C2000EB
:1058A200AA01AB012B08803AFA003108803A7A0249
:1058B200031D5D2C30082A0203187C2C20002E08C0
:1058C20086002F0887000108FA00FB017A08F10020
:1058D2007B08F2002108F4002008F300A031002028
:1058E200AB3101302000AE070030AF3D0130AA07D6
:1058F2000030AB3D532C23003818912C9E2C2030C5
:10590200F1000030F20020002108F4002008F3002A
:10591200A0310020AB3101302000B2070030B33D8E
:1059220020003308803AFA002D08803A7A02031DDB
:105932009C2C2C083202031C802C20003308A1006E
:105942003208A0000800200033082300BF00200016
:1059520032082300BE001830F5000030F60008308F
:10596200F7000030F800B1318021AC317508200019
:10597200B60036082300CC0055082000A4002300FE
:1059820056082000A500890D893B8909A600A700B9
:1059920023004A082000B60023004B082000B7006D
:1059A2000030B71BFF30B800B9003208BA00330824
:1059B200BB000030BB1BFF30BC00BD003608BA0282
:1059C2003708BB3B3808BC3B3908BD3B3D08F400F7
:1059D2003C08F3003B08F2003A08F1000030F800FE
:1059E2000030F7000330F600E830F500B031E72070
:1059F200AC3174082000AB007308AA007208A90039
:105A02007108A800B7317E27AC3120002408BE00FF
:105A12002508BF002608C0002708C1000430C200C4
:105A2200C137C00CBF0CBE0CC20B112D3E08C30007
:105A32004308C4001830F5000030F6000930F700C2
:105A42000030F8004408B600B7013608F9003708FC
:105A5200FA0090310020AC312000C501C601460891
:105A62008500450884008435850D1E308407BB30CF
:105A7200853D003FB600013FB7003508803AB800C7
:105A82003708803A3802031D482D36083402031CB9
:105A9200582D20004508B600B60EB60DB60D2300EF
:105AA2004C08200036063F3936062300CC00013070
:105AB2002000C5070030C63D0030460203300319FE
:105AC2004502031C302D1830F5000030F600083076
:105AD200F7000030F80023004C082000B600B701A0
