:020000040000FA
:0400000080313128F2
:100008007E148031200011100130F2007208F707C9
:1000180041307706031D2F28F70176080319202899
:100028007608031D192801301A280030F2007208DA
:10003800F6000030F0002C287608031D2528013032
:1000480026280030F2007208F6000130F000003077
:10005800F1008131EC217E10090080313328F6014E
:10006800F7017E10200081319C2920002E08B20063
:100078002F08B3003008B4003108B5000630B23597
:10008800B30DB40DB50D890B43283508A30034080A
:10009800A2003308A1003208A0002E08B6002F08DD
:1000A800B7003008B8003108B9000630B635B70DCA
:1000B800B80DB90D890B5A280030BA002430BB009E
:1000C800F430BC000030BD003608BA023708BB3B2C
:1000D8003808BC3B3908BD3B3D08A7003C08A600D2
:1000E8003B08A5003A08A4008031E22080312000B6
:1000F8002108F5002008F4000130750200300319CA
:100108007402031CCF282E08B2002F08B300300851
:10011800B4003108B5000430B235B30DB40DB50DD7
:10012800890B90283508A3003408A2003308A100E1
:100138003208A0002E08B6002F08B7003008B80013
:100148003108B9000430B635B70DB80DB90D890BB3
:10015800A7280030BA002430BB00F430BC000030BF
:10016800BD003608BA023708BB3B3808BC3B390823
:10017800BD3B3D08A7003C08A6003B08A5003A087F
:10018800A4008031E220803120002108F5002008F9
:10019800F40023001E1501307502003003197402A3
:1001A80003180800740823009B001E129D172100E5
:1001B8008E170E1723001D169E1608002000A90191
:1001C800A31FF328A009A109A209A309A00A0319DA
:1001D800A10A0319A20A0319A30AA901A90AA71FB8
:1001E8000429A409A509A609A709A40A0319A50AA7
:1001F8000319A60A0319A70A0130F3007308A90610
:100208000030AD000030AC000030AB000030AA0078
:10021800230822042104200403194D29A801A80A4F
:10022800A31B22290130A035A10DA20DA30D890B16
:1002380017290130F3007308A80714290130AA35DB
:10024800AB0DAC0DAD0D890B232923082702031D27
:10025800372922082602031D372921082502031DF4
:10026800372920082402031C42292008A402210857
:10027800A53B2208A63B2308A73B2A140130A33636
:10028800A20CA10CA00C890B43290130A802031D64
:100298002229290803195B29AA09AB09AC09AD0968
:1002A800AA0A0319AB0A0319AC0A0319AD0A2D08E7
:1002B800A3002C08A2002B08A1002A08A00008000F
:1002C80021000D1123000D1121008D1523008D1122
:1002D8000E128E1221000E168E160C128C12101091
:1002E80055303C008F00AA308F000F103D002408C5
:1002F800E0391138A4003C002108E0391438A10085
:100308002008E0391538A0003D002508E0391038EC
:10031800A5001A08E03914389A003C002408E0398E
:100328000B38A40055308F00AA308F000F14080036
:1003380082312B22813181316421813182310D2238
:10034800813100302000B1000030B0004B30AF00E8
:100358000030AE008031392081318231262281314E
:100368000030F300F4008131CB2181318231312218
:100378008131CF302000980596019701181421008B
:1003880011140B178B17823130228131C729DB29D1
:1003980022000C128C161014080022000C168C1265
:1003A8001014080022000C168C161010080074088F
:1003B800003A0319E029EB297308003A0319CC29FC
:1003C800013A0319D129033A0319D629EB29080060
:1003D800FC2922000C128C161014080022000C169E
:1003E8008C121014080022000C168C16101008002D
:1003F8007108003A0319012A0C2A7008003A0319F7
:10040800ED29013A0319F229033A0319F7290C2AAD
:10041800080024001508F03908389500951627308B
:1004280092003430F300F230890B182AF30B182AA3
:1004380008002100191099109915191699161917FD
:100448009913080022000C168C161014080082312B
:0C0458001D2208000234003408000800D7
:020000040001F9
:04000E00A4D9FFDE94
:00000001FF
