:020000040000FA
:08000000803102288731FD2F39
:100F800008008731C02787318731C8278031022880
:100F900021000D1123000D1121008D1523008D114D
:100FA0000E128E1221000E168E1655303C008F0048
:100FB000AA308F000F103D002408E0391138A4003A
:100FC0003C002108E0391438A1002008E039153828
:100FD000A0003D002508E0391038A5001A08E039C6
:100FE00014389A003C002408E0390B38A40055302E
:100FF0008F00AA308F000F14080020008731C12F06
:041000000234003482
:020000040001F9
:04000E00A4D9FFDE94
:00000001FF
