:020000040000FA
:0400000080311E2805
:100008007E1480312000111C1C282100111C1C2882
:10001800200011100130F00070082300D2073D3095
:100028005206031D1C280130F0007008D300D201CD
:100038007E10090080312028C1308400B43085004A
:1000480023001200D7001200D8001200D9001200B5
:10005800DA001200DB001200DC001200DD00713053
:100068008400273085007F30FE000030FF0090318B
:1000780001208031FC01A030840001308500373038
:10008800FE000030FF0090310120803120308400D4
:10009800023085005030FE000030FF009031012012
:1000A8007E102000B7313C2F2100C501C60125086C
:1000B800DA002408D9002308D8002208D7005A08F3
:1000C8002000DD00210059082000DC00210058082C
:1000D8002000DB00210057082000DA000030E10092
:1000E8000030E0000030DF000030DE00AB31C72315
:1000F80080310318982801302100C5000030C6005F
:100108005A08F4005908F3005808F2005708F1009B
:10011800B431FB24803174082100DA007308D90057
:100128007208D8007108D7002100DD01DE01230024
:100138003F082100CB0023003E082100CA004508E3
:100148004604031DAA282300421DC3282100450890
:100158004604031DB1282B30B2282D30AF000030E3
:10016800B0002F08A70027082400A00001302100B4
:10017800DD070030DE3DFF30CA07FF30CB3D2100F0
:100188005A08F4005908F3005808F2005708F1001B
:10019800AB314F23803171037204031D21292100E3
:1001A8002608BF3EA700FF3003180030A800003023
:1001B80028021A30031927020318E4280130E52819
:1001C8000030A900AA012908B1002A08B2003108A4
:1001D80032040319F328BB30F100B930F628CB30CC
:1001E800F100B930F2005D08203EB631702680314A
:1001F800FD302100CA07FF30CB3D21082000A700B1
:10020800210020082000A60020302100A700270890
:100218002000A80021004B082000AA0021004A085D
:100228002000A900A9318C21200027082100A10065
:10023800200026082100A000080021005A08F40028
:100248005908F3005808F2005708F100AB314F2362
:10025800803171087204031D7F2921002608BF3EE2
:10026800A700FF3003180030A800003028021A3019
:100278000319270203184229013043290030A90035
:10028800AA012908B3002A08B40033083404031962
:100298005129BF30F100B9305429D330F100B930B9
:1002A800F2005D08203EB63170268031FD30210015
:1002B800CA07FF30CB3D21082000A70021002008F5
:1002C8002000A60020302100A70027082000A80051
:1002D80021004B082000AA0021004A082000A9009C
:1002E800A9318C21200027082100A1002000260820
:1002F8002100A00008003F302100E2008030E1002A
:100308000030E0000030DF00DB01DC015A08F400B7
:100318005908F3005808F2005708F1000030F800B7
:100328000030F7000030F6000030F500A831A320B7
:100338008031031CD0295F2A41302000A9002030D9
:10034800A8000030A7000030A600210062082000A5
:10035800AD00210061082000AC00210060082000E9
:10036800AB0021005F082000AA009531D425803118
:10037800200029082100E200200028082100E100CF
:10038800200027082100E000200026082100DF00C7
:100398000130DB070030DC3D21005A082000DD0079
:1003A800210059082000DC00210058082000DB004B
:1003B800210057082000DA004130A9002030A800A9
:1003C8000030A7000030A600210062082000AD0020
:1003D800210061082000AC00210060082000AB006B
:1003E80021005F082000AA009531D4258031200023
:1003F8002908E1002808E0002708DF002608DE00B9
:10040800AB31C7238031031C3A2AA0294130200090
:10041800C3002030C2000030C1000030C0002100FD
:1004280062082000C700210061082000C6002100E2
:1004380060082000C50021005F082000C40090313A
:1004480061208031200043082100E200200042089A
:100458002100E100200041082100E00020004008C0
:100468002100DF00FF30DB07FF30DC3D21005A08A8
:100478002000DD00210059082000DC002100580878
:100488002000DB00210057082000DA002100620864
:100498002000E100210061082000E0002100600840
:1004A8002000DF0021005F082000DE00AB31C723F9
:1004B8008031031C0A2A21002608A700A801270862
:1004C800F7002808F800B631D226803177082100D5
:1004D800A9002908CC004C08A7002708C9006730E4
:1004E8004C06031D932A230040084104031D802A5B
:1004F8000130C0000030C1004108803A2100A70047
:1005080080302702031D8B2A013023004002031884
:10051800962A06302100C7000030C8009E2A230012
:10052800C11B8D2A230041082100C8002300400870
:100538002100C70067304C06031DC72A5C08803AB3
:10054800A7007F302702031DAB2AFC305B02031C87
:10055800C22A21004708FF3EA700FF30483DA800F7
:100568002808803AA9005C08803A2902031DBE2A9F
:100578005B082702031CC22A6630C32A65302100A3
:10058800A7002708C9004808C0004708BF0067300F
:100598004C06031DD42A663049060319DC1FD82AE5
:1005A8000130BF070030C03D66304906031DF02A00
:1005B800DC1FE82A3F30E2008030E1000030E00034
:1005C8000030DF00DB01DC0167304C060319F02A3C
:1005D8005B08BF075C08C03DD501D6015A08D000AA
:1005E8005908CF005808CE005708CD006208AE0061
:1005F8006108AD006008AC005F08AB005608803A9F
:10060800A7004008803A2702031D0C2B3F0855021B
:100618000318E62B210062082000C30021006108AE
:100628002000C200210060082000C10021005F08EE
:100638002000C000210050082000C70021004F08FA
:100648002000C60021004E082000C50021004D08EA
:100658002000C40090316120803120004308DD0073
:100668004208DC004108DB004008DA00A431852498
:10067800803120005D082100D40020005C082100A2
:10068800D30020005B082100D20020005A08210076
:10069800D10054082000DD00210053082000DC00B0
:1006A800210052082000DB00210051082000DA0058
:1006B800AA318022803120005B082100C40020007C
:1006C8005A082100C30054082000AD002100530837
:1006D8002000AC00210052082000AB002100510886
:1006E8002000AA00210062082000A900210061085A
:1006F8002000A800210060082000A70021005F0852
:100708002000A6009531D425803120002908C30097
:100718002808C2002708C1002608C0002100500888
:100728002000C70021004F082000C60021004E0805
:100738002000C50021004D082000C400B631512614
:100748008031200043082100D00020004208210009
:10075800CF00200041082100CE00200040082100E1
:10076800CD0041302000C3002030C2000030C1005D
:100778000030C000210062082000C7002100610885
:100788002000C600210060082000C50021005F0885
:100798002000C400903161208031200043082100EE
:1007A800E200200042082100E10020004108210069
:1007B800E000200040082100DF000130D5070030AC
:1007C800D63D022B40302000A900A030A800003000
:1007D800A7000030A600210062082000AD0021001B
:1007E80061082000AC00210060082000AB00210057
:1007F8005F082000AA009531D425803120002908FF
:100808002100D400200028082100D3002000270858
:100818002100D200200026082100D1005008200025
:10082800DD0021004F082000DC0021004E082000D8
:10083800DB0021004D082000DA00210054082000C8
:10084800E100210053082000E000210052082000A8
:10085800DF00210051082000DE00AB31C7238031C2
:100868000318392C00302100532C21005008F400C3
:100878004F08F3004E08F2004D08F1005408F80044
:100888005308F7005208F6005108F500A831A320D4
:100898008031031C5A2C210043185A2C0030D400F4
:1008A8000030D3000030D2000030D10021005408BD
:1008B800F4005308F3005208F2005108F1005A08F6
:1008C800F8005908F7005808F6005708F500913164
:1008D800DB21803174082100D0007308CF00720832
:1008E800CE007108CD002E08E2002D08E1002C088A
:1008F800E0002B08DF00653049060319882C5C08E6
:10090800C2005B08C1008A2CC101C201BD01BE0141
:10091800BB01BC01D501D601C52D2100620820000C
:10092800C300210061082000C200210060082000E7
:10093800C10021005F082000C000210050082000ED
:10094800C70021004F082000C60021004E082000E3
:10095800C50021004D082000C4009031612080317D
:1009680020004308DD004208DC004108DB004008A5
:10097800DA00A4318524803120005D082100D400EC
:1009880020005C082100D30020005B082100D20071
:1009980020005A082100D10054082000DD00210061
:1009A80053082000DC00210052082000DB00210051
:1009B80051082000DA00AA318022803120005B082B
:1009C8002100C40020005A082100C3002300421A55
:1009D800FC2C210043084404031DFC2C67304C0602
:1009E8000319C21FFC2C0130BB070030BC3D432D4E
:1009F80021003D083E040319C21F172D2E30A70001
:100A08005D08203E860002308700270881000130FB
:100A1800DD070030DE3DFF30CA07FF30CB3D013037
:100A2800BD000030BE003B083C040319312D3030B6
:100A3800A7005D08203E8600023087002708810055
:100A48000130DD070030DE3DFF30CA07FF30CB3D07
:100A5800FF30BB07FF30BC3D172D4308303EA700D1
:100A68005D08203E8600023087002708810001309B
:100A7800DD070030DE3DFF30CA07FF30CB3D5408AC
:100A88002000AD00210053082000AC0021005208CE
:100A98002000AB00210051082000AA0021006208B4
:100AA8002000A900210061082000A800210060089A
:100AB8002000A70021005F082000A6009531D4255A
:100AC800803120002908C3002808C2002708C10077
:100AD8002608C000210050082000C70021004F0848
:100AE8002000C60021004E082000C50021004D0846
:100AF8002000C400B631512680312000430821006F
:100B0800D000200042082100CF0020004108210029
:100B1800CE00200040082100CD0041302000C30055
:100B28002030C2000030C1000030C000210062083F
:100B38002000C700210061082000C60021006008CD
:100B48002000C50021005F082000C400903161200A
:100B58008031200043082100E200200042082100E3
:100B6800E100200041082100E000200040082100A9
:100B7800DF00FF30C107FF30C23D0130D50700302C
:100B8800D63D5608803AA7004008803A2702031D40
:100B9800CF2D3F0855020318DD2D21005E08803A4D
:100BA800A70080302702031DDB2D4B305D02031C9C
:100BB800912C21003D083E04031DF32D2300421E05
:100BC800F32D2E302100A7005D08203E860002305C
:100BD8008700270881000130DD070030DE3D210055
:100BE8005D08203E86000230870081016530490695
:100BF800031DB42E4F30D5000030D6005508203ED6
:100C08008600023087008101C501C601DC1F152E50
:100C18000130C5000030C600DB09DC09DB0A031916
:100C2800DC0A0230C7000030C8005B085C04031906
:100C3800512EFF302100D507FF30D63D0A30F10094
:100C48000030F2005C08F4005B08F300A8315E2075
:100C580080317108303E2100A7005508203E8600EB
:100C680002308700270881000A30F1000030F200C6
:100C78005C08F4005B08F300A931DD2180317208BB
:100C88002100DC007108DB00FF30C707FF30C83DDA
:100C9800FF30CA07FF30CB3D192E4808803AA7001D
:100CA80080302702031D5A2E0130470203181D2EDB
:100CB800FF302100D507FF30D63D45084604031D07
:100CC800672E2B30682E2D30B5000030B600350861
:100CD800A7005508203E86000230870027088100BB
:100CE800FF30CA07FF30CB3DFF30D507FF30D63D78
:100CF8002608BF3EA700FF3003180030A8000030C8
:100D080028021A300319270203188C2E01308D2E61
:100D18000030A900AA012908B9002A08BA00390830
:100D28003A04031D992E65309A2E4530B7000030DD
:100D3800B8003708A7005508203E86000230870013
:100D480027088100FF30CA07FF30CB3D5508203EF9
:100D5800F1000230F2005D08203EB6317026803185
:100D6800210021082000A700210020082000A6005B
:100D780020302100A70027082000A80021004B08E8
:100D88002000AA0021004A082000A900A9318C21CE
:100D9800200027082100A100200026082100A0002B
:100DA8000800E42F2300530803190800D301B631C3
:100DB800B0268631A1316521863120002008220025
:100DC800ED006D08EF003B30F200B930F300A831B8
:100DD8000020863122006F0803190800200018102F
:100DE800210011100030F100F200B6318F26863153
:100DF8002300D3011A302200ED00F830890B022FAE
:100E0800ED0B022F00003530F200B830F300A831A6
:100E18000020863171302200DF002730E0007F306B
:100E2800E1000030E200BC30E300B830E400230009
:100E38004D082200E60023004C082200E5002300AC
:100E48004F082200E80023004E082200E700A031E6
:100E5800012086317130F2002730F300A8310020DC
:100E680086310030F200B830F300A83100202300AA
:100E7800D401D40A08008831012086311A302200B2
:100E8800ED00F830890B462FED0B462F000060303F
:100E9800F200B830F300A83100208631713022000A
:100EA800DF002730E0007F30E1000030E200113041
:100EB800E300B930E400B531042586317408220016
:100EC800E8007308E7007208E6007108E500A03141
:100ED800012086317130F2002730F300A83100205C
:100EE800863171302200DF002730E0007F30E100DA
:100EF8000030E2009030E300B830E400A9313C2132
:100F08008631200066082200E800200065082200DB
:100F1800E700200064082200E600200063082200A1
:100F2800E500A031012086317130F2002730F3004E
:100F3800A8310020863171302200DF002730E00020
:100F48007F30E1000030E2000230E300B030E4001E
:100F5800A831EC208631200066082200E800200035
:100F680065082200E700200064082200E60020004F
:100F780063082200E500A031012086317130F200BB
:100F88002730F300A83100208631E730F200B8306E
:100F9800F300A831002086316330F200B830F30046
:100FA800A831002086310130F1000030F200B6315E
:100FB8008F2602302200ED006D082300D4000800BF
:100FC800230054082200ED00EE016E08003A0319D0
:100FD800EE2FF92F6D08003A0319D62E013A03199E
:100FE8003F2F033A0319F92FF92F080022000C1696
:080FF8008C161014080008001B
:10100200EC302000A000FF30A1002D30A200003003
:10101200A3000030A400A5002D30A6000030A700D8
:10102200A8311A2088313C30F400A330F300D730C5
:10103200F2000A30F100B531182588310030200065
:10104200E9000030E8000930E700C430E600C830AB
:10105200EA000030EB009C313D2488310030200052
:10106200E9000030E8004E30E7002030E600403072
:10107200EA000130EB009B312823080021006508BB
:1010820086008701403FF100413FF2000530F30046
:10109200BA30F4000230F5000030F600AA312E22F8
:1010A200883171087204031DA72821006508860093
:1010B20087010230810741310318810A66088600E0
:1010C2000130870001088400013085000230810769
:1010D200003F2200C600013FC700C801C901CA0182
:1010E200CB01CC01CD01210064082000B100210018
:1010F20063082000B000220046082000B20022004F
:1011020047082000B300220048082000B400220053
:1011120049082000B50022004A082000B60022003B
:101122004B082000B70022004C082000B800220023
:101132004D082000B90098313C20200031082100E0
:10114200E400200030082100E300080021006508C7
:1011520086008701403FF100413FF200D730F300A3
:10116200B930F4000330F5000030F600AA312E2227
:10117200883171087204031D7729210065088600F1
:1011820087010330810741310318810A660886000E
:1011920001308700403F840001308500810A000849
:1011A2002200A0002008C40023003C082200A00066
:1011B200440886000130870020088100732921003D
:1011C2006508860087010230810741310318810AD0
:1011D2006608860001308700403F840001308500A8
:1011E200810A00082200A0002008C40044088600EA
:1011F2000130870023003C08C03F3D08C13F7329EE
:1012020021006508860087010130810741310318FA
:10121200810A6608860001308700403F8400013061
:101222008500810A00082200A0002008C4004408AA
:1012320086000130870023003C08C03F3D08C13FC3
:101242007329210065088600870102308107413138
:101252000318810A6608860001308700403F840037
:1012620001308500810A00082200A0002008C40085
:1012720023003C082200A00023003D082200A10018
:101282000030A11BFF30A200A300440886000130F9
:1012920087002008C03F2108C13F2208C23F23081F
:1012A200C33F732921006508860087010230810748
:1012B20041310318810A6608860001308700403FE9
:1012C200840001308500810A00082200A000200865
:1012D200C400440886000130870023003C08C03F58
:1012E2003D08C13F2100E301E40108002100650837
:1012F20086008701403FF100413FF200D830F30001
:10130200B930F4000230F5000030F600AA312E2286
:101312008831710872040319E028210065088600EB
:101322008701403F2200A000413FA1002008840025
:101332002108850012006E3A03190129210065086F
:1013420086008701403FF100413FF200FC30F3008C
:10135200B930F4000230F5000030F600AA312E2236
:101362008831710872040319222921006508860058
:101372008701403FF100413FF200FF30F300B930F6
:10138200F4000230F5000030F600AA312E22883136
:101392007108720403195329210065088600870128
:1013A200403F2200A000413FA10020088400210804
:1013B20085001200703A031D432A21006508860049
:1013C20087010130810741310318810A66088600CE
:1013D20001308700403F840001308500810A000807
:1013E2002200A000A101A201A301A401A501A6015E
:1013F200A7012708CD002608CC002508CB00240829
:10140200CA002308C9002208C8002108C700200812
:10141200C600210064082000B100210063082000FA
:10142200B000220046082000B20022004708200037
:10143200B300220048082000B4002200490820001E
:10144200B50022004A082000B60022004B08200006
:10145200B70022004C082000B80022004D082000EE
:10146200B90078302200A00020082000BA009E3186
:10147200A726200031082100E400200030082100C6
:10148200E30008002100650886008701403F220032
:10149200A000413FA100200884002108850012001D
:1014A200733A031D842A21006508860087010130F2
:1014B200810741310318810A6608860001308700DE
:1014C200403F840001308500810A00082200A0000C
:1014D2002008AC00210064082000A100210063085C
:1014E2002000A00022002C08A00020082000A2005A
:1014F200A2311922200021082100E4002000200846
:101502002100E30008002100650886008701403FB2
:10151200F100413FF200DF30F300B930F400033054
:10152200F5000030F600AA312E22883171087204CB
:10153200031DEB2A2100650886008701033081071D
:1015420041310318810A66088600013087000108CC
:101552008400013085000230810700082200C600A5
:10156200C701C801C901CA01CB01CC01CD012100CB
:1015720064082000B100210063082000B0002200AE
:1015820046082000B200220047082000B3002200D3
:1015920048082000B400220049082000B5002200BB
:1015A2004A082000B60022004B082000B7002200A3
:1015B2004C082000B80022004D082000B900A631D6
:1015C2003926200031082100E400200030082100E3
:1015D200E30008002100650886008701403FF10012
:1015E200413FF200E030F300B930F4000230F50080
:1015F2000030F600AA312E22883171087204031DD0
:10160200532B210065088600870102308107413192
:101612000318810A660886000130870001088400E9
:101622000130850002308107003F2200C600013FE1
:10163200C700C801C901CA01CB01CC01CD012100FB
:1016420064082000B100210063082000B0002200DD
:1016520046082000B200220047082000B300220002
:1016620048082000B400220049082000B5002200EA
:101672004A082000B60022004B082000B7002200D2
:101682004C082000B80022004D082000B900A63105
:101692003926200031082100E40020003008210012
:1016A200E30008002100650886008701403F220010
:1016B200A000413FA10020088400210885001200FB
:1016C200753A031DB52B210065088600870101309C
:1016D200810741310318810A6608860001308700BC
:1016E200010884000130850002308107003F22009A
:1016F200C600013FC700C801C901CA01CB01CC0124
:10170200CD01210064082000B100210063082000FF
:10171200B000220046082000B20022004708200044
:10172200B300220048082000B4002200490820002B
:10173200B50022004A082000B60022004B08200013
:10174200B70022004C082000B80022004D082000FB
:10175200B900A6313926200031082100E40020001A
:1017620030082100E3000800210065088600870197
:10177200403FF100413FF2000830F300BA30F4007C
:101782000230F5000030F600AA312E2288317108AD
:101792007204031D372C2100650886008701023080
:1017A200810741310318810A6608860001308700EB
:1017B200010884000130850004308107003F2200C7
:1017C200A000013FA100023FA200033FA3002008A6
:1017D200A4002108A5002208A6002308A700A8014A
:1017E200A901AA01AB012B08CD002A08CC002908C7
:1017F200CB002808CA002708C9002608C800250807
:10180200C7002408C600210064082000B10021009E
:1018120063082000B000220046082000B200220027
:1018220047082000B300220048082000B40022002C
:1018320049082000B50022004A082000B600220014
:101842004B082000B70022004C082000B8002200FC
:101852004D082000B900A6313926200031082100A8
:10186200E400200030082100E300080021006508A0
:1018720086008701403FF100413FF2000B30F30048
:10188200BA30F4000230F5000030F600AA312E2200
:10189200883171087204031D9F2C2100650886009F
:1018A20087010230810741310318810A66088600E8
:1018B2000130870001088400013085000230810771
:1018C200003F2200C600013FC700C801C901CA018A
:1018D200CB01CC01CD01210064082000B100210020
:1018E20063082000B000220046082000B200220057
:1018F20047082000B300220048082000B40022005C
:1019020049082000B50022004A082000B600220043
:101912004B082000B70022004C082000B80022002B
:101922004D082000B900A6313926200031082100D7
:10193200E400200030082100E300080021006508CF
:1019420086008701403FF100413FF200E330F3009F
:10195200B930F4000330F5000030F600AA312E222F
:101962008831710872040319CD2C210065088600A4
:101972008701403FF100413FF200C330F300B9302C
:10198200F4000330F5000030F600AA312E2288312F
:1019920071087204031D372D210065088600870136
:1019A200403F2200A000413FA100023020078400F6
:1019B20021080318210A85000008A2002208C50098
:1019C2002100650886008701033081074131031831
:1019D200810A660886000130870001088400013010
:1019E20085000230810700082200C600C701C80135
:1019F200C901CA01CB01CC01CD012100640820003C
:101A0200B100210063082000B00022004608200037
:101A1200B200220047082000B3002200480820003C
:101A2200B400220049082000B50022004A08200024
:101A3200B60022004B082000B70022004C0820000C
:101A4200B80022004D082000B90022004508A0007D
:101A520020082000BA009E31A7262000310821006C
:101A6200E400200030082100E3000800210065089E
:101A720086008701403FF100413FF200E430F3006D
:101A8200B930F4000230F5000030F600AA312E22FF
:101A92008831710872040319652D210065088600DA
:101AA2008701403FF100413FF200C430F300B930FA
:101AB200F4000230F5000030F600AA312E228831FF
:101AC20071087204031DD02D21006508860087016C
:101AD200403F2200A000413FA100013020078400C6
:101AE20021080318210A85000008A2002208C50067
:101AF2002100650886008701023081074131031801
:101B0200810A6608860001308700010884000130DE
:101B1200850002308107003F2200C600013FC70056
:101B2200C801C901CA01CB01CC01CD012100640861
:101B32002000B100210063082000B0002200460806
:101B42002000B200220047082000B300220048080B
:101B52002000B400220049082000B50022004A08F3
:101B62002000B60022004B082000B70022004C08DB
:101B72002000B80022004D082000B90022004508CC
:101B8200A00020082000BA009E31A72620003108BC
:101B92002100E400200030082100E30008002100B9
:101BA200650886008701403F2200A000413FA10056
:101BB20020088400210885001200783A0319F22DCA
:101BC2002100650886008701403F2200A000413FB6
:101BD200A10020088400210885001200583A031D44
:101BE2005A2E2100650886008701403F2200A0008E
:101BF200413FA10020088400210885000008A200BE
:101C02002208C5002100650886008701013081078E
:101C120041310318810A66088600013087000108F5
:101C220084000130850002308107003F2200C60097
:101C3200013FC700C801C901CA01CB01CC01CD01D6
:101C4200210064082000B100210063082000B000D8
:101C5200220046082000B200220047082000B300FC
:101C6200220048082000B400220049082000B500E4
:101C720022004A082000B60022004B082000B700CC
:101C820022004C082000B80022004D082000B900B4
:101C920022004508A00020082000BA009E31A72695
:101CA200200031082100E400200030082100E30078
:101CB20008002100650886008701403FF100413F8E
:101CC200F2000E30F300BA30F4000230F5000030BA
:101CD200F600AA312E228831710872040319882E67
:101CE2002100650886008701403FF100413FF20074
:101CF200E730F300B930F4000230F5000030F600AE
:101D0200AA312E22883171087204031D0D2F210081
:101D1200650886008701403F2200A000413FA100E4
:101D220001302007840021080318210A85000008D9
:101D3200A2002208C5002100650886008701023042
:101D4200810741310318810A660886000130870045
:101D5200010884000130850004308107003F220021
:101D6200A000013FA100023FA200033FA300200800
:101D7200A4002108A5002208A6002308A700A801A4
:101D8200A901AA01AB012B08CD002A08CC00290821
:101D9200CB002808CA002708C9002608C800250861
:101DA200C7002408C600210064082000B1002100F9
:101DB20063082000B000220046082000B200220082
:101DC20047082000B300220048082000B400220087
:101DD20049082000B50022004A082000B60022006F
:101DE2004B082000B70022004C082000B800220057
:101DF2004D082000B90022004508A000200820005C
:101E0200BA009E31A726200031082100E4002000FC
:101E120030082100E30008002100650886008701E0
:101E2200403FF100413FF2001130F300BA30F400BC
:101E32000230F5000030F600AA312E2288317108F6
:101E4200720403193B2F2100650886008701403F79
:101E5200F100413FF200EA30F300B930F400023001
:101E6200F5000030F600AA312E2288317108720482
:101E7200031DA62F2100650886008701403F22002E
:101E8200A000413FA100013020078400210803186F
:101E9200210A85000008A2002208C5002100650869
:101EA200860087010230810741310318810A6608E2
:101EB200860001308700010884000130850002306D
:101EC2008107003F2200C600013FC700C801C901C7
:101ED200CA01CB01CC01CD01210064082000B10070
:101EE200210063082000B000220046082000B20052
:101EF200220047082000B300220048082000B40056
:101F0200220049082000B50022004A082000B6003D
:101F120022004B082000B70022004C082000B80025
:101F220022004D082000B90022004508A000200828
:101F32002000BA009E31A726200031082100E400CB
:101F4200200030082100E300080021006508860017
:101F52008701403F2200A000413FA10020088400E9
:101F6200210885001200253A031DD02F21006508A3
:101F7200860087010130810741310318810A25302B
:101F8200F1000030F2006408F4006308F3009031BD
:101F92000D2001302100E3000030E40008002100A0
:101FA2006508860087010130810741310318810AE3
:101FB20073292100650886008701403F2200A000A6
:101FC200413FA10020088400210885000008A200EA
:101FD200A3012208F1002308F20021006408F400A2
:101FE2006308F30090310D208831210065088600D6
:0E1FF20087010130810741310318810ACA2F8F
:102002006400800101310130FE020030FF3B7F0895
:102012007E04031900340228730874040319152876
:1020220073087404031D192871088731FF270800FB
:1020320073088600740887004431160001040319EE
:10204200402873088600740887004431403FF50039
:10205200413FF60073088600740887004231403F12
:10206200F700413FF8007808803AF9007608803A94
:102072007902031D3E2875087702031808007308C9
:102082008600740887004231730884007408850052
:10209200403F0007F5000131413F003DF600750861
:1020A200860076088700710881007308860074082C
:1020B200870042310130810741310318810A08004B
:1020C200200047088039C8004808D1004735C800B9
:1020D2004808D800C61B5814580803197E28580A05
:1020E200031D7B280030C7000030C6000030C50049
:1020F2000030C400C617C70186280030C700003070
:10210200C6000030C5000030C40043088039C80052
:102112004808D1064335C8004808D900C21B5914E3
:1021220059080319A228590A031D9F280030C30029
:102132000030C2000030C1000030C000C217C3012D
:10214200AA280030C3000030C2000030C1000030B5
:10215200C0004308420441044004031DC928003062
:10216200C7000030C6000030C5000030C400803017
:10217200C6047F30C7045108C8004808C70447088E
:10218200C3004608C2004508C1004408C000080058
:102192005808031DD5280030C3000030C2000030AB
:1021A200C1000030C00008005808C800C901490831
:1021B200CB0059084802CA00031CCB034A087F3EE1
:1021C200D20000304B3DD3004708D0004608CF0074
:1021D2004508CE004408CD000030C7000030C600DC
:1021E2000030C5000030C4000030D7000030D600F7
:1021F2000030D5000030D400D9011A30590203183A
:102202003A29590803191C290130CD35CE0DCF0DBD
:10221200D00D890B06290130C435C50DC60DC70D79
:10222200890B0D29D71B44140130D435D50DD60D99
:10223200D70D890B162943085002031D2A2942088B
:102242004F02031D2A2941084E02031D2A29400874
:102252004D02031C352957174008CD024108CE3BD9
:102262004208CF3B4308D03B0130C8004808D90799
:10227200FE2850084F044E044D04031D5414C61B7F
:1022820057290130C435C50DC60DC70D890B432929
:10229200D71B44140130D435D50DD60DD70D890B7B
:1022A2004C29FF30D207FF30D33D4029D901D71F37
:1022B2007029FF305405C800FF305505C900FF30B2
:1022C2005605CA007F305705CB004B084A04490423
:1022D2004804031944186E297029D901D90A5908EA
:1022E200031999290130C4070030C53D0030C63DAD
:1022F2000030C73D471C99294408C8004508C90059
:102302004608CA004708CB000130CC00CB37CA0CC4
:10231200C90CC80CCC0B87294B08C7004A08C60059
:102322004908C5004808C4000130D2070030D33D37
:102332005308803AC80080304802031DA229FF30AA
:102342005202031CB129FF302000D2000030D3001A
:102352000030C7000030C6000030C5000030C400A5
:1023620020005308803AC80080304802031DBB2970
:10237200013052020318C9292000D201D3010030D2
:10238200C7000030C6000030C5000030C400D101D3
:1023920020005208C8004808D800581CD229C61785
:1023A200D6297F30C8004808C6055836C8004808F4
:1023B200C700BC28740880392000A0002008A800AB
:1023C2007435A0002008AA00F31B2A142A08031956
:1023D200F8292A0A031DF5290030F4000030F30021
:1023E2000030F2000030F100F317F401002A00304F
:1023F200F4000030F3000030F2000030F100780801
:102402008039A0002008A90029082806031D2817E2
:102412007835A0002008A900F71B29142908031900
:10242200202A290A031D1D2A0030F8000030F70077
:102432000030F6000030F500F717F801282A0030C6
:10244200F8000030F7000030F6000030F5002A08EE
:10245200290203186E2A281F322A8030A000200881
:10246200A8062A08A0002008AB002908A00020081E
:10247200AA002B08A0002008A9007108A0002008CB
:10248200AB007508A0002008F1002B08A00020086E
:10249200F5007208A0002008AB007608A000200812
:1024A200F2002B08A0002008F6007308A000200804
:1024B200AB007708A0002008F3002B08A00020083A
:1024C200F7007408A0002008AB007808A0002008DC
:1024D200F4002B08A0002008F800AB012908A00096
:1024E200A1012108A3002A082002A200031CA303C1
:1024F2002308803AA40080302402031D822A1A3065
:102502002202031CB62A74087304720471040319AC
:102512008C2A01308D2A00302000A0002008AB0058
:102522000030F4000030F3000030F2000030F1001F
:102532002908A0002008AA00BB2A2B1CA62A2B3699
:102542000138A0002008AB00A82A0310AB0C7118B8
:10255200AB170130A000F437F30CF20CF10CA00B16
:10256200AC2A0130A0002008AA07200029082A026C
:10257200031C9E2A281BEC2A2A08031DC92A0030A4
:10258200F4000030F3000030F2000030F1000800E7
:102592007508F1077608F23D7708F33D7808F43DB7
:1025A200741C662B2B1CDB2A2B360138A00020085A
:1025B200AB00DD2A0310AB0C7118AB170130A00081
:1025C200F437F30CF20CF10CA00BE12A0130A0005D
:1025D2002008AA07662B7408803AA0007808803A7F
:1025E2002002031DFE2A77087302031DFE2A7608C5
:1025F2007202031DFE2A750871020318362BFF3082
:10260200A000FF30A100FF30A200FF30A30071083C
:102612007502A4007208763BA5007308773BA600FA
:102622007408783BA7002408A0072508A13D2608C6
:10263200A23D2708A33D2308F4002208F300210845
:10264200F2002008F1008030A0002008A806AB09A3
:10265200AB0A2B08031D3E2B0130F1070030F23D7F
:102662000030F33D0030F43D3E2B7508F102760850
:10267200F23B7708F33B7808F43B74087304720466
:102682007104031D642B2B08031D642B0030F4001E
:102692000030F3000030F2000030F1000800013099
:1026A200F135F20DF30DF40D890B512BAB1B7114A7
:1026B2002B1C5D2B03145E2B0310AB0D2A08031990
:1026C200642B0130AA02F31F502BA901AB1F712BFF
:1026D2002B087F39031971186F2B712BA901A90AD5
:1026E200290803199D2B0130F1070030F23D00301B
:1026F200F33D0030F43D741C9D2B7108A00072085C
:10270200A1007308A2007408A3000130A400A3373B
:10271200A20CA10CA00CA40B882B2308F400220805
:10272200F3002108F2002008F1002A0A03199D2B68
:102732000130A0002008AA072A0A031D2A08031D47
:10274200AD2B0030F4000030F3000030F200003016
:10275200F1002A080319A8012A1CB12BF317B52B83
:102762007F30A0002008F3052A36A0002008F400DC
:10277200A81F0800F41708002100650886008701D9
:10278200403F2200A000413FA10020088400210810
:1027920085001200253A031DD22D2100650886000E
:1027A20087010130810741310318810A2300BE01EC
:1027B200BF01C201C301FF30C000FF30C1002200CF
:1027C200AD01AE01002C23004214210065088600F1
:1027D20087010130810741310318810A002C23004F
:1027E200C214E62B23004215E62B2300C215E62B6A
:1027F20023004216E62B0130AD000030AE0022006D
:102802002D082E04031D2C2C21006508860087014B
:10281200403F2200A000413FA1002008840021087F
:1028220085000008A200A3012308003A03191A2C0C
:10283200FC2B2208203A0319F62B033A0319F92B31
:10284200083A0319F32B063A0319E42B1D3A03192C
:10285200F02BFC2B002C2300421C332CFD30C20534
:10286200FF30C3052100650886008701403F220032
:10287200A000413FA1002008840021088500120029
:102882002A3A031D652C2100650886008701013064
:10289200810741310318810A6608860001308700EA
:1028A200010884000130850002308107003F2300C7
:1028B200BE00013FBF00BF1FA72C4214BE09BF09C3
:1028C200BE0A0319BF0AA72C2100650886008701EA
:1028D200403FF700413FF800AF315F27933178085E
:1028E2002300BF007708BE007F2C21006508860008
:1028F20087010130810741310318810A21006508EF
:1029020086008701403F2200A000413FA10020082D
:102912008400210885000008D03EA200FF30031881
:102922000030A300003023020A30031922020318E8
:102932009C2C01309D2C0030A400A5012408AF007E
:102942002508B0002F083004031D762C21006508ED
:1029520086008701403F2200A000413FA1002008DD
:1029620084002108850012002E3A031D2F2D23001A
:10297200C001C1012100650886008701013081077D
:1029820041310318810A650886008701403F220011
:10299200A000413FA1002008840021088500120008
:1029A2002A3A031DED2C21006508860087010130BB
:1029B200810741310318810A6608860001308700C9
:1029C200010884000130850002308107003F2300A6
:1029D200C000013FC1002F2D21006508860087013C
:1029E200403FF700413FF800AF315F27933178084D
:1029F2002300C1007708C000072D2100650886006A
:102A020087010130810741310318810A21006508DD
:102A120086008701403F2200A000413FA10020081C
:102A22008400210885000008D03EA200FF30031870
:102A32000030A300003023020A30031922020318D7
:102A4200242D0130252D0030A400A5012408B10059
:102A52002508B20031083204031DFE2C210065084E
:102A620086008701403F2200A000413FA1002008CC
:102A72008400210885000008A200A3012208F700B3
:102A82002308F800B631D226933177082200A40039
:102A92002408B500350803198F2D2100650886002A
:102AA2008701403F2200A000413FA10001302007E2
:102AB200840021080318210A85000008A200A3014E
:102AC2002208F7002308F800B631D226933177089E
:102AD2002200A4002408B600360803198F2D210015
:102AE200650886008701403F2200A000413FA10007
:102AF20002302007840021080318210A85000008FB
:102B0200A200A3012208F7002308F800B631D2265A
:102B1200933177082200A4002408B7002100650839
:102B220086008701403F2200A000413FA10020080B
:102B32008400210885001200633AAD31031DBE2DC9
:102B420021006508860087010130810741310318A1
:102B5200810A66088600013087000108840001307E
:102B620085000230810700082200A0002008C5006D
:102B7200210064082000B100210063082000B00099
:102B820022004508A00020082000B200B7316427C7
:102B9200200031082100E400200030082100E30079
:102BA20008008F31DA2F200029088039AE002E0864
:102BB200B3002935AE002E08B900A81B3914390814
:102BC2000319F02D390A031DEE2D0030A900003043
:102BD200A8000030A7000030A600A817F82D00308A
:102BE200A9000030A8000030A7000030A6002D0880
:102BF2008039AE002E08B3062D35AE002E08B8007F
:102C0200AC1B381438080319132E380A031D112E71
:102C12000030AD000030AC000030AB000030AA0044
:102C2200AC171B2E0030AD000030AC000030AB0002
:102C32000030AA003808031D3908031D292E003070
:102C4200A9000030A8000030A7000030A60008004C
:102C52002608AE002E08F1002C08B6313226953136
:102C620072082000BF007108BE003E08AE00AF012E
:102C7200B001B1013108B7003008B6002F08B50025
:102C82002E08B4003F08AE00AF01B001B101310817
:102C9200BD003008BC002F08BB002E08BA00270870
:102CA200AE002E08F1002B08B6313226953172089B
:102CB2002000BF007108BE003E08AE00AF01B001A7
:102CC200B1012E08B4072F08B53D3008B63D3108D2
:102CD200B73D3F08AE00AF01B001B1012E08BA07FF
:102CE2002F08BB3D3008BC3D3108BD3D2808AE0071
:102CF2002E08F1002A08B6313226953172082000DA
:102D0200BF007108BE003E08AE00AF01B001B101C4
:102D12002E08B4072F08B53D3008B63D3108B73D3F
:102D22003F08AE00AF01B001B1012E08BA072F086B
:102D3200BB3D3008BC3D3108BD3D0830B435B50D52
:102D4200B60DB70D890B9F2E2708AE002E08F10095
:102D52002A08B6313226953172082000BF00710868
:102D6200BE003E08B4073F08B53D0030B63DB73D52
:102D72002608AE002E08F1002B08B6313226953116
:102D820072082000BF007108BE003E08B4073F0869
:102D9200B53D0030B63DB73D0830B435B50DB60D82
:102DA200B70D890BCE2E2608AE002E08F1002A0898
:102DB200B6313226953172082000BF007108BE007C
:102DC2003E08B4073F08B53D0030B63DB73D270881
:102DD200AE002E08F1002C08B63132269531720869
:102DE2002000BF007108BE003E08BA073F08BB3D85
:102DF2000030BC3DBD3D2808AE002E08F1002B0876
:102E0200B6313226953172082000BF007108BE002B
:102E12003E08BA073F08BB3D0030BC3DBD3D280817
:102E2200AE002E08F1002C08B63132269531720818
:102E32002000BF007108BE003E08AE003F08AF0090
:102E4200B001B1010830AE35AF0DB00DB10D890B37
:102E5200242F2E08BA072F08BB3D3008BC3D31088D
:102E6200BD3D3408AE003508AF003608B000370863
:102E7200B1001830B136B00CAF0CAE0C890B3B2F41
:102E82002E08BA072F08BB3D3008BC3D3108BD3DB6
:102E92000830B435B50DB60DB70D890B4A2F390878
:102EA2003807AE00AF01AF0D2E08823EBE00FF30E4
:102EB2002F3DBF00BC1B722F0130BA35BB0DBC0DBC
:102EC200BD0D890B5E2FB71B3A140130B435B50D19
:102ED200B60DB70D890B672FFF30BE07FF30BF3D20
:102EE2005B2FB801B71F8B2FFF303405AE00FF30C8
:102EF2003505AF00FF303605B0007F303705B10031
:102F0200310830042F042E0403193A18892F8B2F0D
:102F1200B801B80A38080319B42F0130BA070030D3
:102F2200BB3D0030BC3D0030BD3D3D1CB42F3A08D6
:102F3200AE003B08AF003C08B0003D08B1000130D4
:102F4200B200B137B00CAF0CAE0CB20BA22F3108ED
:102F5200BD003008BC002F08BB002E08BA000130AB
:102F6200BE070030BF3D3F08803AAE0080302E02DF
:102F7200031DBD2FFF303E02031CC92F7F302000EE
:102F8200BD008030BC000030BB000030BA00F32F1F
:102F920020003F08803AAE0080302E02031DD32F5E
:102FA20001303E020318E02F00302000BD00003047
:102FB200BC000030BB000030BA00B301F32F200088
:102FC2003E08AE002E08B900FF30BA05FF30BB053F
:102FD2007F30BC050030BD053918BC173936AE004C
:102FE2002E08BD003308AE002E08BD043D08A9001E
:0E2FF2003C08A8003B08A7003A08A60008000B
:10300200B431E024080021000D1123000D1121002C
:103012008D1523008D110E128E1221000E168E16A2
:103022000C128C12101055303C008F00AA308F0009
:103032000F103D002408E0391138A4003C0021089B
:10304200E0391438A1002008E0391538A0003D000D
:103052002508E0391038A5001A08E03914389A001A
:103062003C002408E0390B38A40055308F00AA3008
:103072008F000F1408002300C11B4328FD30C20536
:10308200FF30C3054108803A2000BA0080303A027E
:10309200031D4E2801302300400203185628013038
:1030A2002000C2000030C3005E2823004108200037
:1030B200C300230040082000C20023003F08200074
:1030C200C70023003E082000C6003208C8003308AB
:1030D200C9003408CA003508CB003608CC003708CE
:1030E200CD003808CE003908CF004F30D000003074
:1030F200D1002400EF012000C401C501F328200003
:10310200480849044A044B044C044D044E044F043D
:10311200031DA5284308803ABA0080303A02031DF5
:103122009428013042020318A52820004708803A5B
:10313200BA0080303A02031DA02801304602031C67
:10314200FE282300C21CFE28FF302000D007FF30DB
:10315200D13D07304805C40000304905C500440888
:10316200303EBA005008203E8600023087003A08FE
:103172008100FF30C207FF30C33DFF30C607FF307A
:10318200C73D4830860000308700403FBA00413FCB
:10319200BB00423FBC00433FBD00443FBE00453F31
:1031A200BF00463FC000473FC10003302000C13688
:1031B200C00CBF0CBE0CBD0CBC0CBB0CBA0C890BFA
:1031C200D72820004108CF004008CE003F08CD009C
:1031D2003E08CC003D08CB003C08CA003B08C900B1
:1031E2003A08C8005108803ABA0080303A02031DFA
:1031F200FC2801305002031880282300421E1729A0
:1032020020004408450403191729FF30D007FF3076
:10321200D13D3030BA005008203E8600023087008F
:103222003A088100FF30C607FF30C73D2000310851
:10323200A7003008A6005008203EBA003A08A800AD
:103242004708AA004608A900A9318C2120002708B6
:10325200B1002608B0000800F301203086000030DB
:103262008700473FF100F11F57292000A009A1095B
:10327200A209A309A409A509A609A709A00A031D71
:103282005529A10A031D5529A20A031D5529A30A7E
:10329200031D5529A40A031D5529A50A031D5529F5
:1032A200A60A031D5529A70AF301F30A283086004E
:1032B20000308700473FF100F11F82292000A80952
:1032C200A909AA09AB09AC09AD09AE09AF09A80A57
:1032D200031D7E29A90A031D7E29AA0A031D7E2930
:1032E200AB0A031D7E29AC0A031D7E29AD0A031D0C
:1032F2007E29AE0A031D7E29AF0A0130F100710852
:10330200F30674308600003087000830F100003088
:103312001E00F10B89292000200821042204230425
:1033220024042504260427040319ED29F201F20AD4
:10333200A71BA829A035A10DA20DA30DA40DA50DB3
:10334200A60DA70D0130F1007108F2079929F43595
:10335200F50DF60DF70DF80DF90DFA0DFB0D270819
:103362002F02031DCE2926082E02031DCE29250871
:103372002D02031DCE2924082C02031DCE29230869
:103382002B02031DCE2922082A02031DCE29210861
:103392002902031DCE2920082802031CE129200846
:1033A200A8022108A93B2208AA3B2308AB3B240818
:1033B200AC3B2508AD3B2608AE3B2708AF3B741457
:1033C200A736A60CA50CA40CA30CA20CA10CA00C55
:1033D2000130F202031DA829730803190E2AF40909
:1033E200F509F609F709F809F909FA09FB09F40AD6
:1033F200031D0E2AF50A031D0E2AF60A031D0E2AC4
:10340200F70A031D0E2AF80A031D0E2AF90A031DE4
:103412000E2AFA0A031D0E2AFB0A74082000A000D5
:103422007508A1007608A2007708A3007808A40016
:103432007908A5007A08A6007B08A70008002100E9
:10344200650886008701403F2200A000413FA1009D
:1034520020088400210885001200643A0319422AD8
:103462002100650886008701403F2200A000413FFD
:10347200A10020088400210885001200693A031D7A
:103482009A2A2100650886008701013081074131AF
:103492000318810A6608860001308700010884004B
:1034A2000130850002308107003F2200A000013F69
:1034B200A1002008BC002108BD00890D893B8909B3
:1034C200BE00BF00C000C100C200C30021006408EA
:1034D2002000B100210063082000B00022003C0857
:1034E2002000B20022003D082000B30022003E0866
:1034F2002000B40022003F082000B500220040084E
:103502002000B600220041082000B7002200420835
:103512002000B800220043082000B9009D31542544
:10352200200031082100E400200030082100E300DF
:1035320008002100650886008701403FF100413FF5
:10354200F200ED30F300B930F4000230F500003043
:10355200F600AA312E229A31710872040319C82A80
:103562002100650886008701403FF100413FF200DB
:10357200F630F300B930F4000230F5000030F60006
:10358200AA312E229A3171087204031D262B2100C2
:103592006508860087010230810741310318810ADC
:1035A200660886000130870001088400013085002A
:1035B20004308107003F2200A000013FA100023F2A
:1035C200A200033FA3002008BC002108BD0022087E
:1035D200BE002308BF000030BF1BFF30C000C10087
:1035E200C200C300210064082000B100210063086A
:1035F2002000B00022003C082000B20022003D085A
:103602002000B30022003E082000B40022003F0840
:103612002000B500220040082000B6002200410828
:103622002000B700220042082000B8002200430810
:103632002000B9009D315425200031082100E4000A
:10364200200030082100E3000800A331AF2B4430F2
:103652002100A3007A30A2000030A1000030A000B7
:10366200F0302300D0052100A801A901230035086C
:103672002000A900230034082000A80023003308FA
:103682002000A700230032082000A6006908F400E9
:103692006808F3006708F2006608F1000130AE31F5
:1036A200C9269B3174082000AD007308AC00720873
:1036B200AB007108AA009531D4259B31200029085E
:1036C2002100A700200028082100A60020002708CA
:1036D2002100A500200026082100A400443020007B
:1036E200C3007A30C2000030C1000030C0002100A7
:1036F20023082000A900210022082000A8002100A0
:1037020021082000A700210020082000A600210097
:1037120027082000AD00210026082000AC0021006F
:1037220025082000AB00210024082000AA009531C2
:10373200D4259B3120002908C7002808C600270885
:10374200C5002608C400903161209B312000430847
:10375200DD004208DC004108DB004008DA002100FD
:1037620029088500280884008435850D9330840754
:10377200B930853D003F2000EC00013FED006C08B0
:10378200F1006D08F200890D893B8909F300F4000C
:103792000130AE31C9269B3174082000E100730864
:1037A200E0007208DF007108DE00AB31C7239B31F5
:1037B200031CE32B2300500821002806F0392806B9
:1037C2002300D00001302100A8070030A93D0030BD
:1037D20029020F3003192802031C372B8F302300D4
:1037E200D0052100AA01AB012B0885002A0884001C
:1037F2008435850DB3308407B930853D003F200004
:10380200EC00013FED006B08803AEE006D08803A53
:103812006E02031D0E2C6C086A02031C1D2C210073
:103822002A082000EC00EC0E2300500820006C0651
:103832008F396C062300D00001302100AA07003026
:10384200AB3D00302B02073003192A02031CF52B73
:103852001830F5000030F6000730F7000030F800AD
:10386200230050082000EC00ED016C08F9006D08FF
:10387200FA00B6311426080044302100A3007A3041
:10388200A2000030A1000030A000F8302300D105D2
:103892002100A801A901230035082000A900230066
:1038A20034082000A800230033082000A7002300CA
:1038B20032082000A6006908F4006808F3006708CF
:1038C200F2006608F1000130AE31C9269C3174085D
:1038D2002000AD007308AC007208AB007108AA00AA
:1038E2009531D4259C31200029082100A700200011
:1038F20028082100A600200027082100A50020009A
:1039020026082100A40044302000C3007A30C200FF
:103912000030C1000030C000210023082000A900AF
:10392200210022082000A800210021082000A70071
:10393200210020082000A600210027082000AD0059
:10394200210026082000AC00210025082000AB0041
:10395200210024082000AA009531D4259C312000A2
:103962002908C7002808C6002708C5002608C40081
:10397200903161209C3120004308DD004208DC00C8
:103982004108DB004008DA002100290885002808E8
:1039920084008435850D93308407B930853D003F1E
:1039A2002000EC00013FED006C08F1006D08F20010
:1039B200890D893B8909F300F4000130AE31C92633
:1039C2009C3174082000E1007308E0007208DF00F7
:1039D2007108DE00AB31C7239C31031CF82C230095
:1039E200510821002806F83928062300D1000130A9
:1039F2002100A8070030A93D003029020730031931
:103A02002802031C4C2CE7302300D1052100AA0117
:103A1200AB012B0885002A0884008435850DB3305C
:103A22008407B930853D003F2000EC00013FED00E6
:103A32006B08803AEE006D08803A6E02031D232D5A
:103A42006C086A02031C342D21002A082000EC00B5
:103A5200EC0DEC0DEC0D2300510820006C06E7394B
:103A62006C062300D10001302100AA070030AB3DD3
:103A720000302B02073003192A02031C0A2D1830CA
:103A8200F5000030F6000630F7000030F8002300A1
:103A920051082000EC00ED016C08F9006D08FA00F5
:103AA200B6311426080020003208C5003308C600CB
:103AB2003408C7003508C8003608C9003708CA00EC
:103AC2003808CB003908CC0045308600003087002A
:103AD200473FBA00BA1F6F2D0130702D0030200011
:103AE200BB00BC013B08C3003C08C40043084404BB
:103AF2000319992DC509C609C709C809C909CA09FF
:103B0200CB09CC09C50A031D992DC60A031D992D9F
:103B1200C70A031D992DC80A031D992DC90A031D41
:103B2200992DCA0A031D992DCB0A031D992DCC0A82
:103B32002300C11BA02DFD30C205FF30C305410883
:103B4200803A2000BA0080303A02031DAB2D0130CA
:103B5200230040020318B32D01302000BF000030C3
:103B6200C000BB2D230041082000C00023004008F4
:103B72002000BF0023003F082000C20023003E08AF
:103B82002000C10043084404031DCA2D2300421D26
:103B9200CF2DFF302000C107FF30C23D4F30200043
:103BA200CD000030CE002400EF01652E2000450834
:103BB20046044704480449044A044B044C04031DC8
:103BC200FC2D4008803ABA0080303A02031DEB2DEA
:103BD20001303F020318FC2D20004208803ABA004F
:103BE20080303A02031DF72D01304102031C712E71
:103BF2002300C21C712EFF302000CD07FF30CE3DC6
:103C02000A30A000A101A201A301A401A501A601FD
:103C1200A7014508A8004608A9004708AA004808C5
:103C2200AB004908AC004A08AD004B08AE004C0896
:103C3200AF00A5315D259D3120002108F500200847
:103C4200F400B5317B259D317408303E2000BA0066
:103C52004D08203E8600023087003A088100FF307E
:103C6200BF07FF30C03DFF30C107FF30C23D0A3001
:103C7200A000A101A201A301A401A501A601A7011F
:103C82004508A8004608A9004708AA004808AB0052
:103C92004908AC004A08AD004B08AE004C08AF0022
:103CA20099312D219D3120002008C5002108C60030
:103CB2002208C7002308C8002408C9002508CA0032
:103CC2002608CB002708CC0020004E08803ABA0014
:103CD20080303A02031D6F2E01304D020318D72D9A
:103CE200200043084404031D792E2300421D912E17
:103CF200FF302000CD07FF30CE3D43084404031DB2
:103D0200842E2B30852E2D30BD000030BE003D08A4
:103D1200BA004D08203E8600023087003A08810032
:103D220020003108A7003008A6004D08203EBA0046
:103D32003A08A8004208AA004108A900A9318C212A
:103D420020002708B1002608B00008002300C11B8C
:103D5200AE2EFD30C205FF30C3054108803A200077
:103D6200BB0080303B02031DB92E0130230040020C
:103D72000318C12E01302000C7000030C800C92E30
:103D8200230041082000C800230040082000C7008B
:103D920023003F082000CA0023003E082000C9007B
:103DA2002300421ED92EFE302000C907FF30CA3D33
:103DB20020003208CB003308CC003408CD0035088F
:103DC200CE003608CF003708D0003808D1003908B5
:103DD200D2004F30D3000030D4002400EF019B2FDB
:103DE200FF302000D307FF30D43D0F304B05D50004
:103DF20000304C05D6005608803ABB0080303B02AA
:103E0200031D052F0A305502031C0B2F20005508F5
:103E1200573E0E2F20005508303ED5000030563D4B
:103E2200D6003A08BF3EBB00FF3003180030BC008A
:103E320000303C021A3003193B020318222F0130D2
:103E4200232F0030BD00BE013D08C3003E08C40060
:103E5200430844040319592F20305504BB00003095
:103E62005604BC003B089F3EBD00FF303C3DBE00F7
:103E720000303E021A3003193D020318422F01306E
:103E8200432F0030BF00C0013F08C5004008C600F4
:103E9200450846040319592F5608F8005508F7003B
:103EA200B631F4269E3178082000D6007708D50076
:103EB2005508BB005308203E8600023087003B08AD
:103EC2008100FF30C707FF30C83DFF30C907FF3010
:103ED200CA3D4B30860000308700403FBB00413F67
:103EE200BC00423FBD00433FBE00443FBF00453FD0
:103EF200C000463FC100473FC20004302000C23626
:103F0200C10CC00CBF0CBE0CBD0CBC0CBB0C890B95
:103F12007F2F20004208D2004108D1004008D00083
:103F22003F08CF003E08CE003D08CD003C08CC0043
:103F32003B08CB0020005408803ABB0080303B0293
:103F4200031DA52F02305302031CCC2F20004B0867
:103F52004C044D044E044F04500451045204031DFA
:103F6200F12E4808803ABB0080303B02031DBB2F74
:103F7200013047020318F12E20004A08803ABB00A4
:103F820080303B02031DC72F01304902031CCC2F96
:103F92002300C218F12E2300421EEA2FFF30200018
:103FA200D307FF30D43D3A08BB005308203E8600B9
:103FB200023087003B088100FF30D307FF30D43D39
:103FC2003030BB005308203E8600023087003B0899
:103FD200810020003108A7003008A6005308203EC7
:103FE200BB003B08A8004A08AA004908A900A93159
:0E3FF2008C2120002708B1002608B00008002E
:1040020065302200E9006908EC006008CF005F0813
:10401200CE006208D1006108D0006408D3006308B2
:10402200D2006C30E9006908D400AC31BF2408002A
:104032003530F1000130F200F330F300B930F40012
:104042000230F5000030F600AA312E22A0317108AC
:104052007204031DBB282100650886008701403FCA
:104062002200A000413FA100013020078400210866
:104072000318210A85000008A2002208C5002100B9
:10408200650886008701403F2200A000413FA10051
:1040920020088400210885000008BF3EA200FF30EE
:1040A20003180030A300003023021A300319220241
:1040B20003185D2801305E280030A400A501240801
:1040C200B3002508B4003308340403197C28210006
:1040D20066088600013087000108840001308500EF
:1040E20004308107003F2200B800013FB900023FBF
:1040F200BA00033F8F28210066088600013087003E
:10410200010884000130850004308107003F22004D
:10411200B800013FB900023FBA00033FBB002100D3
:104122006508860087010230810741310318810A40
:104132006408A1006308A00022003B082100A5003A
:1041420022003A082100A400220039082100A3001D
:10415200220038082100A20022004508A000200801
:104162002100A6008031582021002108E400200807
:10417200E3000800A231DE2A20002608AA00270850
:10418200AB002808AC002908AD000630AA35AB0DFB
:10419200AC0DAD0D890BC7282D08F4002C08F300D7
:1041A2002B08F2002A08F1002608AE002708AF000B
:1041B2002808B0002908B1000630AE35AF0DB00DA9
:1041C200B10D890BDE280030B2002430B300F43088
:1041D200B4000030B5002E08B2022F08B33B3008FD
:1041E200B43B3108B53B3508F8003408F700330812
:1041F200F6003208F500AD313C25A0317208FB0013
:104202007108FA0001307B02003003197A02031CA4
:10421200522920002608AA002708AB002808AC0073
:104222002908AD000430AA35AB0DAC0DAD0D890BDC
:1042320014292D08F4002C08F3002B08F2002A0898
:10424200F1002608AE002708AF002808B0002908B0
:10425200B1000430AE35AF0DB00DB10D890B2B2975
:104262000030B2002430B300F430B4000030B500A6
:104272002E08B2022F08B33B3008B43B3108B53BDD
:104282003508F8003408F7003308F6003208F50064
:10429200AD313C25A0317208FB007108FA00230001
:1042A2001E1501307B02003003197A020318080040
:1042B2007A0823009B001E129D1721008E170E17ED
:1042C20023001D169E1608002000AB01AC01AD01B3
:1042D200AE0120002D35A03E86000130870000305F
:1042E200C03FC13F0130AD070030AE3D2E08803ADD
:1042F200A20080302202031D802904302D02031CFB
:104302006A291830F5000030F6000B30F700003053
:10431200F8001930F9000030FA00B6311426A13144
:104322001830F5000030F6000B30F7000030F800CE
:10433200B731CA27A131193075067604031D132A35
:1043420001302000AB000030AC001830F500003026
:10435200F6000430F7000030F8001830F9000030A1
:10436200FA00B6311426A1311830F5000030F600FB
:104372000530F7000030F8004030F9000030FA0054
:10438200B6311426A1311830F5000030F600513054
:10439200F7000030F800B731CA27A13176082300B0
:1043A200CD007508CC001830F5000030F600593009
:1043B200F7000030F800B731CA27A1317508200094
:1043C200A2007608A3000530A400230DA30CA20CC2
:1043D200A40BE62907302205A50000302305A6001C
:1043E2001830F5000030F6005030F7000030F800C9
:1043F200B731CA270C3075052000A70000307605BA
:10440200A800A735A80D25082704A9002608280416
:10441200AA0029086D3E2300CE00013020002A3D6B
:104422002300CF0020002C08A1002B08A0000800C8
:10443200D7308600013087002330840000308500A9
:104442000730FA0016001A00FA0B232A200022086D
:10445200AE000130AF002E082F04031D342A233092
:10446200AE000030AF002F08F2002E08F100B53187
:104472006425A23172082000B3007108B200230043
:1044820041082000B100230040082000B000B11B09
:104492005B2A3108803AFA003308803A7A02031D17
:1044A200542A3208300203185B2A20003108B30074
:1044B2003008B20020003308B1003208B0002300F7
:1044C2003F082000AD0023003E082000AC0023007E
:1044D200421C7D2A8A2A2030F1000030F20020009E
:1044E2002108F4002008F30090310D20A2310130A0
:1044F2002000B2070030B33D20003308803AFA00B2
:104502002D08803A7A02031D882A2C083202031CE5
:104512006C2A2000AA01AB012B08803AFA0031086C
:10452200803A7A02031D972A30082A020318B62A13
:1045320020002E0886002F0887000108FA00FB01E0
:104542007A08F1007B08F2002108F4002008F30049
:1045520090310D20A23101302000AE070030AF3D76
:104562000130AA070030AB3D8D2A23004218CB2A26
:10457200D82A2030F1000030F20020002108F40097
:104582002008F30090310D20A23101302000B20743
:104592000030B33D20003308803AFA002D08803AFB
:1045A2007A02031DD62A2C083202031CBA2A2000E2
:1045B2003308A1003208A000080021006508860027
:1045C2008701403FF100413FF200DB30F300B93098
:1045D200F4000330F5000030F600AA312E22A23199
:1045E20071087204031D452B2100650886008701AE
:1045F2000330810741310318810A660886000130C1
:10460200870001088400013085000230810700081C
:104612002200C600C701C801C901CA01CB01CC01F1
:10462200CD01210064082000B100210063082000B0
:10463200B000220046082000B200220047082000F5
:10464200B300220048082000B400220049082000DC
:10465200B50022004A082000B60022004B082000C4
:10466200B70022004C082000B80022004D082000AC
:10467200B90098313C20200031082100E4002000DC
:1046820030082100E3000800210065088600870148
:10469200403FF100413FF200DC30F300B930F4005A
:1046A2000230F5000030F600AA312E22A231710844
:1046B2007204031DAD2B21006508860087010230BC
:1046C200810741310318810A66088600013087009C
:1046D200010884000130850002308107003F22007A
:1046E200C600013FC700C801C901CA01CB01CC0104
:1046F200CD01210064082000B100210063082000E0
:10470200B000220046082000B20022004708200024
:10471200B300220048082000B4002200490820000B
:10472200B50022004A082000B60022004B082000F3
:10473200B70022004C082000B80022004D082000DB
:10474200B90098313C20200031082100E40020000B
:1047520030082100E3000800A7311A2F2100650864
:1047620086008701403FF100413FF200F030F30044
:10477200B930F4000230F5000030F600AA312E22E2
:10478200A331710872040319DD2B2100650886002C
:104792008701403FF100413FF200F930F300B930A8
:1047A200F4000230F5000030F600AA312E22A331C7
:1047B20071087204031D2E2C2100650886008701F2
:1047C2000230810741310318810A660886000130F0
:1047D2008700010884000130850002308107003F14
:1047E2002200BC00013FBD00BE01BF01C001C101EA
:1047F200C201C301210064082000B1002100630846
:104802002000B00022003C082000B20022003D0837
:104812002000B30022003E082000B40022003F081E
:104822002000B500220040082000B6002200410806
:104832002000B700220042082000B80022004308EE
:104842002000B9009D315425200031082100E400E8
:10485200200030082100E3000800663022003506FF
:10486200031D832C2100650886008701403F22003A
:10487200A000413FA1002008840021088500000813
:10488200A2002208C50021006508860087010130C8
:10489200810741310318810A6608860001308700CA
:1048A200010884000130850004308107003F2200A6
:1048B200B800013FB900023FBA00033FBB0021002C
:1048C2006408A1006308A00022003B082100A500A3
:1048D20022003A082100A400220039082100A30086
:1048E200220038082100A20022004508A00020086A
:1048F2002100A6008031582021002108E400200870
:10490200E3000800A031192823002D082000ED0043
:1049120023002C082000EC0023002B082000EB00D1
:1049220023002A082000EA005D08ED005C08EC0084
:104932005B08EB005A08EA006A08DE006B08DF0039
:104942006C08E0006D08E1001730E136E00CDF0C86
:10495200DE0C890BA62CFF305E05E20000305F05FD
:10496200E3006208813EE800FF30633DE900690828
:10497200803ADE0080305E02031DC12C17306802CF
:10498200031808002000E91B1E2DFF30DE00FF3057
:10499200DF007F30E0000030E100680AD42CE1370C
:1049A200E00CDF0CDE0C890BD02C6108E7006008FC
:1049B200E6005F08E5005E08E4006A086405DE00C0
:1049C2006B086505DF006C086605E0006D08670589
:1049D200E100610860045F045E04031908006A08CC
:1049E200DE006B08DF006C08E0006D08E1001F309C
:1049F200E136E00CDF0CDE0C890BF92C6108600457
:104A02005F045E0403190D2D6408EA076508EB3D97
:104A12006608EC3D6708ED3D6409DE006509DF00CC
:104A22006609E0006709E1005E08EA055F08EB0538
:104A32006008EC056108ED05542D6A08DE006B087C
:104A4200DF006C08E0006D08E1001F30E136E00C89
:104A5200DF0CDE0C890B272D610860045F045E0405
:104A6200031D372D0030ED0000304F2D6A08DE00A7
:104A72006B08DF006C08E0006D08E1000130DE35F4
:104A8200DF0DE00DE10D890B402D610860045F042C
:104A92005E040319542DBF30ED008030EC0000306D
:104AA200EB000030EA006D08DD006C08DC006B08EA
:104AB200DB006A08DA000800F301283086000030C3
:104AC2008700473FF100F11F872D2000A809A9099F
:104AD200AA09AB09AC09AD09AE09AF09A80A031DC1
:104AE200852DA90A031D852DAA0A031D852DAB0A52
:104AF200031D852DAC0A031D852DAD0A031D852DD1
:104B0200AE0A031D852DAF0AF301F30A2030860099
:104B120000308700473FF100F11FAE2D2000A009B1
:104B2200A109A209A309A409A509A609A709A00A1E
:104B3200031DAE2DA10A031DAE2DA20A031DAE2D2B
:104B4200A30A031DAE2DA40A031DAE2DA50A031D43
:104B5200AE2DA60A031DAE2DA70A200020082104AF
:104B62002204230424042504260427040319062E00
:104B7200F201F20AA71BCA2DA035A10DA20DA30DA9
:104B8200A40DA50DA60DA70D0130F1007108F207C5
:104B9200BB2D27082F02031DE82D26082E02031D18
:104BA200E82D25082D02031DE82D24082C02031DE3
:104BB200E82D23082B02031DE82D22082A02031DDB
:104BC200E82D21082902031DE82D20082802031CD4
:104BD200FA2D2008A8022108A93B2208AA3B230893
:104BE200AB3B2408AC3B2508AD3B2608AE3B27086F
:104BF200AF3BA736A60CA50CA40CA30CA20CA10CCF
:104C0200A00C0130F202031DCA2D73080319272ECE
:104C1200A809A909AA09AB09AC09AD09AE09AF09EE
:104C2200A80A031D272EA90A031D272EAA0A031D5F
:104C3200272EAB0A031D272EAC0A031D272EAD0A11
:104C4200031D272EAE0A031D272EAF0A20002808B7
:104C5200A0002908A1002A08A2002B08A3002C0802
:104C6200A4002D08A5002E08A6002F08A700080002
:104C72002300C11B402EFD30C205FF30C305410891
:104C8200803A2000BA0080303A02031D4B2E0130D8
:104C9200230040020318532E01302000BB000030D5
:104CA200BC005B2E230041082000BC00230040080A
:104CB2002000BB0023003F082000BE0023003E0866
:104CC2002000BD003208BF003308C0003408C10014
:104CD2003508C2003608C3003708C4003808C500CA
:104CE2003908C6004F30C7000030C8002400EF0169
:104CF200FF2E3F0840044104420443044404450497
:104D02004604031D9E2E3C08803ABA0080303A02C7
:104D1200031D8D2E01303B0203189E2E20003E08FB
:104D2200803ABA0080303A02031D992E01303D02CA
:104D3200031C042F2300C21C042FFF302000C707CE
:104D4200FF30C83D0A30A000A101A201A301A401C5
:104D5200A501A601A7013F08A8004008A900410833
:104D6200AA004208AB004308AC004408AD00450865
:104D7200AE004608AF00AA31E622A6312000200884
:104D8200303EBA004708203E8600023087003A08CB
:104D92008100FF30BB07FF30BC3DFF30BD07FF3055
:104DA200BE3D0A30A000A101A201A301A401A501F8
:104DB200A601A7013F08A8004008A9004108AA00CF
:104DC2004208AB004308AC004408AD004508AE0001
:104DD2004608AF00AC314324A63120002008BF00B2
:104DE2002108C0002208C1002308C2002408C30011
:104DF2002508C4002608C5002708C6002000470869
:104E02004804031D7A2E20003108A7003008A600AE
:104E12004708203EBA003A08A8003E08AA003D080A
:104E2200A900A9318C2120002708B1002608B00072
:104E320008002100650886008701403F2200A0008B
:104E4200413FA100200884002108850012006F3A2A
:104E5200031D7C2F21006508860087010130810730
:104E620041310318810A6608860001308700010873
:104E720084000130850002308107003F2200C60015
:104E8200013FC700C801C901CA01CB01CC01CD0154
:104E9200210064082000B100210063082000B00056
:104EA200220046082000B200220047082000B3007A
:104EB200220048082000B400220049082000B50062
:104EC20022004A082000B60022004B082000B7004A
:104ED20022004C082000B80022004D082000B90032
:104EE20098313C20200031082100E40020003008E5
:104EF2002100E30008002100650886008701403F89
:104F0200F100413FF2000230F300BA30F400023007
:104F1200F5000030F600AA312E22A7317108720482
:104F2200031DFE2F210065088600870102308107DC
:104F320041310318810A66088600013087000108A2
:104F420084000130850004308107003F2200A00068
:104F5200013FA100023FA200033FA3002008A400DA
:104F62002108A5002208A6002308A700A801A9017C
:104F7200AA01AB012B08CD002A08CC002908CB00DE
:104F82002808CA002708C9002608C8002508C70043
:104F92002408C600210064082000B1002100630833
:104FA2002000B000220046082000B200220047087C
:104FB2002000B300220048082000B4002200490863
:104FC2002000B50022004A082000B60022004B084B
:104FD2002000B70022004C082000B80022004D0833
:104FE2002000B90098313C20200031082100E40063
:104FF200200030082100E300080088313F28F50135
:10500200F6017208750784007308763D8500120068
:10501200031908007208750784007308763D85003D
:105022000008B431C824A8310130F5070030F63D3C
:10503200022820002108F2002008F1000A30F300C3
:105042000030F400B531C025A83172082300C90030
:105052007108C80020002308F2002208F1000A307B
:10506200F3000030F400B531C025A83172082300E6
:10507200C5007108C40020002508F2002408F100D0
:105082000A30F3000030F400B531C025A8317208AF
:105092002300CB007108CA0020002708F20026086E
:1050A200F1000A30F3000030F400B531C025720877
:1050B2002300C7007108C6000800F701F41F682822
:1050C200F309F409F30A0319F40AF701F70AF21FC4
:1050D2006F28F109F209F10A0319F20A7108720440
:1050E20003199628F601F60AF21B81280130F135E0
:1050F200F20D890B78280130F5007508F60775283E
:1051020072087402031D872871087302031C8D281C
:105112007108F3027208F43B0130F236F10C890B8C
:105122008E280130F602031D8128770803199E2874
:10513200F309F409F30A0319F40A7408F200730874
:10514200F1000800003071052000A0000030720557
:10515200A10080307305A2007F307405A3002308EC
:10516200220421042004031DBE280030F400003074
:10517200F3000030F2000030F10000307505A000AD
:1051820000307605A10080307705A2007F307805D7
:10519200A3002308220421042004031DD828003080
:1051A200F8000030F7000030F6000030F500780813
:1051B2007406031DE62877087306031DE6287608A1
:1051C2007206031DE628750871060319EA28031002
:1051D200080003140800230050080F392000E700DC
:1051E200E801E735E80D633067078400B930683DB0
:1051F2008500003FE900013FEA006908F1006A0802
:10520200F200890D893B8909F300F4000130AE31C7
:10521200C926A83174082000C7007308C6007208A6
:10522200C5007108C400230035082000C300230014
:1052320034082000C200230033082000C1002300EC
:1052420032082000C00090316120A83120004308BC
:10525200DD004208DC004108DB004008DA00AA3128
:10526200802220005D08E6005C08E5005B08E4009F
:105272005A08E30008002300510807392000E7001C
:10528200E801E735E80D933067078400B930683DDF
:105292008500003FE900013FEA006908F1006A0861
:1052A200F200890D893B8909F300F4000130AE3127
:1052B200C926A93174082000C7007308C600720805
:1052C200C5007108C400230035082000C300230074
:1052D20034082000C200230033082000C10023004C
:1052E20032082000C00090316120A931200043081B
:1052F200DD004208DC004108DB004008DA00AA3188
:10530200802220005D08E6005C08E5005B08E400FE
:105312005A08E30008002300421C982920002708AD
:10532200FB002608FA002808B7311627A931200009
:10533200AA1BA0292A08AF002908AE00A229AE01A3
:10534200AF01AC01AD012D08803AAB002F08803AC5
:105352002B02031DAE292E082C020318C22920306D
:10536200F1000030F20020002708F4002608F300C4
:1053720090310D20A93101302000AC070030AD3D45
:10538200A42923004218CE2920002708FB00260862
:10539200FA002808B7311627A93120002808F100A1
:1053A2000230F200B531642520002E087107A600F4
:1053B2002F08723DA7000800F701F21FE729F10943
:1053C200F209F10A0319F20AF701F70AF41FF229A6
:1053D200F309F409F30A0319F40A0130F500750818
:1053E200F706F801F901710872040319212AF6017E
:1053F200F60AF21B062A0130F135F20D890BFD295E
:105402000130F5007508F607FA290130F835F90D73
:10541200890B072A72087402031D112A710873028C
:10542200031C182A7108F3027208F43B7814013045
:10543200F236F10C890B192A0130F602031D062AF5
:1054420077080319292AF809F909F80A0319F90A48
:105452007908F2007808F10008007208F900710872
:10546200F8007408FB007308FA000130F5020030FE
:10547200F63B750A031D682A760A031D682AF101A4
:10548200F20108007A0884007B08850012000319E3
:105492006F2A7508760403196F2A7A0884007B083C
:1054A20085000008F7007808840079088500000864
:1054B2007706031D6F2A0130F8070030F93D0130ED
:1054C200FA070030FB3D0130F5020030F63B780868
:1054D2008400790885001200031D432A780884009D
:1054E200790885000008F7007A0884007B088500A7
:1054F20000087702F100F201031CF2030800031016
:1055020020005C0D5D0DDE005E08FB007B08031DC4
:10551200932A0030DD000030DC000030DB00003078
:10552200DA0008005A08DE005B08DF005C08E000D1
:105532005D08E1001F30E136E00CDF0CDE0C890B68
:105542009C2A5E08E2006208FA00DC17FF30DA05E6
:10555200FF30DB05FF30DC050030DD059630FB0255
:10556200FB1FC62A7B08803A973E031C8A2A013019
:10557200DD36DC0CDB0CDA0C890BB92A0130DE00DB
:105582005E08FB070319D72AB82A20307B020318CA
:105592008A2A7B080319D72A0130DA35DB0DDC0DA4
:1055A200DD0D890BCE2A0130FB02CA2A7A080319C3
:1055B2000800DA09DB09DC09DD09DA0A0319DB0A6A
:1055C2000319DC0A0319DD0A08002000200821045F
:1055D20022042304240425042604270403193E2B51
:1055E200F201F20AA71B022BA035A10DA20DA30DF9
:1055F200A40DA50DA60DA70D0130F1007108F2074B
:10560200F32A27082F02031D202B26082E02031D32
:10561200202B25082D02031D202B24082C02031DFC
:10562200202B23082B02031D202B22082A02031DF4
:10563200202B21082902031D202B20082802031CED
:10564200322B2008A8022108A93B2208AA3B2308E2
:10565200AB3B2408AC3B2508AD3B2608AE3B2708F4
:10566200AF3BA736A60CA50CA40CA30CA20CA10C54
:10567200A00C0130F202031D022B2808A000290809
:10568200A1002A08A2002B08A3002C08A4002D08C0
:10569200A5002E08A6002F08A70008002300310845
:1056A2002000A500230030082000A40023002F08BA
:1056B2002000A30023002E082000A2007408A500E9
:1056C2007308A4007208A3007108A2002208F50062
:1056D2002308F6002408F7002508F8001730F836EA
:1056E200F70CF60CF50C890B702BFF307505A0003A
:1056F20000307605A10020082104031D9F2B2208FB
:10570200F5002308F6002408F7002508F800013008
:10571200F535F60DF70DF80D890B892B780877040E
:1057220076047504031D9A2B0230F1000030F2005A
:1057320008000330F1000030F2000800200A2104C2
:10574200031DC22B2208F5002308F6002408F700E7
:105752002508F8000930F535F60DF70DF80D890B1F
:10576200AC2B7808770476047504031DBA2B01303C
:10577200BB2B0030F900FA017908F1007A08F20037
:1057820008000430F1000030F20008000030200070
:105792005A05E20000305B05E30080305C05E4005E
:1057A2007F305D05E5006508640463046204031D3F
:1057B200E22B0030DD000030DC000030DB00003086
:1057C200DA0000305E05E20000305F05E300803061
:1057D2006005E4007F306105E50065086404630448
:1057E2006204031DFC2B0030E1000030E0000030B9
:1057F200DF000030DE00DD1F162C0030E20000303A
:10580200E3000030E4008030E5005A08E2025B0861
:10581200E33B5C08E43B5D08E53B6508DD006408AA
:10582200DC006308DB006208DA00E11F302C003084
:10583200E2000030E3000030E4008030E5005E0862
:10584200E2025F08E33B6008E43B6108E53B650870
:10585200E1006408E0006308DF006208DE008030D7
:10586200DD068030E10661085D02031D0800600864
:105872005C02031D08005F085B02031D08005E084E
:105882005A02080072308600003087000830F100AA
:1058920000301E00F10B4A2C2000200821042204B3
:1058A200230424042504260427040319AE2CFA0138
:1058B200FA0AA71B692CA035A10DA20DA30DA40DF8
:1058C200A50DA60DA70D0130F1007108FA075A2C9B
:1058D200F235F30DF40DF50DF60DF70DF80DF90D8A
:1058E20027082F02031D8F2C26082E02031D8F2C42
:1058F20025082D02031D8F2C24082C02031D8F2C3A
:1059020023082B02031D8F2C22082A02031D8F2C31
:1059120021082902031D8F2C20082802031CA22C17
:105922002008A8022108A93B2208AA3B2308AB3B76
:105932002408AC3B2508AD3B2608AE3B2708AF3B0D
:105942007214A736A60CA50CA40CA30CA20CA10CD5
:10595200A00C0130FA02031D692C7208A000730822
:10596200A1007408A2007508A3007608A4007708B5
:10597200A5007808A6007908A70008008030220058
:105982005102003003195002031CD22C4B30230069
:10599200BA000030BB00FF302200CE00FF30CF0043
:1059A20008004F08DA004E08D900003051020230D8
:1059B20003195002031CE62C5008FF3EDD00FF30A5
:1059C200513DDE00DB01DC01EE2C0130DD00003058
:1059D200DE000130DB000030DC0059302100E7003E
:1059E2000130E800220053082100EA002200520898
:1059F2002100E900220054082100EE006E08EB00AD
:105A0200B7319527AC31210068082200D800210067
:105A120067082200D70050085104031DD81B372DF8
:105A22005008FF3E2100EE00FF302200513D2100D0
:105A3200EF006F0822005802031D232D21006E087B
:105A420022005702031C2C2D5008FF3ED500FF30C8
:105A5200513DD600302D5808D6005708D5005508BC
:105A62004E07860056084F3D870081015808CF0037
:105A72005708CE0008002000A101F41F4D2DF109A6
:105A8200F209F309F409F10A0319F20A0319F30AF4
:105A92000319F40AA101A10AF81F5E2DF509F609FE
:105AA200F709F809F50A0319F60A0319F70A03199F
:105AB200F80A0130F9007908A1060030A50000308B
:105AC200A4000030A3000030A20074087304720422
:105AD20071040319A72DA001A00AF41B7C2D01302B
