:020000040000FA
:0400000080311E2805
:100008007E1480312000111C1C282100111C1C2882
:10001800200011100130F00070082300E2073D3085
:100028006206031D1C280130F0007008E300E2019D
:100038007E100900803120282300B2311F22803130
:10004800E800B23120228031E900B231212280312A
:10005800EA00B23122228031EB002E308400B23027
:10006800850024001200C0001200C1001200C20066
:100078001200C3001200C4001200C5001200C6001E
:1000880071308400273085007F30FE000030FF008B
:10009800B23180228031FC01663084000130850055
:1000A8000A30FE000030FF00B23180228031A030DB
:1000B8008400013085004830FE000030FF00B23176
:1000C8008022803120308400023085002030FE00FC
:1000D8000030FF00B23180227E102000B431FE2CA7
:1000E800230041082200D900230040082200D8003C
:1000F80023003F082200D70023003E082200D60034
:1001080021002B082200D90021002A082200D8004B
:10011800210029082200D700210028082200D60043
:100128005908E1005808E0005708DF005608DE00CB
:10013800BC01BD016108031DA52880306002031CB5
:10014800C1285E082100AC0022005F082100AD0034
:10015800220060082100AE00220061082100AF00E3
:100168001F30AF36AE0CAD0CAC0C890BB5282F0880
:100178002E042D042C040319CA2922005E0821002C
:10018800AC0022005F082100AD00220060082100B9
:10019800AE00220061082100AF000130AC35AD0D82
:1001A800AE0DAF0D890BD2282F082E042D042C0478
:1001B800031D24292B082000A90021002A0820005B
:1001C800A800210029082000A700210028082000F5
:1001D800A60021002B082000AD0021002A082000DD
:1001E800AC00210029082000AB00210028082000CD
:1001F800AA0090312320803120002908C300280854
:10020800C2002708C1002608C000BF30C7008030E0
:10021800C6000030C5000030C4009C31E224200034
:1002280043082100AB00200042082100AA0020005A
:1002380041082100A900200040082100A80008006A
:1002480022005E082100AC0022005F082100AD00FA
:10025800220060082100AE00220061082100AF00E2
:100268001F30AF36AE0CAD0CAC0C890B35292F08FE
:100278002E042D042C040319812900302000C3000A
:100288000030C2000030C1000030C00021002B083F
:10029800A3002A08A2002908A1002808A0002B080A
:1002A800A7002A08A6002908A5002808A400B53137
:1002B80030258031210023082000C70021002208B2
:1002C8002000C600210021082000C50021002008C8
:1002D8002000C4009C31E224200043082100AB0028
:1002E800200042082100AA00200041082100A9009E
:1002F800200040082100A8000800E7302200BC07C1
:10030800FF30BD3D4C302000A9000030A80000306F
:10031800A7000030A60021002B082000AD00210016
:100328002A082000AC00210029082000AB00210089
:1003380028082000AA0090312320803120002908B5
:100348002100AB00200028082100AA00200027086F
:100358002100A900200026082100A8002B0822005F
:10036800D90021002A082200D800210029082200EB
:10037800D700210028082200D6005908E1005808B3
:10038800E0005708DF005608DE00E429803022002C
:1003980060027F30613B03180800803060063F3000
:1003A800031961065E045F04031DE429003021007F
:1003B800AB000030AA000030A9000030A8000800F7
:1003C8000D30DE07FB30DF3D4A30E03D0030E13DD7
:1003D8005E082100AC0022005F082100AD00220069
:1003E80060082100AE00220061082100AF0017302C
:1003F800AF36AE0CAD0CAC0C890BFC292C08813E39
:10040800B000FF302D3DB10030082200BC072100AC
:1004180031082200BD3DF3302100AC000430AD00AE
:100428003530AE003F30AF00FF3022005E052100BE
:10043800B000FF3022005F052100B1007F302200AC
:1004480060052100B2000030220061052100B300E0
:100458003008AC073108AD3D3208AE3D3308AF3D3A
:100468002F082200E10021002E082200E0002100D0
:100478002D082200DF0021002C082200DE00610880
:10048800D9006008D8005F08D7005E08D600590870
:100498002100AB00220058082100AA0022005708BA
:1004A8002100A900220056082100A800BF30200022
:1004B800DD008030DC000030DB000030DA00210095
:1004C8002B082000E10021002A082000E00021007C
:1004D80029082000DF00210028082000DE008531DF
:1004E800FE25803120005D082200DD0020005C0828
:1004F8002200DC0020005B082200DB0020005A08F4
:100508002200DA0040302000DD000030DC0000303E
:10051800DB000030DA0022005D082000E100220044
:100528005C082000E00022005B082000DF002200B9
:100538005A082000DE008531FE25803120005D0844
:10054800C3005C08C2005B08C1005A08C000220052
:100558005D082000C70022005C082000C6002200B9
:100568005B082000C50022005A082000C4009C3106
:10057800E2248031200043082200C90020004208FC
:100588002200C800200041082200C70020004008BF
:100598002200C60049082000A900220048082000BF
:1005A800A800220047082000A700220046082000D3
:1005B800A600220049082000AD00220048082000BB
:1005C800AC00220047082000AB00220046082000AB
:1005D800AA00903123208031200029082200CD0074
:1005E800200028082200CC00200027082200CB0089
:1005F800200026082200CA004D082000A900220079
:100608004C082000A80022004B082000A700220068
:100618004A082000A60022004D082000AD00220054
:100628004C082000AC0022004B082000AB00220040
:100638004A082000AA009031232080312000290890
:100648002200D100200028082200D000200027081E
:100658002200CF00200026082200CE003E302000D5
:10066800DD00CC30DC00CE30DB001330DA003E3069
:10067800A9007830A8009E30A7002630A6002200E6
:1006880051082000AD00220050082000AC002200D4
:100698004F082000AB0022004E082000AA0090312D
:1006A8002320803120002908E1002808E0002708DD
:1006B800DF002608DE008531FE25803120005D0838
:1006C8002200D50020005C082200D40020005B082E
:1006D8002200D30020005A082200D200510820002E
:1006E800A900220050082000A80022004F0820007E
:1006F800A70022004E082000A6002200550820006E
:10070800AD00220054082000AC002200530820004D
:10071800AB00220052082000AA009031232080312B
:10072800200029082200A700200028082200A6008F
:10073800200027082200A500200026082200A40087
:100748003F302000DD002A30DC00AA30DB00AA3070
:10075800DA003E30A9009130A800E930A700EE3059
:10076800A600220051082000AD00220050082000F9
:10077800AC0022004F082000AB0022004E082000E9
:10078800AA0090312320803120002908E1002808A0
:10079800E0002708DF002608DE008531FE258031CD
:1007A80020005D082200D50020005C082200D4004B
:1007B80020005B082200D30020005A082200D20043
:1007C8004D082000A90022004C082000A8002200A3
:1007D8004B082000A70022004A082000A60022009B
:1007E80055082000AD00220054082000AC0022006B
:1007F80053082000AB00220052082000AA009031C4
:1008080023208031200029082200AB00200028087E
:100818002200AA00200027082200A900200026089C
:100828002200A80027082000DD002200260820005A
:10083800DC00220025082000DB002200240820001C
:10084800DA0022002B082000E10022002A082000FC
:10085800E000220029082000DF00220028082000EC
:10086800DE008531FE25803120005D082200A300CE
:1008780020005C082200A20020005B082200A100E2
:1008880020005A082200A0003F302000A9000030B4
:10089800A8000030A7000030A60022005D08200054
:1008A800AD0022005C082000AC0022005B0820009C
:1008B800AB0022005A082000AA0090312320803182
:1008C800200029082200D500200028082200D40092
:1008D800200027082200D300200026082200D2008A
:1008E8005D082000A90022005C082000A800220062
:1008F8005B082000A70022005A082000A60022005A
:1009080055082000AD00220054082000AC00220049
:1009180053082000AB00220052082000AA009031A2
:1009280023208031200029082200C1002000280847
:100938002200C000200027082200BF00200026084F
:100948002200BE003C08F1003D08F200890D893BF9
:100958008909F300F4000130AA31E92280317408D2
:100968002200C5007308C4007208C3007108C200E1
:1009780049082000A900220048082000A8002200F9
:1009880047082000A700220046082000A6002200F1
:1009980023082000DD00220022082000DC002200BD
:1009A80021082000DB00220020082000DA002200B5
:1009B80041082000E100220040082000E000220059
:1009C8003F082000DF0022003E082000DE008531BD
:1009D800FE25803120005D08AD005C08AC005B0896
:1009E800AB005A08AA009031232080312000290842
:1009F8002200AF00200028082200AE0020002708AF
:100A08002200AD00200026082200AC00373020006C
:100A1800A9001730A800F730A700D130A60022009F
:100A280045082000AD00220044082000AC00220048
:100A380043082000AB00220042082000AA009031A1
:100A48002320803120002908DD002808DC00270841
:100A5800DB002608DA0022002F082000E10022002F
:100A68002E082000E00022002D082000DF002200D0
:100A78002C082000DE008531FE25803120005D082D
:100A88002200B30020005C082200B20020005B08AE
:100A98002200B10020005A082200B00041082100BD
:100AA800A300220040082100A20022003F082100E4
:100AB800A10022003E082100A000220033082100E6
:100AC800A700220032082100A600220031082100D8
:100AD800A500220030082100A400B531302580315E
:100AE800210023082200B700210022082200B600B6
:100AF800210021082200B500210020082200B400AE
:100B08005D082000DD0022005C082000DC002200D7
:100B18005B082000DB0022005A082000DA002200CF
:100B280037082000E100220036082000E0002200FB
:100B380035082000DF00220034082000DE0085315F
:100B4800FE25803120005D082200BB0020005C08E3
:100B58002200BA0020005B082200B90020005A08D1
:100B68002200B8003F302000A9003130A8007130C1
:100B7800A7008030A600220045082000AD00220012
:100B880044082000AC00220043082000AB002200EB
:100B980042082000AA009031232080312000290833
:100BA800DD002808DC002708DB002608DA00220020
:100BB8003B082000E10022003A082000E000220063
:100BC80039082000DF00220038082000DE008531C7
:100BD800FE2520005D082100AB0020005C082100F4
:100BE800AA0020005B082100A90020005A08210063
:100BF800A800080020005D088039E2006208EA00C9
:100C08005D35E2006208EC00DC1B6C146C0803190B
:100C18001B2E6C0A031D182E0030DD000030DC008E
:100C28000030DB000030DA00DC17DD01232E003055
:100C3800DD000030DC000030DB000030DA00610845
:100C48008039E2006208EB006B086A06031D6A1728
:100C58006135E2006208EB00E01B6B146B080319B6
:100C6800432E6B0A031D402E0030E1000030E000E7
:100C78000030DF000030DE00E017E1014B2E0030CD
:100C8800E1000030E0000030DF000030DE006C08DA
:100C98006B020318912E6A1F552E8030E2006208FD
:100CA800EA066C08E2006208ED006B08E2006208E0
:100CB800EC006D08E2006208EB005A08E2006208E6
:100CC800ED005E08E2006208DA006D08E2006208E2
:100CD800DE005B08E2006208ED005F08E2006208DF
:100CE800DB006D08E2006208DF005C08E2006208D1
:100CF800ED006008E2006208DC006D08E2006208AE
:100D0800E0005D08E2006208ED006108E2006208A8
:100D1800DD006D08E2006208E100ED016B08E20009
:100D2800E3016308E5006C086202E400031CE503C4
:100D38006508803AE60080306602031DA52E1A3049
:100D48006402031CD92E20005D085C045B045A046D
:100D58000319B02E0130B12E0030E2006208ED0018
:100D68000030DD000030DC000030DB000030DA004D
:100D78006B08E2006208EC00DE2E6D1CC92E6D3691
:100D88000138E2006208ED00CB2E0310ED0C5A1872
:100D9800ED170130E200DD37DC0CDB0CDA0CE20B7E
:100DA800CF2E0130E2006208EC0720006B086C02CD
:100DB800031CC12E6A1B0F2F6C08031DEC2E00307C
:100DC800DD000030DC000030DB000030DA00080015
:100DD8005E08DA075F08DB3D6008DC3D6108DD3D41
:100DE8005D1C892F6D1CFE2E6D360138E2006208ED
:100DF800ED00002F0310ED0C5A18ED170130E2003A
:100E0800DD37DC0CDB0CDA0CE20B042F0130E200DE
:100E18006208EC07892F5D08803AE2006108803A91
:100E28006202031D212F60085C02031D212F5F0849
:100E38005B02031D212F5E085A020318592FFF3049
:100E4800E200FF30E300FF30E400FF30E5005A081D
:100E58005E02E6005B085F3BE7005C08603BE80079
:100E68005D08613BE9006608E2076708E33D68083A
:100E7800E43D6908E53D6508DD006408DC006308B9
:100E8800DB006208DA008030E2006208EA06ED0959
:100E9800ED0A6D08031D612F0130DA070030DB3DD4
:100EA8000030DC3D0030DD3D612F5E08DA025F086E
:100EB800DB3B6008DC3B6108DD3B5D085C045B04F0
:100EC8005A04031D872F6D08031D872F0030DD008E
:100ED8000030DC000030DB000030DA0008000130B0
:100EE800DA35DB0DDC0DDD0D890B742FED1B5A1483
:100EF8006D1C802F0314812F0310ED0D6C0803194E
:100F0800872F0130EC02DC1F732FEB01ED1F942FAC
:100F18006D087F3903195A18922F942FEB01EB0AA9
:100F28006B080319C02F0130DA070030DB3D0030B1
:100F3800DC3D0030DD3D5D1CC02F5A08E2005B0837
:100F4800E3005C08E4005D08E5000130E600E537F1
:100F5800E40CE30CE20CE60BAB2F6508DD0064083B
:100F6800DC006308DB006208DA006C0A0319C02F92
:100F78000130E2006208EC076C0A031D6C08031DCF
:100F8800D02F0030DD000030DC000030DB00003006
:100F9800DA006C080319EA016C1CD42FDC17D82F6F
:100FA8007F30E2006208DC056C36E2006208DD0092
:100FB800EA1F0800DD170800F900F501F6017108BD
:100FC800F300F4017308F7007408F800791CF02F97
:100FD8007708F5077808F63D0130F735F80D890BE5
:100FE800F12F0310F90C7908031DEA2F7608F20097
:100FF8007508F10008000800F1002000111E012802
:10100800710823009A00080021000D1123000D111A
:1010180021008D1523008D110E128E1221000E163F
:101028008E160C128C1210108C1122008C11553057
:101038003C008F00AA308F000F103D002408E039D3
:101048001138A4003C002108E0391438A100200818
:10105800E0391538A0003D002508E0391038A50012
:101068001A08E03914389A003C002408E0390B3893
:10107800A40055308F00AA308F000F1408002000FC
:10108800590886008701403FDB00413FDC005B08D0
:1010980084005C0885001200643A03196228590824
:1010A80086008701403FDB00413FDC005B0884008D
:1010B8005C0885001200693A031DB32859088600A8
:1010C80087010130810741310318810A5A088600D7
:1010D800870101088400850102308107003FDB0099
:1010E800013FDC005B082100A80020005C0821000B
:1010F800A900890D893B8909AA00AB00AC00AD00A5
:10110800AE00AF0020005808B1005708B000210019
:1011180028082000B200210029082000B30021007F
:101128002A082000B40021002B082000B500210067
:101138002C082000B60021002D082000B70021004F
:101148002E082000B80021002F082000B9009A318D
:10115800362220003108D8003008D7000800590886
:1011680086008701403FF100413FF200B630F300AE
:10117800BA30F4000230F5000030F600B6319E2691
:101188008831710872040319E02820005908860084
:101198008701403FF100413FF200B930F300BA3017
:1011A800F4000230F5000030F600B6319E26883192
:1011B80071087204031D2929200059088600870137
:1011C8000230810741310318810A5A0886008701D5
:1011D80001088400850102308107003F2100A80032
:1011E800013FA900AA01AB01AC01AD01AE01AF01FD
:1011F80020005808B1005708B00021002808200036
:10120800B200210029082000B30021002A0820008C
:10121800B40021002B082000B50021002C08200074
:10122800B60021002D082000B70021002E0820005C
:10123800B80021002F082000B9009A31362220007A
:101248003108D8003008D700080020005908860067
:101258008701403FF100413FF200A730F300BA3068
:10126800F4000330F5000030F600B6319E268831D0
:1012780071087204031D8829200059088600870117
:101288000330810741310318810A5A088600870113
:101298000108840085010230810700082100B3009D
:1012A800B401B501B601B701B801B901BA0120000E
:1012B8005808B1005708B000210033082000B200D8
:1012C800210034082000B300210035082000B400B4
:1012D800210036082000B500210037082000B6009C
:1012E800210038082000B700210039082000B80084
:1012F80021003A082000B900A43118242000310840
:10130800D8003008D7000800200059088600870157
:10131800403FF100413FF200A830F300BA30F4003A
:101328000230F5000030F600B6319E26883171088B
:101338007204031DE829200059088600870102303D
:10134800810741310318810A5A088600870101087C
:101358008400850102308107003F2100B300013F6E
:10136800B400B501B601B701B801B901BA0120004E
:101378005808B1005708B000210033082000B20017
:10138800210034082000B300210035082000B400F3
:10139800210036082000B500210037082000B600DB
:1013A800210038082000B700210039082000B800C3
:1013B80021003A082000B900A4311824200031087F
:1013C800D8003008D7000800200059088600870197
:1013D800403FDB00413FDC005B0884005C0885007F
:1013E80012006F3A031D402A590886008701013010
:1013F800810741310318810A5A08860087010108CC
:101408008400850102308107003F2100B300013FBD
:10141800B400B501B601B701B801B901BA0120009D
:101428005808B1005708B000210033082000B20066
:10143800210034082000B300210035082000B40042
:10144800210036082000B500210037082000B6002A
:10145800210038082000B700210039082000B80012
:1014680021003A082000B900A431182420003108CE
:10147800D8003008D7000800590886008701403F87
:10148800F100413FF200BF30F300BA30F4000230FF
:10149800F5000030F600B6319E26883171087204D6
:1014A800031D9F2A20005908860087010230810702
:1014B80041310318810A5A0886008701010884000F
:1014C800850102308107003F2100B300013FB400CD
:1014D800B501B601B701B801B901BA012000580831
:1014E800B1005708B000210033082000B2002100E5
:1014F80034082000B300210035082000B400210082
:1015080036082000B500210037082000B600210069
:1015180038082000B700210039082000B800210051
:101528003A082000B900A431182420003108D80056
:101538003008D70008002000590886008701403F7E
:10154800F100413FF200A330F300BA30F400033059
:10155800F5000030F600B6319E2688317108720415
:10156800031D362B200059088600870103308107A8
:1015780041310318810A5A0886008701010884004E
:10158800850102308107003F2100B000013FB10012
:101598003008860031088700230054088100322B68
:1015A800200059088600870102308107413103185D
:1015B800810A5A08860087010108840085010230E3
:1015C8008107003F2100B000013FB10030088600CC
:1015D8003108870023005408C03F5508C13F322B0B
:1015E8005908860087010130810741310318810AB3
:1015F8005A088600870101088400850102308107A6
:10160800003F2100B000013FB100300886003108DA
:10161800870023005408C03F5508C13F322B2000E3
:101628005908860087010230810741310318810A71
:101638005A08860087010108840085010230810765
:10164800003F2100B000013FB1003008860031089A
:10165800870023005408C03F5508C13F2000D70128
:10166800D80108002000590886008701403FF10092
:10167800413FF200A430F300BA30F4000230F50024
:101688000030F600B6319E268831710872040319BD
:10169800D42A2000590886008701403FDB00413FDB
:1016A800DC005B0884005C08850012006E3A0319B0
:1016B800F42A590886008701403FF100413FF200B3
:1016C800BC30F300BA30F4000230F5000030F60008
:1016D800B6319E268831710872040319132B200035
:1016E800590886008701403FDB00413FDC005B086A
:1016F80084005C0885001200703A031DCF2B59083E
:10170800860087010130810741310318810A5A0890
:101718008600870101088400850102308107003FA7
:101728002100B300013FB400B501B601B701B8010B
:10173800B901BA0120005808B1005708B0002100CB
:1017480033082000B200210034082000B300210033
:1017580035082000B400210036082000B50021001B
:1017680037082000B600210038082000B700210003
:1017780039082000B80021003A082000B900783064
:10178800DB005B08BA009B31892320003108D800B0
:101798003008D7000800590886008701403FDB0061
:1017A800413FDC005B0884005C0885001200733A46
:1017B800031D082C59088600870101308107413133
:1017C8000318810A5A0886008701010884008501E8
:1017D80002308107003F2100A000013FA100200046
:1017E8005808A1005708A000210021082000A300E4
:1017F800210020082000A200AD31A02520002108EA
:10180800D8002008D7000800590886008701403F03
:10181800F100413FF200AB30F300BA30F40003307E
:10182800F5000030F600B6319E2688317108720442
:10183800031D662C200059088600870103308107A4
:1018480041310318810A5A0886008701010884007B
:1018580085010230810700082100B300B401B501F9
:10186800B601B701B801B901BA0120005808B100A2
:101878005708B000210033082000B20021003408C6
:101888002000B300210035082000B40021003608EC
:101898002000B500210037082000B60021003808D4
:1018A8002000B700210039082000B80021003A08BC
:1018B8002000B900A331372320003108D8003008B0
:1018C800D70008002000590886008701403FF10032
:1018D800413FF200AC30F300BA30F4000230F500BA
:1018E8000030F600B6319E26883171087204031D57
:1018F800C62C200059088600870102308107413133
:101908000318810A5A0886008701010884008501A6
:1019180002308107003F2100B300013FB400B50148
:10192800B601B701B801B901BA0120005808B100E1
:101938005708B000210033082000B2002100340805
:101948002000B300210035082000B400210036082B
:101958002000B500210037082000B6002100380813
:101968002000B700210039082000B80021003A08FB
:101978002000B900A331372320003108D8003008EF
:10198800D70008002000590886008701403FDB0087
:10199800413FDC005B0884005C0885001200753A52
:1019A800031D1E2D5908860087010130810741312A
:1019B8000318810A5A0886008701010884008501F6
:1019C80002308107003F2100B300013FB400B50198
:1019D800B601B701B801B901BA0120005808B10031
:1019E8005708B000210033082000B2002100340855
:1019F8002000B300210035082000B400210036087B
:101A08002000B500210037082000B6002100380862
:101A18002000B700210039082000B80021003A084A
:101A28002000B900A331372320003108D80030083E
:101A3800D7000800590886008701403FF100413F60
:101A4800F200C230F300BA30F4000230F500003082
:101A5800F600B6319E26883171087204031D7D2D6B
:101A68002000590886008701023081074131031898
:101A7800810A5A088600870101088400850102301E
:101A88008107003F2100B300013FB400B501B60152
:101A9800B701B801B901BA0120005808B1005708C8
:101AA800B000210033082000B200210034082000D3
:101AB800B300210035082000B400210036082000BA
:101AC800B500210037082000B600210038082000A2
:101AD800B700210039082000B80021003A0820008A
:101AE800B900A331372320003108D8003008D700C7
:101AF80008002000590886008701403FF100413F57
:101B0800F200AF30F300BA30F4000330F5000030D3
:101B1800F600B6319E268831710872040319AB2D80
:101B28002000590886008701403FF100413FF2003C
:101B38009730F300BA30F4000330F5000030F600B7
:101B4800B6319E26883171087204031D0D2E2000BF
:101B5800590886008701403FDB00413FDC00023026
:101B68005B0784005C0803185C0A85000008DD0038
:101B78005D082100B2002000590886008701033063
:101B8800810741310318810A5A0886008701010834
:101B9800840085010230810700082100B300B401E8
:101BA800B501B601B701B801B901BA01200058085A
:101BB800B1005708B000210033082000B20021000E
:101BC80034082000B300210035082000B4002100AB
:101BD80036082000B500210037082000B600210093
:101BE80038082000B700210039082000B80021007B
:101BF8003A082000B900210032082000DB005B0809
:101C0800BA009B31892320003108D8003008D7005A
:101C180008002000590886008701403FF100413F35
:101C2800F200B030F300BA30F4000230F5000030B2
:101C3800F600B6319E2688317108720403193B2ECE
:101C48002000590886008701403FF100413FF2001B
:101C58009830F300BA30F4000230F5000030F60096
:101C6800B6319E26883171087204031D9E2E20000D
:101C7800590886008701403FDB00413FDC00013006
:101C88005B0784005C0803185C0A85000008DD0017
:101C98005D082100B2002000590886008701023043
:101CA800810741310318810A5A0886008701010813
:101CB8008400850102308107003F2100B300013F05
:101CC800B400B501B601B701B801B901BA012000E5
:101CD8005808B1005708B000210033082000B200AE
:101CE800210034082000B300210035082000B4008A
:101CF800210036082000B500210037082000B60072
:101D0800210038082000B700210039082000B80059
:101D180021003A082000B900210032082000DB0029
:101D28005B08BA009B31892320003108D8003008AD
:101D3800D70008002000590886008701403FDB00D3
:101D4800413FDC005B0884005C0885001200783A9B
:101D58000319BD2E590886008701403FDB00413F2B
:101D6800DC005B0884005C0885001200583A031DFB
:101D78001C2F590886008701403FDB00413FDC00EB
:101D88005B0884005C0885000008DD005D08210010
:101D9800B2002000590886008701013081074131CF
:101DA8000318810A5A088600870101088400850102
:101DB80002308107003F2100B300013FB400B501A4
:101DC800B601B701B801B901BA0120005808B1003D
:101DD8005708B000210033082000B2002100340861
:101DE8002000B300210035082000B4002100360887
:101DF8002000B500210037082000B600210038086F
:101E08002000B700210039082000B80021003A0856
:101E18002000B900210032082000DB005B08BA006E
:101E28009B31892320003108D8003008D7000800EA
:101E3800590886008701403FF100413FF200C53054
:101E4800F300BA30F4000230F5000030F600B63185
:101E58009E268831710872040319492F20005908F9
:101E680086008701403FF100413FF200B330F300A4
:101E7800BA30F4000230F5000030F600B6319E2684
:101E8800883171087204031DAC2F200059088600A0
:101E98008701403FDB00413FDC0001305B078400E5
:101EA8005C0803185C0A85000008DD005D08210055
:101EB800B2002000590886008701023081074131AD
:101EC8000318810A5A0886008701010884008501E1
:101ED80002308107003F2100B300013FB400B50183
:101EE800B601B701B801B901BA0120005808B1001C
:101EF8005708B000210033082000B2002100340840
:101F08002000B300210035082000B4002100360865
:101F18002000B500210037082000B600210038084D
:101F28002000B700210039082000B80021003A0835
:101F38002000B900210032082000DB005B08BA004D
:101F48009B31892320003108D8003008D7000800C9
:101F58002000590886008701403FDB00413FDC0034
:101F68005B0884005C0885001200253A031DD42F05
:101F78005908860087010130810741310318810A19
:101F88002530F1000030F2005808F4005708F3003B
:101F9800B631F02601302000D7000030D800080004
:101FA8005908860087010130810741310318810AE9
:101FB800322B590886008701403FDB00413FDC0097
:101FC8005B0884005C0885000008DD00DE015D0810
:101FD800F1005E08F2005808F4005708F300B63123
:101FE800F0268831200059088600870101308107D2
:081FF80041310318810ACE2FCC
:1020020077089F3E2000A000FF30783DA1000030FD
:1020120021021A3003192002031811280130122854
:102022000030A200A3012208F9002308FA0079086F
:102032007A04031908005F307705F700003078054D
:10204200F8000800200029088039AE002E08B300ED
:102052002935AE002E08B900A81B39143908031916
:102062003F28390A031D3D280030A9000030A8008E
:102072000030A7000030A600A81747280030A900AA
:102082000030A8000030A7000030A6002D088039DB
:10209200AE002E08B3062D35AE002E08B800AC1BDC
:1020A2003814380803196228380A031D60280030E2
:1020B200AD000030AC000030AB000030AA00AC171D
:1020C2006A280030AD000030AC000030AB000030B8
:1020D200AA003808031D3908031D78280030A9001A
:1020E2000030A8000030A7000030A6000800260833
:1020F200AE002E08F1002C088731E02790317208DB
:102102002000BF007108BE003E08AE00AF01B00162
:10211200B1013108B7003008B6002F08B5002E080B
:10212200B4003F08AE00AF01B001B1013108BD00FB
:102132003008BC002F08BB002E08BA002708AE00EA
:102142002E08F1002B088731E02790317208200019
:10215200BF007108BE003E08AE00AF01B001B10180
:102162002E08B4072F08B53D3008B63D3108B73DFB
:102172003F08AE00AF01B001B1012E08BA072F0827
:10218200BB3D3008BC3D3108BD3D2808AE002E08DD
:10219200F1002A088731E027903172082000BF0041
:1021A2007108BE003E08AE00AF01B001B1012E08B9
:1021B200B4072F08B53D3008B63D3108B73D3F089A
:1021C200AE00AF01B001B1012E08BA072F08BB3D26
:1021D2003008BC3D3108BD3D0830B435B50DB60DF3
:1021E200B70D890BEE282708AE002E08F1002A0849
:1021F2008731E027903172082000BF007108BE00CD
:102202003E08B4073F08B53D0030B63DB73D26084D
:10221200AE002E08F1002B088731E02790317208BA
:102222002000BF007108BE003E08B4073F08B53D5C
:102232000030B63DB73D0830B435B50DB60DB70D1B
:10224200890B1D292608AE002E08F1002A088731C5
:10225200E027903172082000BF007108BE003E08DE
:10226200B4073F08B53D0030B63DB73D2708AE0084
:102272002E08F1002C088731E027903172082000E7
:10228200BF007108BE003E08BA073F08BB3D0030E0
:10229200BC3DBD3D2808AE002E08F1002B08873159
:1022A200E027903172082000BF007108BE003E088E
:1022B200BA073F08BB3D0030BC3DBD3D2808AE001B
:1022C2002E08F1002C088731E02790317208200097
:1022D200BF007108BE003E08AE003F08AF00B0016B
:1022E200B1010830AE35AF0DB00DB10D890B7329B8
:1022F2002E08BA072F08BB3D3008BC3D3108BD3D52
:102302003408AE003508AF003608B0003708B10017
:102312001830B136B00CAF0CAE0C890B8A292E08DE
:10232200BA072F08BB3D3008BC3D3108BD3D08301F
:10233200B435B50DB60DB70D890B99293908380793
:10234200AE00AF01AF0D2E08823EBE00FF302F3D22
:10235200BF00BC1BC1290130BA35BB0DBC0DBD0D80
:10236200890BAD29B71B3A140130B435B50DB60D42
:10237200B70D890BB629FF30BE07FF30BF3DAA2932
:10238200B801B71FDA29FF303405AE00FF3035053A
:10239200AF00FF303605B0007F303705B10031089D
:1023A20030042F042E0403193A18D829DA29B80167
:1023B200B80A38080319032A0130BA070030BB3DB6
:1023C2000030BC3D0030BD3D3D1C032A3A08AE0042
:1023D2003B08AF003C08B0003D08B1000130B2003C
:1023E200B137B00CAF0CAE0CB20BF1293108BD0005
:1023F2003008BC002F08BB002E08BA000130BE070F
:102402000030BF3D3F08803AAE0080302E02031DEF
:102412000C2AFF303E02031C182A7F302000BD0028
:102422008030BC000030BB000030BA00422A2000DD
:102432003F08803AAE0080302E02031D222A01306E
:102442003E0203182F2A00302000BD000030BC00DD
:102452000030BB000030BA00B301422A20003E081F
:10246200AE002E08B900FF30BA05FF30BB057F3041
:10247200BC050030BD053918BC173936AE002E0830
:10248200BD003308AE002E08BD043D08A9003C087B
:10249200A8003B08A7003A08A60008001830F5007B
:1024A2000030F6002A30F7000030F800B53165251B
:1024B200923175082100B1007608B2003108B200ED
:1024C200B1011830F5000030F6002B30F700003073
:1024D200F800B53165259231750821003104B80044
:1024E20076083204B900BA01B91BBA033A08BB0034
:1024F20022006E08F1006F08F200890D893B8909FC
:10250200F300F4000130AA31E9229231740820006C
:10251200AD007308AC007208AB007108AA0040302D
:10252200A9008030A8000030A7000030A60090313A
:1025320023209231200029082100B700200028081A
:102542002100B600200027082100B500200026083F
:102552002100B40037082000AD0021003608200019
:10256200AC00210035082000AB0021003408200017
:10257200AA0021003B08F4003A08F3003908F200EF
:102582003808F1000130AA31E922923174082000A2
:10259200A9007308A8007208A7007108A60090316C
:1025A2002320923120002908C7002808C6002708E6
:1025B200C5002608C4004430C3007A30C20000308F
:1025C200C1000030C0009C31E22492312000430857
:1025D200E1004208E0004108DF004008DE0022007E
:1025E2006D082100B20022006C082100B100B13553
:1025F200B20DB135B20D3108F1003208F200890D89
:10260200893B8909F300F4000130AA31E9229231B1
:1026120074082000DD007308DC007208DB0071081A
:10262200DA008531FE25923120005D082100AB00E1
:1026320020005C082100AA0020005B082100A900FC
:1026420020005A082100A800B7319A2792312100B0
:102652002B082300D10021002A082300D0002100EA
:1026620029082300CF00210028082300CE001830BB
:10267200F5000030F6000C30F7000030F800B531FC
:10268200652592313F3075052100B1000030760595
:10269200B2003108B200B1011830F5000030F60086
:1026A2000D30F7000030F800B5316525923175081C
:1026B20021003104B80076083204B900BA01B91B0E
:1026C200BA033A08BB0000302000A7000030A60081
:1026D2000330A500E830A40022006E08F1006F0864
:1026E200F200890D893B8909F300F40021003B08BF
:1026F200F8003A08F7003908F6003808F500B43156
:10270200CC24923174082000AB007308AA0072082E
:10271200A9007108A800AA316722923122006C0830
:10272200200024072300B40022006D082000253D6C
:102732002300B5001830F5000030F6000E30F70027
:102742000030F800B531652592313F307505210022
:10275200B10000307605B2003108B200B101183084
:10276200F5000030F6000F30F7000030F800B53108
:1027720065259231750821003104B80076083204CB
:10278200B900BA01B91BBA033A08BB0000302000F5
:10279200A7000030A6000330A500E830A400220004
:1027A2006E08F1006F08F200890D893B8909F30078
:1027B200F40021003B08F8003A08F7003908F60057
:1027C2003808F500B431CC24923174082000AB00F3
:1027D2007308AA007208A9007108A800AA3167222A
:1027E200923122006C08200024072300B600220048
:1027F2006D082000253D2300B7001830F500003099
:10280200F6001030F7000030F800B531652592313E
:102812003F3075052100B10000307605B200310865
:10282200B200B1011830F5000030F6001130F700A7
:102832000030F800B5316525923175082100310468
:10284200B80076083204B900BA01B91BBA033A08D3
:10285200BB0000302000A7000030A6000330A50016
:10286200E830A40022006E08F1006F08F200890D22
:10287200893B8909F300F40021003B08F8003A087B
:10288200F7003908F6003808F500B431CC2492314B
:1028920074082000AB007308AA007208A90071082E
:1028A200A800AA316722923122006C082000240776
:1028B2002300B80022006D082000253D2300B90046
:1028C2001830F5000030F6001230F7000030F80042
:1028D200B531652592313F3075052100B1000030D8
:1028E2007605B2003108B200B1011830F5000030AF
:1028F200F6001330F7000030F800B531652592314B
:10290200750821003104B80076083204B900BA0112
:10291200B91BBA033A08BB0000302000A700003000
:10292200A6000330A500E830A40022006E08F100E2
:102932006F08F200890D893B8909F300F400210038
:102942003B08F8003A08F7003908F6003808F500A5
:10295200B431CC24923174082000AB007308AA0071
:102962007208A9007108A800AA31672292312200D8
:102972006C08200024072300BA0022006D08200002
:10298200253D2300BB001830F5000030F60014305E
:10299200F7000030F800B531652592313F307505FA
:1029A2002100B10000307605B2003108B200B10159
:1029B2001830F5000030F6001530F7000030F8004E
:1029C200B53165259231750821003104B8007608C9
:1029D2003204B900BA01B91BBA033A08BB0000308D
:1029E2002000A7000030A6000330A500E830A400B4
:1029F20022006E08F1006F08F200890D893B8909F7
:102A0200F300F40021003B08F8003A08F700390807
:102A1200F6003808F500B431CC2492317408200055
:102A2200AB007308AA007208A9007108A800AA31B5
:102A3200672222006C08200024072300BC00220029
:102A42006D082000253D2300BD0008000030210054
:102A5200EE000030ED000030EC000030EB001830EA
:102A6200F5000030F6002C30F7000030F800B531E8
:102A7200652595313F3075052100B400003076059B
:102A8200B5003408B500B4011830F5000030F60086
:102A92002D30F7000030F800B53165259531750805
:102AA20021003404E70076083504E8006708F100E5
:102AB2006808F200890D893B8909F300F4000130AE
:102AC200AA31E922953174082000AD007308AC00E8
:102AD2007208AB007108AA003E30A900C330A800FA
:102AE2009530A7008130A600903123209531200037
:102AF20029082100AB00200028082100AA0020009C
:102B020027082100A900200026082100A800B731CB
:102B12009A27953121002908EA002808E900690866
:102B2200F1006A08F200890D893B8909F300F4007B
:102B32000130AA31E922953174082000AD007308F2
:102B4200AC007208AB007108AA004630A9001C3024
:102B5200A8004030A7000030A60090312320953114
:102B620020002908C7002808C6002708C500260833
:102B7200C40045302100A7004E30A6004030A50019
:102B82000030A4006908F1006A08F200890D893B4F
:102B92008909F300F4000130AA31E9229531740861
:102BA2002100A3007308A2007208A1007108A0000E
:102BB200B53130259531210023082000C3002100C2
:102BC20022082000C200210021082000C1002100AB
:102BD20020082000C0009C31E224953120004308E7
:102BE2002100AB00200042082100AA002000410879
:102BF2002100A900200040082100A800B7319A272F
:102C0200953121002B08EE002A08ED002908EC007E
:102C12002808EB006E08F4006D08F3006C08F2005F
:102C22006B08F1000030AA31E922953174082100C5
:102C3200BA007308B9007208B8007108B7006E08CC
:102C4200F4006D08F3006C08F2006B08F10000302C
:102C5200AA31E922953174082100BE007308BD0033
:102C62007208BC007108BB006E08F4006D08F30026
:102C72006C08F2006B08F1000030AA31E9229531AC
:102C820074082100C2007308C1007208C0007108F4
:102C9200BF003E08AB003D08AA003C08A9003B0863
:102CA200A80080317420953121002B08C6002A0823
:102CB200C5002908C4002808C3004208AB00410827
:102CC200AA004008A9003F08A8008031742095316D
:102CD20021002B08CA002A08C9002908C8002808B0
:102CE200C7003A08AB003908AA003808A90037081B
:102CF200A80080317420953121002B08CE002A08CB
:102D0200CD002908CC002808CB0046082000A900E5
:102D1200210045082000A800210044082000A70047
:102D2200210043082000A60021004A082000AD002F
:102D3200210049082000AC00210048082000AB0017
:102D4200210047082000AA0090312320953120005D
:102D520029082100D200200028082100D1002000EB
:102D620027082100D000200026082100CF004E08AD
:102D72002000A90021004D082000A80021004C08D5
:102D82002000A70021004B082000A60021005208C5
:102D92002000AD00210051082000AC0021005008A5
:102DA2002000AB0021004F082000AA009031232010
:102DB2009531200029082100D60020002808210092
:102DC200D500200027082100D40020002608210079
:102DD200D3006E08F4006D08F3006C08F2006B0873
:102DE200F1000030AA31E922953174082100DA009D
:102DF2007308D9007208D8007108D7005A08AB00CE
:102E02005908AA005808A9005708A8008031742060
:102E1200953121002B08DE002A08DD002908DC009C
:102E22002808DB00BC302000DD008E30DC00C5301D
:102E3200DB007230DA003B30A9004D30A800983038
:102E4200A7002530A60021005E082000AD00210069
:102E52005D082000AC0021005C082000AB002100CE
:102E62005B082000AA009031232095312000290818
:102E7200E1002808E0002708DF002608DE0085318F
:102E8200FE25953120005D082100E20020005C084B
:102E92002100E10020005B082100E00020005A0828
:102EA2002100DF00B7302000A9002E30A8002F300B
:102EB200A7004530A600210056082000AD002100E1
:102EC20055082000AC00210054082000AB0021006E
:102ED20053082000AA0090312320953120002908B0
:102EE200DD002808DC002708DB002608DA002100C4
:102EF20062082000E100210061082000E0002100BA
:102F020060082000DF0021005F082000DE0085311C
:102F1200FE25953120005D08C3005C08C2005B08F5
:102F2200C1005A08C0003F30C7008030C6000030E0
:102F3200C5000030C4009C31E224953120004308D2
:102F42002100E600200042082100E500200041089F
:102F52002100E400200040082100E3006608200070
:102F6200E100210065082000E00021006408200043
:102F7200DF00210063082000DE00C330DD0088305E
:102F8200DC009330DB003330DA008531FE259531E9
:102F920020005D08AD005C08AC005B08AB005A087D
:102FA200AA004230A900C830A8000030A7000030B3
:102FB200A600903123209531200029082100AB0082
:102FC200200028082100AA00200027082100A900CB
:102FD200200026082100A800B7319A2721002B08DB
:102FE2002300C90021002A082300C8002100290863
:102FF2002300C700210028082300C6000800200083
:103002009111240096161616200091190800052821
:1030120044302100A3007A30A2000030A100003029
:10302200A000F0302300E5052100A801A90123003A
:1030320045082000A900230044082000A80023001E
:1030420043082000A700230042082000A6006908C8
:10305200F4006808F3006708F2006608F100013026
:10306200AA31E922983174082000AD007308AC003F
:103072007208AB007108AA00903123209831200019
:1030820029082100A700200028082100A60020000E
:1030920027082100A500200026082100A4004430B2
:1030A2002000C3007A30C2000030C1000030C000EE
:1030B200210023082000A900210022082000A800E6
:1030C200210021082000A700210020082000A600DE
:1030D200210027082000AD00210026082000AC00B6
:1030E200210025082000AB00210024082000AA00AE
:1030F20090312320983120002908C7002808C600F3
:103102002708C5002608C4009C31E224983120001B
:103112004308DD004208DC004108DB004008DA0019
:10312200210029088500280884008435850D08308F
:103132008407B930853D003F2000EC00013FED00DF
:103142006C08F1006D08F200890D893B8909F300D2
:10315200F4000130AA31E922983174082000E1001C
:103162007308E0007208DF007108DE00A831F22067
:103172009831031CC4282300650821002806F03971
:1031820028062300E50001302100A8070030A93DF0
:10319200003029020F3003192802031C18288F302F
:1031A2002300E5052100AA01AB012B0885002A08AE
:1031B20084008435850D47308407BA30853D003F51
:1031C2002000EC00013FED006B08803AEE006D0834
:1031D200803A6E02031DEF286C086A02031CFE2867
:1031E20021002A082000EC00EC0E230065082000D4
:1031F2006C068F396C062300E50001302100AA0716
:103202000030AB3D00302B02073003192A02031CA9
:10321200D6281830F5000030F6000730F7000030ED
:10322200F800230065082000EC00ED016C08F900AD
:103232006D08FA00B331B323080044302100A30023
:103242007A30A2000030A1000030A000F830230044
:10325200E6052100A801A901230045082000A900D4
:10326200230044082000A800230043082000A700F0
:10327200230042082000A6006908F4006808F30051
:103282006708F2006608F1000130AA31E92299319B
:1032920074082000AD007308AC007208AB0071081E
:1032A200AA00903123209931200029082100A7008B
:1032B200200028082100A600200027082100A500E0
:1032C200200026082100A40044302000C3007A30E8
:1032D200C2000030C1000030C000210023082000DD
:1032E200A900210022082000A800210021082000B6
:1032F200A700210020082000A600210027082000A6
:10330200AD00210026082000AC0021002508200085
:10331200AB00210024082000AA009031232099311B
:1033220020002908C7002808C6002708C50026086B
:10333200C4009C31E224993120004308DD00420898
:10334200DC004108DB004008DA0021002908850082
:10335200280884008435850D57308407BA30853DAE
:10336200003F2000EC00013FED006C08F1006D0809
:10337200F200890D893B8909F300F4000130AA317A
:10338200E922993174082000E1007308E000720814
:10339200DF007108DE00A831F2209931031CD9291F
:1033A2002300660821002806F83928062300E600D3
:1033B20001302100A8070030A93D00302902073062
:1033C20003192802031C2D29E7302300E6052100FA
:1033D200AA01AB012B0885002A0884008435850DDB
:1033E20077308407BA30853D003F2000EC00013F72
:1033F200ED006B08803AEE006D08803A6E02031D04
:10340200042A6C086A02031C152A21002A082000DB
:10341200EC00EC0DEC0DEC0D2300660820006C06B0
:10342200E7396C062300E60001302100AA070030CC
:10343200AB3D00302B02073003192A02031CEB2993
:103442002300E6131830F5000030F6000630F700CE
:103452000030F80066082000EC00ED016C08F9006D
:103462006D08FA00B331B323080020003208C5000A
:103472003308C6003408C7003508C8003608C9003A
:103482003708CA003808CB003908CC00453086001E
:1034920000308700473FBA00BA1F512A0130522A32
:1034A20000302000BB00BC013B08C3003C08C40044
:1034B2004308440403197B2AC509C609C709C80978
:1034C200C909CA09CB09CC09C50A031D7B2AC60A48
:1034D200031D7B2AC70A031D7B2AC80A031D7B2AF8
:1034E200C90A031D7B2ACA0A031D7B2ACB0A031DB4
:1034F2007B2ACC0A2200E91B822AFD30EA05FF3032
:10350200EB056908803A2000BA0080303A02031DB8
:103512008D2A0130220068020318952A013020000A
:10352200BF000030C0009D2A220069082000C000B0
:10353200220068082000BF00220067082000C200A5
:10354200220066082000C10043084404031DAC2A7F
:1035520022006A1DB12AFF302000C107FF30C23DA0
:103562001F302000CD000030CE002400BF01472BC9
:103572002000450846044704480449044A044B0411
:103582004C04031DDE2A4008803ABA0080303A0219
:10359200031DCD2A01303F020318DE2A2000420813
:1035A200803ABA0080303A02031DD92A0130410222
:1035B200031C532B2200EA1C532BFF302000CD07A3
:1035C200FF30CE3D0A30A000A101A201A301A40157
:1035D200A501A601A7014508A8004608A9004708B9
:1035E200AA004808AB004908AC004A08AD004B08E5
:1035F200AE004C08AF00A2315B229A3120002108B4
:10360200F5002008F400B231CA229A317408303E23
:103612002000BA004D08203E8600023087003A089A
:103622008100FF30BF07FF30C03DFF30C107FF30D0
:10363200C23D0A30A000A101A201A301A401A5017B
:10364200A601A7014508A8004608A9004708AA0044
:103652004808AB004908AC004A08AD004B08AE0070
:103662004C08AF00A53109259A3120002008C50079
:103672002108C6002208C7002308C8002408C90080
:103682002508CA002608CB002708CC0020004E08D7
:10369200803ABA0080303A02031D512B01304D02AC
:1036A2000318B92A200043084404031D5B2B22009F
:1036B2006A1D732BFF302000CD07FF30CE3D43083B
:1036C2004404031D662B2B30672B2D30BD000030C8
:1036D200BE003D08BA004D08203E86000230870039
:1036E2003A08810020003108A7003008A6004D08E2
:1036F200203EBA003A08A8004208AA004108A900E0
:10370200B6314D2620002708B1002608B000080077
:103712002200E91B902BFD30EA05FF30EB0569081A
:10372200803A2000BB0080303B02031D9B2B0130FE
:10373200220068020318A32B01302000C7000030CA
:10374200C800AB2B220069082000C80022006808CC
:103752002000C700220067082000CA002200660875
:103762002000C90022006A1EBB2BFE302000C907C0
:10377200FF30CA3D20003208CB003308CC003408A9
:10378200CD003508CE003608CF003708D000380803
:10379200D1003908D2001F30D3000030D4002400F9
:1037A200BF017D2CFF302000D307FF30D43D0F3006
:1037B2004B05D50000304C05D6005608803ABB00B8
:1037C20080303B02031DE72B0A305502031CED2B10
:1037D20020005508573EF02B20005508303ED500FA
:1037E2000030563DD6003A08BF3EBB00FF300318FA
:1037F2000030BC0000303C021A3003193B020318AF
:10380200042C0130052C0030BD00BE013D08C30070
:103812003E08C4004308440403193B2C20305504DD
:10382200BB0000305604BC003B089F3EBD00FF3089
:103832003C3DBE0000303E021A3003193D0203181F
:10384200242C0130252C0030BF00C0013F08C500E8
:103852004008C6004508460403193B2C5608F800E8
:103862005508F700903101209B3178082000D600DE
:103872007708D5005508BB005308203E8600023069
:1038820087003B088100FF30C707FF30C83DFF308B
:10389200C907FF30CA3D4B30860000308700403FE9
:1038A200BB00413FBC00423FBD00433FBE00443F1E
:1038B200BF00453FC000463FC100473FC200043041
:1038C2002000C236C10CC00CBF0CBE0CBD0CBC0C1F
:1038D200BB0C890B612C20004208D2004108D100A8
:1038E2004008D0003F08CF003E08CE003D08CD0082
:1038F2003C08CC003B08CB0020005408803ABB00B7
:1039020080303B02031D872C02305302031CAE2C75
:1039120020004B084C044D044E044F045004510443
:103922005204031DD32B4808803ABB0080303B026F
:10393200031D9D2C013047020318D32B20004A0897
:10394200803ABB0080303B02031DA92C01304902A2
:10395200031CAE2C2200EA18D32B22006A1ECC2CA8
:10396200FF302000D307FF30D43D3A08BB00530894
:10397200203E8600023087003B088100FF30D307DB
:10398200FF30D43D3030BB005308203E8600023069
:1039920087003B08810020003108A7003008A600FC
:1039A2005308203EBB003B08A8004A08AA00490869
:1039B200A900B6314D2620002708B1002608B00024
:1039C2000800200047088039C8004808D100473560
:1039D200C8004808D800C61B581458080319FF2C01
:1039E200580A031DFC2C0030C7000030C60000300E
:1039F200C5000030C400C617C701072D0030C7003C
:103A02000030C6000030C5000030C40043088039D1
:103A1200C8004808D1064335C8004808D900C21B6F
:103A2200591459080319232D590A031D202D00305A
:103A3200C3000030C2000030C1000030C000C21715
:103A4200C3012B2D0030C3000030C2000030C10082
:103A52000030C0004308420441044004031D4A2DC3
:103A62000030C7000030C6000030C5000030C4007E
:103A72008030C6047F30C7045108C8004808C70414
:103A82004708C3004608C2004508C1004408C000F8
:103A920008005808031D562D0030C3000030C20034
:103AA2000030C1000030C00008005808C800C90139
:103AB2004908CB0059084802CA00031CCB034A0834
:103AC2007F3ED20000304B3DD3004708D00046086D
:103AD200CF004508CE004408CD000030C7000030BA
:103AE200C6000030C5000030C4000030D7000030EE
:103AF200D6000030D5000030D400D9011A30590266
:103B02000318BB2D590803199D2D0130CD35CE0D5B
:103B1200CF0DD00D890B872D0130C435C50DC60DD3
:103B2200C70D890B8E2DD71B44140130D435D50D0A
:103B3200D60DD70D890B972D43085002031DAB2DCF
:103B420042084F02031DAB2D41084E02031DAB2D4F
:103B520040084D02031CB62D57174008CD024108FC
:103B6200CE3B4208CF3B4308D03B0130C800480857
:103B7200D9077F2D50084F044E044D04031D5414E1
:103B8200C61BD82D0130C435C50DC60DC70D890B16
:103B9200C42DD71B44140130D435D50DD60DD70D05
:103BA200890BCD2DFF30D207FF30D33DC12DD90176
:103BB200D71FF12DFF305405C800FF305505C9004D
:103BC200FF305605CA007F305705CB004B084A0428
:103BD2004904480403194418EF2DF12DD901D90ADB
:103BE200590803191A2E0130C4070030C53D0030B0
:103BF200C63D0030C73D471C1A2E4408C800450880
:103C0200C9004608CA004708CB000130CC00CB37B8
:103C1200CA0CC90CC80CCC0B082E4B08C7004A08AA
:103C2200C6004908C5004808C4000130D207003068
:103C3200D33D5308803AC80080304802031D232E2A
:103C4200FF305202031C322EFF302000D20000301F
:103C5200D3000030C7000030C6000030C50000307D
:103C6200C40020005308803AC80080304802031D77
:103C72003C2E0130520203184A2E2000D201D301F9
:103C82000030C7000030C6000030C5000030C4005C
:103C9200D10120005208C8004808D800581C532EF1
:103CA200C617572E7F30C8004808C6055836C800C8
:103CB2004808C7003D2D2000590886008701403F73
:103CC200DB00413FDC005B0884005C0885001200D9
:103CD200253A031DFE2F590886008701013081070E
:103CE20041310318810A2200E601E701EA01EB01F2
:103CF200FF30E800FF30E9002100A201A3019E2E5F
:103D020022006A14200059088600870101308107C9
:103D120041310318810A9E2E2200EA14832E2200CA
:103D22006A15832E2200EA15832E22006A16832E3C
:103D320001302100A2000030A30021002208230448
:103D4200031DC92E2000590886008701403FDB0071
:103D5200413FDC005B0884005C0885000008DD0050
:103D6200DE015E08003A0319B72E992E5D08203A4B
:103D72000319932E033A0319962E083A0319902E2B
:103D8200063A0319812E1D3A03198D2E992E9E2E65
:103D920022006A1CD02EFD30EA05FF30EB05200020
:103DA200590886008701403FDB00413FDC005B0889
:103DB20084005C08850012002A3A031DFE2E590871
:103DC200860087010130810741310318810A5A08B0
:103DD2008600870101088400850102308107003FC7
:103DE2002200E600013FE700E71F412F6A14E609BF
:103DF200E709E60A0319E70A412F590886008701F5
:103E0200403FF700413FF800A03102209E31780880
:103E12002200E7007708E600172F200059088600E5
:103E220087010130810741310318810A20005908B6
:103E320086008701403FDB00413FDC005B088400D5
:103E42005C0885000008D03EDD00FF30031800301A
:103E5200DE0000305E020A3003195D020318332FC0
:103E62000130342F0030DF00E0015F082100A400A0
:103E7200200060082100A50024082504031D0E2F40
:103E82002000590886008701403FDB00413FDC00EB
:103E92005B0884005C08850012002E3A031DC52FC2
:103EA2002200E801E901200059088600870101305B
:103EB200810741310318810A590886008701403F72
:103EC200DB00413FDC005B0884005C0885001200D7
:103ED2002A3A031D822F5908860087010130810783
:103EE20041310318810A5A088600870101088400BB
:103EF200850102308107003F2200E800013FE9000E
:103F0200C52F590886008701403FF700413FF8005E
:103F1200A03102209E3178082200E9007708E800EB
:103F22009B2F20005908860087010130810741310B
:103F32000318810A2000590886008701403FDB00F0
:103F4200413FDC005B0884005C0885000008D03E2D
:103F5200DD00FF3003180030DE0000305E020A3060
:103F620003195D020318B72F0130B82F0030DF00AC
:103F7200E0015F082100A600200060082100A700E0
:103F820026082704031D922F200059088600870166
:103F9200403FDB00413FDC005B0884005C08850099
:103FA2001200633AA531031DFC2D590886008701D2
:103FB2000130810741310318810A5A0886008701BE
:103FC200010884008501023081070008DB005B08DC
:103FD2002100B20020005808B1005708B0002100AB
:103FE20032082000DB005B08B200B4316A242000F2
:0E3FF2003108D8003008D70008008F31DD2FCD
:104004002000AB01AC01A401A501AA01AA0A77080A
:104014008400780885001200203A031923287708C1
:104024008400780885000008F73EA000FF300318DC
:104034000030A100003021020530031920020318CA
:10404400AA012A08A000A1012008A6002108A700AF
:1040540026082704031938280130F7070030F83DF3
:1040640007280130A4000030A5006B2877088400DD
:10407400780885000008A000A1012108003A03196E
:1040840044286F2820082B3A03196B28063A031991
:1040940033286F2877088400780885000008A0007A
:1040A4002C08F2002B08F1000A30F3000030F40071
:1040B400B3312923A03172082000A2002008710224
:1040C400A100031CA2032108303EAB000030223DB6
:1040D400AC000130F7070030F83D77088400780819
:1040E40085000008D03EA000FF3003180030A10076
:1040F400003021020A3003192002031883280130FA
:1041040084280030A200A3012208A8002308A900E3
:1041140028082904031D4C2824082504031D9E286F
:104124002B09A0002C09A100A00A0319A10A200848
:10413400F7002108F80008002C08F8002B08F70005
:1041440008002100B101B20121003135A03E8600F2
:1041540001308700403F2000EE00413FEF006E0831
:10416400F1006F08F200890D893B8909F300F4001E
:104174000130AA31E922A03174082100A700730894
:10418400A6007208A5007108A40023004D08F400DD
:104194004C08F3004B08F2004A08F1000130AA3140
:1041A400E922A03174082000AD007308AC00720845
:1041B400AB007108AA003A30A900B630A8000B3051
:1041C400A7006130A60090312320A03120002908E7
:1041D4002100A300200028082100A20020002708B5
:1041E4002100A100200026082100A000B5313025BF
:1041F400A03121002308AB002208AA002108A9004D
:104204002008A800B7319A27A03121003135A03EFB
:104214008600013087002808C03F2908C13F313596
:10422400A03E860001308700403F2000EE00413F61
:10423400EF006E08F1006F08F200890D893B8909CF
:10424400F300F4000130AA31E922A03174082000FF
:10425400AD007308AC007208AB007108AA004230CC
:10426400A900C830A8000030A7000030A600903193
:104274002320A03120002908C7002808C6002708E9
:10428400C5002608C4004530C3001C30C2004030BD
:10429400C1000030C0009C31E224A031200043085A
:1042A4002100AB00200042082100AA0020004108A0
:1042B4002100A900200040082100A800B7319A2756
:1042C400A03121003135AA3E86000130870028083C
:1042D400C03F2908C13F0130B1070030B23D320868
:1042E400803A2000EE0080306E02031D7C290530E8
:1042F4002100310203180800A628200033082300F7
:10430400D700200032082300D6001830F500003012
:10431400F6000830F7000030F800B5316525A1310A
:1043240075082000B60036082300E40022006E0859
:104334002000A40022006F082000A500890D893BFD
:104344008909A600A70022006C082000B6002200FC
:104354006D082000B7000030B71BFF30B800B9006B
:104364003208BA003308BB000030BB1BFF30BC006E
:10437400BD003608BA023708BB3B3808BC3B3908D5
:10438400BD3B3D08F4003C08F3003B08F2003A084A
:10439400F1000030F8000030F7000330F600E83098
:1043A400F500B431CC24A13174082000AB007308AB
:1043B400AA007208A9007108A800AA316722A131D5
:1043C40020002408BE002508BF002608C0002708D6
:1043D400C1000430C200C137C00CBF0CBE0CC20BFC
:1043E400ED293E08C3004308C4000130B600360876
:1043F400C4071830F5000030F6000A30F70000302A
:10440400F8004408B600B7013608F9003708FA0086
:10441400B331B323A1313F302300E4052000C501AB
:10442400C60146088500450884008435850D6F3033
:104434008407BA30853D003FB600013FB700350818
:10444400803AB8003708803A3802031D2B2A360810
:104454003402031C3B2A20004508B600B60EB60DF4
:10446400B60D23006408200036063F3936062300C3
:10447400E40001302000C5070030C63D003046028C
:10448400033003194502031C132A1830F5000030C9
:10449400F6000830F7000030F8002300640820001C
:1044A400B600B7013608F9003708FA00B331B32370
:1044B4000800F3012830860000308700473FF100F0
:1044C400F11F852A2000A809A909AA09AB09AC098A
:1044D400AD09AE09AF09A80A031D832AA90A031D61
:1044E400832AAA0A031D832AAB0A031D832AAC0A62
:1044F400031D832AAD0A031D832AAE0A031D832AE2
:10450400AF0AF301F30A2030860000308700473FEA
:10451400F100F11FAC2A2000A009A109A209A309F6
:10452400A409A509A609A709A00A031DAC2AA10A82
:10453400031DAC2AA20A031DAC2AA30A031DAC2A3C
:10454400A40A031DAC2AA50A031DAC2AA60A031D4E
:10455400AC2AA70A200020082104220423042404EE
:104564002504260427040319042BF201F20AA71BCD
:10457400C82AA035A10DA20DA30DA40DA50DA60D4D
:10458400A70D0130F1007108F207B92A27082F029C
:10459400031DE62A26082E02031DE62A25082D02FD
:1045A400031DE62A24082C02031DE62A23082B02F5
:1045B400031DE62A22082A02031DE62A21082902ED
:1045C400031DE62A20082802031CF82A2008A80252
:1045D4002108A93B2208AA3B2308AB3B2408AC3B97
:1045E4002508AD3B2608AE3B2708AF3BA736A60CF3
:1045F400A50CA40CA30CA20CA10CA00C0130F2027B
:10460400031DC82A73080319252BA809A909AA0997
:10461400AB09AC09AD09AE09AF09A80A031D252BE6
:10462400A90A031D252BAA0A031D252BAB0A031D6A
:10463400252BAC0A031D252BAD0A031D252BAE0A21
:10464400031D252BAF0A20002808A0002908A1007B
:104654002A08A2002B08A3002C08A4002D08A500FA
:104664002E08A6002F08A70008002200E91B3E2BF5
:10467400FD30EA05FF30EB056908803A2000BA00F6
:1046840080303A02031D492B0130220068020318CE
:10469400512B01302000BB000030BC00592B2200FC
:1046A40069082000BC00220068082000BB0022002A
:1046B40067082000BE00220066082000BD00320802
:1046C400BF003308C0003408C1003508C2003608F2
:1046D400C3003708C4003808C5003908C6001F30B5
:1046E400C7000030C8002400BF01FD2B3F08400470
:1046F400410442044304440445044604031D9C2B22
:104704003C08803ABA0080303A02031D8B2B0130FA
:104714003B0203189C2B20003E08803ABA008030EC
:104724003A02031D972B01303D02031C022C220088
:10473400EA1C022CFF302000C707FF30C83D0A30B6
:10474400A000A101A201A301A401A501A601A70142
:104754003F08A8004008A9004108AA004208AB008D
:104764004308AC004408AD004508AE004608AF005D
:10477400A8311120A33120002008303EBA00470898
:10478400203E8600023087003A088100FF30BB07D4
:10479400FF30BC3DFF30BD07FF30BE3D0A30A000F6
:1047A400A101A201A301A401A501A601A7013F083B
:1047B400A8004008A9004108AA004208AB00430829
:1047C400AC004408AD004508AE004608AF00A9316E
:1047D4006E21A33120002008BF002108C000220858
:1047E400C1002308C2002408C3002508C400260809
:1047F400C5002708C600200047084804031D782B7D
:1048040020003108A7003008A6004708203EBA005F
:104814003A08A8003E08AA003D08A900B6314D2672
:1048240020002708B1002608B00008002200E91B78
:104834001F2CFD30EA05FF30EB056908803A2000A3
:10484400BA0080303A02031D2A2C0130220068028B
:104854000318322C01302000C2000030C3003A2C6F
:10486400220069082000C300220068082000C2005A
:10487400220067082000C700220066082000C60046
:104884003208C8003308C9003408CA003508CB0010
:104894003608CC003708CD003808CE003908CF00E0
:1048A4001F30D0000030D1002400BF012000C4011B
:1048B400C501CF2C2000480849044A044B044C0489
:1048C4004D044E044F04031D812C4308803ABA0062
:1048D40080303A02031D702C013042020318812CEF
:1048E40020004708803ABA0080303A02031D7C2C2D
:1048F40001304602031CDA2C2200EA1CDA2CFF30B9
:104904002000D007FF30D13D07304805C4000030F7
:104914004905C5004408303EBA005008203E8600D0
:10492400023087003A088100FF30C207FF30C33DE0
:10493400FF30C607FF30C73D48308600003087008F
:10494400403FBA00413FBB00423FBC00433FBD0073
:10495400443FBE00453FBF00463FC000473FC10043
:1049640003302000C136C00CBF0CBE0CBD0CBC0C07
:10497400BB0CBA0C890BB32C20004108CF004008B3
:10498400CE003F08CD003E08CC003D08CB003C08DB
:10499400CA003B08C9003A08C8005108803ABA0066
:1049A40080303A02031DD82C0130500203185C2CCD
:1049B40022006A1EF32C2000440845040319F32C3A
:1049C400FF30D007FF30D13D3030BA005008203ED0
:1049D4008600023087003A088100FF30C607FF30A6
:1049E400C73D20003108A7003008A6005008203E2B
:1049F400BA003A08A8004708AA004608A900B63138
:104A04004D2620002708B1002608B0000800F30155
:104A14002030860000308700473FF100F11F332D1E
:104A24002000A009A109A209A309A409A509A609AE
:104A3400A709A00A031D312DA10A031D312DA20AC5
:104A4400031D312DA30A031D312DA40A031D312D8D
:104A5400A50A031D312DA60A031D312DA70AF30152
:104A6400F30A2830860000308700473FF100F11F29
:104A74005E2D2000A809A909AA09AB09AC09AD0952
:104A8400AE09AF09A80A031D5A2DA90A031D5A2D00
:104A9400AA0A031D5A2DAB0A031D5A2DAC0A031D85
:104AA4005A2DAD0A031D5A2DAE0A031D5A2DAF0A05
:104AB4000130F1007108F30674308600003087007D
:104AC4000830F10000301E00F10B652D2000200895
:104AD400210422042304240425042604270403199E
:104AE400C92DF201F20AA71B842DA035A10DA20D38
:104AF400A30DA40DA50DA60DA70D0130F10071089D
:104B0400F207752DF435F50DF60DF70DF80DF90DC9
:104B1400FA0DFB0D27082F02031DAA2D26082E02CD
:104B2400031DAA2D25082D02031DAA2D24082C02DD
:104B3400031DAA2D23082B02031DAA2D22082A02D5
:104B4400031DAA2D21082902031DAA2D20082802CD
:104B5400031CBD2D2008A8022108A93B2208AA3B5A
:104B64002308AB3B2408AC3B2508AD3B2608AE3BF1
:104B74002708AF3B7414A736A60CA50CA40CA30CF1
:104B8400A20CA10CA00C0130F202031D842D7308A9
:104B94000319EA2DF409F509F609F709F809F909E1
:104BA400FA09FB09F40A031DEA2DF50A031DEA2D8F
:104BB400F60A031DEA2DF70A031DEA2DF80A031D60
:104BC400EA2DF90A031DEA2DFA0A031DEA2DFB0A50
:104BD40074082000A0007508A1007608A2007708D8
:104BE400A3007808A4007908A5007A08A6007B0829
:104BF400A7000800590886008701403FF100413FA3
:104C0400F2009B30F300BA30F4000330F5000030BA
:104C1400F600B6319E26A531710872040319292EB7
:104C24002000590886008701403FF100413FF2000F
:104C34009F30F300BA30F4000330F5000030F60082
:104C4400B6319E26A53171087204031D742E20000E
:104C54005908860087010330810741310318810A0E
:104C64005A08860087010108840085010230810703
:104C740000082100A8008039031DFF30A900AA0004
:104C8400AB00AC00AD00AE00AF0020005808B1008E
:104C94005708B000210028082000B200210029088C
:104CA4002000B30021002A082000B40021002B08B2
:104CB4002000B50021002C082000B60021002D089A
:104CC4002000B70021002E082000B80021002F0882
:104CD4002000B9009A31362220003108D80030086B
:104CE400D70008002000590886008701403FF100E2
:104CF400413FF2009C30F300BA30F4000230F5007A
:104D04000030F600B6319E26A531710872040319ED
:104D1400A22E2000590886008701403FF100413F40
:104D2400F200A030F300BA30F4000230F500003095
:104D3400F600B6319E26A53171087204031DF42EC7
:104D44002000590886008701023081074131031889
:104D5400810A5A088600870101088400850102300F
:104D64008107003FDB00013FDC005B082100A80055
:104D740020005C082100A900890D893B8909AA004B
:104D8400AB00AC00AD00AE00AF0020005808B1008D
:104D94005708B000210028082000B200210029088B
:104DA4002000B30021002A082000B40021002B08B1
:104DB4002000B50021002C082000B60021002D0899
:104DC4002000B70021002E082000B80021002F0881
:104DD4002000B9009A31362220003108D80030086A
:104DE400D70008008831432871302100CC002730D7
:104DF400CD007F30CE000030CF00E430D000B93099
:104E0400D100230051082100D500230050082100BF
:104E1400D40023004F082100D30023004E082100B2
:104E2400D200B3314423A6317130F2002730F300AD
:104E3400B3310F23A63171302100CC002730CD00CF
:104E44007F30CE000030CF00E430D000B930D10044
:104E540023004D082100D50023004C082100D40074
:104E640023004B082100D30023004A082100D2006C
:104E7400B3314423A6317130F2002730F300B3314B
:104E84000F23A63171302100CC002730CD007F30B4
:104E9400CE000030CF00E430D000B930D100230080
:104EA40049082100D500230048082100D40023002C
:104EB40047082100D300230046082100D200B33163
:104EC4004423A6317130F2002730F300B3310F23AD
:104ED400A63171302100CC002730CD007F30CE00C8
:104EE4000030CF00C830D000BA30D100B3314423F1
:104EF400A6317130F2002730F300B3310F23A6310D
:104F040071302100CC002730CD007F30CE0000303E
:104F1400CF00D330D000B930D100230035082100B0
:104F2400D300230034082100D200230037082100D5
:104F3400D500230036082100D400230039082100BD
:104F4400D700230038082100D60023003B082100A5
:104F5400D90023003A082100D80023003D0821008D
:104F6400DB0023003C082100DA00B3314423A631DE
:104F74007130F2002730F300B3310F23A6317130C2
:104F84002100CC002730CD007F30CE000030CF0090
:104F94002830D000B930D10023002B082100D300E1
:104FA40023002A082100D20023002D082100D50067
:104FB40023002C082100D40023002F082100D7004F
:104FC40023002E082100D600230031082100D90037
:104FD400230030082100D800230033082100DB001F
:104FE400230032082100DA00B3314423A6317130A2
:0C4FF400F2002730F300B3310F23080057
:1050020020009111240096152000911D05282400EE
:105012001108F300F4017308F1007408F2000800AB
:105022002000200821042204230424042504260449
:10503200270403196928F201F20AA71B2D28A035BB
:10504200A10DA20DA30DA40DA50DA60DA70D013056
:10505200F1007108F2071E2827082F02031D4B28B2
:1050620026082E02031D4B2825082D02031D4B285E
:1050720024082C02031D4B2823082B02031D4B2856
:1050820022082A02031D4B2821082902031D4B284E
:1050920020082802031C5D282008A8022108A93B39
:1050A2002208AA3B2308AB3B2408AC3B2508AD3BB6
:1050B2002608AE3B2708AF3BA736A60CA50CA40CCE
:1050C200A30CA20CA10CA00C0130F202031D2D288E
:1050D2002808A0002908A1002A08A2002B08A30082
:1050E2002C08A4002D08A5002E08A6002F08A70052
:1050F2000800D9282300630803190800E301B3312B
:10510200F223A831AC312824A83120002008220043
:10511200E20062082100EF006F0803190800200076
:105122001810210011100030F100F200B331D12328
:105132002300E301E701E70A0800B7314427A83159
:105142000130F1000030F200B331D12302302200ED
:10515200E20062082300E7000800B4313A24A831D3
:105162006400A631F626A83166302200E3007630CC
:10517200E200C130890BBB28E20BBB28E30BBB2842
:10518200080071302100CC002730CD007F30CE00E6
:105192000030CF00BA30D000B830D100B331442350
:1051A200A8317130F2002730F300B3310F23080029
:1051B200230067082200E200E3016308003A0319B2
:1051C200E328F1286208003A03197B28013A0319FF
:1051D2009E28033A0319AE28013A0319C228F1287E
:1051E2000800003020005A05E20000305B05E300B1
:1051F20080305C05E4007F305D05E50065086404ED
:1052020063046204031D0D290030DD000030DC0060
:105212000030DB000030DA0000305E05E2000030D2
:105222005F05E30080306005E4007F306105E50042
:105232006508640463046204031D27290030E10049
:105242000030E0000030DF000030DE00DD1F4129C9
:105252000030E2000030E3000030E4008030E5007E
:105262005A08E2025B08E33B5C08E43B5D08E53B6D
:105272006508DD006408DC006308DB006208DA0010
:10528200E11F5B290030E2000030E3000030E4005F
:105292008030E5005E08E2025F08E33B6008E43B21
:1052A2006108E53B6508E1006408E0006308DF008F
:1052B2006208DE008030DD068030E10661085D02B2
:1052C200031D080060085C02031D08005F085B0202
:1052D200031D08005E085A02080072308600003082
:1052E20087000830F10000301E00F10B7529200004
:1052F200200821042204230424042504260427046C
:105302000319D929FA01FA0AA71B9429A035A10D7C
:10531200A20DA30DA40DA50DA60DA70D0130F10040
:105322007108FA078529F235F30DF40DF50DF60D26
:10533200F70DF80DF90D27082F02031DBA292608CB
:105342002E02031DBA2925082D02031DBA2924089D
:105352002C02031DBA2923082B02031DBA29220895
:105362002A02031DBA2921082902031DBA2920088D
:105372002802031CCD292008A8022108A93B2208E3
:10538200AA3B2308AB3B2408AC3B2508AD3B2608CF
:10539200AE3B2708AF3B7214A736A60CA50CA40C93
:1053A200A30CA20CA10CA00C0130FA02031D94293B
:1053B2007208A0007308A1007408A2007508A30077
:1053C2007608A4007708A5007808A6007908A70047
:1053D2000800803021003E02003003193D02031C08
:1053E200FD294B302300D2000030D300FF302100D2
:1053F200BB00FF30BC0008003C08C7003B08C600E9
:1054020000303E02023003193D02031C112A3D08FE
:10541200FF3ECA00FF303E3DCB00C801C901192A38
:105422000130CA000030CB000130C8000030C90092
:10543200C6302000E1000030E200210040082000D8
:10544200E40021003F082000E30021004108200081
:10545200EA006A08E500B4319B24A9312000620801
:105462002100C500200061082100C4003D083E045F
:10547200031DC51B622A3D08FF3E2000EA00FF30E3
:1054820021003E3D2000EB006B0821004502031D78
:105492004E2A20006A0821004402031C572A3D08B4
:1054A200FF3EC200FF303E3DC3005B2A4508C300F9
:1054B2004408C20042083B07860043083C3D87007F
:1054C20081014508BC004408BB0008002000AD0172
:1054D200A71F782AA409A509A609A709A40A0319DE
:1054E200A50A0319A60A0319A70AAD01AD0AAB1F43
:1054F200892AA809A909AA09AB09A80A0319A90AAC
:105502000319AA0A0319AB0A0130F9007908AD069A
:105512000030B1000030B0000030AF000030AE000B
:1055220027082604250424040319D22AAC01AC0A54
:10553200A71BA72A0130A435A50DA60DA70D890B1F
:105542009C2A0130F9007908AC07992A0130AE355E
:10555200AF0DB00DB10D890BA82A27082B02031D30
:10556200BC2A26082A02031DBC2A25082902031D7B
:10557200BC2A24082802031CC72A2408A8022508DA
:10558200A93B2608AA3B2708AB3B2E140130A736BD
:10559200A60CA50CA40C890BC82A0130AC02031D71
:1055A200A72A2D080319E02AAE09AF09B009B109EB
:1055B200AE0A0319AF0A0319B00A0319B10A310876
:1055C200A7003008A6002F08A5002E08A400080096
:1055D2002000A0002008031DF41FFF2A7109A20069
:1055E2007209A3007309A4007409A500A20A031991
:1055F200A30A0319A40A0319A50A072B7408A50014
:105602007308A4007208A3007108A200740873044E
:1056120072047104031D162B0030F4000030F300F5
:105622000030F2000030F10008009630F5007508F5
:10563200A100FE30250503193D2B0130F500750848
:10564200A1070130A536A40CA30CA20C890B232BB5
:105652001A2B0130F5007508A1070130A2070030AE
:10566200A33D0030A43D0030A53D0130A536A40C79
:10567200A30CA20C890B372BFF30250503194F2BE6
:105682002A2B02302102031C512B0130A1020130CE
:10569200A235A30DA40DA50D890B492BA41F422BE6
:1056A20021185B2BFF30A205FF30A3057F30A40534
:1056B200FF30A5050310A10C2108F500F601F70142
:1056C200F8011830F535F60DF70DF80D890B632B3F
:1056D2007508A2047608A3047708A4047808A50430
:1056E2002008031DF41F762BA5172508F4002408B3
:1056F200F3002308F2002208F1000800200032081B
:10570200B6003308B7003408B8003508B9000630CF
:10571200B635B70DB80DB90D890B892B3908A7001D
:105722003808A6003708A5003608A4003208BA00D7
:105732003308BB003408BC003508BD000630BA355A
:10574200BB0DBC0DBD0D890BA02B0030BE0024305B
:10575200BF00F430C0000030C1003A08BE023B086E
:10576200BF3B3C08C03B3D08C13B4108AB00400881
:10577200AA003F08A9003E08A800AA316722AB315F
:1057820020002508FB002408FA0001307B020030CB
:1057920003197A02031C152C3208B6003308B7002D
:1057A2003408B8003508B9000430B635B70DB80D65
:1057B200B90D890BD62B3908A7003808A60037087F
:1057C200A5003608A4003208BA003308BB0034082A
:1057D200BC003508BD000430BA35BB0DBC0DBD0D93
:1057E200890BED2B0030BE002430BF00F430C00026
:1057F2000030C1003A08BE023B08BF3B3C08C03B38
:105802003D08C13B4108AB004008AA003F08A9007F
:105812003E08A800AA316722AB3120002508FB0010
:105822002408FA0023001E1501307B020030031900
:105832007A02031808007A0823009B001E129D17A3
:1058420021008E170E1723001D169E160800200039
:10585200AB01AC01AD01AE0120002D35B43E860096
:10586200013087000030C03FC13F0130AD0700303A
:10587200AE3D2E08803AA20080302202031D432C46
:1058820004302D02031C2D2C1830F5000030F600D8
:105892000B30F7000030F8001930F9000030FA0040
:1058A200B331B323AC311830F5000030F6000B30C1
:1058B200F7000030F800B5316525AC3119307506B6
:1058C2007604031DD62C01302000AB000030AC0062
:1058D2001830F5000030F6000430F7000030F80010
:1058E2001830F9000030FA00B331B323AC3118306C
:1058F200F5000030F6000530F7000030F8004030C7
:10590200F9000030FA00B331B323AC311830F5009E
:105912000030F6005130F7000030F800B53165254F
:10592200AC3176082200ED007508EC001830F50065
:105932000030F6005930F7000030F800B531652527
:10594200AC3175082000A2007608A3000530A4003F
:10595200230DA30CA20CA40BA92C07302205A50031
:1059620000302305A6001830F5000030F600503054
:10597200F7000030F800B53165250C3075052000C0
:10598200A70000307605A800A735A80D2508270432
:10599200A90026082804AA0029086D3E2200EE006C
:1059A200013020002A3D2200EF0020002C08A10037
:1059B2002B08A00008001830F5000030F600003077
:1059C200F700F800B5316525AC311830F50000302C
:1059D200F6003230F7000030F800B5316525AC3101
:1059E20075082100B1007608B2003108B200B10199
:1059F2001830F5000030F6003330F7000030F800C0
:105A0200B5316525AC31750821003104B500760841
:105A12003204B6003508F1003608F200890D893BE0
:105A22008909F300F4000130AA31E922AC3174088B
:105A32002000AD007308AC007208AB007108AA0028
:105A42004130A9000730A8000A30A7003D30A60067
:105A520090312320AC3120002908C7002808C60055
:105A62002708C5002608C4004130C3009C30C2008C
:105A7200CC30C100CD30C0009C31E224AC312000DA
:105A82004308DD004208DC004108DB004008DA0080
:105A9200B2316122AC3120005D082100AB00200050
:105AA2005C082100AA0020005B082100A900200058
:105AB2005A082100A800B7319A27AC3121002B08DF
:105AC2002300CD0021002A082300CC002100290850
:105AD2002300CB00210028082300CA00CD1F7B2D04
