:020000040000FA
:1000000080311E28080008007E1480312000111C59
:100010001C282100111C1C28200011100130F000A8
:1000200070082100E8073D306806031D1C280130D8
:10003000F0007008E900E8017E10090080312028F6
:10004000A33084009D30850022001200CA001200F7
:10005000CB001200CC001200CD001200CE00120026
:10006000CF001200D00071308400273085007F302F
:10007000FE000030FF009D31F2258031FC01DA30B6
:100080008400003085001130FE000030FF009D31FB
:10009000F225803120308400013085002A30FE00B6
:1000A0000030FF009D31F2257E1020009F31A72FE8
:1000B0002000590886008701403FDB00413FDC00FB
:1000C0005B0884005C0885001200253A031DF829AE
:1000D0005908860087010130810741310318810AE0
:1000E0002100DE01DF01E201E301FF30E000FF302B
:1000F000E100A101A2019928210062142000590801
:10010000860087010130810741310318810A99284F
:100110002100E2147E28210062157E282100E215CC
:100120007E28210062167E2801302100A1000030C7
:10013000A200210021082204031DC4282000590820
:1001400086008701403FDB00413FDC005B08840004
:100150005C0885000008DD00DE015E08003A031936
:10016000B22894285D08203A03198E28033A03190F
:100170009128083A03198B28063A03197C281D3A5E
:100180000319882894289928621CCA28FD30E205A2
:10019000FF30E3052000590886008701403FDB005F
:1001A000413FDC005B0884005C08850012002A3AAD
:1001B000031DF82859088600870101308107413165
:1001C0000318810A5A088600870101088400850106
:1001D00002308107003F2100DE00013FDF00DF1F0A
:1001E0003B296214DE09DF09DE0A0319DF0A3B2915
:1001F000590886008701403FF700413FF8009331DE
:100200008323803178082100DF007708DE00112980
:100210002000590886008701013081074131031809
:10022000810A2000590886008701403FDB00413FDA
:10023000DC005B0884005C0885000008D03EDD001F
:10024000FF3003180030DE0000305E020A30031970
:100250005D0203182D2901302E290030DF00E00156
:100260005F082100A300200060082100A4002308EB
:100270002404031D08292000590886008701403FF7
:10028000DB00413FDC005B0884005C088500120055
:100290002E3A031DBF292100E001E1012000590889
:1002A000860087010130810741310318810A59080E
:1002B00086008701403FDB00413FDC005B08840093
:1002C0005C08850012002A3A031D7C295908860023
:1002D00087010130810741310318810A5A088600DD
:1002E000870101088400850102308107003F210059
:1002F000E000013FE100BF29590886008701403F27
:10030000F700413FF80093318323803178082100C2
:10031000E1007708E0009529200059088600870150
:100320000130810741310318810A200059088600F5
:100330008701403FDB00413FDC005B0884005C0834
:1003400085000008D03EDD00FF3003180030DE00DD
:1003500000305E020A3003195D020318B129013032
:10036000B2290030DF00E0015F082100A500200075
:1003700060082100A60025082604031D8C29200002
:10038000590886008701403FDB00413FDC005B08E5
:1003900084005C0885001200633A8431031DA62C9A
:1003A0005908860087010130810741310318810A0D
:1003B0005A08860087010108840085010230810700
:1003C0000008DB005B082100B00020005808B100E5
:1003D0005708B000210030082000DB005B08B200A5
:1003E0009F31CF2720003108D8003008D7000800FF
:1003F0008F31DD2F2100E11B012AFD30E205FF30A6
:10040000E3056108803A2000BB0080303B02031DF9
:100410000C2A0130210060020318142A0130200048
:10042000C7000030C8001C2A210061082000C80055
:10043000210060082000C70021005F082000CA00DA
:1004400021005E082000C9002100621E2C2AFE3017
:100450002000C907FF30CA3D20003208CB00330816
:10046000CC003408CD003508CE003608CF00370860
:10047000D0003808D1003908D2001F30D300003036
:10048000D4002200C901EE2AFF302000D307FF303C
:10049000D43D0F304B05D50000304C05D600560832
:1004A000803ABB0080303B02031D582A0A305502B7
:1004B000031C5E2A20005508573E612A200055087B
:1004C000303ED5000030563DD6003A08BF3EBB0056
:1004D000FF3003180030BC0000303C021A30031912
:1004E0003B020318752A0130762A0030BD00BE0198
:1004F0003D08C3003E08C400430844040319AC2A65
:1005000020305504BB0000305604BC003B089F3E21
:10051000BD00FF303C3DBE0000303E021A300319E2
:100520003D020318952A0130962A0030BF00C00111
:100530003F08C5004008C600450846040319AC2A18
:100540005608F8005508F7009F315F278131780879
:100550002000D6007708D5005508BB0053082A3E76
:100560008600013087003B088100FF30C707FF305D
:10057000C83DFF30C907FF30CA3D4B308600003010
:100580008700403FBB00413FBC00423FBD00433FAE
:10059000BE00443FBF00453FC000463FC100473F4B
:1005A000C20004302000C236C10CC00CBF0CBE0C0F
:1005B000BD0CBC0CBB0C890BD22A20004208D20017
:1005C0004108D1004008D0003F08CF003E08CE00CF
:1005D0003D08CD003C08CC003B08CB00200054086F
:1005E000803ABB0080303B02031DF82A02305302E0
:1005F000031C1F2B20004B084C044D044E044F04D9
:10060000500451045204031D442A4808803ABB0098
:1006100080303B02031D0E2B013047020318442A91
:1006200020004A08803ABB0080303B02031D1A2B91
:1006300001304902031C1F2B2100E218442A21002B
:10064000621E3D2BFF302000D307FF30D43D3A0817
:10065000BB0053082A3E8600013087003B0881001A
:10066000FF30D307FF30D43D3030BB0053082A3E63
:100670008600013087003B08810020003108A70078
:100680003008A60053082A3EBB003B08A8004A08D1
:10069000AA004908A90090318A2020002708B1004B
:1006A0002608B000080020003208C5003308C60044
:1006B0003408C7003508C8003608C9003708CA0022
:1006C0003808CB003908CC00453086000030870060
:1006D000473FBA00BA1F6E2B01306F2B003020004D
:1006E000BB00BC013B08C3003C08C40043084404F1
:1006F0000319982BC509C609C709C809C909CA0938
:10070000CB09CC09C50A031D982BC60A031D982BDB
:10071000C70A031D982BC80A031D982BC90A031D7D
:10072000982BCA0A031D982BCB0A031D982BCC0AC1
:100730002100E11B9F2BFD30E205FF30E30561083E
:10074000803A2000BA0080303A02031DAA2B013003
:10075000210060020318B22B01302000BF000030DE
:10076000C000BA2B210061082000C00021006008F1
:100770002000BF0021005F082000C20021005E08A9
:100780002000C10043084404031DC92B2100621D41
:10079000CE2BFF302000C107FF30C23D1F302000AC
:1007A000CD000030CE002200C901642C2000450895
:1007B00046044704480449044A044B044C04031DFE
:1007C000FB2B4008803ABA0080303A02031DEA2B26
:1007D00001303F020318FB2B20004208803ABA0088
:1007E00080303A02031DF62B01304102031C702CAD
:1007F0002100E21C702CFF302000CD07FF30CE3DE1
:100800000A30A000A101A201A301A401A501A60133
:10081000A7014508A8004608A9004708AA004808FB
:10082000AB004908AC004A08AD004B08AE004C08CC
:10083000AF0096314326833120002108F5002008BF
:10084000F4009E314C2683317408303E2000BA00FB
:100850004D082A3E8600013087003A088100FF30AB
:10086000BF07FF30C03DFF30C107FF30C23D0A3037
:10087000A000A101A201A301A401A501A601A70155
:100880004508A8004608A9004708AA004808AB0088
:100890004908AC004A08AD004B08AE004C08AF0058
:1008A0008531A025833120002008C5002108C6001D
:1008B0002208C7002308C8002408C9002508CA0068
:1008C0002608CB002708CC0020004E08803ABA004A
:1008D00080303A02031D6E2C01304D020318D62BD6
:1008E000200043084404031D782C2100621D902C35
:1008F000FF302000CD07FF30CE3D43084404031DE8
:10090000832C2B30842C2D30BD000030BE003D08E0
:10091000BA004D082A3E8600013087003A0881005F
:1009200020003108A7003008A6004D082A3EBA0072
:100930003A08A8004208AA004108A90090318A207C
:1009400020002708B1002608B000080059088600DA
:100950008701403FF100413FF2006330F300A130D6
:10096000F4000330F5000030F6009031DB208431D4
:10097000710872040319D32C2000590886008701DE
:10098000403FF100413FF2006730F300A130F40036
:100990000330F5000030F6009031DB20843171081F
:1009A0007204031D1E2D20005908860087010330A4
:1009B000810741310318810A5A088600870101081E
:1009C000840085010230810700082100A7008039DA
:1009D000031DFF30A800A900AA00AB00AC00AD00C9
:1009E000AE0020005808B1005708B00021002708C9
:1009F0002000B200210028082000B30021002908AF
:100A00002000B40021002A082000B50021002B0896
:100A10002000B60021002C082000B70021002D087E
:100A20002000B80021002E082000B9008331532394
:100A300020003108D8003008D700080020005908ED
:100A400086008701403FF100413FF2006430F3002F
:100A5000A130F4000230F5000030F6009031DB20C8
:100A600084317108720403194C2D20005908860046
:100A70008701403FF100413FF2006830F300A130B0
:100A8000F4000230F5000030F6009031DB208431B4
:100A900071087204031D9E2D2000590886008701ED
:100AA0000230810741310318810A5A088600870104
:100AB00001088400850102308107003FDB00013F0F
:100AC000DC005B082100A70020005C082100A800D2
:100AD000890D893B8909A900AA00AB00AC00AD00D3
:100AE000AE0020005808B1005708B00021002708C8
:100AF0002000B200210028082000B30021002908AE
:100B00002000B40021002A082000B50021002B0895
:100B10002000B60021002C082000B70021002D087D
:100B20002000B80021002E082000B9008331532393
:100B300020003108D8003008D7000800883131285B
:100B4000F3012030860000308700473FF100F11F9D
:100B5000CA2D2000A009A109A209A309A409A50979
:100B6000A609A709A00A031DC82DA10A031DC82DA7
:100B7000A20A031DC82DA30A031DC82DA40A031D24
:100B8000C82DA50A031DC82DA60A031DC82DA70A36
:100B9000F301F30A2830860000308700473FF10058
:100BA000F11FF52D2000A809A909AA09AB09AC0974
:100BB000AD09AE09AF09A80A031DF12DA90A031D4D
:100BC000F12DAA0A031DF12DAB0A031DF12DAC0A6C
:100BD000031DF12DAD0A031DF12DAE0A031DF12DEC
:100BE000AF0A0130F1007108F3067430860000305E
:100BF00087000830F10000301E00F10BFC2D2000B2
:100C000020082104220423042404250426042704A4
:100C10000319602EF201F20AA71B1B2EA035A10DAD
:100C2000A20DA30DA40DA50DA60DA70D0130F10079
:100C30007108F2070C2EF435F50DF60DF70DF80DD1
:100C4000F90DFA0DFB0D27082F02031D412E260872
:100C50002E02031D412E25082D02031D412E2408BE
:100C60002C02031D412E23082B02031D412E2208B6
:100C70002A02031D412E21082902031D412E2008AE
:100C80002802031C542E2008A8022108A93B220890
:100C9000AA3B2308AB3B2408AC3B2508AD3B260808
:100CA000AE3B2708AF3B7414A736A60CA50CA40CCA
:100CB000A30CA20CA10CA00C0130F202031D1B2EF0
:100CC00073080319812EF409F509F609F709F809E3
:100CD000F909FA09FB09F40A031D812EF50A031D1F
:100CE000812EF60A031D812EF70A031D812EF80AB4
:100CF000031D812EF90A031D812EFA0A031D812E80
:100D0000FB0A74082000A0007508A1007608A20064
:100D10007708A3007808A4007908A5007A08A6003F
:100D20007B08A70008002100E11B9A2EFD30E20598
:100D3000FF30E3056108803A2000BA0080303A02B3
:100D4000031DA52E0130210060020318AD2E0130D5
:100D50002000C2000030C300B52E21006108200031
:100D6000C300210060082000C20021005F082000AD
:100D7000C70021005E082000C6003208C800330802
:100D8000C9003408CA003508CB003608CC00370843
:100D9000CD003808CE003908CF001F30D000003019
:100DA000D1002200C9012000C401C5014A2F200042
:100DB000480849044A044B044C044D044E044F04B3
:100DC000031DFC2E4308803ABA0080303A02031D0E
:100DD000EB2E013042020318FC2E20004708803A17
:100DE000BA0080303A02031DF72E01304602031C80
:100DF000552F2100E21C552FFF302000D007FF3077
:100E0000D13D07304805C40000304905C5004408FD
:100E1000303EBA0050082A3E8600013087003A086A
:100E20008100FF30C207FF30C33DFF30C607FF30EF
:100E3000C73D4830860000308700403FBA00413F40
:100E4000BB00423FBC00433FBD00443FBE00453FA6
:100E5000BF00463FC000473FC10003302000C136FD
:100E6000C00CBF0CBE0CBD0CBC0CBB0CBA0C890B6F
:100E70002E2F20004108CF004008CE003F08CD00B3
:100E80003E08CC003D08CB003C08CA003B08C90026
:100E90003A08C8005108803ABA0080303A02031D6F
:100EA000532F013050020318D72E2100621E6E2FDF
:100EB00020004408450403196E2FFF30D007FF308F
:100EC000D13D3030BA0050082A3E860001308700FC
:100ED0003A088100FF30C607FF30C73D20003108C7
:100EE000A7003008A60050082A3EBA003A08A80019
:100EF0004708AA004608A90090318A202000270848
:100F0000B1002608B000080072308600003087006B
:100F10000830F10000301E00F10B8B2F200020085C
:100F2000210422042304240425042604270403198D
:100F3000EF2FFA01FA0AA71BAA2FA035A10DA20DC7
:100F4000A30DA40DA50DA60DA70D0130F10071088C
:100F5000FA079B2FF235F30DF40DF50DF60DF70D95
:100F6000F80DF90D27082F02031DD02F26082E0299
:100F7000031DD02F25082D02031DD02F24082C027D
:100F8000031DD02F23082B02031DD02F22082A0275
:100F9000031DD02F21082902031DD02F200828026D
:100FA000031CE32F2008A8022108A93B2208AA3B22
:100FB0002308AB3B2408AC3B2508AD3B2608AE3BE1
:100FC0002708AF3B7214A736A60CA50CA40CA30CE3
:100FD000A20CA10CA00C0130FA02031DAA2F72086A
:100FE000A0007308A1007408A2007508A300760889
:100FF000A4007708A5007808A6007908A7000800D3
:1010000020006608EB006508EA002100DC01DD0134
:1010100020006A0884006B08850012000319282844
:101020006408D8006308D7006A30E8006808D9006F
:101030006708E9006908DA0080315820883120000B
:1010400057082100DC07200058082100DD3D082852
:1010500021005D082000E40021005C082000E3007E
:1010600008002000590886008701403FDB00413F0F
:10107000DC005B0884005C0885001200643A0319F8
:101080005028590886008701403FDB00413FDC00C3
:101090005B0884005C0885001200693A031DA128E2
:1010A0005908860087010130810741310318810A00
:1010B0005A088600870101088400850102308107F3
:1010C000003FDB00013FDC005B082100A70020009F
:1010D0005C082100A800890D893B8909A900AA00A4
:1010E000AB00AC00AD00AE0020005808B1005708BE
:1010F000B000210027082000B200210028082000AD
:10110000B300210029082000B40021002A08200093
:10111000B50021002B082000B60021002C0820007B
:10112000B70021002D082000B80021002E08200063
:10113000B9008331532320003108D8003008D7008C
:101140000800590886008701403FF100413FF20046
:101150007E30F300A130F4000230F5000030F600DC
:101160009031DB208831710872040319CE282000E9
:10117000590886008701403FF100413FF20081306D
:10118000F300A130F4000230F5000030F600903199
:10119000DB20883171087204031D172920005908CB
:1011A000860087010230810741310318810A5A08FD
:1011B0008600870101088400850102308107003F15
:1011C0002100A700013FA800A901AA01AB01AC01C1
:1011D000AD01AE0120005808B1005708B000210051
:1011E00027082000B200210028082000B3002100B9
:1011F00029082000B40021002A082000B5002100A1
:101200002B082000B60021002C082000B700210088
:101210002D082000B80021002E082000B9008331DD
:10122000532320003108D8003008D70008002000E0
:10123000590886008701403FF100413FF2006F30BE
:10124000F300A130F4000330F5000030F6009031D7
:10125000DB20883171087204031D762920005908AB
:10126000860087010330810741310318810A5A083B
:10127000860087010108840085010230810700088B
:101280002100B100B201B301B401B501B601B7014B
:10129000B80120005808B1005708B00021003108FB
:1012A0002000B200210032082000B30021003308E2
:1012B0002000B400210034082000B50021003508CA
:1012C0002000B600210036082000B70021003708B2
:1012D0002000B800210038082000B900863193268C
:1012E00020003108D8003008D70008002000590835
:1012F00086008701403FF100413FF2007030F3006B
:10130000A130F4000230F5000030F6009031DB200F
:10131000883171087204031DD629200059088600FF
:1013200087010230810741310318810A5A0886007B
:10133000870101088400850102308107003F2100F8
:10134000B100013FB200B301B401B501B601B7016C
:10135000B80120005808B1005708B000210031083A
:101360002000B200210032082000B3002100330821
:101370002000B400210034082000B5002100350809
:101380002000B600210036082000B70021003708F1
:101390002000B800210038082000B90086319326CB
:1013A00020003108D8003008D70008002000590874
:1013B00086008701403FDB00413FDC005B08840082
:1013C0005C08850012006F3A031D2E2A590886001A
:1013D00087010130810741310318810A5A088600CC
:1013E000870101088400850102308107003F210048
:1013F000B100013FB200B301B401B501B601B701BC
:10140000B80120005808B1005708B0002100310889
:101410002000B200210032082000B3002100330870
:101420002000B400210034082000B5002100350858
:101430002000B600210036082000B7002100370840
:101440002000B800210038082000B900863193261A
:1014500020003108D8003008D7000800590886005D
:101460008701403FF100413FF2008730F300A13097
:10147000F4000230F5000030F6009031DB208831B6
:1014800071087204031D8D2A200059088600870107
:101490000230810741310318810A5A08860087010A
:1014A00001088400850102308107003F2100B1005E
:1014B000013FB200B301B401B501B601B701B801F3
:1014C00020005808B1005708B00021003108200062
:1014D000B200210032082000B300210033082000B0
:1014E000B400210034082000B50021003508200098
:1014F000B600210036082000B70021003708200080
:10150000B800210038082000B90086319326200059
:101510003108D8003008D70008002000590886009C
:101520008701403FF100413FF2006B30F300A130F2
:10153000F4000330F5000030F6009031DB208831F4
:1015400071087204031D1D2B2000590886008701B5
:101550000330810741310318810A5A088600870148
:10156000403F84008501810A0008DB005B08210000
:10157000AF005C082000DB0021002F0886008701F7
:1015800020005B088100192B200059088600870184
:101590000230810741310318810A5A088600870109
:1015A000403F84008501810A0008DB005B082100C0
:1015B000AF002F08860087015C08C03F5D08C13F6F
:1015C000192B590886008701013081074131031822
:1015D000810A5A0886008701403F84008501810AFC
:1015E0000008DB005B082100AF002F0886008701A0
:1015F0005C08C03F5D08C13F192B200059088600D8
:1016000087010230810741310318810A5A08860098
:101610008701403F84008501810A0008DB005B08E8
:101620002100AF002F08860087015C08C03F5D08DD
:10163000C13F2000D701D8010800200059088600CA
:101640008701403FF100413FF2006C30F300A130D0
:10165000F4000230F5000030F6009031DB208831D4
:10166000710872040319C42A2000590886008701F2
:10167000403FDB00413FDC005B0884005C088500E4
:1016800012006E3A0319E12A590886008701403F8B
:10169000F100413FF2008430F300A130F400023049
:1016A000F5000030F6009031DB20883171087204BB
:1016B0000319FD2A2000590886008701403FDB00FE
:1016C000413FDC005B0884005C0885001200703A32
:1016D000031DD22B59088600870101308107413153
:1016E0000318810A5A0886008701403F840085015B
:1016F000810A0008DB00DC01DD01DE01DF01E00121
:10170000E101E20162082100B80020006108210027
:10171000B700200060082100B60020005F0821000B
:10172000B50020005E082100B40020005D08210003
:10173000B30020005C082100B20020005B082100FB
:10174000B10020005808B1005708B000210031084E
:101750002000B200210032082000B300210033082D
:101760002000B400210034082000B5002100350815
:101770002000B600210036082000B70021003708FD
:101780002000B800210038082000B9007830DB00C4
:101790005B08BA008131FA2120003108D8003008F6
:1017A000D7000800590886008701403FDB00413F11
:1017B000DC005B0884005C0885001200733A031D9E
:1017C000082C590886008701013081074131031830
:1017D000810A5A0886008701403F84008501810AFA
:1017E0000008DB005B082100A00020005808A100D1
:1017F0005708A000210020082000DB005B08A200A1
:101800009531802520002108D8002008D700080045
:10181000590886008701403FF100413FF2007330D4
:10182000F300A130F4000330F5000030F6009031F1
:10183000DB20883171087204031D662C20005908D2
:10184000860087010330810741310318810A5A0855
:1018500086008701010884008501023081070008A5
:101860002100B100B201B301B401B501B601B70165
:10187000B80120005808B1005708B0002100310815
:101880002000B200210032082000B30021003308FC
:101890002000B400210034082000B50021003508E4
:1018A0002000B600210036082000B70021003708CC
:1018B0002000B800210038082000B90097311F2708
:1018C00020003108D8003008D7000800200059084F
:1018D00086008701403FF100413FF2007430F30081
:1018E000A130F4000230F5000030F6009031DB202A
:1018F000883171087204031DC62C20005908860027
:1019000087010230810741310318810A5A08860095
:10191000870101088400850102308107003F210012
:10192000B100013FB200B301B401B501B601B70186
:10193000B80120005808B1005708B0002100310854
:101940002000B200210032082000B300210033083B
:101950002000B400210034082000B5002100350823
:101960002000B600210036082000B700210037080B
:101970002000B800210038082000B90097311F2747
:1019800020003108D8003008D7000800200059088E
:1019900086008701403FDB00413FDC005B0884009C
:1019A0005C0885001200753A031D1E2D590886003B
:1019B00087010130810741310318810A5A088600E6
:1019C000870101088400850102308107003F210062
:1019D000B100013FB200B301B401B501B601B701D6
:1019E000B80120005808B1005708B00021003108A4
:1019F0002000B200210032082000B300210033088B
:101A00002000B400210034082000B5002100350872
:101A10002000B600210036082000B700210037085A
:101A20002000B800210038082000B90097311F2796
:101A300020003108D8003008D70008005908860077
:101A40008701403FF100413FF2008A30F300A130AE
:101A5000F4000230F5000030F6009031DB208831D0
:101A600071087204031D7D2D20005908860087012E
:101A70000230810741310318810A5A088600870124
:101A800001088400850102308107003F2100B10078
:101A9000013FB200B301B401B501B601B701B8010D
:101AA00020005808B1005708B0002100310820007C
:101AB000B200210032082000B300210033082000CA
:101AC000B400210034082000B500210035082000B2
:101AD000B600210036082000B7002100370820009A
:101AE000B800210038082000B90097311F272000D6
:101AF0003108D8003008D7000800200059088600B7
:101B00008701403FF100413FF2007730F300A13000
:101B1000F4000330F5000030F6009031DB2088310E
:101B2000710872040319AB2D200059088600870143
:101B3000403FF100413FF2005F30F300A130F4007C
:101B40000330F5000030F6009031DB208831710859
:101B50007204031D0D2E2000590886008701403FA6
:101B6000DB00413FDC0002305B0784005C080318A7
:101B70005C0A85000008DD005D082100B00020003F
:101B80005908860087010330810741310318810A13
:101B90005A08860087010108840085010230810708
:101BA00000082100B100B201B301B401B501B601D2
:101BB000B701B80120005808B1005708B000210053
:101BC00031082000B200210032082000B3002100BB
:101BD00033082000B400210034082000B5002100A3
:101BE00035082000B600210036082000B70021008B
:101BF00037082000B800210038082000B900210073
:101C000030082000DB005B08BA008131FA21200097
:101C10003108D8003008D700080020005908860095
:101C20008701403FF100413FF2007830F300A130DE
:101C3000F4000230F5000030F6009031DB208831EE
:101C40007108720403193B2E200059088600870191
:101C5000403FF100413FF2006030F300A130F4005A
:101C60000230F5000030F6009031DB208831710839
:101C70007204031D9E2E2000590886008701403FF4
:101C8000DB00413FDC0001305B0784005C08031887
:101C90005C0A85000008DD005D082100B00020001E
:101CA0005908860087010230810741310318810AF3
:101CB0005A088600870101088400850102308107E7
:101CC000003F2100B100013FB200B301B401B501F2
:101CD000B601B701B80120005808B1005708B0009C
:101CE000210031082000B200210032082000B3009A
:101CF000210033082000B400210034082000B50082
:101D0000210035082000B600210036082000B70069
:101D1000210037082000B800210038082000B90051
:101D2000210030082000DB005B08BA008131FA2175
:101D300020003108D8003008D700080020005908DA
:101D400086008701403FDB00413FDC005B088400E8
:101D50005C0885001200783A0319BD2E59088600E8
:101D60008701403FDB00413FDC005B0884005C08EA
:101D700085001200583A031D1C2F59088600870160
:101D8000403FDB00413FDC005B0884005C088500CD
:101D90000008DD005D082100B00020005908860021
:101DA00087010130810741310318810A5A088600F2
:101DB000870101088400850102308107003F21006E
:101DC000B100013FB200B301B401B501B601B701E2
:101DD000B80120005808B1005708B00021003108B0
:101DE0002000B200210032082000B3002100330897
:101DF0002000B400210034082000B500210035087F
:101E00002000B600210036082000B7002100370866
:101E10002000B800210038082000B9002100300857
:101E20002000DB005B08BA008131FA212000310874
:101E3000D8003008D7000800590886008701403FC5
:101E4000F100413FF2008D30F300A130F400023088
:101E5000F5000030F6009031DB2088317108720403
:101E60000319492F2000590886008701403FF100DF
:101E7000413FF2007B30F300A130F4000230F50066
:101E80000030F6009031DB20883171087204031DA8
:101E9000AC2F2000590886008701403FDB00413FFE
:101EA000DC0001305B0784005C0803185C0A8500D5
:101EB0000008DD005D082100B00020005908860000
:101EC00087010230810741310318810A5A088600D0
:101ED000870101088400850102308107003F21004D
:101EE000B100013FB200B301B401B501B601B701C1
:101EF000B80120005808B1005708B000210031088F
:101F00002000B200210032082000B3002100330875
:101F10002000B400210034082000B500210035085D
:101F20002000B600210036082000B7002100370845
:101F30002000B800210038082000B9002100300836
:101F40002000DB005B08BA008131FA212000310853
:101F5000D8003008D7000800200059088600870103
:101F6000403FDB00413FDC005B0884005C088500EB
:101F70001200253A031DD42F59088600870101302D
:101F8000810741310318810A2530F1000030F20049
:101F90005808F4005708F30091312D21013020003A
:101FA000D7000030D80008005908860087010130AA
:101FB000810741310318810A192B590886008701CE
:101FC000403FDB00413FDC005B0884005C0885008B
:101FD0000008DD00DE015D08F1005E08F20058082F
:101FE000F4005708F30091312D2188312000590861
:101FF000860087010130810741310318810ACE2F05
:10200000F501F50A203071067204031914287108CD
:10201000F73EF300FF30723DF400003074020530EB
:10202000031973020318F5017508F300F40173082E
:10203000F1007408F20008009D31B2259031760855
:10204000F2007508F1000030F300F4009D31DD2549
:1020500090317808F2007708F1009D31CB2590315E
:102060009D31BA2590319D31B22590317608F2002C
:102070007508F1000130F3000030F4009D31DD25DA
:1020800090319E310E2690317208FA007108F900E5
:102090009D31D42590319D31BA257A08F600790812
:1020A000F500080021000D1123000D1121008D15F0
:1020B00023008D110E128E1221000E168E160C1298
:1020C0008C12101055303C008F00AA308F000F107A
:1020D0003D002408E0391138A4003C002108E03913
:1020E0001438A1002008E0391538A0003D0025086B
:1020F000E0391038A5001A08E03914389A003C007D
:102100002408E0390B38A40055308F00AA308F0026
:102110000F1408002100621C962820002708FB00ED
:102120002608FA0028089F31812790312000AA1B39
:102130009E282A08AF002908AE00A028AE01AF01F2
:10214000AC01AD012D08803AAB002F08803A2B027C
:10215000031DAC282E082C020318C0282030F100E3
:102160000030F20020002708F4002608F300913127
:102170002D21903101302000AC070030AD3DA22868
:1021800021006218CC2820002708FB002608FA004E
:1021900028089F318127903120002808F100013064
:1021A000F2009E31352620002E087107A6002F0868
:1021B000723DA70008007208F9007108F800740861
:1021C000FB007308FA000130F5020030F63B750A97
:1021D000031D1529760A031D1529F101F2010800D6
:1021E0007A0884007B088500120003191C297508F1
:1021F000760403191C297A0884007B0885000008EE
:10220000F700780884007908850000087706031D28
:102210001C290130F8070030F93D0130FA07003081
:10222000FB3D0130F5020030F63B78088400790868
:1022300085001200031DF0287808840079088500C5
:102240000008F7007A0884007B0885000008770200
:10225000F100F201031CF20308007308740403196F
:10226000352973087404031D39297108803103204E
:1022700008007308860074088700443116000104C2
:102280000319602973088600740887004431403FB1
:10229000F500413FF600730886007408870042315C
:1022A000403FF700413FF8007808803AF90076088F
:1022B000803A7902031D5E29750877020318080029
:1022C000730886007408870042317308840074081C
:1022D0008500403F0007F5000131413F003DF60019
:1022E00075088600760887007108810073088600EB
:1022F0007408870042310130810741310318810A97
:1023000008002000200821042204230424042504BA
:10231000260427040319D929F201F20AA71B9D29D3
:10232000A035A10DA20DA30DA40DA50DA60DA70D01
:102330000130F1007108F2078E2927082F02031DD2
:10234000BB2926082E02031DBB2925082D02031DCB
:10235000BB2924082C02031DBB2923082B02031DC3
:10236000BB2922082A02031DBB2921082902031DBB
:10237000BB2920082802031CCD292008A802210817
:10238000A93B2208AA3B2308AB3B2408AC3B250809
:10239000AD3B2608AE3B2708AF3BA736A60CA50CE5
:1023A000A40CA30CA20CA10CA00C0130F202031D82
:1023B0009D292808A0002908A1002A08A2002B08AE
:1023C000A3002C08A4002D08A5002E08A6002F08A5
:1023D000A7000800803021003C02003003193B02B6
:1023E000031CFB294B30DA000030DB00FF30B90062
:1023F000FF30BA0008003A08C5003908C4000030B0
:102400003C02023003193B02031C0F2A3B08FF3E2B
:10241000C800FF303C3DC900C601C701172A013082
:10242000C8000030C9000130C6000030C700C43009
:102430002000E3000030E40021003E082000E60018
:1024400021003D082000E50021003F082000EC00AD
:102450006C08E700883100209131200064082100D9
:10246000C300200063082100C2003B083C04031D98
:10247000C31B602A3B08FF3E2000EC00FF30210018
:102480003C3D2000ED006D0821004302031D4C2A55
:1024900020006C0821004202031C552A3B08FF3E25
:1024A000C000FF303C3DC100592A4308C10042082A
:1024B000C00040083907860041083A3D8700810185
:1024C0004308BA004208B90008002000A101F41F27
:1024D000762AF109F209F309F409F10A0319F20A5B
:1024E0000319F30A0319F40AA101A10AF81F872AA4
:1024F000F509F609F709F809F50A0319F60A0319A7
:10250000F70A0319F80A0130F9007908A10600302A
:10251000A5000030A4000030A3000030A200740821
:102520007304720471040319D02AA001A00AF41BD9
:10253000A52A0130F135F20DF30DF40D890B9A2A1D
:102540000130F9007908A007972A0130A235A30DC0
:10255000A40DA50D890BA62A74087802031DBA2ABA
:1025600073087702031DBA2A72087602031DBA2A7D
:1025700071087502031CC52A7108F5027208F63B42
:102580007308F73B7408F83B22140130F436F30C5F
:10259000F20CF10C890BC62A0130A002031DA52AFA
:1025A00021080319DE2AA209A309A409A509A20A80
:1025B0000319A30A0319A40A0319A50A2508F4009C
:1025C0002408F3002308F2002208F10008006E2B13
:1025D000690803190800E9019F313D2792319431C0
:1025E000CC249231200020082100D7005708200079
:1025F000EF00DF30F200A030F3009E3191269231DF
:1026000020006F0803190800181021001110003075
:10261000F100F2009F311C2792312100E9011A30AC
:102620002100D700F830890B132BD70B132B000098
:102630000230F200A030F3009E31912692317130C9
:102640002100CA002730CB007F30CC000030CD0005
:102650008A30CE00A030CF006508D1006408D000D9
:102660006708D3006608D2009E31C62692317130C9
:10267000F2002730F3009E31912692313030F20083
:10268000A030F3009E3191262100EA01EA0A0800F9
:102690008031022092311A302100D700F830890BA6
:1026A0004F2BD70B4F2B0000B530F200A030F300BA
:1026B0009E31912692315D30F200A030F3009E31C0
:1026C000912692310130F1000030F2009F311C2739
:1026D00002302100D7005708EA00080021006A08EC
:1026E000D700D8015808003A0319772B822B5708D6
:1026F000003A0319E82A013A0319482B033A03194F
:10270000822B822B08002000AB01AC01A401A501A3
:10271000AA01AA0A77088400780885001200203AE6
:102720000319A42B77088400780885000008F73E79
:10273000A000FF3003180030A10000302102053056
:10274000031920020318AA012A08A000A1012008E9
:10275000A6002108A700260827040319B92B013079
:10276000F7070030F83D882B0130A4000030A500A9
:10277000EC2B77088400780885000008A000A101F0
:102780002108003A0319C52BF02B20082B3A031916
:10279000EC2B063A0319B42BF02B77088400780849
:1027A00085000008A0002C08F2002B08F1000A3078
:1027B000F3000030F4009E31AB2693317208200004
:1027C000A20020087102A100031CA2032108303ED0
:1027D000AB000030223DAC000130F7070030F83D7F
:1027E00077088400780885000008D03EA000FF30FC
:1027F00003180030A100003021020A300319200222
:102800000318042C0130052C0030A200A30122087B
:10281000A8002308A90028082904031DCD2B24089B
:102820002504031D1F2C2B09A0002C09A100A00AC0
:102830000319A10A2008F7002108F80008002C0855
:10284000F8002B08F700080020002608AA00270837
:10285000AB002808AC002908AD000630AA35AB0D46
:10286000AC0DAD0D890B2E2C2D08F4002C08F300B7
:102870002B08F2002A08F1002608AE002708AF0056
:102880002808B0002908B1000630AE35AF0DB00DF4
:10289000B10D890B452C0030B2002430B300F43068
:1028A000B4000030B5002E08B2022F08B33B300848
:1028B000B43B3108B53B3508F8003408F70033085D
:1028C000F6003208F5009231652294317208FB005F
:1028D0007108FA0001307B02003003197A02031CF0
:1028E000B92C20002608AA002708AB002808AC0055
:1028F0002908AD000430AA35AB0DAC0DAD0D890B28
:102900007B2C2D08F4002C08F3002B08F2002A0879
:10291000F1002608AE002708AF002808B0002908FB
:10292000B1000430AE35AF0DB00DB10D890B922C56
:102930000030B2002430B300F430B4000030B500F1
:102940002E08B2022F08B33B3008B43B3108B53B28
:102950003508F8003408F7003308F6003208F500AF
:102960009231652294317208FB007108FA0023004D
:102970001E1501307B02003003197A02031808008B
:102980007A0823009B001E129D1721008E170E1738
:1029900023001D169E1608002000AB01AC01AD01FE
:1029A000AE0120002D35203E86000130870000302A
:1029B000C03FC13F0130AD070030AE3D2E08803A28
:1029C000A20080302202031DE72C04302D02031CDC
:1029D000D12C1830F5000030F6000B30F700003035
:1029E000F8001930F9000030FA009E31FE269431CB
:1029F0001830F5000030F6000B30F7000030F8001A
:102A000090311C209431193075067604031D7A2DFF
:102A100001302000AB000030AC001830F500003071
:102A2000F6000430F7000030F8001830F9000030EC
:102A3000FA009E31FE2694311830F5000030F60081
:102A40000530F7000030F8004030F9000030FA009F
:102A50009E31FE2694311830F5000030F6005130DA
:102A6000F7000030F80090311C20943176082100E6
:102A7000E5007508E4001830F5000030F600593024
:102A8000F7000030F80090311C20943175082000C8
:102A9000A2007608A3000530A400230DA30CA20C0D
:102AA000A40B4D2D07302205A50000302305A600FC
:102AB0001830F5000030F6005030F7000030F80014
:102AC00090311C200C3075052000A70000307605E1
:102AD000A800A735A80D25082704A9002608280462
:102AE000AA0029086D3E2100E600013020002A3DA1
:102AF0002100E70020002C08A1002B08A0000800FE
:102B00004A30860001308700233084000030850081
:102B10000730FA0016001A00FA0B8A2D200022084E
:102B2000FA007A08AE002E08031D9A2D2330FA0011
:102B30007A08AE002E08F1000030F2009E313526F2
:102B4000953172082000B2007108B10021006108BF
:102B50002000B000210060082000AF00B01BC12D94
:102B60003008803AFA003208803A7A02031DBA2D02
:102B700031082F020318C12D20003008B2002F08A1
:102B8000B10020003208B0003108AF0021005F081A
:102B90002000AD0021005E082000AC002100621C76
:102BA000E32DF02D2030F1000030F200200021084C
:102BB000F4002008F30091312D21953101302000DF
:102BC000B1070030B23D20003208803AFA002D08EB
:102BD000803A7A02031DEE2D2C083102031CD22DFF
:102BE0002000AA01AB012B08803AFA003008803A95
:102BF0007A02031DFD2D2F082A0203181B2E200028
:102C00002E08860087010108FA00FB017A08F1000E
:102C10007B08F2002108F4002008F30091312D21F7
:102C200095310130FA007A082000AE070130AA077A
:102C30000030AB3DF32D21006218302E3D2E2030A8
:102C4000F1000030F20020002108F4002008F30019
:102C500091312D21953101302000B1070030B23D76
:102C600020003208803AFA002D08803A7A02031DCB
:102C70003B2E2C083102031C1F2E20003208A1001D
:102C80003108A0000800F3012830860000308700DA
:102C9000473FF100F11F6D2E2000A809A909AA09DC
:102CA000AB09AC09AD09AE09AF09A80A031D6B2E2B
:102CB000A90A031D6B2EAA0A031D6B2EAB0A031D66
:102CC0006B2EAC0A031D6B2EAD0A031D6B2EAE0AD4
:102CD000031D6B2EAF0AF301F30A2030860000308B
:102CE0008700473FF100F11F942E2000A009A109A1
:102CF000A209A309A409A509A609A709A00A031DF9
:102D0000942EA10A031D942EA20A031D942EA30A39
:102D1000031D942EA40A031D942EA50A031D942EB0
:102D2000A60A031D942EA70A2000200821042204CD
:102D3000230424042504260427040319EC2EF2019D
:102D4000F20AA71BB02EA035A10DA20DA30DA40D54
:102D5000A50DA60DA70D0130F1007108F207A12EF7
:102D600027082F02031DCE2E26082E02031DCE2E6D
:102D700025082D02031DCE2E24082C02031DCE2E65
:102D800023082B02031DCE2E22082A02031DCE2E5D
:102D900021082902031DCE2E20082802031CE02E44
:102DA0002008A8022108A93B2208AA3B2308AB3B24
:102DB0002408AC3B2508AD3B2608AE3B2708AF3BBB
:102DC000A736A60CA50CA40CA30CA20CA10CA00C5D
:102DD0000130F202031DB02E730803190D2FA8094C
:102DE000A909AA09AB09AC09AD09AE09AF09A80A3E
:102DF000031D0D2FA90A031D0D2FAA0A031D0D2F58
:102E0000AB0A031D0D2FAC0A031D0D2FAD0A031DC8
:102E10000D2FAE0A031D0D2FAF0A20002808A000B9
:102E20002908A1002A08A2002B08A3002C08A4004E
:102E30002D08A5002E08A6002F08A70008002100D5
:102E4000E11B262FFD30E205FF30E3056108803AE3
:102E50002000BA0080303A02031D312F01302100DA
:102E600060020318392F01302000BB000030BC0085
:102E7000412F210061082000BC00210060082000D3
:102E8000BB0021005F082000BE0021005E0820007A
:102E9000BD003208BF003308C0003408C100350847
:102EA000C2003608C3003708C4003808C500390816
:102EB000C6001F30C7000030C8002200C901E52F3E
:102EC0003F084004410442044304440445044604CA
:102ED000031D842F3C08803ABA0080303A02031D5B
:102EE000732F01303B020318842F20003E08803AE4
:102EF000BA0080303A02031D7F2F01303D02031CCF
:102F0000EA2F2100E21CEA2FFF302000C707FF3024
:102F1000C83D0A30A000A101A201A301A401A5019E
:102F2000A601A7013F08A8004008A9004108AA007F
:102F30004208AB004308AC004408AD004508AE00B1
:102F40004608AF0091318121973120002008303EA2
:102F5000BA0047082A3E8600013087003A088100FF
:102F6000FF30BB07FF30BC3DFF30BD07FF30BE3D2B
:102F70000A30A000A101A201A301A401A501A6019C
:102F8000A7013F08A8004008A9004108AA0042087C
:102F9000AB004308AC004408AD004508AE0046084D
:102FA000AF0087318427973120002008BF00210817
:102FB000C0002208C1002308C2002408C30025085D
:102FC000C4002608C5002708C6002000470848049A
:102FD000031D602F20003108A7003008A600470815
:102FE0002A3EBA003A08A8003E08AA003D08A900F7
:102FF00090318A2020002708B1002608B000080080
:103B36009D31C225080022000C168C1610140800B0
:103B460028346E3475346C346C3429340034F10006
:103B56002000111EAB2D710823009A0008002000DA
:103B6600911124001614200091190800B62D20008A
:103B7600911124001615200091190800BE2D210070
:103B860019109910991519169916191799130800ED
:103B9600200091117108240091002000911908005D
:103BA600D02D20009111240096161616200091198A
:103BB6000800D92D2000911171357307240091005A
:103BC600200091190800E32DCF30200098059601BA
:103BD60097011814210011140B178B1708006400A5
:103BE600800101310130FE020030FF3B7F087E0478
:103BF60003190034F32D24001508F0390838950010
:103C06009516273092003430F100F230890B092ED8
:103C1600F10B092E080020009111240096152000B2
:103C2600911D122E24001108F300F4017308F1000F
:103C36007408F20008007108D03EF300FF30723DB0
:103C4600F400003074020A300319730203182D2E93
:103C560001302E2E0030F500F6017508F1007608C9
:103C6600F20008007208F4007108F300710886007B
:103C76007208870001080319452E0130F10700304C
:103C8600F23D392E73087102F1007408723BF2009E
:103C960008007508803AF60080307602031D552E1E
:103CA60001307402031808007409F6007509F7005C
:103CB600F60A0319F70A7608F4007708F5000800F3
:103CC6007108BF3EF300FF30723DF400003074020D
:103CD6001A30031973020318722E0130732E003046
:103CE600F500F6017508F1007608F2000800710883
:103CF6009F3EF300FF30723DF400003074021A302C
:103D0600031973020318892E01308A2E0030F5003C
:103D1600F6017508F1007608F2000800F501F601D3
:103D26007208750784007308763D85001200031932
:103D360008007208750784007308763D8500000840
:103D46009D31AA259E310130F5070030F63D932EB0
:103D5600F501F601711CB32E7308F5077408F63DDC
:103D66000130F335F40D890BB42E0130F236F10C27
:103D7600890BB92E71087204031DAD2E7608F20068
:103D86007508F1000800D0302000EE006E08210012
:103D9600D6004B08BA004A08B9004D08BC004C08CA
:103DA600BB004F08BE004E08BD00D6302000EE0016
:103DB6006E082100BF009131EA210800203071040D
:103DC600F30000307204F40073089F3EF500FF30E4
:103DD600743DF600003076021A3003197502031896
:103DE600F62E0130F72E0030F700F8017708F100C3
:103DF6007808F20008009D31B2259E317608F2005F
:103E06007508F1000030F300F4009D31DD259E3188
:103E16007808F2007708F1009D31CB259E317A08AB
:103E2600F2007908F1009D31CB259E319D31BA25EE
:103E360008002C2F22000C128C16101408002200E9
:103E46000C168C121014080022000C168C1610107A
:103E560008007208003A0319312F3C2F7108003A06
:103E660003191D2F013A0319222F033A0319272F8D
:103E76003C2F08007C0803194F2F7C08031D452F93
:103E86000130462F0030F3007308FC000030F100CB
:103E9600F2009F311C2708007C08031D542F0130B7
:103EA600552F0030F3007308FC000130F10000309C
:103EB600F2009F311C27080077089F3E2000A000D3
:103EC600FF30783DA100003021021A30031920028C
:103ED60003186F2F0130702F0030A200A3012208B3
:103EE600F9002308FA0079087A04031908005F30FC
:103EF6007705F70000307805F80008002000A500D7
:103F0600A301A40123082507A0002008860001308C
:103F160087000108A1002108A20022080319080051
:103F26002208A000A1012008F1002108F2007B0868
:103F3600F4007A08F30091312D219F3101302000E1
:103F4600A3070030A43D852F9D319B259F319031DD
:103F560052209F319D31FE259F3100302000A9005F
:103F66000030A8002530A7008030A6009431242414
:103F76009F319D31E7259F319D319E259F3192319D
:103F8600E7229F3134302100D900F130890BC92F47
:103F9600D90BC92F0032C22F21005E085F04031D12
:103FA600DC2F5F082000B50021005E082000B40069
:103FB600E52F5E08FF3E2000B400FF3021005F3D84
:103FC6002000B5003208B30033082200AA00AB0176
:103FD60020003108A7003008A6002A30B3003308B5
:103FE600A8003508AA003408A90090318A202000CC
:103FF6002708B1002608B000080002340034433414
:104006006F346D346D3475346E34693463346134B1
:10401600743469346F346E342034773469347434CC
:1040260068342034423451343734363439343234F7
:1040360030342034413446344534203465347334C6
:104046007434613462346C3469347334683465347E
:10405600643421340A340D340034413474347434F5
:1040660065346D3470347434203474346F342034D1
:10407600733465347434203473347934733474345B
:1040860065346D34203470346134723461346D3487
:1040960065347434653472347334203474346F3454
:1040A60020344134463445342E342E342E340A34EA
:1040B6000D3400344E346F34773420347234653422
:1040C6006134643469346E346734203441344634A0
:1040D60045342034643461347434613420346134BA
:1040E6007434203472346534673475346C34613416
:1040F6007234203469346E347434653472347634F0
:1041060061346C3473342E340A340D3400344F3435
:1041160062347434613469346E3465346434203402
:104126006134643463344F346634663473346534CE
:10413600743420343D3420342534693420346134D9
:104146006E34643420346134643463344734613407
:1041560069346E3420343D342034253469340A34CD
:104166000D34003449346E3469347434693461343E
:104176006C34203470346134723461346D34653497
:104186007434653472347334203466346F34723464
:1041960020344234513437343634393432343034BE
:1041A6002034413446344534203473346534743411
:1041B60021340A340D340034413474347434653493
:1041C6006D347034743469346E3467342034743426
:1041D6006F34203463346F346D346D3475346E341B
:1041E6006934633461347434653420347734693423
:1041F6007434683420344134463445342E342E34F5
:104206002E340A340D34003411340034163400349C
:104216001C34003421340034273400342C34003468
:1042260032340034383400343D34003443340034FE
:10423600483400344E340034533400345934003496
:104246005E340034643400340834003414340034EA
:104256002834003450340034A0340034403401345F
:1042660080340234003405342C34003443340034B2
:10427600593400346F340034853400349B340034B0
:10428600B2340034C834003401340034023400340B
:104296000434003408340034013400340434003467
:1042A60008340034103400344634003464340034A6
:1042B600C8340034903401346834683458340034D7
:1042C60068346834643400346834683469340034DB
:1042D600683468346E340034683468346F340034BB
:1042E600683468347534003468346834783400349B
:1042F6007A34583400347A34643400347A34693485
:1043060000347A346E3400347A346F3400347A34BC
:0A431600753400347A347834003432
:020000040001F9
:04000E00A4D9FFDE94
:00000001FF
