:020000040000FA
:0400000080311E2805
:100008007E1480312000111C1C282100111C1C2882
:10001800200011100130F00070082300E6073D3081
:100028006606031D1C280130F0007008E700E60191
:100038007E100900803120282300B2312922803126
:10004800EA00B2312A228031EB00B2312B22803112
:10005800EC00B2312C228031ED0038308400B2300F
:10006800850024001200CE001200CF001200D0003C
:100078001200D1001200D2001200D3001200D400E6
:1000880071308400273085007F30FE000030FF008B
:10009800B23192228031FC01623084000130850047
:1000A8000E30FE000030FF00B23192228031A030C5
:1000B8008400013085004A30FE000030FF00B23174
:1000C8009222803120308400023085002E30FE00DC
:1000D8000030FF00B23192227E102000B531522D3F
:1000E800230037082200D900230036082200D80050
:1000F800230035082200D700230034082200D60048
:1001080021002B082200D90021002A082200D8004B
:10011800210029082200D700210028082200D60043
:100128005908E1005808E0005708DF005608DE00CB
:10013800BC01BD016108031DA52880306002031CB5
:10014800C1285E082100AC0022005F082100AD0034
:10015800220060082100AE00220061082100AF00E3
:100168001F30AF36AE0CAD0CAC0C890BB5282F0880
:100178002E042D042C040319CA2922005E0821002C
:10018800AC0022005F082100AD00220060082100B9
:10019800AE00220061082100AF000130AC35AD0D82
:1001A800AE0DAF0D890BD2282F082E042D042C0478
:1001B800031D24292B082000A90021002A0820005B
:1001C800A800210029082000A700210028082000F5
:1001D800A60021002B082000AD0021002A082000DD
:1001E800AC00210029082000AB00210028082000CD
:1001F800AA0090312220803120002908C300280855
:10020800C2002708C1002608C000BF30C7008030E0
:10021800C6000030C5000030C4009C31E224200034
:1002280043082100AB00200042082100AA0020005A
:1002380041082100A900200040082100A80008006A
:1002480022005E082100AC0022005F082100AD00FA
:10025800220060082100AE00220061082100AF00E2
:100268001F30AF36AE0CAD0CAC0C890B35292F08FE
:100278002E042D042C040319812900302000C3000A
:100288000030C2000030C1000030C00021002B083F
:10029800A3002A08A2002908A1002808A0002B080A
:1002A800A7002A08A6002908A5002808A400B53137
:1002B8001D258031210023082000C70021002208C5
:1002C8002000C600210021082000C50021002008C8
:1002D8002000C4009C31E224200043082100AB0028
:1002E800200042082100AA00200041082100A9009E
:1002F800200040082100A8000800E7302200BC07C1
:10030800FF30BD3D4C302000A9000030A80000306F
:10031800A7000030A60021002B082000AD00210016
:100328002A082000AC00210029082000AB00210089
:1003380028082000AA0090312220803120002908B6
:100348002100AB00200028082100AA00200027086F
:100358002100A900200026082100A8002B0822005F
:10036800D90021002A082200D800210029082200EB
:10037800D700210028082200D6005908E1005808B3
:10038800E0005708DF005608DE00E429803022002C
:1003980060027F30613B03180800803060063F3000
:1003A800031961065E045F04031DE429003021007F
:1003B800AB000030AA000030A9000030A8000800F7
:1003C8000D30DE07FB30DF3D4A30E03D0030E13DD7
:1003D8005E082100AC0022005F082100AD00220069
:1003E80060082100AE00220061082100AF0017302C
:1003F800AF36AE0CAD0CAC0C890BFC292C08813E39
:10040800B000FF302D3DB10030082200BC072100AC
:1004180031082200BD3DF3302100AC000430AD00AE
:100428003530AE003F30AF00FF3022005E052100BE
:10043800B000FF3022005F052100B1007F302200AC
:1004480060052100B2000030220061052100B300E0
:100458003008AC073108AD3D3208AE3D3308AF3D3A
:100468002F082200E10021002E082200E0002100D0
:100478002D082200DF0021002C082200DE00610880
:10048800D9006008D8005F08D7005E08D600590870
:100498002100AB00220058082100AA0022005708BA
:1004A8002100A900220056082100A800BF30200022
:1004B800DD008030DC000030DB000030DA00210095
:1004C8002B082000E10021002A082000E00021007C
:1004D80029082000DF00210028082000DE008531DF
:1004E800FE25803120005D082200DD0020005C0828
:1004F8002200DC0020005B082200DB0020005A08F4
:100508002200DA0040302000DD000030DC0000303E
:10051800DB000030DA0022005D082000E100220044
:100528005C082000E00022005B082000DF002200B9
:100538005A082000DE008531FE25803120005D0844
:10054800C3005C08C2005B08C1005A08C000220052
:100558005D082000C70022005C082000C6002200B9
:100568005B082000C50022005A082000C4009C3106
:10057800E2248031200043082200C90020004208FC
:100588002200C800200041082200C70020004008BF
:100598002200C60049082000A900220048082000BF
:1005A800A800220047082000A700220046082000D3
:1005B800A600220049082000AD00220048082000BB
:1005C800AC00220047082000AB00220046082000AB
:1005D800AA00903122208031200029082200CD0075
:1005E800200028082200CC00200027082200CB0089
:1005F800200026082200CA004D082000A900220079
:100608004C082000A80022004B082000A700220068
:100618004A082000A60022004D082000AD00220054
:100628004C082000AC0022004B082000AB00220040
:100638004A082000AA009031222080312000290891
:100648002200D100200028082200D000200027081E
:100658002200CF00200026082200CE003E302000D5
:10066800DD00CC30DC00CE30DB001330DA003E3069
:10067800A9007830A8009E30A7002630A6002200E6
:1006880051082000AD00220050082000AC002200D4
:100698004F082000AB0022004E082000AA0090312D
:1006A8002220803120002908E1002808E0002708DE
:1006B800DF002608DE008531FE25803120005D0838
:1006C8002200D50020005C082200D40020005B082E
:1006D8002200D30020005A082200D200510820002E
:1006E800A900220050082000A80022004F0820007E
:1006F800A70022004E082000A6002200550820006E
:10070800AD00220054082000AC002200530820004D
:10071800AB00220052082000AA009031222080312C
:10072800200029082200A700200028082200A6008F
:10073800200027082200A500200026082200A40087
:100748003F302000DD002A30DC00AA30DB00AA3070
:10075800DA003E30A9009130A800E930A700EE3059
:10076800A600220051082000AD00220050082000F9
:10077800AC0022004F082000AB0022004E082000E9
:10078800AA0090312220803120002908E1002808A1
:10079800E0002708DF002608DE008531FE258031CD
:1007A80020005D082200D50020005C082200D4004B
:1007B80020005B082200D30020005A082200D20043
:1007C8004D082000A90022004C082000A8002200A3
:1007D8004B082000A70022004A082000A60022009B
:1007E80055082000AD00220054082000AC0022006B
:1007F80053082000AB00220052082000AA009031C4
:1008080022208031200029082200AB00200028087F
:100818002200AA00200027082200A900200026089C
:100828002200A80027082000DD002200260820005A
:10083800DC00220025082000DB002200240820001C
:10084800DA0022002B082000E10022002A082000FC
:10085800E000220029082000DF00220028082000EC
:10086800DE008531FE25803120005D082200A300CE
:1008780020005C082200A20020005B082200A100E2
:1008880020005A082200A0003F302000A9000030B4
:10089800A8000030A7000030A60022005D08200054
:1008A800AD0022005C082000AC0022005B0820009C
:1008B800AB0022005A082000AA0090312220803183
:1008C800200029082200D500200028082200D40092
:1008D800200027082200D300200026082200D2008A
:1008E8005D082000A90022005C082000A800220062
:1008F8005B082000A70022005A082000A60022005A
:1009080055082000AD00220054082000AC00220049
:1009180053082000AB00220052082000AA009031A2
:1009280022208031200029082200C1002000280848
:100938002200C000200027082200BF00200026084F
:100948002200BE003C08F1003D08F200890D893BF9
:100958008909F300F4000130AB31E32380317408D6
:100968002200C5007308C4007208C3007108C200E1
:1009780049082000A900220048082000A8002200F9
:1009880047082000A700220046082000A6002200F1
:1009980023082000DD00220022082000DC002200BD
:1009A80021082000DB00220020082000DA002200B5
:1009B80041082000E100220040082000E000220059
:1009C8003F082000DF0022003E082000DE008531BD
:1009D800FE25803120005D08AD005C08AC005B0896
:1009E800AB005A08AA009031222080312000290843
:1009F8002200AF00200028082200AE0020002708AF
:100A08002200AD00200026082200AC00373020006C
:100A1800A9001730A800F730A700D130A60022009F
:100A280045082000AD00220044082000AC00220048
:100A380043082000AB00220042082000AA009031A1
:100A48002220803120002908DD002808DC00270842
:100A5800DB002608DA0022002F082000E10022002F
:100A68002E082000E00022002D082000DF002200D0
:100A78002C082000DE008531FE25803120005D082D
:100A88002200B30020005C082200B20020005B08AE
:100A98002200B10020005A082200B00041082100BD
:100AA800A300220040082100A20022003F082100E4
:100AB800A10022003E082100A000220033082100E6
:100AC800A700220032082100A600220031082100D8
:100AD800A500220030082100A400B5311D25803171
:100AE800210023082200B700210022082200B600B6
:100AF800210021082200B500210020082200B400AE
:100B08005D082000DD0022005C082000DC002200D7
:100B18005B082000DB0022005A082000DA002200CF
:100B280037082000E100220036082000E0002200FB
:100B380035082000DF00220034082000DE0085315F
:100B4800FE25803120005D082200BB0020005C08E3
:100B58002200BA0020005B082200B90020005A08D1
:100B68002200B8003F302000A9003130A8007130C1
:100B7800A7008030A600220045082000AD00220012
:100B880044082000AC00220043082000AB002200EB
:100B980042082000AA009031222080312000290834
:100BA800DD002808DC002708DB002608DA00220020
:100BB8003B082000E10022003A082000E000220063
:100BC80039082000DF00220038082000DE008531C7
:100BD800FE2520005D082100AB0020005C082100F4
:100BE800AA0020005B082100A90020005A08210063
:100BF800A800080020005D088039E2006208EA00C9
:100C08005D35E2006208EC00DC1B6C146C0803190B
:100C18001B2E6C0A031D182E0030DD000030DC008E
:100C28000030DB000030DA00DC17DD01232E003055
:100C3800DD000030DC000030DB000030DA00610845
:100C48008039E2006208EB006B086A06031D6A1728
:100C58006135E2006208EB00E01B6B146B080319B6
:100C6800432E6B0A031D402E0030E1000030E000E7
:100C78000030DF000030DE00E017E1014B2E0030CD
:100C8800E1000030E0000030DF000030DE006C08DA
:100C98006B020318912E6A1F552E8030E2006208FD
:100CA800EA066C08E2006208ED006B08E2006208E0
:100CB800EC006D08E2006208EB005A08E2006208E6
:100CC800ED005E08E2006208DA006D08E2006208E2
:100CD800DE005B08E2006208ED005F08E2006208DF
:100CE800DB006D08E2006208DF005C08E2006208D1
:100CF800ED006008E2006208DC006D08E2006208AE
:100D0800E0005D08E2006208ED006108E2006208A8
:100D1800DD006D08E2006208E100ED016B08E20009
:100D2800E3016308E5006C086202E400031CE503C4
:100D38006508803AE60080306602031DA52E1A3049
:100D48006402031CD92E20005D085C045B045A046D
:100D58000319B02E0130B12E0030E2006208ED0018
:100D68000030DD000030DC000030DB000030DA004D
:100D78006B08E2006208EC00DE2E6D1CC92E6D3691
:100D88000138E2006208ED00CB2E0310ED0C5A1872
:100D9800ED170130E200DD37DC0CDB0CDA0CE20B7E
:100DA800CF2E0130E2006208EC0720006B086C02CD
:100DB800031CC12E6A1B0F2F6C08031DEC2E00307C
:100DC800DD000030DC000030DB000030DA00080015
:100DD8005E08DA075F08DB3D6008DC3D6108DD3D41
:100DE8005D1C892F6D1CFE2E6D360138E2006208ED
:100DF800ED00002F0310ED0C5A18ED170130E2003A
:100E0800DD37DC0CDB0CDA0CE20B042F0130E200DE
:100E18006208EC07892F5D08803AE2006108803A91
:100E28006202031D212F60085C02031D212F5F0849
:100E38005B02031D212F5E085A020318592FFF3049
:100E4800E200FF30E300FF30E400FF30E5005A081D
:100E58005E02E6005B085F3BE7005C08603BE80079
:100E68005D08613BE9006608E2076708E33D68083A
:100E7800E43D6908E53D6508DD006408DC006308B9
:100E8800DB006208DA008030E2006208EA06ED0959
:100E9800ED0A6D08031D612F0130DA070030DB3DD4
:100EA8000030DC3D0030DD3D612F5E08DA025F086E
:100EB800DB3B6008DC3B6108DD3B5D085C045B04F0
:100EC8005A04031D872F6D08031D872F0030DD008E
:100ED8000030DC000030DB000030DA0008000130B0
:100EE800DA35DB0DDC0DDD0D890B742FED1B5A1483
:100EF8006D1C802F0314812F0310ED0D6C0803194E
:100F0800872F0130EC02DC1F732FEB01ED1F942FAC
:100F18006D087F3903195A18922F942FEB01EB0AA9
:100F28006B080319C02F0130DA070030DB3D0030B1
:100F3800DC3D0030DD3D5D1CC02F5A08E2005B0837
:100F4800E3005C08E4005D08E5000130E600E537F1
:100F5800E40CE30CE20CE60BAB2F6508DD0064083B
:100F6800DC006308DB006208DA006C0A0319C02F92
:100F78000130E2006208EC076C0A031D6C08031DCF
:100F8800D02F0030DD000030DC000030DB00003006
:100F9800DA006C080319EA016C1CD42FDC17D82F6F
:100FA8007F30E2006208DC056C36E2006208DD0092
:100FB800EA1F0800DD170800F900F501F6017108BD
:100FC800F300F4017308F7007408F800791CF02F97
:100FD8007708F5077808F63D0130F735F80D890BE5
:100FE800F12F0310F90C7908031DEA2F7608F20097
:100FF8007508F1000800080021000D1123000D11EB
:1010080021008D1523008D110E128E1221000E164F
:101018008E160C128C1210108C1122008C112100CB
:101028008D1055303C008F00AA308F000F103D0006
:101038002408E0391138A4003C002108E0391438AC
:10104800A1002008E0391538A0003D002508E03946
:101058001038A5001A08E03914389A003C00240812
:10106800E0390B38A4003D001908E0390C38990024
:1010780055303C008F00AA308F000F140800200064
:10108800590886008701403FDB00413FDC005B08D0
:1010980084005C0885001200643A03196228590824
:1010A80086008701403FDB00413FDC005B0884008D
:1010B8005C0885001200693A031DB32859088600A8
:1010C80087010130810741310318810A5A088600D7
:1010D800870101088400850102308107003FDB0099
:1010E800013FDC005B082100A80020005C0821000B
:1010F800A900890D893B8909AA00AB00AC00AD00A5
:10110800AE00AF0020005808B1005708B000210019
:1011180028082000B200210029082000B30021007F
:101128002A082000B40021002B082000B500210067
:101138002C082000B60021002D082000B70021004F
:101148002E082000B80021002F082000B9009A318D
:10115800362220003108D8003008D7000800590886
:1011680086008701403FF100413FF200DD30F30087
:10117800B930F4000230F5000030F600B73104272A
:101188008831710872040319E02820005908860084
:101198008701403FF100413FF200E030F300B930F1
:1011A800F4000230F5000030F600B731042788312A
:1011B80071087204031D2929200059088600870137
:1011C8000230810741310318810A5A0886008701D5
:1011D80001088400850102308107003F2100A80032
:1011E800013FA900AA01AB01AC01AD01AE01AF01FD
:1011F80020005808B1005708B00021002808200036
:10120800B200210029082000B30021002A0820008C
:10121800B40021002B082000B50021002C08200074
:10122800B60021002D082000B70021002E0820005C
:10123800B80021002F082000B9009A31362220007A
:101248003108D8003008D700080020005908860067
:101258008701403FF100413FF200CA30F300B93046
:10126800F4000330F5000030F600B7310427883168
:1012780071087204031D8829200059088600870117
:101288000330810741310318810A5A088600870113
:101298000108840085010230810700082100B3009D
:1012A800B401B501B601B701B801B901BA0120000E
:1012B8005808B1005708B000210033082000B200D8
:1012C800210034082000B300210035082000B400B4
:1012D800210036082000B500210037082000B6009C
:1012E800210038082000B700210039082000B80084
:1012F80021003A082000B900A53122252000310834
:10130800D8003008D7000800200059088600870157
:10131800403FF100413FF200CB30F300B930F40018
:101328000230F5000030F600B73104278831710823
:101338007204031DE829200059088600870102303D
:10134800810741310318810A5A088600870101087C
:101358008400850102308107003F2100B300013F6E
:10136800B400B501B601B701B801B901BA0120004E
:101378005808B1005708B000210033082000B20017
:10138800210034082000B300210035082000B400F3
:10139800210036082000B500210037082000B600DB
:1013A800210038082000B700210039082000B800C3
:1013B80021003A082000B900A53122252000310873
:1013C800D8003008D7000800200059088600870197
:1013D800403FDB00413FDC005B0884005C0885007F
:1013E80012006F3A031D402A590886008701013010
:1013F800810741310318810A5A08860087010108CC
:101408008400850102308107003F2100B300013FBD
:10141800B400B501B601B701B801B901BA0120009D
:101428005808B1005708B000210033082000B20066
:10143800210034082000B300210035082000B40042
:10144800210036082000B500210037082000B6002A
:10145800210038082000B700210039082000B80012
:1014680021003A082000B900A531222520003108C2
:10147800D8003008D7000800590886008701403F87
:10148800F100413FF200E630F300B930F4000230D9
:10149800F5000030F600B73104278831710872046E
:1014A800031D9F2A20005908860087010230810702
:1014B80041310318810A5A0886008701010884000F
:1014C800850102308107003F2100B300013FB400CD
:1014D800B501B601B701B801B901BA012000580831
:1014E800B1005708B000210033082000B2002100E5
:1014F80034082000B300210035082000B400210082
:1015080036082000B500210037082000B600210069
:1015180038082000B700210039082000B800210051
:101528003A082000B900A531222520003108D8004A
:101538003008D70008002000590886008701403F7E
:10154800F100413FF200C630F300B930F400033037
:10155800F5000030F600B7310427883171087204AD
:10156800031D362B200059088600870103308107A8
:1015780041310318810A5A0886008701010884004E
:10158800850102308107003F2100B000013FB10012
:101598003008860031088700220062088100322B5B
:1015A800200059088600870102308107413103185D
:1015B800810A5A08860087010108840085010230E3
:1015C8008107003F2100B000013FB10030088600CC
:1015D8003108870022006208C03F6308C13F322BF0
:1015E8005908860087010130810741310318810AB3
:1015F8005A088600870101088400850102308107A6
:10160800003F2100B000013FB100300886003108DA
:10161800870022006208C03F6308C13F322B2000C8
:101628005908860087010230810741310318810A71
:101638005A08860087010108840085010230810765
:10164800003F2100B000013FB1003008860031089A
:10165800870022006208C03F6308C13F2000D7010D
:10166800D80108002000590886008701403FF10092
:10167800413FF200C730F300B930F4000230F50002
:101688000030F600B7310427883171087204031955
:10169800D42A2000590886008701403FDB00413FDB
:1016A800DC005B0884005C08850012006E3A0319B0
:1016B800F42A590886008701403FF100413FF200B3
:1016C800E330F300B930F4000230F5000030F600E2
:1016D800B73104278831710872040319132B2000CD
:1016E800590886008701403FDB00413FDC005B086A
:1016F80084005C0885001200703A031DCF2B59083E
:10170800860087010130810741310318810A5A0890
:101718008600870101088400850102308107003FA7
:101728002100B300013FB400B501B601B701B8010B
:10173800B901BA0120005808B1005708B0002100CB
:1017480033082000B200210034082000B300210033
:1017580035082000B400210036082000B50021001B
:1017680037082000B600210038082000B700210003
:1017780039082000B80021003A082000B900783064
:10178800DB005B08BA009B31892320003108D800B0
:101798003008D7000800590886008701403FDB0061
:1017A800413FDC005B0884005C0885001200733A46
:1017B800031D082C59088600870101308107413133
:1017C8000318810A5A0886008701010884008501E8
:1017D80002308107003F2100A000013FA100200046
:1017E8005808A1005708A000210021082000A300E4
:1017F800210020082000A200AF313B27200021084B
:10180800D8002008D7000800590886008701403F03
:10181800F100413FF200CE30F300B930F40003305C
:10182800F5000030F600B7310427883171087204DA
:10183800031D662C200059088600870103308107A4
:1018480041310318810A5A0886008701010884007B
:1018580085010230810700082100B300B401B501F9
:10186800B601B701B801B901BA0120005808B100A2
:101878005708B000210033082000B20021003408C6
:101888002000B300210035082000B40021003608EC
:101898002000B500210037082000B60021003808D4
:1018A8002000B700210039082000B80021003A08BC
:1018B8002000B900A431412420003108D8003008A4
:1018C800D70008002000590886008701403FF10032
:1018D800413FF200CF30F300B930F4000230F50098
:1018E8000030F600B7310427883171087204031DEF
:1018F800C62C200059088600870102308107413133
:101908000318810A5A0886008701010884008501A6
:1019180002308107003F2100B300013FB400B50148
:10192800B601B701B801B901BA0120005808B100E1
:101938005708B000210033082000B2002100340805
:101948002000B300210035082000B400210036082B
:101958002000B500210037082000B6002100380813
:101968002000B700210039082000B80021003A08FB
:101978002000B900A431412420003108D8003008E3
:10198800D70008002000590886008701403FDB0087
:10199800413FDC005B0884005C0885001200753A52
:1019A800031D1E2D5908860087010130810741312A
:1019B8000318810A5A0886008701010884008501F6
:1019C80002308107003F2100B300013FB400B50198
:1019D800B601B701B801B901BA0120005808B10031
:1019E8005708B000210033082000B2002100340855
:1019F8002000B300210035082000B400210036087B
:101A08002000B500210037082000B6002100380862
:101A18002000B700210039082000B80021003A084A
:101A28002000B900A431412420003108D800300832
:101A3800D7000800590886008701403FF100413F60
:101A4800F200E930F300B930F4000230F50000305C
:101A5800F600B7310427883171087204031D7D2D03
:101A68002000590886008701023081074131031898
:101A7800810A5A088600870101088400850102301E
:101A88008107003F2100B300013FB400B501B60152
:101A9800B701B801B901BA0120005808B1005708C8
:101AA800B000210033082000B200210034082000D3
:101AB800B300210035082000B400210036082000BA
:101AC800B500210037082000B600210038082000A2
:101AD800B700210039082000B80021003A0820008A
:101AE800B900A431412420003108D8003008D700BB
:101AF80008002000590886008701403FF100413F57
:101B0800F200D230F300B930F4000330F5000030B1
:101B1800F600B73104278831710872040319AB2D18
:101B28002000590886008701403FF100413FF2003C
:101B3800BA30F300B930F4000330F5000030F60095
:101B4800B7310427883171087204031D0D2E200057
:101B5800590886008701403FDB00413FDC00023026
:101B68005B0784005C0803185C0A85000008DD0038
:101B78005D082100B2002000590886008701033063
:101B8800810741310318810A5A0886008701010834
:101B9800840085010230810700082100B300B401E8
:101BA800B501B601B701B801B901BA01200058085A
:101BB800B1005708B000210033082000B20021000E
:101BC80034082000B300210035082000B4002100AB
:101BD80036082000B500210037082000B600210093
:101BE80038082000B700210039082000B80021007B
:101BF8003A082000B900210032082000DB005B0809
:101C0800BA009B31892320003108D8003008D7005A
:101C180008002000590886008701403FF100413F35
:101C2800F200D330F300B930F4000230F500003090
:101C3800F600B731042788317108720403193B2E66
:101C48002000590886008701403FF100413FF2001B
:101C5800BB30F300B930F4000230F5000030F60074
:101C6800B7310427883171087204031D9E2E2000A5
:101C7800590886008701403FDB00413FDC00013006
:101C88005B0784005C0803185C0A85000008DD0017
:101C98005D082100B2002000590886008701023043
:101CA800810741310318810A5A0886008701010813
:101CB8008400850102308107003F2100B300013F05
:101CC800B400B501B601B701B801B901BA012000E5
:101CD8005808B1005708B000210033082000B200AE
:101CE800210034082000B300210035082000B4008A
:101CF800210036082000B500210037082000B60072
:101D0800210038082000B700210039082000B80059
:101D180021003A082000B900210032082000DB0029
:101D28005B08BA009B31892320003108D8003008AD
:101D3800D70008002000590886008701403FDB00D3
:101D4800413FDC005B0884005C0885001200783A9B
:101D58000319BD2E590886008701403FDB00413F2B
:101D6800DC005B0884005C0885001200583A031DFB
:101D78001C2F590886008701403FDB00413FDC00EB
:101D88005B0884005C0885000008DD005D08210010
:101D9800B2002000590886008701013081074131CF
:101DA8000318810A5A088600870101088400850102
:101DB80002308107003F2100B300013FB400B501A4
:101DC800B601B701B801B901BA0120005808B1003D
:101DD8005708B000210033082000B2002100340861
:101DE8002000B300210035082000B4002100360887
:101DF8002000B500210037082000B600210038086F
:101E08002000B700210039082000B80021003A0856
:101E18002000B900210032082000DB005B08BA006E
:101E28009B31892320003108D8003008D7000800EA
:101E3800590886008701403FF100413FF200EC302D
:101E4800F300B930F4000230F5000030F600B73185
:101E580004278831710872040319492F2000590892
:101E680086008701403FF100413FF200DA30F3007D
:101E7800B930F4000230F5000030F600B73104271D
:101E8800883171087204031DAC2F200059088600A0
:101E98008701403FDB00413FDC0001305B078400E5
:101EA8005C0803185C0A85000008DD005D08210055
:101EB800B2002000590886008701023081074131AD
:101EC8000318810A5A0886008701010884008501E1
:101ED80002308107003F2100B300013FB400B50183
:101EE800B601B701B801B901BA0120005808B1001C
:101EF8005708B000210033082000B2002100340840
:101F08002000B300210035082000B4002100360865
:101F18002000B500210037082000B600210038084D
:101F28002000B700210039082000B80021003A0835
:101F38002000B900210032082000DB005B08BA004D
:101F48009B31892320003108D8003008D7000800C9
:101F58002000590886008701403FDB00413FDC0034
:101F68005B0884005C0885001200253A031DD42F05
:101F78005908860087010130810741310318810A19
:101F88002530F1000030F2005808F4005708F3003B
:101F9800B731562701302000D7000030D80008009C
:101FA8005908860087010130810741310318810AE9
:101FB800322B590886008701403FDB00413FDC0097
:101FC8005B0884005C0885000008DD00DE015D0810
:101FD800F1005E08F2005808F4005708F300B73122
:101FE800562788312000590886008701013081076B
:101FF80041310318810ACE2F77089F3E2000A000A8
:10200800FF30783DA100003021021A300319200268
:1020180003181028013011280030A200A30122085B
:10202800F9002308FA0079087A04031908005F30D8
:102038007705F70000307805F80008002000290827
:102048008039AE002E08B3002935AE002E08B9003D
:10205800A81B3914390803193E28390A031D3C28DE
:102068000030A9000030A8000030A7000030A6000A
:10207800A81746280030A9000030A8000030A700A3
:102088000030A6002D088039AE002E08B3062D3585
:10209800AE002E08B800AC1B3814380803196128A4
:1020A800380A031D5F280030AD000030AC00003056
:1020B800AB000030AA00AC1769280030AD00003032
:1020C800AC000030AB000030AA003808031D390806
:1020D800031D77280030A9000030A8000030A700B1
:1020E8000030A60008002608AE002E08F1002C08D3
:1020F8008731E027903172082000BF007108BE00C8
:102108003E08AE00AF01B001B1013108B700300898
:10211800B6002F08B5002E08B4003F08AE00AF0186
:10212800B001B1013108BD003008BC002F08BB0068
:102138002E08BA002708AE002E08F1002B088731B8
:10214800E027903172082000BF007108BE003E08E9
:10215800AE00AF01B001B1012E08B4072F08B53D9C
:102168003008B63D3108B73D3F08AE00AF01B001B9
:10217800B1012E08BA072F08BB3D3008BC3D310815
:10218800BD3D2808AE002E08F1002A088731E02757
:10219800903172082000BF007108BE003E08AE00F2
:1021A800AF01B001B1012E08B4072F08B53D3008C2
:1021B800B63D3108B73D3F08AE00AF01B001B101EF
:1021C8002E08BA072F08BB3D3008BC3D3108BD3D7D
:1021D8000830B435B50DB60DB70D890BED282708B5
:1021E800AE002E08F1002A088731E02790317208E6
:1021F8002000BF007108BE003E08B4073F08B53D87
:102208000030B63DB73D2608AE002E08F1002B0879
:102218008731E027903172082000BF007108BE00A6
:102228003E08B4073F08B53D0030B63DB73D08301D
:10223800B435B50DB60DB70D890B1C292608AE00AF
:102248002E08F1002A088731E02790317208200013
:10225800BF007108BE003E08B4073F08B53D003016
:10226800B63DB73D2708AE002E08F1002C0887318F
:10227800E027903172082000BF007108BE003E08B8
:10228800BA073F08BB3D0030BC3DBD3D2808AE0045
:102298002E08F1002B088731E027903172082000C2
:1022A800BF007108BE003E08BA073F08BB3D0030BA
:1022B800BC3DBD3D2808AE002E08F1002C08873132
:1022C800E027903172082000BF007108BE003E0868
:1022D800AE003F08AF00B001B1010830AE35AF0D18
:1022E800B00DB10D890B72292E08BA072F08BB3D16
:1022F8003008BC3D3108BD3D3408AE003508AF009C
:102308003608B0003708B1001830B136B00CAF0C41
:10231800AE0C890B89292E08BA072F08BB3D300857
:10232800BC3D3108BD3D0830B435B50DB60DB70D0F
:10233800890B982939083807AE00AF01AF0D2E0870
:10234800823EBE00FF302F3DBF00BC1BC0290130BC
:10235800BA35BB0DBC0DBD0D890BAC29B71B3A14A2
:102368000130B435B50DB60DB70D890BB529FF3061
:10237800BE07FF30BF3DA929B801B71FD929FF30D3
:102388003405AE00FF303505AF00FF303605B0002C
:102398007F303705B100310830042F042E040319AB
:1023A8003A18D729D929B801B80A38080319022ACE
:1023B8000130BA070030BB3D0030BC3D0030BD3DA8
:1023C8003D1C022A3A08AE003B08AF003C08B000AA
:1023D8003D08B1000130B200B137B00CAF0CAE0C03
:1023E800B20BF0293108BD003008BC002F08BB0033
:1023F8002E08BA000130BE070030BF3D3F08803AC2
:10240800AE0080302E02031D0B2AFF303E02031C53
:10241800172A7F302000BD008030BC000030BB0090
:102428000030BA00412A20003F08803AAE008030D0
:102438002E02031D212A01303E0203182E2A0030E5
:102448002000BD000030BC000030BB000030BA00E6
:10245800B301412A20003E08AE002E08B900FF3023
:10246800BA05FF30BB057F30BC050030BD05391803
:10247800BC173936AE002E08BD003308AE002E0852
:10248800BD043D08A9003C08A8003B08A7003A087D
:10249800A60008001830F5000030F6002A30F700D2
:1024A8000030F800B5318725923175082100B10058
:1024B8007608B2003108B200B1011830F5000030DA
:1024C800F6002B30F7000030F800B531872592313F
:1024D800750821003104B80076083204B900BA0141
:1024E800B91BBA033A08BB0022006E08F1006F0856
:1024F800F200890D893B8909F300F4000130AB3102
:10250800E323923174082000AD007308AC00720810
:10251800AB007108AA004030A9008030A800003044
:10252800A7000030A600903122209231200029080F
:102538002100B700200028082100B6002000270845
:102548002100B500200026082100B400370820002B
:10255800AD00210036082000AC002100350820001D
:10256800AB00210034082000AA0021003B08F40039
:102578003A08F3003908F2003808F1000130AB31AD
:10258800E323923174082000A9007308A800720898
:10259800A7007108A6009031222092312000290856
:1025A800C7002808C6002708C5002608C40044300C
:1025B800C3007A30C2000030C1000030C0009C3136
:1025C800E224923120004308E1004208E00041087B
:1025D800DF004008DE0022006B082100B200220064
:1025E8006A082100B100B135B20DB135B20D31081C
:1025F800F1003208F200890D893B8909F300F400E3
:102608000130AB31E323923174082000DD007308F8
:10261800DC007208DB007108DA008531FE25923192
:1026280020005D082100AB0020005C082100AA0002
:1026380020005B082100A90020005A082100A800FA
:10264800A831A320923121002B082400AD002100DD
:102658002A082400AC00210029082400AB0021002E
:1026680028082400AA001830F5000030F6000C30C5
:10267800F7000030F800B531872592313F307505F5
:102688002100B10000307605B2003108B200B10176
:102698001830F5000030F6000D30F7000030F80073
:1026A800B53187259231750821003104B8007608C4
:1026B8003204B900BA01B91BBA033A08BB000030AA
:1026C8002000A7000030A6000330A500E830A400D1
:1026D80022006E08F1006F08F200890D893B890914
:1026E800F300F40021003B08F8003A08F700390825
:1026F800F6003808F500B431EB2492317408200054
:10270800AB007308AA007208A9007108A800AB31D1
:102718006123923122006A08200024072300AA00BE
:1027280022006B082000253D2300AB001830F5007F
:102738000030F6000E30F7000030F800B53187257C
:1027480092313F3075052100B10000307605B200A6
:102758003108B200B1011830F5000030F6000F3032
:10276800F7000030F800B53187259231750821004F
:102778003104B80076083204B900BA01B91BBA03AB
:102788003A08BB0000302000A7000030A600033044
:10279800A500E830A40022006E08F1006F08F200DE
:1027A800890D893B8909F300F40021003B08F800F2
:1027B8003A08F7003908F6003808F500B431EB2478
:1027C800923174082000AB007308AA007208A900AF
:1027D8007108A800AB316123923122006A082000F9
:1027E80024072300AC0022006B082000253D2300AD
:1027F800AD001830F5000030F6001030F70000305A
:10280800F800B531872592313F3075052100B100B8
:1028180000307605B2003108B200B1011830F50079
:102828000030F6001130F7000030F800B531872588
:102838009231750821003104B80076083204B900D5
:10284800BA01B91BBA033A08BB0000302000A70040
:102858000030A6000330A500E830A40022006E086E
:10286800F1006F08F200890D893B8909F300F40033
:1028780021003B08F8003A08F7003908F600380844
:10288800F500B431EB24923174082000AB007308D2
:10289800AA007208A9007108A800AB31612392311F
:1028A80022006A08200024072300AE0022006B08DB
:1028B8002000253D2300AF001830F5000030F60059
:1028C8001230F7000030F800B531872592313F30DB
:1028D80075052100B10000307605B2003108B2005C
:1028E800B1011830F5000030F6001330F700003061
:1028F800F800B53187259231750821003104B800F8
:1029080076083204B900BA01B91BBA033A08BB0009
:1029180000302000A7000030A6000330A500E830F2
:10292800A40022006E08F1006F08F200890D893BAF
:102938008909F300F40021003B08F8003A08F70081
:102948003908F6003808F500B431EB2492317408E0
:102958002000AB007308AA007208A9007108A8003B
:10296800AB316123923122006A082000240723003A
:10297800B00022006B082000253D2300B10018306C
:10298800F5000030F6001430F7000030F800B531DB
:10299800872592313F3075052100B100003076055A
:1029A800B2003108B200B1011830F5000030F6006D
:1029B8001530F7000030F800B531872592317508D9
:1029C80021003104B80076083204B900BA01B91BF5
:1029D800BA033A08BB0000302000A7000030A60068
:1029E8000330A500E830A40022006E08F1006F084B
:1029F800F200890D893B8909F300F40021003B08A6
:102A0800F8003A08F7003908F6003808F500B4313C
:102A1800EB24923174082000AB007308AA007208F6
:102A2800A9007108A800AB31612322006A082000C0
:102A380024072300B20022006B082000253D230054
:102A4800B30008001830F5000030F6002C30F7000D
:102A58000030F800B531872595313F3075052100E4
:102A6800B40000307605B5003408B500B40118305C
:102A7800F5000030F6002D30F7000030F800B531D1
:102A880087259531750821003404E7007608350458
:102A9800E8006708F1006808F200890D893B890998
:102AA800F300F4000130AB31E323953174082000C2
:102AB800AD007308AC007208AB007108AA003E3084
:102AC800A900C330A8009530A7008130A600903136
:102AD80022209531200029082100AB002000280879
:102AE8002100AA00200027082100A90020002608AC
:102AF8002100A800A831A320953121002908EA0067
:102B08002808E9006908F1006A08F200890D893B84
:102B18008909F300F4000130AB31E32395317408DF
:102B28002000AD007308AC007208AB007108AA0061
:102B38004630A9001C30A8004030A7000030A6008D
:102B480090312220953120002908C7002808C600A6
:102B58002708C5002608C40045302100A7004E30CC
:102B6800A6004030A5000030A4006908F1006A08FA
:102B7800F200890D893B8909F300F4000130AB317B
:102B8800E323953174082100A3007308A20072089A
:102B9800A1007108A000B5311D2595312100230839
:102BA8002000C300210022082000C20021002108C3
:102BB8002000C100210020082000C0009C31E22430
:102BC8009531200043082100AB0020004208210075
:102BD800AA00200041082100A90020004008210087
:102BE800A800A831A320953121002B082300BF009D
:102BF80021002A082300BE00210029082300BD0067
:102C0800210028082300BC003F08F4003E08F30018
:102C18003D08F2003C08F1000030AB31E323953168
:102C280074082100BA007308B9007208B800710866
:102C3800B70023003F08F4003E08F3003D08F20007
:102C48003C08F1000030AB31E323953174082100D2
:102C5800BE007308BD007208BC007108BB002300E9
:102C68003F08F4003E08F3003D08F2003C08F1007C
:102C78000030AB31E323953174082100C20073089A
:102C8800C1007208C0007108BF003E08AB003D08D3
:102C9800AA003C08A9003B08A8008031742095319F
:102CA80021002B08C6002A08C5002908C4002808E6
:102CB800C3004208AB004108AA004008A9003F0829
:102CC800A80080317420953121002B08CA002A08F9
:102CD800C9002908C8002808C7003A08AB00390805
:102CE800AA003808A9003708A80080317420953157
:102CF80021002B08CE002A08CD002908CC0028087E
:102D0800CB0046082000A900210045082000A800A3
:102D1800210044082000A700210043082000A60045
:102D280021004A082000AD00210049082000AC001D
:102D3800210048082000AB00210047082000AA0015
:102D4800903122209531200029082100D20020004E
:102D580028082100D100200027082100D0002000E9
:102D680026082100CF004E082000A90021004D08A8
:102D78002000A80021004C082000A70021004B08D3
:102D88002000A600210052082000AD0021005108B3
:102D98002000AC00210050082000AB0021004F08A3
:102DA8002000AA0090312220953120002908210016
:102DB800D600200028082100D5002000270821007F
:102DC800D400200026082100D30023003F08F40087
:102DD8003E08F3003D08F2003C08F1000030AB313A
:102DE800E323953174082100DA007308D9007208CA
:102DF800D8007108D7005A08AB005908AA0058082B
:102E0800A9005708A80080317420953121002B08AB
:102E1800DE002A08DD002908DC002808DB00BC30B9
:102E28002000DD008E30DC00C530DB007230DA00B7
:102E38003B30A9004D30A8009830A7002530A600E7
:102E480021005E082000AD0021005D082000AC00D4
:102E580021005C082000AB0021005B082000AA00CC
:102E680090312220953120002908E1002808E0004F
:102E78002708DF002608DE008531FE259531200071
:102E88005D082100E20020005C082100E10020002C
:102E98005B082100E00020005A082100DF00B7305D
:102EA8002000A9002E30A8002F30A7004530A6002A
:102EB800210056082000AD00210055082000AC0074
:102EC800210054082000AB00210053082000AA006C
:102ED80090312220953120002908DD002808DC00E7
:102EE8002708DB002608DA00210062082000E1003C
:102EF800210061082000E000210060082000DF00B8
:102F080021005F082000DE008531FE259531200074
:102F18005D08C3005C08C2005B08C1005A08C00015
:102F28003F30C7008030C6000030C5000030C40004
:102F38009C31E2249531200043082100E60020005E
:102F480042082100E500200041082100E40020009B
:102F580040082100E30066082000E1002100650820
:102F68002000E000210064082000DF002100630841
:102F78002000DE00C330DD008830DC009330DB0049
:102F88003330DA008531FE25953120005D08AD002B
:102F98005C08AC005B08AB005A08AA004230A900E4
:102FA800C830A8000030A7000030A60090312220C9
:102FB8009531200029082100AB00200028082100B5
:102FC800AA00200027082100A900200026082100C7
:102FD800A800A831A32021002B082300C30021004A
:102FE8002A082300C200210029082300C10021006B
:102FF80028082300C000080020009111710824004F
:103008009100200091190800052844302100A300F0
:103018007A30A2000030A1000030A000F030220079
:10302800EC052100A801A90123003B082000A90004
:1030380023003A082000A800230039082000A70030
:10304800230038082000A6006908F4006808F30087
:103058006708F2006608F1000130AB31E3239831CC
:1030680074082000AD007308AC007208AB0071084A
:10307800AA00903122209831200029082100A700B9
:10308800200028082100A600200027082100A5000C
:10309800200026082100A40044302000C3007A3014
:1030A800C2000030C1000030C00021002308200009
:1030B800A900210022082000A800210021082000E2
:1030C800A700210020082000A600210027082000D2
:1030D800AD00210026082000AC00210025082000B2
:1030E800AB00210024082000AA009031222098314A
:1030F80020002908C7002808C6002708C500260898
:10310800C4009C31E224983120004308DD004208C5
:10311800DC004108DB004008DA00210029088500AE
:10312800280884008435850D50308407B830853DE3
:10313800003F2000EC00013FED006C08F1006D0835
:10314800F200890D893B8909F300F4000130AB31A5
:10315800E323983174082000E1007308E000720846
:10316800DF007108DE00A931EC219831031CC42866
:1031780022006C0821002806F03928062200EC00FD
:1031880001302100A8070030A93D003029020F3086
:1031980003192802031C18288F302200EC0521008F
:1031A800AA01AB012B0885002A0884008435850D07
:1031B80064308407B930853D003F2000EC00013FB2
:1031C800ED006B08803AEE006D08803A6E02031D30
:1031D800EF286C086A02031CFE2821002A08200038
:1031E800EC00EC0E22006C0820006C068F396C068F
:1031F8002200EC0001302100AA070030AB3D00306E
:103208002B02073003192A02031CD6281830F500B0
:103218000030F6000730F7000030F80022006C0894
:103228002000EC00ED016C08F9006D08FA00B331DC
:10323800DC23080044302100A3007A30A2000030CB
:10324800A1000030A000F8302200ED052100A801FF
:10325800A90123003B082000A90023003A08200008
:10326800A800230039082000A70023003808200000
:10327800A6006908F4006808F3006708F200660809
:10328800F1000130AB31E323993174082000AD001F
:103298007308AC007208AB007108AA0090312220B4
:1032A8009931200029082100A700200028082100C2
:1032B800A600200027082100A500200026082100DC
:1032C800A40044302000C3007A30C2000030C1009E
:1032D8000030C000210023082000A9002100220896
:1032E8002000A800210021082000A70021002008B4
:1032F8002000A600210027082000AD002100260894
:103308002000AC00210025082000AB002100240883
:103318002000AA0090312220993120002908C700F6
:103328002808C6002708C5002608C4009C31E224E6
:10333800993120004308DD004208DC004108DB0029
:103348004008DA002100290885002808840084350F
:10335800850D74308407B930853D003F2000EC00AE
:10336800013FED006C08F1006D08F200890D893B02
:103378008909F300F4000130AB31E3239931740873
:103388002000E1007308E0007208DF007108DE0029
:10339800A931EC219931031CD92922006D0821009B
:1033A8002806F83928062200ED0001302100A80778
:1033B8000030A93D00302902073003192802031CF8
:1033C8002D29E7302200ED052100AA01AB012B08C9
:1033D80085002A0884008435850D94308407B93027
:1033E800853D003F2000EC00013FED006B08803A6E
:1033F800EE006D08803A6E02031D042A6C086A020A
:10340800031C152A21002A082000EC00EC0DEC0D05
:10341800EC0D22006D0820006C06E7396C062200CE
:10342800ED0001302100AA070030AB3D00302B022F
:10343800073003192A02031CEB292200ED13183068
:10344800F5000030F6000630F7000030F8006D088F
:103458002000EC00ED016C08F9006D08FA00B331AA
:10346800DC23080020003208C5003308C6003408F1
:10347800C7003508C8003608C9003708CA00380828
:10348800CB003908CC004530860000308700473F24
:10349800BA00BA1F512A0130522A00302000BB005E
:1034A800BC013B08C3003C08C4004308440403199A
:1034B8007B2AC509C609C709C809C909CA09CB09A8
:1034C800CC09C50A031D7B2AC60A031D7B2AC70A25
:1034D800031D7B2AC80A031D7B2AC90A031D7B2AF0
:1034E800CA0A031D7B2ACB0A031D7B2ACC0A2200A9
:1034F800E71B822AFD30E805FF30E9056708803AB6
:103508002000BA0080303A02031D8D2A01302200C3
:1035180066020318952A01302000BF000030C00061
:103528009D2A220067082000C000220066082000AB
:10353800BF00220065082000C200220064082000A5
:10354800C10043084404031DAC2A2200681DB12AA7
:10355800FF302000C107FF30C23D1F302000CD00E2
:103568000030CE002400CD01472B2000450846043A
:103578004704480449044A044B044C04031DDE2A4A
:103588004008803ABA0080303A02031DCD2A013043
:103598003F020318DE2A20004208803ABA00803031
:1035A8003A02031DD92A01304102031C532B220081
:1035B800E81C532BFF302000CD07FF30CE3D0A30EA
:1035C800A000A101A201A301A401A501A601A701D0
:1035D8004508A8004608A9004708AA004808AB0003
:1035E8004908AC004A08AD004B08AE004C08AF00D3
:1035F800A33165239A3120002108F5002008F40042
:10360800B231F3229A317408303E2000BA004D08D6
:103618002E3E8600023087003A088100FF30BF073F
:10362800FF30C03DFF30C107FF30C23D0A30A00067
:10363800A101A201A301A401A501A601A7014508B2
:10364800A8004608A9004708AA004808AB0049088E
:10365800AC004A08AD004B08AE004C08AF00A631DC
:1036680013269A3120002008C5002108C600220828
:10367800C7002308C8002408C9002508CA0026086E
:10368800CB002708CC0020004E08803ABA008030D2
:103698003A02031D512B01304D020318B92A2000AC
:1036A80043084404031D5B2B2200681D732BFF3065
:1036B8002000CD07FF30CE3D43084404031D662B90
:1036C8002B30672B2D30BD000030BE003D08BA00FE
:1036D8004D082E3E8600023087003A0881002000FF
:1036E8003108A7003008A6004D082E3EBA003A0857
:1036F800A8004208AA004108A900B631B326200054
:103708002708B1002608B00008002200E71B902B0C
:10371800FD30E805FF30E9056708803A2000BB0066
:1037280080303B02031D9B2B0130220066020318E8
:10373800A32B01302000C7000030C800AB2B2200AB
:1037480067082000C800220066082000C700220081
:1037580065082000CA00220064082000C900220071
:10376800681EBB2BFE302000C907FF30CA3D200071
:103778003208CB003308CC003408CD003508CE0021
:103788003608CF003708D0003808D1003908D200F1
:103798001F30D3000030D4002400CD017D2CFF3031
:1037A8002000D307FF30D43D0F304B05D500003043
:1037B8004C05D6005608803ABB0080303B02031DFA
:1037C800E72B0A305502031CED2B20005508573E05
:1037D800F02B20005508303ED5000030563DD6006D
:1037E8003A08BF3EBB00FF3003180030BC00003071
:1037F8003C021A3003193B020318042C0130052C33
:103808000030BD00BE013D08C3003E08C4004308A7
:10381800440403193B2C20305504BB0000305604E7
:10382800BC003B089F3EBD00FF303C3DBE00003061
:103838003E021A3003193D020318242C0130252CAE
:103848000030BF00C0013F08C5004008C600450859
:10385800460403193B2C5608F8005508F700903128
:1038680000209B3178082000D6007708D50055083D
:10387800BB0053082E3E8600023087003B088100BB
:10388800FF30C707FF30C83DFF30C907FF30CA3DCA
:103898004B30860000308700403FBB00413FBC00F2
:1038A800423FBD00433FBE00443FBF00453FC0000C
:1038B800463FC100473FC20004302000C236C10C59
:1038C800C00CBF0CBE0CBD0CBC0CBB0C890B612C16
:1038D80020004208D2004108D1004008D0003F082B
:1038E800CF003E08CE003D08CD003C08CC003B0888
:1038F800CB0020005408803ABB0080303B02031DF7
:10390800872C02305302031CAE2C20004B084C04B9
:103918004D044E044F04500451045204031DD32B8C
:103928004808803ABB0080303B02031D9D2C0130C3
:1039380047020318D32B20004A08803ABB00803086
:103948003B02031DA92C01304902031CAE2C2200A6
:10395800E818D32B2200681ECC2CFF302000D30798
:10396800FF30D43D3A08BB0053082E3E8600023093
:1039780087003B088100FF30D307FF30D43D30304B
:10398800BB0053082E3E8600023087003B088100AA
:1039980020003108A7003008A60053082E3EBB00BF
:1039A8003B08A8004A08AA004908A900B631B3266E
:1039B80020002708B1002608B000080020004708AA
:1039C8008039C8004808D1004735C8004808D800E1
:1039D800C61B581458080319FF2C580A031DFC2C41
:1039E8000030C7000030C6000030C5000030C400F9
:1039F800C617C701072D0030C7000030C6000030C9
:103A0800C5000030C40043088039C8004808D10602
:103A18004335C8004808D900C21B5914590803196E
:103A2800232D590A031D202D0030C3000030C20089
:103A38000030C1000030C000C217C3012B2D003078
:103A4800C3000030C2000030C1000030C00043088D
:103A5800420441044004031D4A2D0030C7000030D1
:103A6800C6000030C5000030C4008030C6047F3076
:103A7800C7045108C8004808C7044708C3004608D7
:103A8800C2004508C1004408C00008005808031DCA
:103A9800562D0030C3000030C2000030C100003095
:103AA800C00008005808C800C9014908CB005908D7
:103AB8004802CA00031CCB034A087F3ED2000030EC
:103AC8004B3DD3004708D0004608CF004508CE003C
:103AD8004408CD000030C7000030C6000030C500E3
:103AE8000030C4000030D7000030D6000030D500C8
:103AF8000030D400D9011A3059020318BB2D5908D7
:103B080003199D2D0130CD35CE0DCF0DD00D890B6C
:103B1800872D0130C435C50DC60DC70D890B8E2DF7
:103B2800D71B44140130D435D50DD60DD70D890BCC
:103B3800972D43085002031DAB2D42084F02031D69
:103B4800AB2D41084E02031DAB2D40084D02031C4E
:103B5800B62D57174008CD024108CE3B4208CF3B4F
:103B68004308D03B0130C8004808D9077F2D5008CA
:103B78004F044E044D04031D5414C61BD82D0130A8
:103B8800C435C50DC60DC70D890BC42DD71B4414EC
:103B98000130D435D50DD60DD70D890BCD2DFF307D
:103BA800D207FF30D33DC12DD901D71FF12DFF30EA
:103BB8005405C800FF305505C900FF305605CA0036
:103BC8007F305705CB004B084A04490448040319C1
:103BD8004418EF2DF12DD901D90A590803191A2EC5
:103BE8000130C4070030C53D0030C63D0030C73D38
:103BF800471C1A2E4408C8004508C9004608CA00D0
:103C08004708CB000130CC00CB37CA0CC90CC80C14
:103C1800CC0B082E4B08C7004A08C6004908C50047
:103C28004808C4000130D2070030D33D5308803A19
:103C3800C80080304802031D232EFF305202031CA7
:103C4800322EFF302000D2000030D3000030C700F1
:103C58000030C6000030C5000030C4002000530802
:103C6800803AC80080304802031D3C2E01305202C1
:103C780003184A2E2000D201D3010030C7000030BB
:103C8800C6000030C5000030C400D1012000520831
:103C9800C8004808D800581C532EC617572E7F3026
:103CA800C8004808C6055836C8004808C7003D2D52
:103CB8002000590886008701403FDB00413FDC00B7
:103CC8005B0884005C0885001200253A031DFE2F5E
:103CD8005908860087010130810741310318810A9C
:103CE8002200E401E501E801E901FF30E600FF30C8
:103CF800E7002100A201A3019E2E220068142000E3
:103D08005908860087010130810741310318810A6B
:103D18009E2E2200E814832E22006815832E22008E
:103D2800E815832E22006816832E01302100A20098
:103D38000030A300210022082304031DC92E2000FF
:103D4800590886008701403FDB00413FDC005B08E3
:103D580084005C0885000008DD00DE015E08003A8A
:103D68000319B72E992E5D08203A0319932E033AAA
:103D78000319962E083A0319902E063A0319812E34
:103D88001D3A03198D2E992E9E2E2200681CD02EC6
:103D9800FD30E805FF30E905200059088600870155
:103DA800403FDB00413FDC005B0884005C08850085
:103DB80012002A3A031DFE2E590886008701013099
:103DC800810741310318810A5A08860087010108D2
:103DD8008400850102308107003F2200E400013F92
:103DE800E500E51F412F6814E409E509E40A031911
:103DF800E50A412F590886008701403FF700413FF7
:103E0800F800AC3179249E3178082200E500770863
:103E1800E400172F20005908860087010130810728
:103E280041310318810A2000590886008701403F64
:103E3800DB00413FDC005B0884005C08850000086B
:103E4800D03EDD00FF3003180030DE0000305E0297
:103E58000A3003195D020318332F0130342F003064
:103E6800DF00E0015F082100A400200060082100B5
:103E7800A50024082504031D0E2F200059088600DC
:103E88008701403FDB00413FDC005B0884005C08A1
:103E9800850012002E3A031DC52F2200E601E70116
:103EA8002000590886008701013081074131031835
:103EB800810A590886008701403FDB00413FDC004A
:103EC8005B0884005C08850012002A3A031D822FD3
:103ED8005908860087010130810741310318810A9A
:103EE8005A0886008701010884008501023081078D
:103EF800003F2200E600013FE700C52F5908860071
:103F08008701403FF700413FF800AC3179249E31EA
:103F180078082200E7007708E6009B2F2000590860
:103F2800860087010130810741310318810A20008A
:103F3800590886008701403FDB00413FDC005B08F1
:103F480084005C0885000008D03EDD00FF300318BF
:103F58000030DE0000305E020A3003195D020318EB
:103F6800B72F0130B82F0030DF00E0015F082100D3
:103F7800A600200060082100A70026082704031DCA
:103F8800922F2000590886008701403FDB00413FFF
:103F9800DC005B0884005C0885001200633AA731E6
:103FA800031D062F5908860087010130810741311A
:103FB8000318810A5A0886008701010884008501D0
:103FC800023081070008DB005B082100B2002000F6
:103FD8005808B1005708B000210032082000DB0063
:103FE8005B08B200B431892420003108D8003008B9
:083FF800D70008008F31DD2F16
:1040040020009111240096152000911D06282400FB
:104014001108F300F4017308F1007408F2000800B9
:104024002100B601B7012100B801B9012100390806
:104034008500380884008435850D5C308407B030F1
:10404400853D003FB100013FB2003635AA3E8600EF
:1040540001308700403FB300413FB4003408803A48
:10406400B5003208803A3502031D3A28310833027C
:10407400031CB72821003908B2003808B100B13553
:10408400B20D0030B300B030B400310833078600FD
:104094003208343D87003635203E840002308500E6
:1040A400403F803F413F813F390885003808840004
:1040B4008435850D00308407B030853D003FB10064
:1040C400013FB2003108F1003208F200890D893B4A
:1040D4008909F300F4000130AB31E323A031740803
:1040E4002000C7007308C6007208C5007108C40028
:1040F4004230C300C830C2000030C1000030C000EC
:104104009C31E224A03120004308AD004208AC00F9
:104114004108AB004008AA004530A9001C30A800A3
:104124004030A7000030A60090312220A0312000AA
:1041340029082100AB00200028082100AA00200043
:1041440027082100A900200026082100A800A83182
:10415400A320A03121003635A03E8600013087001F
:104164002808C03F2908C13FC72801302100B807EB
:104174000030B93D3908803AB10080303102031D66
:10418400C5282E303802031C182801302100B60738
:104194000030B73D3708803AB10080303102031D4A
:1041A400D5280530360203180800152820003308E6
:1041B4002300CD00200032082300CC001830F50085
:1041C4000030F6000830F7000030F800B5318725DC
:1041D400A03175082000B60036082300E80022004C
:1041E4006E082000A40022006F082000A500890D9D
:1041F400893B8909A600A70022006A082000B600AE
:1042040022006B082000B7000030B71BFF30B80055
:10421400B9003208BA003308BB000030BB1BFF30C2
:10422400BC00BD003608BA023708BB3B3808BC3BAB
:104234003908BD3B3D08F4003C08F3003B08F2009C
:104244003A08F1000030F8000030F7000330F600BF
:10425400E830F500B431EB24A03174082000AB0041
:104264007308AA007208A9007108A800AB31612381
:10427400A03120002408BE002508BF002608C00085
:104284002708C1000430C200C137C00CBF0CBE0CEB
:10429400C20B46293E08C3004308C4001830F50089
:1042A4000030F6000930F7000030F8004408B6008A
:1042B400B7013608F9003708FA00B331DC23A0311E
:1042C4002000C501C60146088500450884008435E0
:1042D400850D84308407B930853D003FB600013F29
:1042E400B7003508803AB8003708803A3802031D11
:1042F4007D2936083402031C8D2920004508B600A8
:10430400B60EB60DB60D23006808200036063F39F8
:1043140036062300E80001302000C5070030C63D02
:1043240000304602033003194502031C6529183086
:10433400F5000030F6000830F7000030F8002300E4
:1043440068082000B600B7013608F9003708FA00FB
:10435400B331DC2308002100B101B2012100313561
:10436400A03E860001308700403F2000EE00413F20
:10437400EF006E08F1006F08F200890D893B89098E
:10438400F300F4000130AB31E323A13174082100C0
:10439400A7007308A6007208A5007108A4002300F2
:1043A4004708F4004608F3004508F2004408F10009
:1043B4000130AB31E323A13174082000AD00730850
:1043C400AC007208AB007108AA003930A9001130A2
:1043D400A800A230A700B430A60090312220A13159
:1043E400200029082100A300200028082100A200A1
:1043F400200027082100A100200026082100A00099
:10440400B5311D25A13121002308AB002208AA00E3
:104414002108A9002008A800A831A320A131210067
:104424003135A03E8600013087002808C03F2908A6
:10443400C13F3135A03E860001308700403F200057
:10444400EE00413FEF006E08F1006F08F200890DA5
:10445400893B8909F300F4000130AB31E323A13136
:1044640074082000AD007308AC007208AB0071083A
:10447400AA004230A900C830A8000030A7000030CC
:10448400A60090312220A13120002908C700280865
:10449400C6002708C5002608C4004530C3001C30E8
:1044A400C2004030C1000030C0009C31E224A13180
:1044B400200043082100AB00200042082100AA008C
:1044C400200041082100A900200040082100A80084
:1044D400A831A320A13121003135203E86000230CD
:1044E40087002808C03F2908C13F0130B1070030C8
:1044F400B23D3208803A2000EE0080306E02031D87
:10450400862A05302100310203180800B029200052
:1045140033082300CB00200032082300CA001830DF
:10452400F5000030F6000830F7000030F800B5312F
:104534008725A23175082000B60036082300E8005C
:1045440022006E082000A40022006F082000A500AD
:10455400890D893B8909A600A70022006A0820006A
:10456400B60022006B082000B7000030B71BFF30F4
:10457400B800B9003208BA003308BB000030BB1BD6
:10458400FF30BC00BD003608BA023708BB3B380810
:10459400BC3B3908BD3B3D08F4003C08F3003B0834
:1045A400F2003A08F1000030F8000030F700033060
:1045B400F600E830F500B431EB24A2317408200091
:1045C400AB007308AA007208A9007108A800AB31F7
:1045D4006123A23120002408BE002508BF0026085C
:1045E400C0002708C1000430C200C137C00CBF0C92
:1045F400BE0CC20BF72A3E08C3004308C4000130B6
:10460400B6003608C4071830F5000030F6000A304A
:10461400F7000030F8004408B600B7013608F90086
:104624003708FA00B331DC23A2313F302300E80518
:104634002000C501C601460885004508840084356C
:10464400850D8C308407B930853D003FB600013FAD
:10465400B7003508803AB8003708803A3802031D9D
:10466400352B36083402031C452B20004508B600C0
:10467400B60EB60DB60D23006808200036063F3985
:1046840036062300E80001302000C5070030C63D8F
:1046940000304602033003194502031C1D2B183059
:1046A400F5000030F6000830F7000030F800230071
:1046B40068082000B600B7013608F9003708FA0088
:1046C400B331DC230800F301283086000030870072
:1046D400473FF100F11F8F2B2000A809A909AA095F
:1046E400AB09AC09AD09AE09AF09A80A031D8D2BAE
:1046F400A90A031D8D2BAA0A031D8D2BAB0A031DCA
:104704008D2BAC0A031D8D2BAD0A031D8D2BAE0A18
:10471400031D8D2BAF0AF301F30A2030860000300D
:104724008700473FF100F11FB62B2000A009A10923
:10473400A209A309A409A509A609A709A00A031D9A
:10474400B62BA10A031DB62BA20A031DB62BA30A7E
:10475400031DB62BA40A031DB62BA50A031DB62BF5
:10476400A60A031DB62BA70A200020082104220450
:104774002304240425042604270403190E2CF2011F
:10478400F20AA71BD22BA035A10DA20DA30DA40DD7
:10479400A50DA60DA70D0130F1007108F207C32B7A
:1047A40027082F02031DF02B26082E02031DF02BD1
:1047B40025082D02031DF02B24082C02031DF02BC9
:1047C40023082B02031DF02B22082A02031DF02BC1
:1047D40021082902031DF02B20082802031C022CA7
:1047E4002008A8022108A93B2208AA3B2308AB3BC6
:1047F4002408AC3B2508AD3B2608AE3B2708AF3B5D
:10480400A736A60CA50CA40CA30CA20CA10CA00CFE
:104814000130F202031DD22B730803192F2CA809AF
:10482400A909AA09AB09AC09AD09AE09AF09A80ADF
:10483400031D2F2CA90A031D2F2CAA0A031D2F2C9C
:10484400AB0A031D2F2CAC0A031D2F2CAD0A031D2C
:104854002F2CAE0A031D2F2CAF0A20002808A0001D
:104864002908A1002A08A2002B08A3002C08A400F0
:104874002D08A5002E08A6002F08A7000800220076
:10488400E71B482CFD30E805FF30E9056708803A4E
:104894002000BA0080303A02031D532C013022005C
:1048A400660203185B2C01302000BB000030BC0002
:1048B400632C220067082000BC0022006608200048
:1048C400BB00220065082000BE002200640820000E
:1048D400BD003208BF003308C0003408C1003508E9
:1048E400C2003608C3003708C4003808C5003908B8
:1048F400C6001F30C7000030C8002400CD01072DBA
:104904003F0840044104420443044404450446046B
:10491400031DA62C3C08803ABA0080303A02031DDD
:10492400952C01303B020318A62C20003E08803A47
:10493400BA0080303A02031DA12C01303D02031C51
:104944000C2D2200E81C0C2DFF302000C707FF307F
:10495400C83D0A30A000A101A201A301A401A50140
:10496400A601A7013F08A8004008A9004108AA0021
:104974004208AB004308AC004408AD004508AE0053
:104984004608AF00A9310921A43120002008303E97
:10499400BA0047082E3E8600023087003A0881009C
:1049A400FF30BB07FF30BC3DFF30BD07FF30BE3DCD
:1049B4000A30A000A101A201A301A401A501A6013E
:1049C400A7013F08A8004008A9004108AA0042081E
:1049D400AB004308AC004408AD004508AE004608EF
:1049E400AF00AA316822A43120002008BF002108AA
:1049F400C0002208C1002308C2002408C3002508FF
:104A0400C4002608C5002708C6002000470848043B
:104A1400031D822C20003108A7003008A600470897
:104A24002E3EBA003A08A8003E08AA003D08A90094
:104A3400B631B32620002708B1002608B0000800CC
:104A44002200E71B292DFD30E805FF30E905670842
:104A5400803A2000BA0080303A02031D342D013020
:104A64002200660203183C2D01302000C2000030F1
:104A7400C300442D220067082000C30022006608FA
:104A84002000C200220065082000C700220064083C
:104A94002000C6003208C8003308C9003408CA0020
:104AA4003508CB003608CC003708CD003808CE00D6
:104AB4003908CF001F30D0000030D1002400CD01D0
:104AC4002000C401C501D92D2000480849044A0426
:104AD4004B044C044D044E044F04031D8B2D43081A
:104AE400803ABA0080303A02031D7A2D0130420226
:104AF40003188B2D20004708803ABA0080303A0210
:104B0400031D862D01304602031CE42D2200E81CFF
:104B1400E42DFF302000D007FF30D13D0730480599
:104B2400C40000304905C5004408303EBA005008AE
:104B34002E3E8600023087003A088100FF30C2070B
:104B4400FF30C33DFF30C607FF30C73D4830860005
:104B540000308700403FBA00413FBB00423FBC00E9
:104B6400433FBD00443FBE00453FBF00463FC00039
:104B7400473FC10003302000C136C00CBF0CBE0C3F
:104B8400BD0CBC0CBB0CBA0C890BBD2D200041081C
:104B9400CF004008CE003F08CD003E08CC003D08C1
:104BA400CB003C08CA003B08C9003A08C8005108B9
:104BB400803ABA0080303A02031DE22D01305002DF
:104BC4000318662D2200681EFD2D200044084504AC
:104BD4000319FD2DFF30D007FF30D13D3030BA002E
:104BE40050082E3E8600023087003A088100FF30CC
:104BF400C607FF30C73D20003108A7003008A600D3
:104C040050082E3EBA003A08A8004708AA004608F1
:104C1400A900B631B32620002708B1002608B00049
:104C24000800F3012030860000308700473FF10080
:104C3400F11F3D2E2000A009A109A209A309A4097E
:104C4400A509A609A709A00A031D3B2EA10A031D55
:104C54003B2EA20A031D3B2EA30A031D3B2EA40ACE
:104C6400031D3B2EA50A031D3B2EA60A031D3B2E46
:104C7400A70AF301F30A2830860000308700473F73
:104C8400F100F11F682E2000A809A909AA09AB099F
:104C9400AC09AD09AE09AF09A80A031D642EA90A1F
:104CA400031D642EAA0A031D642EAB0A031D642E81
:104CB400AC0A031D642EAD0A031D642EAE0A031D47
:104CC400642EAF0A0130F1007108F30674308600D7
:104CD400003087000830F10000301E00F10B6F2E09
:104CE400200020082104220423042404250426048B
:104CF40027040319D32EF201F20AA71B8E2EA03526
:104D0400A10DA20DA30DA40DA50DA60DA70D013097
:104D1400F1007108F2077F2EF435F50DF60DF70D4D
:104D2400F80DF90DFA0DFB0D27082F02031DB42E03
:104D340026082E02031DB42E25082D02031DB42EB1
:104D440024082C02031DB42E23082B02031DB42EA9
:104D540022082A02031DB42E21082902031DB42EA1
:104D640020082802031CC72E2008A8022108A93BFA
:104D74002208AA3B2308AB3B2408AC3B2508AD3BE7
:104D84002608AE3B2708AF3B7414A736A60CA50C27
:104D9400A40CA30CA20CA10CA00C0130F202031D64
:104DA4008E2E73080319F42EF409F509F609F70990
:104DB400F809F909FA09FB09F40A031DF42EF50AA6
:104DC400031DF42EF60A031DF42EF70A031DF42E18
:104DD400F80A031DF42EF90A031DF42EFA0A031D22
:104DE400F42EFB0A74082000A0007508A1007608C0
:104DF400A2007708A3007808A4007908A5007A081F
:104E0400A6007B08A7000800590886008701403FD8
:104E1400F100413FF200BE30F300B930F40003303A
:104E2400F5000030F600B7310427A7317108720489
:104E34000319332F2000590886008701403FF100F1
:104E4400413FF200C230F300B930F4000330F50002
:104E54000030F600B7310427A73171087204031D2E
:104E64007E2F2000590886008701033081074131D5
:104E74000318810A5A088600870101088400850105
:104E84000230810700082100A8008039031DFF308B
:104E9400A900AA00AB00AC00AD00AE00AF0020003A
:104EA4005808B1005708B000210028082000B200BB
:104EB400210029082000B30021002A082000B400A2
:104EC40021002B082000B50021002C082000B6008A
:104ED40021002D082000B70021002E082000B80072
:104EE40021002F082000B9009A3136222000310811
:104EF400D8003008D7000800200059088600870130
:104F0400403FF100413FF200BF30F300B930F400FC
:104F14000230F5000030F600B7310427A7317108DC
:104F240072040319AC2F2000590886008701403F02
:104F3400F100413FF200C330F300B930F400023015
:104F4400F5000030F600B7310427A7317108720468
:104F5400031DFE2F200059088600870102308107B7
:104F640041310318810A5A08860087010108840028
:104F7400850102308107003FDB00013FDC005B0854
:104F84002100A80020005C082100A900890D893BAC
:104F94008909AA00AB00AC00AD00AE00AF00200050
:104FA4005808B1005708B000210028082000B200BA
:104FB400210029082000B30021002A082000B400A1
:104FC40021002B082000B50021002C082000B60089
:104FD40021002D082000B70021002E082000B80071
:104FE40021002F082000B9009A3136222000310810
:104FF400D8003008D7000800883143282000210851
:10500400F2002008F1000A30F3000030F400B3315C
:105014005223A83172082300E3007108E200200043
:105024002308F2002208F1000A30F3000030F400F3
:10503400B3315223A83172082300DF007108DE0067
:1050440020002508F2002408F1000A30F3000030A3
:10505400F400B3315223A83172082300E50071082B
:10506400E40020002708F2002608F1000A30F300CB
:105074000030F400B331522372082300E1007108B8
:10508400E00008002000A201A3011830F500003060
:10509400F6000030F700F800B5318725A83175080F
:1050A400FB007B082000A400A41E6228013023001A
:1050B400DC000030DD0001302000A2000030A3003D
:1050C400241E6E2801302300DA000030DB0001309A
:1050D4002000A2000030A300A41D7A280130230080
:1050E400D8000030D90001302000A2000030A30015
:1050F400241D862801302300D6000030D70001305B
:105104002000A2000030A300A41C92280130230038
:10511400D4000030D50001302000A2000030A300EC
:10512400241C9E2801302300D2000030D30001301B
:105134002000A2000030A3002308A1002208A00040
:105144000800031021002A0D2B0DAC002C08FB00D5
:105154007B08031DB6280030AB000030AA000030E5
:10516400A9000030A80008002808AC002908AD00F8
:105174002A08AE002B08AF001F30AF36AE0CAD0CC2
:10518400AC0C890BBF282C08B0003008FA00AA1711
:10519400FF30A805FF30A905FF30AA050030AB0594
:1051A4009630FB02FB1FE9287B08803A973E031CDC
:1051B400AD280130AB36AA0CA90CA80C890BDC284D
:1051C4000130AC002C08FB070319FA28DB28203037
:1051D4007B020318AD287B080319FA280130A8358F
:1051E400A90DAA0DAB0D890BF1280130FB02ED28A6
:1051F4007A0803190800A809A909AA09AB09A80A89
:105204000319A90A0319AA0A0319AB0A0800200002
:10521400200821042204230424042504260427044A
:1052240003196129F201F20AA71B2529A035A10D52
:10523400A20DA30DA40DA50DA60DA70D0130F1001F
:105244007108F207162927082F02031D432926088F
:105254002E02031D432925082D02031D432924087A
:105264002C02031D432923082B02031D4329220872
:105274002A02031D432921082902031D432920086A
:105284002802031C55292008A8022108A93B22084A
:10529400AA3B2308AB3B2408AC3B2508AD3B2608BE
:1052A400AE3B2708AF3BA736A60CA50CA40CA30C59
:1052B400A20CA10CA00C0130F202031D2529280820
:1052C400A0002908A1002A08A2002B08A3002C088A
:1052D400A4002D08A5002E08A6002F08A70008008A
:1052E400143025009100D32923006708031908000E
:1052F400E701B4311B24A931AD31C325A931200004
:1053040020082100EB006B08ED006D08031908006C
:1053140020001810210011100030F100F200B33108
:10532400FA232300E701E901E90A0800B731AA27B3
:10533400A9310130F1000030F200B331FA23023018
:105344002100EB006B082300E9000800B6312B268E
:10535400A9316400B6316526A9310B302100EC0077
:105364002630EB005D30890BB529EB0BB529EC0B2E
:10537400B529003208007130CC002730CD007F30D1
:10538400CE000030CF000230D000B830D100B331AD
:105394006D23A9317130F2002730F300B331382383
:1053A4000800230069082100EB00EC016C08003AB6
:1053B4000319DD29EB296B08003A03197629013A10
:1053C40003199829033A0319A829013A0319BD2995
:1053D400EB290800003020005A05E20000305B058C
:1053E400E30080305C05E4007F305D05E50065087E
:1053F400640463046204031D072A0030DD000030E6
:10540400DC000030DB000030DA0000305E05E20032
:1054140000305F05E30080306005E4007F30610503
:10542400E5006508640463046204031D212A003056
:10543400E1000030E0000030DF000030DE00DD1F5E
:105444003B2A0030E2000030E3000030E40080300A
:10545400E5005A08E2025B08E33B5C08E43B5D08B4
:10546400E53B6508DD006408DC006308DB006208D6
:10547400DA00E11F552A0030E2000030E30000307A
:10548400E4008030E5005E08E2025F08E33B600868
:10549400E43B6108E53B6508E1006408E00063085B
:1054A400DF006208DE008030DD068030E10661083E
:1054B4005D02031D080060085C02031D08005F080C
:1054C4005B02031D08005E085A0208007230860061
:1054D400003087000830F10000301E00F10B6F2A05
:1054E4002000200821042204230424042504260483
:1054F40027040319D32AFA01FA0AA71B8E2AA03516
:10550400A10DA20DA30DA40DA50DA60DA70D01308F
:10551400F1007108FA077F2AF235F30DF40DF50D49
:10552400F60DF70DF80DF90D27082F02031DB42A07
:1055340026082E02031DB42A25082D02031DB42AB1
:1055440024082C02031DB42A23082B02031DB42AA9
:1055540022082A02031DB42A21082902031DB42AA1
:1055640020082802031CC72A2008A8022108A93BF6
:105574002208AA3B2308AB3B2408AC3B2508AD3BDF
:105584002608AE3B2708AF3B7214A736A60CA50C21
:10559400A40CA30CA20CA10CA00C0130FA02031D54
:1055A4008E2A7208A0007308A1007408A20075086E
:1055B400A3007608A4007708A5007808A600790857
:1055C400A7000800803021003E02003003193D028C
:1055D400031CF72A4B302300C8000030C900FF30F9
:1055E4002100BB00FF30BC0008003C08C7003B089A
:1055F400C60000303E02023003193D02031C0B2B8F
:105604003D08FF3ECA00FF303E3DCB00C801C90142
:10561400132B0130CA000030CB000130C800003029
:10562400C900C6302000E1000030E200210040083B
:105634002000E40021003F082000E300210041088D
:105644002000EA006A08E500B431BA24AA31200037
:1056540062082100C500200061082100C4003D0843
:105664003E04031DC51B5C2B3D08FF3E2000EA00E1
:10567400FF3021003E3D2000EB006B082100450275
:10568400031D482B20006A0821004402031C512BEF
:105694003D08FF3EC200FF303E3DC300552B450888
:1056A400C3004408C20042083B07860043083C3D4F
:1056B400870081014508BC004408BB0008002000A5
:1056C400AD01A71F722BA409A509A609A709A40A5D
:1056D4000319A50A0319A60A0319A70AAD01AD0AFD
:1056E400AB1F832BA809A909AA09AB09A80A0319A6
:1056F400A90A0319AA0A0319AB0A0130F9007908A7
:10570400AD060030B1000030B0000030AF00003012
:10571400AE0027082604250424040319CC2BAC016D
:10572400AC0AA71BA12B0130A435A50DA60DA70D0E
:10573400890B962B0130F9007908AC07932B0130C3
:10574400AE35AF0DB00DB10D890BA22B27082B027E
:10575400031DB62B26082A02031DB62B2508290291
:10576400031DB62B24082802031CC12B2408A802FD
:105774002508A93B2608AA3B2708AB3B2E14013079
:10578400A736A60CA50CA40C890BC22B0130AC02C5
:10579400031DA12B2D080319DA2BAE09AF09B0099B
:1057A400B109AE0A0319AF0A0319B00A0319B10A01
:1057B4003108A7003008A6002F08A5002E08A40071
:1057C40008002000A0002008031DF41FF92B710914
:1057D400A2007209A3007309A4007409A500A20A17
:1057E4000319A30A0319A40A0319A50A012C7408AE
:1057F400A5007308A4007208A3007108A20074082D
:10580400730472047104031D102C0030F400003082
:10581400F3000030F2000030F10008009630F5008B
:105824007508A100FE3025050319372C0130F50059
:105834007508A1070130A536A40CA30CA20C890B92
:105844001D2C142C0130F5007508A1070130A207A6
:105854000030A33D0030A43D0030A53D0130A53605
:10586400A40CA30CA20C890B312CFF3025050319C1
:10587400492C242C02302102031C4B2C0130A102A0
:105884000130A235A30DA40DA50D890B432CA41F33
:105894003C2C2118552CFF30A205FF30A3057F3086
:1058A400A405FF30A5050310A10C2108F500F6019D
:1058B400F701F8011830F535F60DF70DF80D890BE1
:1058C4005D2C7508A2047608A3047708A40478085C
:1058D400A5042008031DF41F702CA5172508F40047
:1058E4002408F3002308F2002208F1000800200035
:1058F400AB01AC01A401A501AA01AA0A770884009E
:10590400780885001200203A03199A2C770884003D
:10591400780885000008F73EA000FF300318003027
:10592400A100003021020530031920020318AA0146
:105934002A08A000A1012008A6002108A700260823
:1059440027040319AF2C0130F7070030F83D7E2CF3
:105954000130A4000030A500E22C77088400780808
:1059640085000008A000A1012108003A0319BB2CFE
:10597400E62C20082B3A0319E22C063A0319AA2C28
:10598400E62C77088400780885000008A0002C081D
:10599400F2002B08F1000A30F3000030F400B331B8
:1059A4005223AC3172082000A20020087102A10029
:1059B400031CA2032108303EAB000030223DAC00A2
:1059C4000130F7070030F83D770884007808850037
:1059D4000008D03EA000FF3003180030A1000030C2
:1059E40021020A30031920020318FA2C0130FB2C7F
:1059F4000030A200A3012208A8002308A900280857
:105A04002904031DC32C24082504031D152D2B096B
:105A1400A0002C09A100A00A0319A10A2008F7007C
:105A24002108F80008002C08F8002B08F7000800EB
:105A340020003208B6003308B7003408B80035082F
:105A4400B9000630B635B70DB80DB90D890B242D44
:105A54003908A7003808A6003708A5003608A400AE
:105A64003208BA003308BB003408BC003508BD0056
:105A74000630BA35BB0DBC0DBD0D890B3B2D003076
:105A8400BE002430BF00F430C0000030C1003A082A
:105A9400BE023B08BF3B3C08C03B3D08C13B41083C
:105AA400AB004008AA003F08A9003E08A800AB319B
:105AB4006123AD3120002508FB002408FA000130E1
:105AC4007B02003003197A02031CB02D3208B600A1
:105AD4003308B7003408B8003508B9000430B635C7
