:020000040000FA
:0400000080313328F0
:100008007E1480312000111C312811100130F200BB
:100018007208F7073D307706031D3128F701760887
:10002800031922287608031D1B2801301C280030DC
:10003800F2007208F6000030F0002E287608031D42
:100048002728013028280030F2007208F600013015
:10005800F0000030F1008131E8217E100900803184
:100068003528F601F701F8017E10200081319F291B
:1000780020002E08B2002F08B3003008B400310861
:10008800B5000630B235B30DB40DB50D890B462851
:100098003508A3003408A2003308A1003208A000E4
:1000A8002E08B6002F08B7003008B8003108B9008C
:1000B8000630B635B70DB80DB90D890B5D2800307F
:1000C800BA002430BB00F430BC000030BD00360854
:1000D800BA023708BB3B3808BC3B3908BD3B3D0872
:1000E800A7003C08A6003B08A5003A08A4008031F8
:1000F800E520803120002108F5002008F4000130B7
:100108007502003003197402031CD2282E08B200AD
:100118002F08B3003008B4003108B5000430B235F8
:10012800B30DB40DB50D890B93283508A300340819
:10013800A2003308A1003208A0002E08B6002F083C
:10014800B7003008B8003108B9000430B635B70D2B
:10015800B80DB90D890BAA280030BA002430BB00AD
:10016800F430BC000030BD003608BA023708BB3B8B
:100178003808BC3B3908BD3B3D08A7003C08A60031
:100188003B08A5003A08A4008031E5208031200012
:100198002108F5002008F40023001E15013075021F
:1001A80000300319740203180800740823009B0028
:1001B8001E129D1721008E170E1723001D169E165E
:1001C80008002000A901A31FF628A009A109A20977
:1001D800A309A00A0319A10A0319A20A0319A30A69
:1001E800A901A90AA71F0729A409A509A609A709FA
:1001F800A40A0319A50A0319A60A0319A70A0130B4
:10020800F3007308A9060030AD000030AC000030E0
:10021800AB000030AA00230822042104200403199B
:100228005029A801A80AA31B25290130A035A10D32
:10023800A20DA30D890B1A290130F3007308A80732
:1002480017290130AA35AB0DAC0DAD0D890B262948
:1002580023082702031D3A2922082602031D3A29EA
:1002680021082502031D3A2920082402031C4529D8
:100278002008A4022108A53B2208A63B2308A73B87
:100288002A140130A336A20CA10CA00C890B462914
:100298000130A802031D2529290803195E29AA0986
:1002A800AB09AC09AD09AA0A0319AB0A0319AC0AD0
:1002B8000319AD0A2D08A3002C08A2002B08A100E1
:1002C8002A08A000080021000D1123000D112100AB
:1002D8008D1523008D110E128E1221000E168E160A
:1002E8000C128C12101055303C008F00AA308F0071
:1002F8000F103D002408E0391138A4003C00210803
:10030800E0391438A1002008E0391538A0003D0074
:100318002508E0391038A5001A08E03914389A0081
:100328003C002408E0390B38A40055308F00AA306F
:100338008F000F14080082314322813181316721F7
:10034800813182311A22813100302000B100003021
:10035800B0004B30AF000030AE0080313C2081311E
:1003680082312A22813182313E2281310030F300EC
:10037800F4008131C72181318231482281318231B3
:1003880009228131C329D72922000C128C16101496
:10039800080022000C168C121014080022000C16FB
:1003A8008C16101008007408003A0319DC29E72994
:1003B8007308003A0319C829013A0319CD29033AE9
:1003C8000319D229E7290800F82922000C128C16F3
:1003D8001014080022000C168C12101408002200B9
:1003E8000C168C16101008007108003A0319FD2924
:1003F800082A7008003A0319E929013A0319EE2975
:10040800033A0319F329082A08000030003A0319AF
:100418000E2A192A0030003A0319192A013A031939
:10042800192A033A0319192A192A08002400150859
:10043800F039083895009516273092003430F300CB
:10044800F230890B252AF30B252A0800CF3020002B
:100458009805960197011814210011140B178B1792
:1004680008002100191099109915191699161917CD
:100478009913080022000C168C16101408008231FB
:0A0488003522080002340034080099
:020000040001F9
:04000E00A4D9FFDE94
:00000001FF
